:020000040800F2
:1000000000200020653D0008EFD40108EFD401086E
:1000100095190208EFD40108EFD40108EFD40108C4
:10002000EFD40108EFD40108EFD40108EFD40108A0
:10003000EFD40108EFD40108EFD40108EFD4010890
:10004000EFD40108EFD40108EFD40108EFD4010880
:100050009D5D0008EFD40108EFD40108EFD401083A
:10006000EFD40108EFD40108EFD4010821340008CF
:1000700011340008EFD40108EFD40108EFD40108CF
:10008000EFD40108EFD40108EFD40108EFD4010840
:10009000EFD40108EFD40108BD490008EFD40108EE
:1000A000EFD40108EFD40108814400085944000846
:1000B000EFD40108EFD4010879A7010825B201089F
:1000C000B34A0208AF4A0208D9A90108C94A02087E
:1000D000B74A0208F5B10108BB4A020889B2010813
:1000E000C1B20108EFD40108EFD4010849C30008E8
:1000F000EFD401082B090208EFD40108EFD401085E
:10010000EFD40108EFD40108EFD40108EFD40108BF
:10011000EFD40108EFD40108EFD40108EFD40108AF
:10012000EFD40108EFD40108EFD40108EFD401089F
:10013000EFD40108EFD40108EFD40108EFD401088F
:10014000EFD40108EFD40108EFD40108EFD401087F
:10015000EFD40108EFD40108216C0208658C010876
:10016000EFD40108EFD401084D4A0208534A0208AF
:10018000194A5AB3194BDB6913F0040F29D110B483
:100190000AE003EA00048C4210D0013AB2B1134BDA
:1001A000DB6913F0040F14D110F0010FF1D1104CE2
:1001B0001C40002CEDD06FF001000CE00C4A1A40FE
:1001C0000AB9002007E06FF0010004E06FF00200C0
:1001D00001E04FF0FF305DF8044B70476FF0020014
:1001E00070474FF0FF307047809698000000035032
:1001F000020001000D4BDB6913F4803F12D170B592
:100200000A4B03F580560124F46003F500552C6475
:100210004FF480721A6100212046FFF7B1FF346469
:10022000EC6070BD6FF00100704700BF000003502C
:1002300010B5124B4FF480329A6603F51C33DC691B
:10024000144041F67132DA6303F580520121D16026
:10025000586102221A6100212120FFF791FF40B16D
:10026000074B0122DA601CB1A3F500530022DA63C8
:1002700010BD00212120FFF783FFF1E7009000501F
:100280000020035038B51A4B5861DB6913F0040F96
:100290002AD10C4654F8041B154B9961151F06E032
:1002A000214651F8042B124B9A61043D0C465DB176
:1002B00008210846FFF764FF03460028F0D00C4AE7
:1002C00004211161184638BD094B04221A6100212E
:1002D0002120FFF755FF03460028F3D100212120FC
:1002E000FFF74EFF0346EDE74FF0FF33EAE700BFAD
:1002F000000003502DE9F0410F46164605461A4B03
:100300004FF480329A6603F51C33DA6902F48038C0
:1003100041F67132DA6303F580530122DA6000237B
:1003200002E025442744361B8EB105F5005424F421
:10033000FF5424F01F04641BB44228BF34462246F5
:1003400039462846FFF79EFF03460028E9D0074AB2
:100350000121D160B8F1000F03D0A2F500520021B5
:10036000D1631846BDE8F081009000500020035092
:10037000000000000000000000000000000000007D
:10038000013800D0FCE770472DE9F04F2DED028BCE
:1003900093B082460C4693461D4657EC106B8DED8C
:1003A000080B32463B46304639461BF05DFC0028C0
:1003B00000F009814FF0FF32B14B304639461BF057
:1003C0007BFC002840F0FF804FF0FF326FF4801379
:1003D000304639461BF052FC002840F0F4800022E1
:1003E0000023DDE90867304639461BF047FC00284A
:1003F00040F0FC809DED087B8DED067B209B13F487
:100400008063119301D106231E93DDE906010246A4
:10041000C1F30A50C1F31303904643F07F5949F4E6
:100420004019A0F2FF301BF04DF983A3D3E900235C
:100430001BF0B2F982A3D3E900231AF0F7FF0646B6
:100440000F4600228F4B404649461AF0EDFF7EA32F
:10045000D3E900231BF0A0F902460B46304639468B
:100460001AF0E4FF1BF032FC06461BF02BF9804625
:10047000894677A3D3E900231BF08EF90022824B33
:100480001AF0D4FF1BF022FC074673A3D3E9002324
:10049000404649461BF080F98046894638461BF0A5
:1004A00011F96FA3D3E900231BF076F902460B463E
:1004B000404649461AF0B8FF8046894602460B4638
:1004C0001BF06AF9CDE90C0107F2FF370021002289
:1004D000CDE90A123B050B9300230A9342464B4693
:1004E000404649461AF0A2FFCDE90E0142464B466E
:1004F00000204FF080411AF097FF80468946002285
:10050000624BDDE90C011BF071FA0022604B1AF01E
:100510008DFF02460B46DDE90C011BF067FA002255
:100520005C4B1AF083FF02460B46DDE90C011BF021
:100530005DFA02460B46404649461AF077FF0246EE
:100540000B46DDE90E011BF051FA0022524B1AF066
:100550006DFFDDE90A231BF01FF98046894649EC4F
:10056000188BDDE906231BF0A7FB40B1013E0022FA
:10057000474B404649461BF039FA41EC180B06F14F
:100580006303C62B3BD80427209B13F4006F40D095
:1005900035A3D3E90023DDE90689404649461BF02F
:1005A00081FB00283BD032A3D3E9002340464946D3
:1005B0001BF064FB002832D01E9BB34221DD9E1B42
:1005C000731E1E931FE0209B02931F9B01931E9B93
:1005D00000939DED080B2B465A462146504600F0ED
:1005E000CBF813B0BDEC028BBDE8F08F9FED227B02
:1005F0008DED067B069607F100430793FEE605277F
:10060000C2E700231E93209B43F4806320930027BE
:100610003E461F9B9F4241D2A3EB070840E01E9B32
:10062000002BF6D0119B002BF3D01E9B013B1E9399
:10063000EFE700BFAFF30080FB799F501344D33F37
:10064000B3C8608B288AC63F61436F63A787D23FD8
:1006500071A379094F930A401655B5BBB16B02409F
:10066000EF39FAFE422EE63F2D431CEBE2361A3FED
:100670000000000080842E41000000000000000007
:10068000FFFFEF7F0000F83F0000E03F00002C403C
:1006900000002440000018400000F03F4FF0000828
:1006A000209B13F0020902D00FB14FF000083EB1B9
:1006B00053EC182BDDE906011BF098F9CDE9060192
:1006C00000220023DDE908011BF0D8FA00283BD105
:1006D000209B23F400630293CDF804801E9B0093BB
:1006E0009DED060B2B465A462146504600F044F835
:1006F000002F3FF476AF209B13F0200F2CD04FF04B
:10070000450C00F101082B46024621466046D047C1
:1007100086EAE672A2EBE67205230593013F049791
:10072000002303930A230293F30F019300922B46B5
:1007300042462146504622F0B0FDB9F1000F3FF489
:1007400050AF02461F9F10E0DDE90601024601F1AD
:100750000043CDE90623BBE74FF0650CD1E7561CFB
:100760002B4621462020D0473246A2EB0B03BB424A
:10077000F5D3104635E700BF2DE9F04F2DED028B84
:1007800093B00590089192469B4659EC108B1E9DA4
:1007900042464B46404649461BF066FA002840D088
:1007A0004FF0FF326FF48013404649461BF066FA63
:1007B000002845D14FF0FF32B14B404649461BF06F
:1007C0007BFA00284BD1AAA3D3E90023404649462F
:1007D0001BF072FA00285AD1A7A3D3E900234046A0
:1007E00049461BF04BFA002851D100220023404615
:1007F00049461BF043FA002857D100230993209B58
:1008000013F4806F5CD000241F2C5BD8092D59D9BC
:1008100004F148036B44302203F8202C013D0134DD
:10082000F2E7209B03931F9B029303230193954BB5
:1008300000935B4652460899059822F054FC10E15B
:10084000209B03931F9B0293042301938E4B0093E1
:100850005B4652460899059822F045FC01E1209B31
:1008600013F004030FD0894A7BB10423209903912C
:100870001F990291019300925B4652460899059890
:1008800022F031FCEDE0824AEEE70323EEE7209B05
:1008900002931F9B0193009549EC108B5B465246D7
:1008A00008990598FFF770FDDBE042464B460020B3
:1008B00000211AF0B9FD80468946012309939EE77D
:1008C0000625A0E7404649461BF000FA06461AF006
:1008D000F9FE02460B46404649461AF0A5FD6D4B0F
:1008E00003EBC50393ED008B53EC182B1AF054FF68
:1008F00002460B46CDE906231BF010FA07461AF014
:10090000D1FE02460B46DDE906011AF08DFD0246D6
:100910000B46CDE9062300225F4B1BF0CDF950B307
:10092000013738461AF0BEFE02460B4651EC180B52
:100930001BF0AEF908B10136002755BB30461AF05E
:10094000C1FE02460B46404649461AF06DFD804600
:1009500089460022504B1BF091F938B100224E4BD2
:10096000404649461BF0A8F9002842D016F0010F76
:100970003FD001363DE00022474BDDE906011BF088
:100980007DF90028D9D117B117F0010FD5D0013763
:10099000D3E71F2C17D8013D404BA3FB0723DB08EF
:1009A000194603EB8303A7EB4303621C303304F1C6
:1009B00048000DEB000404F8203C092F02D90F4633
:1009C0001446E6E714461F2C0AD86B1E45B104F105
:1009D00048026A44302102F8201C1D460134F2E727
:1009E0001F2C06D804F148036B442E2203F8202C58
:1009F00001341F2C17D82A4A82FB0632F317C3EBA7
:100A0000A2031A4603EB8303A6EB4303611C3033B6
:100A100004F148000DEB000404F8203C16460AB12E
:100A20000C46E6E70C46209B03F00303012B39D06C
:100A30001F2C09D8099B002B51D004F148036B44AB
:100A40002D2203F8202C0134209B03931F9B02933B
:100A500001940AAB00935B4652460899059822F030
:100A600042FB13B0BDEC028BBDE8F08FAFF300800A
:100A70000000000065CDCD410000000065CDCDC176
:100A8000FFFFEF7F60890208648902085489020829
:100A90005C890208708902080000E03FCDCCCCCC14
:100AA000676666661F9BB3B1099B1BB9209B13F059
:100AB0000C0F12D01F9B013B1F93194606E004F157
:100AC00048036B44302203F8202C01348C42AFD20F
:100AD0001F2CF4D9ACE71F99F8E71F99F6E7209B84
:100AE00013F0040F07D004F148036B442B2203F8E2
:100AF000202C0134A8E7209B13F0080FA4D004F1A8
:100B000048036B44202203F8202C01349CE700BFEB
:100B100038B50D46044625F0B7FD064A13889BB24A
:100B20002DB123431380BDE8384025F0A8BD23EA4A
:100B30000403F7E72C4B00200022034B01214FF464
:100B400080709A70E4E700BF2C4B00207FB54E68A0
:100B500002A9044623F03BFA9DF808300C2B19D16A
:100B6000134BB3F90050134B9E4218D807F0EEFA1E
:100B700003460068694600909B882046ADF8043023
:100B800023F012FA70B140F25F620B490B480DF08E
:100B90004BFBFEE7204613F049F90546E3E71EF05C
:100BA00030FEE5E72946204623F0E4F904B070BDA5
:100BB00002510020FFC99A3B198C0208E4890208FF
:100BC000002330B5134C85B0CDE90133039323786E
:100BD0008DF8043025F058FDA288E38805469A4236
:100BE0000DD0E188A06801AAA18023F079F858B15E
:100BF00040F2DA62084909480DF016FBFEE7A068EA
:100C000023F047F80128ECD0284625F038FD05B040
:100C100030BD00BF50550020198C0208E48902083D
:100C200038B50F4C656835B940F2C7720D490E48AA
:100C30000DF0FAFAFEE722F005FC284410F044FA21
:100C400000F00700032809D164680921204622F03A
:100C500015FD205C031F5842584138BD0020FCE7B9
:100C60002C4B0020198C0208E489020808B5114BAE
:100C70009A78042A06D040F28E520F490F480DF0A0
:100C8000D3FAFEE71B881B0706D440F28F520A49AD
:100C90000A480DF0C9FAFEE700210820FFF738FFE7
:100CA0000222074B98681A7312F07AFEBDE80840DA
:100CB00020F0CCBF2C4B0020198C0208E4890208DC
:100CC0005055002010B5084CA06812F069FEA068CD
:100CD00022F0DFFF012806D00122A0681146BDE8FE
:100CE000104022F0D8BF10BD5055002038B5194D26
:100CF000AB7833B140F22B72174918480DF094FAD3
:100D0000FEE725F0C1FC2988044611F0060109D050
:100D100001214FF48070FFF7FBFE2046BDE838400C
:100D200025F0ADBC4FF48070FFF7F2FE11F08AFFA2
:100D3000012805D010F0FD0F05D1FFF741FFECE7CA
:100D4000FFF7C0FFE9E740F24172034903480DF0A5
:100D50006BFAFEE72C4B0020198C0208E48902088C
:100D600070B50446064D95F90860FFF7BFFF11F016
:100D700067FE314620466A68BDE8704011F098BCB5
:100D80002C4B002008B50A4B1B88DB0606D440F22A
:100D9000A752084908480DF047FAFEE70021102045
:100DA000FFF7B6FE11F0CAFFBDE8084020F04EBFC5
:100DB0002C4B0020198C0208E48902080D4B10B559
:100DC0001B8804469B0713D500210220FFF7A0FED5
:100DD000094B5A7BFF2A06D040F2E54207490848F2
:100DE0000DF022FAFEE75C73BDE8104020F02EBF44
:100DF00010BD00BF2C4B002050550020198C02085C
:100E0000E48902087047704707B5ADF8061001463F
:100E100030B94FF4B572104910480DF005FAFEE7ED
:100E2000BDF8063033B940F26B120B490B480DF098
:100E3000FBF9FEE70A4B0DF10602986823F07EF9F4
:100E400030B140F26D12044904480DF0EDF9FEE7AF
:100E500003B05DF804FB00BF198C0208E4890208A6
:100E60005055002010B50E4CA37833B14FF4EA7200
:100E70000C490D480DF0D8F9FEE7606019B1A17B6F
:100E8000003918BF01212020FFF742FE074B084818
:100E90009B7B23760223A370BDE810400FF0E0BFD8
:100EA0002C4B0020198C0208E489020850550020C0
:100EB000484B002008B50BF0E5FC80F00100C0B203
:100EC00008BD0A4B9A780AB1062A0CD11B8803F494
:100ED0008B7343B9064B5A7BFF2A04D1187BFF382A
:100EE00018BF012070470120704700BF2C4B002025
:100EF0005055002008B50BF0B5FC0028FBD108BD0B
:100F00000C4B42889A8142789A730278DA7382880D
:100F10001A82C2885A82C2685A61017A064A91735B
:100F2000028A998C914204D001214FF400709A8476
:100F3000EEE570472C4B002050550020094B9A8954
:100F400042809A7B4270DA7B02701A8A82805A8AC7
:100F5000C2805A699B8CC260034A0382927B0272F0
:100F6000704700BF2C4B0020505500204B1E012B1A
:100F700070B50C4606D940F2B7221A491A480DF04E
:100F800053F9FEE7194D0A460146A86823F000F917
:100F900030B140F2B922134913480DF045F9FEE78C
:100FA000AE680FF0D1FE22460146304623F0EAF843
:100FB00030B140F2BD220B490B480DF035F9FEE788
:100FC000AD680FF0CDFE22460146284623F0E6F834
:100FD00030B140F2C122034903480DF025F9FEE784
:100FE00070BD00BF198C0208E4890208505500202A
:100FF000054BDB7B1B0913F00E0003D0052B8CBFC8
:1010000000200120704700BF50550020044BDB7BBF
:101010001B0913F00E0F0CBF01200020704700BF0A
:10102000505500202DE9F04F15469A0580461F4681
:101030008FB003D501218020FFF76AFDEB014FF04F
:10104000000955D5984C23889E0751D5974E737B40
:10105000FF2B06D040F2AF42954996480DF0E4F8D8
:10106000FEE7636833B94FF49662914991480DF0F9
:10107000DBF8FEE749460220FFF74AFDA37886F831
:101080000D90042B03D101210820FFF741FD00231F
:10109000B06808A98DF82C3022F09BFF30B140F2E7
:1010A000BA42834983480DF0BFF8FEE7FFF7A0FF7F
:1010B000B0B922F0C7F98146606822F0CEF908A9DC
:1010C0008144B068ADF8249022F086FF30B140F240
:1010D000C242774977480DF0A7F8FEE7089BA36264
:1010E000A378032B02D1B06812F05AFC20F0AEFDB9
:1010F000B80702D50120FFF761FE15F0A84F02D016
:101100000220FFF75BFEA90220D50021402003AC9E
:10111000FFF7FEFC2146404623F058F8B0B99DF891
:10112000143008AA022B22D18DF82830BDF80C30DB
:10113000ADF82030104611F08DFC38B1404623F058
:1011400043F818B901214020FFF7E2FC2A0753D5E4
:10115000564E0321B06803AA22F0F2FF814688B9F7
:1011600040F2FE42524953480DF05EF8FEE7032B71
:1011700005BF8DF82830D4E900018DF82800C2E9B8
:101180000001D7E79DF80C30B068072B40F01F81B5
:10119000494608AA22F0D6FF30B140F20152444934
:1011A00044480DF041F8FEE7FFF722FFBDF80E209E
:1011B000A0B9FFF72BFF78B1043292B2B06808A94A
:1011C000ADF8242022F0C0FF40B140F2125238495D
:1011D00038480DF029F8FEE70232EEE7BDF80E00C0
:1011E0000121073080B225F07BF98246002842D1E8
:1011F00001210C2012F068FBA90705D52A4B1B889A
:101200001A0701D5FFF732FDAB010BD500210420F1
:10121000FFF77EFC244B9B78012B03D1234B98686E
:1012200012F0BEFB15F0284F03D000210420FFF779
:101230006FFC7E060CD51C4C23881D0701D5FFF7DB
:1012400015FD2388580703D500210420FFF760FC13
:10125000F90540F1D88003A9404608AA22F017FDFD
:101260000146002800F0BA8040F2D25210491148DD
:101270000CF0DAFFFEE74FF0000B25F0B5F8CDF8E3
:1012800000B00246BDF80E3004464946B06822F070
:101290005FFFBDF80E3083420ED040F22252044967
:1012A00004480CF0C1FFFEE72C4B002050550020F5
:1012B000198C0208E489020822F0C4F820440FF0D7
:1012C00003FF00F007000228DFF8589124D199F8B5
:1012D0000230042B90D122F0B5F8504B2044827894
:1012E0001B789A4288D159460820FFF711FC22F05A
:1012F000A9F820440FF0E8FE9DF82E30C0F300104E
:10130000307389F80830FFF78BFC00287FF474AF46
:10131000B06812F045FB6FE722F094F820440FF01C
:10132000D3FE83064AD522F08DF820440FF0CCFE80
:1013300000F0070003280BD10921204622F09EF976
:1013400014F800B0ABF1040CDCF1000B4BEB0C0B10
:1013500001210420FFF7DCFBB06822F00CFFC9F884
:101360002C00BBF1000F30D0B9F8003058062CD556
:1013700000214020FFF7CCFB0126BDF80E309DF880
:101380002E200120E254BDF80E309DF82F2023447A
:101390009A71BDF80E10089A013121440FF0A2FE97
:1013A000BDF80E3050461C44667125F0F1F81C4B18
:1013B00018780FF05BFE20F049FC1DE799F8023029
:1013C000012B02D1B06812F0EBFA0026D5E722F02B
:1013D0009BFE4946B06822F0B9FE0DE79DF80C303F
:1013E00003F0BF02032A01D0022B0FD10D4C23883A
:1013F0005A0702D50420FFF78BFB23889B0702D5F1
:101400000120FFF7DBFC0FB0BDE8F08F4FF4BF62A7
:10141000054906480CF008FFFEE700BF994B002085
:10142000BC4A00202C4B0020198C0208E4890208D9
:1014300008B50246FFF7DCFD30B1072A06D80020C8
:10144000034B83F8302008BD7020FCE70220FAE748
:101450002C4B002008B50246FFF7CAFD28B100203A
:10146000034B93F83030137008BD7020FCE700BFC9
:101470002C4B002008B5074B01460022986822F04B
:1014800087FE30B140F2EB22034904480CF0CCFE59
:10149000FEE708BD50550020198C0208E4890208B7
:1014A00008B5074B01460022986822F06BFE30B168
:1014B00040F2F122034904480CF0B6FEFEE708BDF5
:1014C00050550020198C0208E489020808B5074B22
:1014D0000146986822F068FE30B140F2F7220449D4
:1014E00004480CF0A1FEFEE708BD00BF50550020E7
:1014F000198C0208E489020808B5074B9B7833B1C0
:1015000040F20132054906480CF08EFEFEE7BDE8C8
:101510000840FFF7EBBB00BF2C4B0020198C0208E2
:10152000E489020808B5054B0146986822F022FDBF
:10153000002814BF8B20002008BD00BF505500209C
:10154000014B986812F072BC50550020014BD888AE
:10155000704700BF505500207FB50123ADF80E3015
:101560004FF6FE7309480093806800230DF10E02C8
:1015700004A922F08CFC212800D020B9BDF810006D
:1015800007B05DF804FB4FF6FF70F9E750550020F7
:1015900008B5044B0146986822F02DFCB0FA80F0A3
:1015A000400908BD5055002038B50B4D0446AB78B6
:1015B000012B0DD8FFF7ECFF60B1084BDC80AB7856
:1015C0001BB9FFF793FB002038BDFFF7F9FAFAE7E4
:1015D0003E20F9E78A20F7E72C4B002050550020E9
:1015E000024B9B780BB9FFF781BB70472C4B002057
:1015F000014BD873704700BF2C4B002008B5064B39
:101600004FF0FF31986822F06FFB0028B8BF03301D
:1016100040F3870008BD00BF5055002008B5044BBB
:10162000986822F0E4FB034BB3FBF0F080B208BDF6
:101630005055002040420F0030B58DB02C2204469A
:10164000002101A823F0CDFA01234FF002328DF8DA
:1016500008306423CDE9032306930B238DF82C3047
:10166000214B9B8CADF80A30FFF7C2FCA8B140F2C9
:10167000F23307934FF47A7305930CB9FFF722FB0B
:101680001A4D01A9A86812F0A5FCC0B140F2AC62E5
:10169000174918480CF0C8FDFEE7FFF7BFFF0C2301
:1016A0004343902B0793A3F10A02D8BF91230592DD
:1016B000D8BF0793059B8B2BDFD88C23DCE7FFF784
:1016C000A5FC60B10122A868114622F07BFD30B173
:1016D00040F2AF62064907480CF0A6FDFEE70CB9E0
:1016E000FFF704FB0DB030BD2C4B002050550020FF
:1016F000198C0208E4890208F8B524F0C5FF554C9E
:1017000006462388D90503D5A37843BBFFF7EEFA35
:10171000514D6B7BFF2B13D06B7B03F0FF0723BB7B
:10172000FF236B73A378032B0AD100233046A370E9
:1017300024F0A5FF3846FFF713FB24F0A5FF06466B
:10174000A378042B08D12B7BFF2B05D02B7B022BFE
:1017500014D142480FF084FBFF232B7327E00021B4
:101760004FF48070FFF7D4F9D2E76B7B012B4FF079
:10177000FF0314BF89278D276B73D6E72B7B13B12B
:101780002B7B012B1ED1FFF74BFA0022FF212B7B75
:101790000746DBB222772973002847D0012B0AD1F4
:1017A00064212E48A3700FF066FBFFF709FA30465C
:1017B00024F065FF06E03046A27024F060FF31207F
:1017C000FFF7CEFA23881A0608D500218020FFF7FC
:1017D0009FF9A86822F039FC11F091FA23889B0543
:1017E00007D54FF400700021FFF792F90020FFF7B2
:1017F00023FF0BF037F8608620B324F0F5FD0121BC
:101800000546002012F060F8A678012E14D10026BB
:101810002677A670FFF76AFA284610F06BFEA378C9
:1018200066867BB9BDE8F84011F00AB9A070304671
:1018300024F025FF3846C3E72EB1284610F05AFEA3
:1018400000236386F8BDFFF751FA284610F052FED8
:101850006686F7E72C4B002050550020484B0020AF
:101860008B4BF0B51B888B4C8B4D63848B4B85B0B9
:101870001B68E3628A4B1B8823848A4B1B68A36224
:101880002B88DB0700F1FC8001210846FFF740F9B7
:101890000523854A04F1100104F10800AB7012F031
:1018A00041F828B1F522814981480CF0BDFCFEE7E2
:1018B000A3682BB9F7227D497D480CF0B5FCFEE703
:1018C0007C4822F02CFA70A3D3E90023CDE9002351
:1018D0004FF0FF324FF0FF33A06822F0CFFA4FF401
:1018E0008811A06812F01AFB014630B140F20F12C5
:1018F0006E496F480CF098FCFEE76F4B1B78012B8C
:101900000ED16E4AA06812F0DBF8A06812F090FBCE
:10191000E0B140F21B12654965480CF085FCFEE71A
:10192000674E316831B94FF48F72604960480CF0EE
:101930007BFCFEE7614AA06812F0C2F833689B683E
:1019400023B1DB6913B15B7803B1E373FFF704FEE6
:101950000146E080A06812F02FFA064630B140F24E
:101960002D12524952480CF05FFCFEE7554B012006
:101970001B78C3EB431203EB8203DB00AB84FFF75E
:101980005BFEA7680FF0ECF932460146384622F0BC
:1019900005FC064630B140F23312444944480CF08D
:1019A00043FCFEE740F203530427AB81464BAF7381
:1019B0001B78EB73FFF732FE00EB80039B002B825A
:1019C000FFF72CFEC00068823946A0686E6122F0E5
:1019D000FDF930B14FF4A172344935480CF024FCC4
:1019E000FEE73A46A06803A922F083FA042806D04D
:1019F0004FF4A3722D492E480CF016FCFEE703A904
:101A000001200FF07DFB0AF0B3FC08224FF0FF31FC
:101A1000A06822F044FA30B140F24F122349244822
:101A20000CF002FCFEE712F083FC30B140F25512DC
:101A30001E491F480CF0F8FBFEE7FFF7D9FA68B122
:101A40001DF0E1FE0146A06822F0AEFA30B140F28E
:101A50005912164916480CF0E7FBFEE7A468FFF799
:101A60007BFD1A4B014603F10C02204622F03AF9A5
:101A700030B14FF4B0720D490D480CF0D5FBFEE7C4
:101A800005B0F0BDAFF300800A0020FF4203000064
:101A9000108F0208505500202C4B0020148F020894
:101AA000128F0208188F0208390B0008198C0208DF
:101AB000E4890208690345EC7D4B00204D0B0008CA
:101AC0003C540020F5560020F4560020448C0208B7
:101AD00008B5044B986822F08CF9034BB3FBF0F087
:101AE00080B208BD5055002040420F002DE9F04360
:101AF0008C4D87B02B889B0706D440F24C728A49E4
:101B00008A480CF091FBFEE7AB78033B012B06D92A
:101B100040F24E72844985480CF086FBFEE76A6805
:101B200032B940F25172804980480CF07DFBFEE7EB
:101B30007F4E2C88F77B14F0200418BF4FF47A7482
:101B40004FEA1718FFF754FA00287DD0B8F1020FBA
:101B50000AD0A8F10303022B74D940F265727249CE
:101B600072480CF061FBFEE7032795F8303008EB74
:101B7000C80898446F4B104603EB4803B3F81C8029
:101B800021F06BFC4FF4FA534343B3FBF8F3782294
:101B90007733B3FBF2F31F44C7EB0717AB78FF00B3
:101BA000BFB204F5347417FA84F4042BA4B203D141
:101BB00007F6E8072744BCB2D5F8048021F042FCC0
:101BC0000746686821F049FC074421F061FCBFB278
:101BD0003F1A21F037FC40440FF076FA7378C0F3D7
:101BE00040198DF80C30544BBFB2CDE904340024B9
:101BF00021F05AFC009402463B464146B06822F070
:101C000085FA287EB278737812FB00F29342C4BF43
:101C10009B1ADCB22B88F18813F0200FB068B180DA
:101C20008DF80C4003AB76D000934A46434B22F02C
:101C30004EF8002873D040F224723B493B480CF028
:101C4000F3FAFEE7062790E7FFF7E0F9002846D011
:101C5000384B07F00F0708EBC801394403EB410389
:101C60001046B3F81C9021F0F8FBB8F1000F2CD00F
:101C7000B8F1010F2CD14FF00408400080B2F319E5
:101C800093F834304BB14FF4FA52023303444344D7
:101C90009BB25343B3FBF9F39CB2AB78042B8BD1CB
:101CA000FFF7BCFC374497F834308146053398443D
:101CB000FFF70EFF0C2308FB00F003FB09F909EB0B
:101CC000C009A1441FFA89F476E74FF00208D6E76D
:101CD00040F28672144915480CF0A6FAFEE7FFF7A9
:101CE000F7FE0746686821F0B8FB09307843AB7807
:101CF00004EBC000042B84B27FF45EAFFFF78EFCD0
:101D00000746FFF7E5FE602358430C2303FB07005B
:101D1000204484B250E74A4621F0D7FF89E707B054
:101D2000BDE8F0832C4B0020198C0208E4890208DE
:101D300050550020448C020820A10700384B002099
:101D4000F8B5494C258815F0020506D040F2751209
:101D5000464947480CF068FAFEE7257724F094FCE2
:101D6000238806465A070CD5424B986822F003FA9E
:101D7000E36AC01AA38C984203D929460420FEF7CF
:101D8000C7FE304624F07BFCA778022F37D124F021
:101D90007BFC2388064613F0040507D036480FF075
:101DA0005FF83046BDE8F84024F069BC24F067FCD9
:101DB000606810F07FFE20B1A570BDE8F840FEF726
:101DC000CFBF24F061FC6668054621F03BFB304440
:101DD0000FF07AF910F0200F0CBF03230423012128
:101DE0003846A370FEF794FEFFF780FE284624F0E5
:101DF00046FC01210846BDE8F84011F065BD042FFE
:101E000027D11C4B1B7BFF2B2DD1237EF3B124F05C
:101E10003BFC238805465B0704D517480FF020F8E4
:101E20002846BFE724F02BFC237E013B237624F0D9
:101E30002BFC044601210220FEF76AFEFFF756FE46
:101E4000204624F01CFC01210820D4E74020A37088
:101E5000B3E7012F07D10023A370064B986811F058
:101E60009FFD3120A9E7F8BD2C4B0020198C0208FA
:101E7000E489020850550020484B002038B5012164
:101E800004461020FEF744FE064B9D68FFF7C6FB94
:101E9000012200FB04F1044B284621F001FF002041
:101EA00038BD00BF50550020850D000808B50A4B0D
:101EB0001B88DB0606D44FF46172084908480CF011
:101EC000B3F9FEE710200021FEF722FE054B9868CB
:101ED000BDE8084021F0F2BE2C4B0020198C02080E
:101EE000E48902085055002038B50E4D688E30B98F
:101EF00040F291320C490D480CF096F9FEE724F0BF
:101F000073FA0446688E24F08DFA811F2144012063
:101F10000FF0F6F8064B0446986822F02CF9001BE7
:101F200038BD00BF2C4B0020198C0208E489020840
:101F30005055002010B5084C636833B94FF46872EF
:101F4000064907480CF070F9FEE7064B986822F046
:101F500012F9A36AC01A10BD2C4B0020198C02087C
:101F6000E48902085055002038B50A4D688E30B912
:101F700040F2AA32084909480CF056F9FEE724F06D
:101F800033FA0446688E24F04DFA044414F8020C27
:101F900038BD00BF2C4B0020198C0208E4890208D0
:101FA00038B50A4D688E30B940F2B932084909484F
:101FB0000CF03AF9FEE724F017FA0446688E24F094
:101FC00031FA044414F9070C38BD00BF2C4B002033
:101FD000198C0208E489020838B50A4D688E30B9B8
:101FE0004FF47272084909480CF01EF9FEE724F01C
:101FF000FBF90446688E24F015FA044414F9010C28
:1020000038BD00BF2C4B0020198C0208E48902085F
:10201000024B1888C0F3C010704700BF2C4B002043
:1020200030B585B005466C460D4B0FCB84E80F00EC
:102030000DB12B6800930B4B21460022986811F0DC
:102040000BFF044630B140F2E632074907480CF076
:10205000EBF8FEE7FEF7B4FD204605B030BD00BF4B
:10206000CC8C020850550020198C0208E489020823
:1020700030B5154D87B004460DF10701A86821F071
:10208000FFFE30B140F2F732104911480CF0CCF8A5
:10209000FEE79DF80720531EDBB2FD2B0FD90294FB
:1020A000FF2A00D10394A86802A921F0D1FF40B112
:1020B00040F20442054906480CF0B6F8FEE7012A52
:1020C000EFE707B030BD00BF50550020198C020863
:1020D000E489020808B5064B986821F0C8FF30B1C2
:1020E0004FF48262034904480CF09EF8FEE708BDF5
:1020F00050550020198C0208E48902080122024B85
:102100001146986821F0C7BD505500207047F8B5BA
:10211000064604200D4621F077F9030622D5124F1A
:10212000BC78FCB926B1012E17D002242046F8BD98
:1021300001262846FFF72CFA0028F6D00B4800238A
:1021400032462946806821F0C4FD40B14FF48A62CE
:10215000074908480CF068F8FEE72646E9E7062339
:10216000BB70E3E77024E1E72C4B002050550020C2
:10217000198C0208E4890208042010B521F044F902
:10218000030611D5094CA378062B0DD1084B98688E
:1021900021F0A1FD30B140F26A42064906480CF038
:1021A00043F8FEE7A07010BD7020FCE72C4B002028
:1021B00050550020198C0208E48902081FB5044616
:1021C00001A811F011FE9DF80D3053B14CB1064B32
:1021D0002078617818700020A27859709A7004B045
:1021E00010BD0220FBE700BF505500201FB504467C
:1021F00001A811F0F9FD9DF80D3053B14CB100204C
:10220000054B1A7822705A789B786270A37004B0DC
:1022100010BD0220FBE700BF50550020FFF7CEBFE6
:10222000FFF7E4BF0348044B834202D0034B03B1E2
:10223000184770470C5700200C5700200000000082
:10224000064B0749C91A891048BF0131491003D00C
:10225000044B0BB101481847704700BF0C570020D2
:102260000C5700200000000010B5064C237843B93D
:10227000FFF7D8FF044B13B10448AFF300800123EC
:10228000237010BDBC51002000000000B8C8020837
:1022900008B5054B1BB105490548AFF30080BDE803
:1022A0000840FFF7CDBF00BF00000000A0220020C3
:1022B000B8C80208A3F5803A704700BF174B002B3F
:1022C00008BF134B9D46FFF7F5FF00218B460F46D5
:1022D0001348144A121A22F084FC0E4B002B00D033
:1022E00098470D4B002B00D0984700200021040098
:1022F0000D000D48002802D00C48AFF300801AF002
:1023000045FA200029001AF0A7FE19F0D5FE00BFFB
:102310000000080000000000000000000020002075
:1023200000200020205200200000000000000000DB
:1023300008B5224B1B78012B1BD0022B2BD003B1ED
:1023400008BD1F4B1B781F4A1278B3EB420F06DA09
:1023500001331B4A13701C481AF018FFF0E7184BA2
:1023600000221A7018481AF015FF184823F0F2FCE2
:10237000E6E7134B1B78134A1278B3EB420F03DAEC
:1023800001330F4A1370DBE70D4B00221A700F4820
:1023900023F0E0FCD4E70A4B1B780A4A1278B3EB2F
:1023A000420F03DA0133064A1370C9E7044B0022D7
:1023B0001A70064823F0CEFCC2E700BFBD510020D2
:1023C000BF510020BE510020F0800208B82200203A
:1023D00000B583B08C461146074B1870074B83F845
:1023E00000C00123019300230093054A054824F00F
:1023F00093FB03B05DF804FBBD510020BE510020EB
:1024000031230008B822002000B583B0074B012219
:10241000DA60064B5B6913F0400FFAD10349684656
:102420001DF0A9F8009803B05DF804FB00400059C6
:1024300010B582B004461AF09EFD08B902B010BD76
:1024400000230093ADF80430074B1B88ADF8023031
:10245000ADF8044040F2FF13ADF8003069460420A7
:102460001FF08BFCEAE700BFF850002038B50446A7
:102470001FF08FFCA04201D8012038BD0546032083
:1024800001F012FA0028F8D01AF0A0FE1AF09FFE10
:102490002B4622460349044800681EF0ACFA00208F
:1024A000EBE700BF886D02084C27002030B583B0F1
:1024B00004468368C26853F822301D882846FFF717
:1024C000D5FF08B903B030BD00230093ADF8043048
:1024D000164B1B88ADF80230ADF804506368E26813
:1024E0009B1A012B1DDDA368013253F822301B8893
:1024F000ADF800301FF03DFC694603201FF03DFCA5
:102500000446032001F0D0F90028DBD01AF05EFE6B
:102510001AF05DFE22460649064B18681EF06BFA5B
:10252000D0E740F2FF13ADF80030E3E7FA500020A7
:10253000C06D02084C27002030B583B00446836884
:10254000C26853F822301D882846FFF78FFF08B96C
:1025500003B030BD00230093ADF80430154B1B8849
:10256000ADF80230ADF804506368E2689B1A012BA5
:102570001BDDA368013253F822301B88ADF8003010
:10258000694604201FF0F9FB0446032001F08CF992
:102590000028DDD01AF01AFE1AF019FE224606496C
:1025A000064B18681EF027FAD2E740F2FF13ADF889
:1025B0000030E5E7FA500020E06D02084C270020CB
:1025C00030B583B004468368C26853F822301D8852
:1025D0002846FFF74BFF08B903B030BD0023009336
:1025E000ADF80430154B1B88ADF80230ADF804503F
:1025F0006368E2689B1A012B1BDDA368013253F864
:1026000022301B88ADF80030694602201FF0B5FB70
:102610000446032001F048F90028DDD01AF0D6FD69
:102620001AF0D5FD22460649064B18681EF0E3F95C
:10263000D2E740F2FF13ADF80030E5E7FA50002092
:10264000F46D02084C27002030B583B08368C2685F
:1026500053F822301C780023019343689B1A012B06
:1026600019DD01AA01211DF093FC01469DF804002B
:102670001FF07BFB054680B1022001F015F960B127
:102680001AF0A4FD1AF0A3FD2A460649064B186865
:102690001EF0B1F901E01FF06CFB20461FF071FB4A
:1026A00003B030BD106E02084C27002010B5034661
:1026B0008168C26851F82200B0F900001A4C2080ED
:1026C0005B689B1A012B0FDD013251F8223093F920
:1026D0000010003918BF01211FF0F8FAA0B903203B
:1026E00001F0E2F810B910BD0021F5E71AF06EFD17
:1026F0001AF06DFD0D4B1C681FF0ECFA02460C49F8
:1027000020461EF078F9EEE7012001F0CDF8002810
:10271000E9D01AF05BFD1AF05AFD0649034B186820
:102720001EF069F9DFE700BFFA5000204C270020B7
:10273000746E0208886E020808B51FF0BBFA032009
:1027400001F0B2F800B908BD1AF040FD1AF03FFDE3
:102750000249034B18681EF04EF9F4E7A06E020818
:102760004C27002008B58368C26853F822301A88C5
:10277000094B1A80032001F097F800B908BD1AF040
:1027800025FD1AF024FD044B1A880449044B1868EF
:102790001EF031F9F2E700BF70560020C06E02084B
:1027A0004C27002008B5024B18680EF059FB08BDF5
:1027B000FC2200202DE9F04186B01FF097FA044674
:1027C000894B1B7813F0020F2CD0884E13F0010FA9
:1027D0002AD0864F13F0040F28D0DFF81082032090
:1027E00001F062F828BB032001F05EF858BB03201B
:1027F00001F05AF8002835D1032001F055F80028DF
:102800003ED1032001F050F8002847D1032001F009
:102810004BF800285ED1032001F046F8002867D16C
:10282000002471E0724ED1E7714FD3E7DFF8C08129
:10283000D5E71AF0CBFC1AF0CAFC6E496E4B18684B
:102840001EF0D9F8CFE71AF0C1FC1AF0C0FC6A4BB1
:102850001D6805F04BF902460B46684928461EF0F4
:10286000CAF8C4E71AF0B2FC1AF0B1FC624B1D685A
:102870001FF014FA0246624928461EF0BCF8BBE776
:102880001AF0A4FC1AF0A3FC5B4B1D681FF03AFA87
:1028900002465C4928461EF0AEF8B2E71AF096FCF4
:1028A0001AF095FCE279A37961792079E57894F8BA
:1028B00002C094F801E024780594CDF810E0CDF83A
:1028C0000CC00295019000914F494B4800681EF0E2
:1028D00092F89BE71AF07AFC1AF079FC464B1C68D8
:1028E0001FF008FA0246494920461EF084F892E794
:1028F0001AF06CFC1AF06BFC45493F4B18681EF04F
:102900007AF88DE70134E4B2072C12D8032000F0E6
:10291000CBFF0028F6D01AF059FC1AF058FC364BC1
:102920001D681FF0E3F9025D3A4928461EF063F87E
:10293000E8E7032000F0B8FF98B9032000F0B4FFE7
:10294000C8B9032000F0B0FF18BB032000F0ACFFB3
:1029500068BB032000F0A8FF002836D106B0BDE810
:10296000F0811AF033FC1AF032FC2B49224B186824
:102970001EF041F8E1E71AF029FC1AF028FC1E4B82
:102980001C681FF0BBF90246244920461EF033F8AC
:10299000D7E71AF01BFC1AF01AFC174B1C681FF043
:1029A00091F902461E4920461EF025F8CDE71AF09F
:1029B0000DFC1AF00CFC104B1C681FF08BF9024642
:1029C000184920461EF017F8C3E71AF0FFFB1AF06B
:1029D000FEFBCDF800803B463246134906480068AE
:1029E0001EF009F8BAE700BFE6560020286E02087C
:1029F000306E0208DC6E02084C270020E46E0208EC
:102A0000006F02081C6F0208386F02085C6F020832
:102A1000786F02088C6F020898870208946F02088A
:102A2000B06F0208C86F0208E06F020830B583B0CB
:102A30008368C26853F822301C7801A920461FF031
:102A40003DF988B9032000F02FFF08B903B030BD6D
:102A50001AF0BCFB1AF0BBFB019B22460B490C4849
:102A600000681DF0C8FFF1E70546012000F01CFFDB
:102A70000028EBD01AF0AAFB1AF0A9FB2A46054958
:102A8000034B18681DF0B7FFE0E700BF187002089D
:102A90004C2700203470020870B58268C36852F871
:102AA00023100C88013352F823301D782946204624
:102AB0001FF057F980B9032000F0F6FE00B970BD91
:102AC0001AF084FB1AF083FB2B4622460B490C4874
:102AD00000681DF090FFF2E70646012000F0E4FEDA
:102AE0000028ECD01AF072FB1AF071FB324605494F
:102AF000034B18681DF07FFFE1E700BF5870020824
:102B00004C2700208870020870B582B08368C268C4
:102B100053F822301B78134A137013F0020F0ED0B3
:102B2000114C13F0010F0CD00F4D13F0040F0AD00D
:102B30000D4E032000F0B8FE38B902B070BD0B4C4A
:102B4000EFE70A4DF1E7094EF3E71AF03FFB1AF001
:102B50003EFB00962B4622460549064800681DF0BC
:102B60004AFFEAE7E6560020286E0208306E0208A7
:102B70003C6E02084C27002030B58FB004460D464D
:102B800068461AF008FA0DF1200EEC46BCE80F007A
:102B9000AEE80F009CE803008EE8030008A9464B4E
:102BA00018681FF0ECFE10F1880F46D168461AF045
:102BB000F2F90DF1200EEC46BCE80F00AEE80F0074
:102BC0009CE803008EE803004FF41053ADF820306A
:102BD0008023ADF822304FF44073079307A81AF012
:102BE000EAF9079B0A93354B0B93334B1A68099B01
:102BF0000D9213F0FF0F04D123F0FF0343F0010304
:102C00000993012309932C4B2A46214608A81FF05B
:102C1000D3FE044610BB032000F046FE90B9264BBD
:102C200018681FF043F80546002831D1032000F052
:102C30003BFE044610BB01242FE01F4B18681FF019
:102C400075FEB3E71AF0C2FA1AF0C1FA1A4B1A6805
:102C50001B491C4B18681DF0CEFEE0E7032000F076
:102C600023FE0028DBD01AF0B1FA1AF0B0FA22469F
:102C70001549144B18681DF0BEFED0E71AF0A6FAED
:102C80001AF0A5FA11490F4B18681DF0B4FE04E0C4
:102C9000032000F009FE044610B920460FB030BDF5
:102CA0001AF094FA1AF093FA2A460949054B186863
:102CB0001DF0A1FE0024F0E7D82200200001440509
:102CC000B87002084C270020E87002080C71020856
:102CD0002C71020800B583B00021019101AA1DF0FA
:102CE00057F9019910290ED0032000F0DDFD60B1E5
:102CF0001AF06CFA1AF06BFA10220549054B1868A5
:102D00001DF079FE01E0FFF737FF03B05DF804FB2B
:102D10004C7102084C27002010B588B01FF04BFF03
:102D200000F0ACFB5249534809F0F8F9032000F0D9
:102D3000BBFD08BB0124504B1C6002A81AF052F9DD
:102D400002A920461FF01BFE10F1880F1ED00320A1
:102D500000F0AAFD002870D1474B18681EF0A6FFAE
:102D60001EF0FBFF0446032000F09EFD00286ED1FC
:102D7000002C77D008B010BD1AF028FA1AF027FA04
:102D80003E493F4B18681DF036FED3E7032000F0A4
:102D90008BFD002837D1384B1A68039B079213F03C
:102DA000FF0F04D123F0FF0343F001030393354BDE
:102DB00005934FF44073019301A81AF023F9019B86
:102DC00004934FF41053ADF808308023ADF80A3067
:102DD00001230393284B10222B4902A81FF0ECFD7E
:102DE0000446D0B9032000F05FFD0028B4D01AF0EB
:102DF000EDF91AF0ECF9204B1A682449204B1868B9
:102E00001DF0F9FDA8E71AF0E1F91AF0E0F9204900
:102E10001B4B18681DF0EFFDBDE7032000F044FDDB
:102E2000002899D01AF0D2F91AF0D1F9224619499E
:102E3000134B18681DF0DFFD8EE71AF0C7F91AF082
:102E4000C6F915490E4B18681DF0D5FD84E71AF038
:102E5000BDF91AF0BCF922461049094B18681DF05B
:102E6000CAFD85E7034B18680DF0FAFF82E700BF43
:102E7000ED2E0008FC220020D822002074710208E8
:102E80004C270020000144052C540020B870020893
:102E900080710208E8700208A8710208D471020863
:102EA00008B5032803D102290FD9032914D90C4BE3
:102EB00010229A72D87332220A210020FFF788FA72
:102EC000084B18680DF0CCFF08BD0020FFF7B0FAE2
:102ED00005481AF082FCF7E71AF057F8F4E700BF4C
:102EE000E0220020FC220020F080020800B583B020
:102EF0001AF038F882B2244B1A80244B5B7B7BB1EA
:102F0000022B16D022481AF08CF81AF02BF81E4B20
:102F10001880204B1B6800221A7003B05DF804FB78
:102F20001B4B0F221A7002225A729DF804205A700D
:102F3000E8E79DF8001063F301018DF800101349D4
:102F400091F80EC09DF800306CF382038DF80030CC
:102F50008B7A102BD6D19DF804306FF304038DF8D3
:102F600004309DF804306FF346138DF80430084B9D
:102F700010211970052159720449C97B5970120A30
:102F80009A70D870BEE700BFFC500020E0220020FD
:102F9000F0220020FC220020014B1878704700BF6F
:102FA000C251002038B50379012B00D038BD054649
:102FB000032000F079FC08B900240CE01AF006F9AF
:102FC0001AF005F96A881549154B18681DF013FDAC
:102FD000F2E70134E4B2EB889C4210D2032000F007
:102FE00063FC0028F5D01AF0F1F81AF0F0F8AB689D
:102FF0001A5D0C490A4B18681DF0FDFCE9E7032037
:1030000000F052FC0028D1D01AF0E0F81AF0DFF8F6
:103010000549034B18681DF0EEFCC7E7EC71020888
:103020004C27002004720208988702088B681B78DE
:103030000F2B00D07047064B5B7B002BFAD100288A
:10304000F8D1034B02225A7301229A73F2E700BFB0
:10305000E022002008B5903806283DD8DFE800F0CF
:10306000041F273C3C2E350001231F4A13701F4AC2
:103070001370C82202210020FFF7AAF91C4B5B7BCA
:1030800033B11C4B19881C4B18680DF0F4FE08BDB9
:10309000184B1988184B18680DF0EDFEF1E7002069
:1030A000114B187064220521FFF792F9EFE74FF4F6
:1030B0007A7202210020FFF78BF9E8E74FF47A7269
:1030C00002210020FFF784F9E1E74FF47A72022130
:1030D0000020FFF77DF9DAE74FF47A720221002031
:1030E000FFF776F9D3E700BFC1510020C25100209D
:1030F000E022002070560020FC22002008B523F0BA
:10310000FFFC074B1B782BB1064B1B68C01A064B04
:10311000984200D808BD05481AF05FFBFAE700BFE7
:10312000C0510020DC220020A0860100F0800208AF
:1031300010B580B10446012000F0B6FB00B910BD07
:103140001AF044F81AF043F822460A490A4B186864
:103150001DF051FCF3E7032000F0A6FB0028EED0A1
:103160001AF034F81AF033F80449034B18681DF0CC
:1031700042FCE4E7087202084C2700203072020883
:10318000F0B583B004460D4616461F46032000F0F6
:103190008BFB08B903B0F0BD1AF018F81AF017F855
:1031A000019700962B4622460249034800681DF00D
:1031B00022FCEFE7487202084C27002008B5024BBA
:1031C0001B6803B1984708BD3023002008B5024BA7
:1031D0005B6803B1984708BD3023002008B5024B57
:1031E0009B6803B1984708BD3023002008B5024B07
:1031F000DB6803B1984708BD3023002008B5024BB7
:103200001B6903B1984708BD3023002008B5024B65
:103210005B6903B1984708BD3023002000B585B035
:10322000094B1868094B1860094B0A4A13600A4A8F
:1032300001920A4A12680292039301A91CF0CAFE85
:1032400005B05DF804FB00BF585400209031002009
:103250004C5400208C3100205080020804260020AD
:1032600008B5024B18681CF0C9FE08BD5854002070
:1032700038B507F06DFA0446064D2B68D3F8B00256
:1032800007F05AFA28681CF0D3FE204607F054FADB
:1032900038BD00BF5854002008B5034823F0B6FAE3
:1032A000024801F001F908BD748402085C54002052
:1032B0000023062073B1704754B224B9013353B1CF
:1032C0005DF8044B70470228F8D008680A49086086
:1032D0001046F3E710B4094A52F823100A7A022A7A
:1032E000EAD9032AEAD1441EE4B2012CE6D90868DF
:1032F000014908601046E1E70426002070540020D0
:1033000010B5A2B00DF1680C284C0FCCACE80F0042
:1033100094E80F008CE80F00002115911691179189
:10332000189119914FF480131593214B1993109113
:1033300011911291139114911E4B10931E4B1493E3
:103340003C2201A821F04DFC01AC0DF1540CBCE86D
:103350000F000FC4DCF80030236006AC0DF1400C08
:10336000BCE80F000FC4DCF800302360134B0B9354
:1033700020230C9301238DF834308DF83530104B19
:103380000F93104B1AAA01A90F4807F08DFA0446B3
:103390009DF837303BB100214FF4E1301AF095F839
:1033A000204622B010BD0321F6E700BF708002085E
:1033B0003C00015B010010004400015B0826002076
:1033C0008454002028260020E426002008B531B9C6
:1033D000084B1868036823B107F07CFE01E001295F
:1033E00000D908BD034B18680368002BF9D01DF005
:1033F000E4FDF6E79854002008B50349034807F0B8
:10340000DDFFFFF77DFF08BD9C5400200C27002046
:1034100008B502481DF035FB08BD00BFE4260020BA
:1034200008B502481DF02DFB08BD00BFE4260020B2
:1034300008B5024B5A6A1868904708BDE426002078
:1034400008B506481AF0C5F805481AF0C2F805484C
:103450001AF0BFF804481AF0BCF808BDD88002087A
:10346000C0800208A88002089080020808B50248BF
:103470001AF0AEF908BD00BFF080020870B590B038
:1034800001212A2003F02CF800250D950E950F95AB
:103490001B4E2A461B49304603F0CAFF8DF83900FF
:1034A0000DF10C0C184C0FCCACE80F000FCCACE8B5
:1034B0000F0094E803008CE803004FF49663069332
:1034C0000195029503238DF806308DF806500123EF
:1034D0008DF800308DF801508DF802508DF80350B2
:1034E00010238DF8013003AA0DA9304603F0E0FF48
:1034F0006A4601A930461BF0FFFF10B070BD00BF47
:103500000040005940420F000881020800B583B016
:103510000B460549097801910092002201211EF015
:1035200009FC03B05DF804FBE656002070B50446C4
:1035300006790568322022F0F1FC854205D2134B52
:1035400003EBC60300221A7170BD25684FF47A7030
:1035500022F0E4FC854205D20C4B03EBC6030122AA
:103560001A71F1E7246840F6B83022F0D7FC8442A3
:1035700005D2064B03EBC60302221A71E4E7034BA4
:1035800003EBC60303221A71DEE700BF2C270020DD
:1035900038B5114B186819F0E0FE054690B1284681
:1035A00038BD0134E4B2032C0ED80C4B53F8240080
:1035B0001AF016F80128F4D123F0A2FA084B43F8C8
:1035C0003400EEE70024EEE7064B00221A70024BAF
:1035D000186819F0D2FEE2E728270020A454002042
:1035E0002C270020E756002000B9704730B583B083
:1035F0000446104D104928681DF0FDF919F0E6FD4C
:1036000019F0E5FD0D4B00934FF48D730C4A0D49F5
:1036100028681DF0F0F923460B4A0C4928681DF074
:10362000EAF9204600F088F9094928681DF0E3F915
:1036300000BEFDE74C27002098870208E0810208C1
:1036400030810208A0810208AC810208B48102081E
:10365000CC81020800B589B0002307E0002226498A
:1036600041F823202549CA540133DBB2032BF5D995
:10367000002309E0224A02EBC30104200871002163
:1036800042F833100133DBB2032BF3D9002301934B
:103690000293039304930593069307939DF80430D4
:1036A00043F001038DF80430DBB243F008038DF8DA
:1036B0000430DBB243F020038DF80430114B029349
:1036C000114B039302238DF810304FF48063059360
:1036D0000523ADF818300423ADF81A3008230793FA
:1036E0000A4901A800F046F910B909B05DF804FBD9
:1036F000FFF77AFFF9E700BF182700201427002002
:103700002C270020113700089DD101082827002010
:1037100010B584B001AA02A9124B186819F06FFE07
:10372000E8B902A8FFF702FF002401E00134E4B287
:10373000032C0ED80C4B03EBC40319790429F5D0E4
:103740002046FFF7ADFB084B03EBC40304221A71BC
:10375000ECE7044B186819F010FE04B010BDFFF739
:1037600043FFFAE7282700202C2700201D4B1B7859
:10377000002B35D170B582B00024032C2ED81A4B03
:1037800053F82430834202D00134E4B2F5E719F053
:1037900027FF01281DD023F0B3F9144B53F83460F0
:1037A000861B00968DF80440282022F0B7FB864245
:1037B00005D80E4B03EBC4031B79052B0ED1082251
:1037C00069460B4B186819F0E8FD38B1FFF70CFF9C
:1037D00004E023F095F9054B43F8340002B070BDC6
:1037E000704700BFE7560020A45400202C2700207B
:1037F0002827002010B58368C26853F822301C784F
:10380000032C00D90324064B1B5D03B110BD23F02C
:1038100077F9044B43F82400014B01221A55F5E7D0
:10382000142700201827002038B58368C26853F891
:1038300022301C78032C00D90324194B1B5D012B6B
:1038400000D038BD23F05CF9164B53F82450451BCB
:10385000134B00221A55322022F060FBA84204D9F3
:1038600000212046FFF71CFBEBE74FF47A7022F0B3
:1038700055FBA84204D901212046FFF711FBE0E7E0
:1038800040F6B83022F04AFBA84204D90221204673
:10389000FFF706FBD5E703212046FFF701FBD0E742
:1038A000142700201827002003460B4A107828B15F
:1038B0000A4A12789A4202D2002000E00120084A07
:1038C00012783AB1074A127842FA03F313F0010F63
:1038D00000D10020704700BFEA560020E9560020C2
:1038E000C4510020E856002008B5084B01221A7088
:1038F000074B00221A70074B04221A70064B1F2236
:103900001A7006F025FF054B186008BDEA56002026
:10391000C4510020E9560020E85600204C27002022
:1039200008B50349034B18681DF065F808BD00BFD2
:10393000F88102084C27002070B506460A4C0B4956
:1039400020681DF058F806F003FF0546206806F0D1
:10395000F3FE3046FFF7E4FF284606F0EDFE04498B
:1039600020681DF048F870BD4C270020FC8102083B
:1039700000820208F8B500284FD00D460446002901
:103980004DD0037813F0030F36D04268002A48D098
:1039900013F0080F02D0A28A002A44D013F0200F9F
:1039A00005D0E38A002B40D0A369002B3FD02C2008
:1039B0001DF05DFC064600283BD02C22002121F0A2
:1039C00010F921686268A368E0687160B260F36012
:1039D000306121696269A3697161B261F361237821
:1039E00013F0040F0ED000272E60636843B13146F8
:1039F000114819F08EFD03E04268002AC8D0212743
:103A00003846F8BD0121304619F073FC07460028FE
:103A1000EAD030461DF00AFDF2E72227F0E7222720
:103A2000EEE72127ECE72127EAE72127E8E721272E
:103A3000E6E71927E4E700BF5027002008B5034850
:103A400019F060FD19F016FB08BD00BF50270020DB
:103A500010B50B4B1C6802E022F0FEFD246864B137
:103A600022F0FFFD94F82030002BF5D0A36A002B44
:103A7000F2D022F0F1FD002000E0012010BD00BFD7
:103A80005027002010B50B4B1C6802E022F0E4FD2B
:103A9000246864B122F0E5FD94F82030002BF5D0C5
:103AA000A36A002BF2D022F0D7FD042000E0012011
:103AB00010BD00BF5027002010B50C4B1C6802E061
:103AC00022F0CAFD24687CB122F0CBFD94F82030AE
:103AD000002BF5D0A36A002BF2D0013BA36222F0A9
:103AE000BBFDA3689847EDE710BD00BF502700203D
:103AF00008B5054822F08AFE19F0DDFA012019F018
:103B0000B3FC00F085F808BD7484020808B50248CB
:103B100022F07CFE08BD00BF748402082DE9F0414C
:103B200080460F4601F109050026344604E05B217A
:103B3000082000F081FA0134AC4233D2052C1BD8A6
:103B400001A353F824F000BF2F3B0008613B00089D
:103B5000953B0008693B00086D3B0008713B00087D
:103B6000FBB20433D9B2E3E78021E1E70021DFE7CC
:103B7000731C3146DEB2DBE7BB1DA3420CD0FB1D3C
:103B8000A3420BD007F10803A34209D0A31F18F8E2
:103B90000310CDE7D121CBE75A21C9E75A21C7E766
:103BA0005D21C5E70020BDE8F08100BF00B583B00E
:103BB00000220092019202218DF80010054819F0B0
:103BC0006EFC019008216846FFF7A8FF03B05DF87E
:103BD00004FB00BF006A180000B583B0044B1B88CB
:103BE000ADF8043001A800F003FB03B05DF804FB5E
:103BF0000482020800B583B0044B1B88ADF8043082
:103C000001A800F0C5FA03B05DF804FB04820208C5
:103C1000F0B58DB0444C0DF1140C04F1040EBEE867
:103C20000F00ACE80F009EE807008CE80700238C2B
:103C3000ADF81030A38CADF80C30238DADF8083002
:103C40002388ADF80430394822F0E0FD384F38467B
:103C500022F0DCFD01258DF82250364B0793364EBD
:103C600005A930461BF00CFD2A46042104A800F0EB
:103C700053FA0022294603A800F04EFA2A460421EE
:103C800002A800F049FA2A4604210DEB010000F0D9
:103C900043FA2A4C2A4BC4F8AC374FF00213C4F84D
:103CA000A837A3F58033C4F8B0371C23C4F898377D
:103CB0004FF4487008F0D0F9FFF78EFF142008F099
:103CC000CBF9FFF797FF232008F0C6F9FFF784FF31
:103CD000B92130461BF022FDFFF78CFF0022114670
:103CE00004A800F019FA0022114603A800F014FA03
:103CF0002A46002102A800F00FFA2A46002101A856
:103D000000F00AFA304603F011FF0023C4F8983798
:103D1000C4F8AC37C4F8A837C4F8B037384622F036
:103D20007AFD0DB0F0BD00BF048202087484020861
:103D30005C84020800127A0000C0055000C00350E5
:103D40000200030008B50448044A121A92100449FC
:103D500019F0CEFB08BD00BF8001000880030008F9
:103D60002052002008B5154B83F30A8800F030F884
:103D7000FFF7E8FF124A0AE01068516850F8230084
:103D800041F82300013391688B42F5D30C320D4B7F
:103D90009A4201D20023F6E70B4A08E0116800209E
:103DA00041F82300013351688B42F7D30832074BA7
:103DB0009A4201D20023F6E7FEF780FA00000020C5
:103DC000C0C80208CCC80208CCC80208CCC8020887
:103DD00070B5134B134A9A60D3F8882042F47002EE
:103DE000C3F88820104A4FF4804191660F4D05F5C5
:103DF00000544FF0FF3222660D4A62660222C3F879
:103E0000D020BFF34F8FBFF36F8F002006F06AFC06
:103E10004FF44036E66000201CF098FD2E6170BD26
:103E200000ED00E000000008009000500080004419
:103E30007FFF7F01014B1860704700BFDC540020FA
:103E400008B5064B1860064B1B6F03F00703032BE6
:103E500000D008BD21F04CF9FBE700BFE45400207E
:103E600000800050BFF34F8F0549CA6802F4E0623A
:103E7000044B1343CB60BFF34F8F00BFFDE700BF80
:103E800000ED00E00400FA05F0B18446F1B110B491
:103E900009E004F120000FE02033C01A18D1BCB1B2
:103EA0000CF1010C01319CF800400B4B1B5D03F041
:103EB0000303012BEDD020460B78074AD25C02F0B9
:103EC0000302012AE9D1E7E701207047012070478A
:103ED0005DF8044B704700BF85C7020830B587B056
:103EE0000546046823798DF80C3063798DF80D3020
:103EF0001A4822F08BFC0022012103A800F00CF9E3
:103F00000DF10B0103A819F02CFC9DF80B30237068
:103F1000A379022B02D0002007B030BD4FF0FF3351
:103F20000593049300950E4B012205A903A800F008
:103F30002FFA059BB3F1FF3F07D00095084B0222F3
:103F400004A903A800F084F9E5E70095044B0422D6
:103F500004A903A800F07CF9DDE700BF748402081F
:103F6000EFD5010810B582B0002401942A4822F050
:103F70004DFC8DF8004003238DF80130012204210F
:103F8000684600F0C9F8254B0122C3F8442401A972
:103F9000052022F034FC00283BD1214BD3F8F0203F
:103FA00042F00102C3F8F020D3F8FC2042F0807206
:103FB000C3F8FC20A3F55D431A4A1A60019B03F580
:103FC000D52303F2FC43DB08174AA2FB03239B0A19
:103FD000013B164A13610223C2F8F0304FF480739C
:103FE000C2F804334FF06043114AC3F8B02F114AAE
:103FF000C3F8802ED3F8002E42F48072C3F8002E4E
:10400000FF2283F82020D3F8002E22F48072C3F818
:10401000002E02B010BD00BF7484020800D003500F
:1040200000ED00E0FF03004017916502000004E08E
:1040300055CEACC5090001004FF06043D3F8803E77
:1040400013F0010F01D1112070470E4AD2F8FC3055
:1040500043F08073C2F8FC304FF06043D3F8002E79
:104060004FF0010C0CFA00FC42EA0C02C3F8002EDF
:1040700053F82030002BE8D04FF0604303F82010B5
:104080000020704700ED00E010B504460FE001236A
:10409000834024EA03040F2814D800EB40020E4B9F
:1040A00003EB82035A6812B19968C0B2904794B189
:1040B000234600201F28EAD813F0010FE7D1013072
:1040C0005B08F7E7103800EB40039B00B033024A6F
:1040D00013440433E6E710BD5427002008B50D480B
:1040E00022F094FB1A2006F0EDFA28B91B2006F006
:1040F000E9FA40B9002008BD1A2006F0F3FA1A20A8
:104100001CF024FCF2E71B2006F0ECFA1B201CF04C
:104110001DFCEFE7748402082DE9F04170B30C46F2
:10412000174605460F292BD803784BB1022B20D018
:10413000032B21D0012B01D0002303E07F2301E0DA
:1041400040F2FF736A78D34013F0010F1AD00F4B7F
:10415000D3F81063C6B922F097FA80463A46214652
:10416000284603F009FD404622F089FA3046BDE8B2
:10417000F08140F2FF33E5E73F23E3E72226F5E74E
:104180002126F3E72126F1E70226EFE700C00350DE
:1041900040B310B5044603784BB1022B1DD0032B5E
:1041A0001ED0012B01D0002303E07F2301E040F269
:1041B000FF736278D34013F0010F15D022F064FA38
:1041C000237862780121914003EB43031B01074AE6
:1041D000D15022F054FA002010BD40F2FF33E8E73E
:1041E0003F23E6E7222070472120F5E740D0035027
:1041F00040B310B5044603784BB1022B1DD0032BFE
:104200001ED0012B01D0002303E07F2301E040F208
:10421000FF736278D34013F0010F15D022F034FA07
:10422000237862780121914003EB43031B01074A85
:10423000D15022F024FA002010BD40F2FF33E8E70D
:104240003F23E6E7222070472120F5E740E00350B6
:10425000002866D02DE9F0410C4615461F4606465B
:10426000002960D002784AB1022A3ED0032A3FD00A
:10427000012A01D0002303E07F2301E040F2FF7315
:104280007178CB4013F0010F01D1FF2A4DD1022DDF
:1042900001D9042D4BD122F0F7F980463378FF2B5A
:1042A00028D12368B3F1FF3F2BD02268B2F1FF3F42
:1042B00032D0204B02EB420203EB820257602268AD
:1042C00002EB420203EB8203069A9A603378FF2BDB
:1042D00005D0226801239340174AC2F8243440468F
:1042E00022F0CDF90020BDE8F08140F2FF33C7E7AE
:1042F0003F23C5E72A462168304603F0A7FC20602B
:10430000CFE73378FF2BD0D10C4BD3F8241470783F
:104310001BF01EFA2060C8E7404622F0B0F92D20BD
:10432000E1E7222070472220DDE72120DBE7212082
:10433000D9E700BF5427002000D0035000C003502D
:10434000B0F1FF3F1AD038B504460F2818DC00281A
:1043500018DB22F099F90123A3400B4AC2F820345C
:10436000C2F82434094B04EB440203EB820200251B
:104370005560956022F083F9284638BD21207047AA
:104380002120FAE72120F8E700E00350542700201D
:10439000002856D02DE9F0410C4617461E4605462A
:1043A000002950D0017849B1022939D003293AD0E7
:1043B000012901D0002303E07F2301E040F2FF73D5
:1043C0006A78D34013F0010F01D1FF293DD122F0CB
:1043D0005BF980462B78FF2B27D12268B2F1FF3F93
:1043E0002AD01B4B02EB420203EB8202C2F8B860F8
:1043F000226802EB420203EB8203069AC3F8BC2058
:104400002B78FF2B06D02268103201239340114AEB
:10441000C2F82434404622F032F90020BDE8F08191
:1044200040F2FF33CCE73F23CAE73A4621682846EB
:1044300003F0ACFC2060D0E7404622F020F92D20AC
:10444000ECE7222070472220E8E72120E6E700BFC2
:104450005427002000D0035008B5084BD3F824049B
:10446000D3F82024104000F0553020F0502003F500
:104470000053C3F82004FFF707FE08BD00C0035037
:1044800008B5084BD3F82404D3F82024104000F0DA
:10449000AA3020F0A02003F50053C3F82004FFF752
:1044A000F3FD08BD00C0035070B586B00546036833
:1044B000B3F1B64F27D0304A934222D04FF0FF36A7
:1044C000B3F1B64F21D02C4A934252D12B4822F05F
:1044D0009DF92B798DF804306B798DF80530AB7927
:1044E0008DF80030EB798DF8013001220A2101A806
:1044F000FFF712FE01220A216846FFF70DFE002495
:1045000012E00126DCE70026DAE71D48DFE701A814
:10451000FFF76EFE642007F09FFD01A8FFF738FE4D
:10452000642007F099FD0134092CF0DD154A02EBF7
:1045300006110323C1F8383568792B7943EA004323
:10454000C1F83C35E979AB7943EA01435436360189
:10455000935101238DF808308DF80930EB680493EE
:10456000AB6803932B7C8DF8143002A9286802F005
:1045700003FF06B070BD00BF008006506C840208C7
:104580007084020800C0035010B582B004460A4887
:1045900022F03CF923788DF8043063788DF80530EB
:1045A000A278B2FA82F2520904210DEB0100FFF762
:1045B000B3FD002002B010BD74840208F0B585B0D0
:1045C0000C4694469DF83410664A1278002A00F092
:1045D000BD800546BCF1070F00F2BA800A9A002A96
:1045E00000F0B8800B9A002A00F0B6800E9AB2F55F
:1045F000006F00F3B38001285BD05B4A02EB0C1222
:10460000127B002A00F0AC800022009201920292FC
:104610000392564A02EB4C1E002C4FD14FEA4C1627
:1046200000209051CEF80400CEF80800CEF80C001F
:104630009EF8020040F010008EF802009EF8030081
:1046400040F030008EF8030021B9C1B241F00301FF
:104650008EF8031000930E9B013B444A4FEA4C1026
:1046600002EB4C11165A63F30E1616520A9B8B601E
:104670000B9B4B60CB789DF83C2062F38303CB709F
:10468000012D36D0109B002B56D0374A4FEA0C1123
:1046900002EB0C1310985050119A5A6000249C6041
:1046A0005D7372466946604603F028F9204605B0FE
:1046B000F0BD0C9A002AA0D12D48F8E72B4F4FEA05
:1046C0004C1607EB4C120020B85150609060D0603F
:1046D000907840F010009070D07840F00300D070D7
:1046E0000029B7D107EB4C12C1B241F03001D170B3
:1046F000B0E70E460A7B42F001020A73D2B242F0E2
:1047000002020A73CA68042161F39F02F26006F193
:10471000100796E80F0087E80F00F2696FF00301B9
:1047200061F39F02F2610C9B7361012CAAD10B9A79
:10473000B2610C9A7260A5E7002DA6D10B4B03EB7A
:104740004C139A786FF304129A709EE70948AEE70B
:104750000748ACE70648AAE70548A8E70448A6E7E3
:104760000548A4E7C5510020BC290020BC28002032
:10477000018000F0028000F0078000F0134B1B78EE
:10478000FBB110B50446F0B121F07EFF0023072BEA
:1047900013D80F4A02EB0312127B0AB10133F6E77A
:1047A00023600B4A190102EB031301241C7300243C
:1047B000545021F064FF204602E021F060FF0548DC
:1047C00010BD054870470548FAE700BFC5510020F5
:1047D000BC290020048000F0028000F0018000F07D
:1047E00038B521F051FF04460023072B06DC0C4AA4
:1047F00002EB0312127B12B90133F6E7002222B159
:10480000204621F03CFF074838BD03F023F800257F
:10481000054B1D70204621F032FF2846F4E700BF0B
:10482000BC290020058000F0C55100200F4B1B78EB
:10483000BBB110B50446072815D821F025FF0C4B55
:1048400003EB04131B7B1BB921F019FF09480BE094
:10485000074B03EB041300241C7321F010FF2046C8
:1048600002E005487047054810BD00BFC551002053
:10487000BC290020068000F0028000F0018000F0DA
:1048800000B583B0134B1B68019300238DF80430EF
:1048900021F0FAFE104B1B7833B90F4B01221A702E
:1048A00021F0EDFE002309E021F0E9FE0B480EE0C7
:1048B0000B4A02EB0312002111730133072BF7DDC2
:1048C00008238DF8073001A802F0E8FF002003B0AC
:1048D0005DF804FB30820208C5510020038000F01F
:1048E000BC29002010B5104C2478BCB1072817DC77
:1048F0000E4C04EB0014247BA4B10C4C4FEA001EB8
:1049000004EB001C44F80E30029BCCF80430002469
:10491000CCF8084002F0F2FF204610BD0448FCE746
:104920000448FAE70448F8E7C5510020BC290020F4
:10493000028000F0018000F0078000F008B50A4B0B
:104940001B785BB107280BD8084B03EB00131B7BCC
:1049500043B1002102F094FF002008BD0448FCE7A9
:104960000448FAE70448F8E7C5510020BC290020B4
:10497000028000F0018000F0078000F008B50A4BCB
:104980001B785BB107280BD8084B03EB00131B7B8C
:1049900043B1012102F074FF002008BD0448FCE788
:1049A0000448FAE70448F8E7C5510020BC29002074
:1049B000028000F0018000F0078000F0F8B5194B8C
:1049C0001F6D5B6D1F4002D40125002402E0FEE74D
:1049D00001346D00072C24D83D42F9D0124B1D65DF
:1049E0002301124AD358002BF2D002EB0416B1680F
:1049F0000131B16072682046984780F00100C0B272
:104A0000737B012BE4D10028E2D0094B03EB441364
:104A10001A7B6FF341021A731A7F6FF341021A7700
:104A2000D6E7F8BD0000045000200450BC29002047
:104A3000BC2800202DE9F04F89B005460E461446EB
:104A40009846C36B5B69012207A960689847EB6BC6
:104A50005B69012206A93046984707A81AF012F9A7
:104A600048B10027A77567754FF0FF33A36038463C
:104A700009B0BDE8F08F074606A81AF013F9012324
:104A8000A375237E033304EBC3035E6000221A8107
:104A90006368B3422AD02368834201D00023A37500
:104AA00006A81AF024F9237D984201D00023A375AB
:104AB00006A81AF0FBF8814607A81AF0F7F8814516
:104AC00001D00023A37506A81AF0F8F8814607A8BC
:104AD0001AF0F4F8814501D00023A375237D043B2F
:104AE000DBB2022B0BD80023A375C0E7206006A819
:104AF0001AF0FDF820754FF0FF33A360EEE706A82B
:104B00001AF0D4F880B1EB6B5B69022204A930463D
:104B1000984704A81AF0DDF80346207D032868D8DA
:104B2000DFE800F0615B070D06A81AF0D2F8034633
:104B3000F3E7237E033304EBC303CC221A811AF07C
:104B4000E6F8129B187094F8189006A81AF0A1F8CD
:104B500009F1030904EBC90989F80A00237E03332C
:104B600004EBC303B3F808A093F80AB006A81AF040
:104B70009DF8814606A81AF0A1F80390B9F1000F3C
:104B80003DD0EB6B5B69022204A93046984704A82C
:104B90001AF05BF86075637D03B9A375A37DA3B1BB
:104BA000BAF1000F11D0039BF1186B6C5B4286EADF
:104BB00001021A4201D00023A3756B6C5A1E0A40F1
:104BC0009B1A9A4501D90023A375A37D002B40D0E1
:104BD000BBF1000F18D1E77D3CE0227E033204EBED
:104BE000C2021381ABE7227E033204EBC2021381BF
:104BF000A5E7227E033204EBC20213819FE706A8D9
:104C00001AF00CF86075C6E70122E275627EBAB947
:104C1000BBF1010F08D095F83470DFB9EA6AB2F140
:104C2000FF3F05D01F4615E001216176174611E0D0
:104C3000BBF1030F01D01F460CE00122A27609E070
:104C4000BBF1010F37D0BBF1030F03D10122A276D4
:104C500000E01F4653B117B1BBF1010F06D953460F
:104C6000039A3146284619F050F9A060A37D13B18C
:104C7000236953442361237E114A127893421CD244
:104C800001332376B8F1000F13D0A37D8BB1E37D00
:104C90007BB177B9BBF1030F0BD0A168B1F1FF3F36
:104CA00007D0129B0093012322462846FFF7C2FE3D
:104CB000A075A77DDBE61746CCE70023A375E1E7E7
:104CC000548202082DE9F04F89B005460F469246FE
:104CD0009B4600238DF80B304FF0FF31104600F05B
:104CE000EFFFB7F5801F1DD30023009317F1020FCC
:104CF00007D0009B002B40F09E802B7C002B00F007
:104D00008C80EB6AB3F1FF3F2CD02A689B1A6A6C47
:104D1000B3FBF2F917F1020818BF4FF001080023A6
:104D200001935DE00DF10A02394605F1080000F03B
:104D300017FF0146B0F1FF3F11D0504600F0C0FF11
:104D40000DF10B0301225146284619F05DF9009040
:104D50000028CBD09DF80B308BF80030C6E700233D
:104D60000093C3E7696A284618F0F0FF8146D1E74F
:104D70000123019337E09DF80B308BF80030324B64
:104D80001A68324950461FF053FF00942F4B996820
:104D9000B1F1FF3F1BD06B6C5B4281EA06021A4205
:104DA00015D12A4C204600F08BFF0DF10B03424633
:104DB0002146284619F028F904460028E6D017F1C4
:104DC000020FD8D0214B1B68BB42DFD1D3E7494645
:104DD000284618F0BBFF8146019BCBB9009BBBB9AD
:104DE0006B6A4B45C4D02C686B6C03FB0944EB6BBE
:104DF0005B69052203A92046984703A81AF01EF80C
:104E00001AF043F820461AF04CF806460146BFE770
:104E1000009BA3B1B7F5801F03D3009B8BB100208B
:104E20000AE09BF80030DAF80420394605F1080062
:104E300000F0B4FEF1E7002009B0BDE8F08F2D20AE
:104E4000FAE72D20F8E700BF50820208B0300020BA
:104E500070B582B004464FF0FF33C3620DF1070313
:104E60001A4A6FF00101FFF72DFF20BB174B9B681B
:104E7000E362E56A2946204618F059FD2063E8B14F
:104E80002946204619F031F80546A36AAB421BD0EB
:104E90002946204618F04BFD0646236B0344236346
:104EA0002946204619F021F80546002EEDD10023B1
:104EB0002363E062E9E7A36AE362DAE7E16A204696
:104EC00019F013F8E062DBE702B070BDDC300020BF
:104ED00030B583B01C46032A14BF002201221B7E7A
:104EE0009A4202D0012003B030BD0D460968236804
:104EF0009942F7D363689942F4D80DF10703114A38
:104F0000FFF7E0FE0028EDD10E4B5A686B689A421D
:104F1000E8D19DF80730032B14BF00230123227E24
:104F20009342DFD16369013363612369E26893428D
:104F3000D8D2A268296842F823102369013323617B
:104F4000D0E700BFDC3000202DE9F04182B00446FC
:104F50000E4690461F46816A06E01A4B9968B1F1E9
:104F6000FF3F1FD0012E23D0E06A884217D0B1F155
:104F7000FF3F14D0134D284600F0A2FE0DF10703A9
:104F800001222946204619F03FF80028E5D03B468B
:104F90009DF8072029462046C0470028DDD102B0F1
:104FA000BDE8F0815968204618F09FFF0146D9E717
:104FB000044B5A68636C5B424A401A42D4D04FF0AB
:104FC000FF31D1E78430002010B50446083000F0EE
:104FD0008DFD0023024A19462046FFF7B5FF10BD9C
:104FE000F7DF010838B50446037C0BBB02461349C2
:104FF000083000F01DFE616A204618F0C9FE421C10
:10500000616A204618F01AFE054620B9236B626CCF
:105010001344143B2363A16A204618F066FFA06284
:105020002368C01A636CB0FBF3F06062284638BD99
:105030000023034A0121FFF787FFDCE78FE3010824
:105040005DE30108F0B589B080B30F4616461D46F2
:10505000044690F834301BB90025284609B0F0BD4D
:10506000012118F0C0FD01950E9B02930397049651
:105070000023059306939DF83C308DF81C30237C6B
:105080005BB901AA0A4904F1080000F0D1FD5EB93C
:10509000069D204619F049F8DFE701AB054A0021DB
:1050A0002046FFF751FFF2E7059DF2E70025D4E720
:1050B000ABDB0108D14E0008F0B58BB004460D46BD
:1050C000406AE36B5B69052205A92668676C07FBEC
:1050D0000060984705A819F0B1FE012836D0009469
:1050E000002301938DF80850039301238DF81030AD
:1050F000A16AE36A99420FD0237CBBB96A4614497E
:1051000004F1080000F094FD019B13B99DF81030E4
:105110009BB901980BB0F0BD204618F0E6FEE062A6
:10512000236B626C9B1A14332363EDE76B46094AC9
:1051300001212046FFF708FFE6E7626A2368616CF9
:1051400001FB0231E06B19F02BFEE2E70020E1E702
:105150005D530008DD5200082DE9F04F89B0044688
:105160008A4691461D46002307930969026BCB1DB1
:10517000406C1438B3FBF0F3013301EBC3019142EF
:1051800000F2A7804E4677E03D2840F092800490E0
:10519000BB4605961EE04FF000092368616C01FBD9
:1051A0000631E06B19F0E8FD204618F026FD204698
:1051B00018F0C2FE2063B9F1000F76D0DAF81020A3
:1051C000D31D616C1439B3FBF1F3013302EBC3025D
:1051D00090423AD32368ABEB0309606CB9FBF0F95A
:1051E00009FB003019F05DFE8046E16A204618F0A8
:1051F0007CFEA36A83422CD0E062374B9A68616CD4
:105200004B1E1340226B5B1A13442363ABEB08075E
:105210002368079EF61AB6FBF1F6B145BBD197B1EC
:10522000E36B9B69BA08414698478146E36A3B4471
:10523000E362236BA8EB0B084344236304F10800EB
:1052400000F054FCA9E7B946A7E7DDF810B0059EC9
:1052500002E0DDF810B0059EBBF1000F29D0DAF8AE
:105260001000226BC31D616C1439B3FBF1F30133E1
:1052700000EBC30082421CD3E76ADFF85C8039464A
:10528000404600F01DFD07AB0293019500963B469A
:1052900042465146204619F073F9834600287FF4B0
:1052A00073AFD8F80830E362D6E7DDF810B0059E9A
:1052B000D2E75F461FB1384609B0BDE8F08F2B46F4
:1052C000054A5268DAF8001004F1080000F066FCA4
:1052D000F1E71C27EFE700BFB0300020F0B583B046
:1052E0001C46032A05D1237A012B33D0012003B0B9
:1052F000F0BD06460F4615460DF10703164A09682C
:10530000FFF7E0FC60600028EDD19DF80730032B2B
:10531000E9D0114B5A687B689A42E4D1237A012B79
:1053200008D13B69E26813447269934202D90023B1
:105330002374D8E7E3683A6913440833E3602B46E3
:10534000012239463046FFF707FF60600028CAD0C7
:105350000020CCE7207CCAE7DC300020F0B583B029
:10536000089C2668032A05D1237A012B4DD0012001
:1053700003B0F0BD15460DF10703254A3046FFF78F
:10538000A1FC60600028EFD12168214B5A688B6A2C
:10539000486CC0F1000C5A4012EA0C0FE4D1227A9A
:1053A000012A19D00F68DB1BB3FBF0F3CA6AD21BCA
:1053B000B2FBF0F29A4219D0E36815490A69134426
:1053C0000833E3602B4601222068FFF7C5FE6060CA
:1053D0000028C9D00020CBE70D4A1269E7683A449B
:1053E0007769BA42DED900232374BDE7726CF16A93
:1053F000531E0B40316B9B1A0B4433632668B16A12
:10540000304618F072FDF062D6E7207CB0E700BFAE
:10541000DC300020F8B56E4B1E6800221A600028B0
:1054200000F0B6800D46044690F8343013B30A6895
:1054300003689A4240F0AE804A6843689A4240F05E
:10544000AC808A6883689A4240F0A980CA68C368C1
:105450009A4240F0A6800A6943699A4240F0A380CC
:105460008A69C36B9A4201D05D2594E04B698361E0
:10547000002590E0876B682200211FF0B2FBA76334
:105480002B6823606B6863602B6963616B69A36140
:10549000EA68A96804F1080000F03AFBAB69E3632D
:1054A0009B6804F14000984730B9636C23B162688F
:1054B000B2FBF3F2E26101E00023E36194F84330D0
:1054C000002B72D000232366656C002D6FD0E3693A
:1054D000002B6ED02368B3FBF5F205FB1233002BD3
:1054E00069D16768B7FBF5F305FB1373002B64D133
:1054F000204618F00CFAA369034404339F425ED39C
:105500006369B3F5805F5CD8CB2B5CD9B5F5805F60
:105510005BD30321204618F066FBE36B1B686168D0
:10552000206898470546E36BDB6802209847EDB199
:10553000636C143B5DB9266A03FB06F6204618F03F
:10554000E6F9A369034404339E4200D25A25B5FA12
:1055500085F35B0984F834301BB11E4A13680133AC
:10556000136085B1204618F0E0FD14E03146204676
:1055700018F05EFD05466428DAD13146204618F061
:1055800057FD0546D4E76168206819F0EAFAE9E7B3
:10559000212500E05D252846F8BD5D25FBE75D255A
:1055A000F9E75D25F7E75D25F5E72125F3E75B25BD
:1055B000F1E75B25EFE75925EDE75925EBE75A259C
:1055C000E9E75F25E7E75F25E5E75B25E3E700BF60
:1055D000402A00203C2A0020F0B585B0A8B30C4634
:1055E00017461E46054690F8343083B3B1F5801F48
:1055F0002FD2012118F0F7FA0DF10F03164A2146B8
:105600002846FFF75FFB044630B99DF80F30012BA9
:1056100008D0022B17D02D24284618F086FD2046EE
:1056200005B0F0BD0C4B1B69B34201D06324F3E716
:1056300000220192084B009333463946284618F061
:105640007CFD0446E8E76024E6E72124E7E711242F
:10565000E5E72924E3E700BF08310020F0B585B075
:10566000002838D00C4617461E46054690F83430C0
:105670009BB3B1F5801F32D2012118F0B4FA0DF1BD
:105680000F03184A21462846FFF71CFB044630B991
:105690009DF80F30012B08D0022B1AD02D2428465C
:1056A00018F043FD204605B0F0BD0E4B1A690A9B69
:1056B000F3189A4201D26324F1E700230193094BC6
:1056C00000930A9B32463946284618F036FD0446B8
:1056D000E5E76024E3E72124E4E71124E2E7292455
:1056E000E0E700BF0831002070B582B058B30C4627
:1056F0001646054690F834303BB3B1F5801F26D2EC
:10570000012118F070FA0DF10703124A21462846CC
:10571000FFF7D8FA044668B99DF80730032B10D07C
:10572000022B01D0612406E00A49284618F0ECFE5D
:10573000306000E02D24284618F0F7FC204602B027
:1057400070BD2D24F7E72124F8E71124F6E729247A
:10575000F4E700BF08310020F0B583B01C460023F9
:10576000236070B30E461746054690F8343053B3A5
:10577000B1F5801F29D2012118F035FA0DF1070388
:10578000134A31462846FFF79DFA064680B99DF830
:105790000730032B13D0022B05D000233B600C4BAA
:1057A0001B69236005E001233B600423236000E0C4
:1057B0002D26284618F0B9FC304603B0F0BD2D2642
:1057C000F7E72126F8E71126F6E72926F4E700BFD8
:1057D0000831002000B583B0044B009300231A4623
:1057E000194619F0C2F803B05DF804FBFFFF0F0083
:1057F00000B583B0044B009300231A46194619F0F4
:10580000BEF803B05DF804FBFFFF0F002DE9F8437D
:105810001D469DF820704369AB422FD3044688464D
:10582000914618F070FD032F06D0266B29462046BE
:1058300018F05DF8864225D3134E4FF0FF31304605
:1058400000F03EFAC6F800803561C6F80C903B4681
:10585000002231462046FFF77FFC0546236E73B1D8
:10586000204619F096F894F8503013B994F858304F
:105870002BB1236E04F15000984700E062252846C2
:10588000BDE8F8831C25FAE7DC3000202DE9F04163
:1058900084B000283AD00C4690461F46054690F842
:1058A0003430ABB3B1F5801F34D2022118F09BF92C
:1058B0000DF10F03184A21462846FFF703FA18B9DD
:1058C0009DF80F30012B0FD0012300933B46424639
:1058D00021462846FFF79AFF0646284618F025FC81
:1058E000304604B0BDE8F0810B4B1B69BB42EBD1E5
:1058F00001230193084B00933B4600224146284672
:1059000018F01BFC06460028E7D0DDE72126E7E774
:105910001126E5E72926E3E708310020F0B583B03A
:10592000A0B30C461646054690F8343083B3B1F563
:10593000801F2FD2022118F056F90DF10703164AE5
:1059400021462846FFF7BEF9B8B99DF80730032B6A
:105950001AD0022B01D0612410E00F4C21462846BA
:1059600018F0D2FD0346471C3A462146284619F056
:105970003DF8044616B1376000E02D24284618F0A3
:10598000D4FB204603B0F0BD2D24F7E72124F8E72F
:105990001124F6E72924F4E70831002070B586B019
:1059A0000392C0B30C46054690F83430ABB3B1F562
:1059B000801F34D2022118F016F90DF11703194A8D
:1059C00021462846FFF77EF9064638B99DF817307C
:1059D000032B03D0022B10D0612608E00223009392
:1059E000CC2303AA21462846FFF710FF0646284687
:1059F00018F09BFB304606B070BD0A49284618F0E7
:105A000083FD039A8242F2D003460649284618F0E5
:105A1000EDFF0646EBE72126ECE71126EAE729260B
:105A2000E8E700BF0831002030B585B048B30C4628
:105A3000054690F8343033B3B1F5801F25D20221EA
:105A400018F0D1F80DF10F03114A21462846FFF74F
:105A500039F978B99DF80F30032B01D12D240AE0D4
:105A60000323009300231A4621462846FFF7CEFE63
:105A7000044600E02D24284618F057FB204605B0C8
:105A800030BD2124FAE71124F8E72924F6E700BF06
:105A900008310020036853F83100C0F31300704749
:105AA000036853F83100C0F307507047036803EBF5
:105AB000C1035868704700BF006850F831301B0DB3
:105AC0001B05134340F83130704700BF006850F8A1
:105AD0003130C3F3130343EA025340F831307047C7
:105AE000036803EBC1035A60704700BF002309E05D
