:020000040800F2
:1000000000200020E53F0008E7D80108E7D80108F4
:100010008D1D0208E7D80108E7D80108E7D80108D4
:10002000E7D80108E7D80108E7D80108E7D80108B0
:10003000E7D80108E7D80108E7D80108E7D80108A0
:10004000E7D80108E7D80108E7D80108E7D8010890
:100050001D600008E7D80108E7D80108E7D80108C3
:10006000E7D80108E7D80108E7D801088536000875
:1000700075360008E7D80108E7D80108E7D8010875
:10008000E7D80108E7D80108E7D80108E7D8010850
:10009000E7D80108E7D801083D4C0008E7D8010877
:1000A000E7D80108E7D8010801470008D946000849
:1000B000E7D80108E7D801082DAB0108D9B5010838
:1000C000AB4E0208A74E02088DAD0108C14E0208D2
:1000D000AF4E0208A9B50108B34E02083DB60108AB
:1000E00075B60108E7D80108E7D80108FDC6000881
:1000F000E7D80108230D0208E7D80108E7D801086E
:10010000E7D80108E7D80108E7D80108E7D80108CF
:10011000E7D80108E7D80108E7D80108E7D80108BF
:10012000E7D80108E7D80108E7D80108E7D80108AF
:10013000E7D80108E7D80108E7D80108E7D801089F
:10014000E7D80108E7D80108E7D80108E7D801088F
:10015000E7D80108E7D801081D70020819900108C6
:10016000E7D80108E7D80108454E02084B4E0208BF
:10018000194A5AB3194BDB6913F0040F29D110B483
:100190000AE003EA00048C4210D0013AB2B1134BDA
:1001A000DB6913F0040F14D110F0010FF1D1104CE2
:1001B0001C40002CEDD06FF001000CE00C4A1A40FE
:1001C0000AB9002007E06FF0010004E06FF00200C0
:1001D00001E04FF0FF305DF8044B70476FF0020014
:1001E00070474FF0FF307047809698000000035032
:1001F000020001000D4BDB6913F4803F12D170B592
:100200000A4B03F580560124F46003F500552C6475
:100210004FF480721A6100212046FFF7B1FF346469
:10022000EC6070BD6FF00100704700BF000003502C
:1002300010B5124B4FF480329A6603F51C33DC691B
:10024000144041F67132DA6303F580520121D16026
:10025000586102221A6100212120FFF791FF40B16D
:10026000074B0122DA601CB1A3F500530022DA63C8
:1002700010BD00212120FFF783FFF1E7009000501F
:100280000020035038B51A4B5861DB6913F0040F96
:100290002AD10C4654F8041B154B9961151F06E032
:1002A000214651F8042B124B9A61043D0C465DB176
:1002B00008210846FFF764FF03460028F0D00C4AE7
:1002C00004211161184638BD094B04221A6100212E
:1002D0002120FFF755FF03460028F3D100212120FC
:1002E000FFF74EFF0346EDE74FF0FF33EAE700BFAD
:1002F000000003502DE9F0410F46164605461A4B03
:100300004FF480329A6603F51C33DA6902F48038C0
:1003100041F67132DA6303F580530122DA6000237B
:1003200002E025442744361B8EB105F5005424F421
:10033000FF5424F01F04641BB44228BF34462246F5
:1003400039462846FFF79EFF03460028E9D0074AB2
:100350000121D160B8F1000F03D0A2F500520021B5
:10036000D1631846BDE8F081009000500020035092
:10037000000000000000000000000000000000007D
:10038000013800D0FCE770472DE9F04F2DED028BCE
:1003900093B082460C4693461D4657EC106B8DED8C
:1003A000080B32463B46304639461BF037FE0028E4
:1003B00000F009814FF0FF32B14B304639461BF057
:1003C00055FE002840F0FF804FF0FF326FF480139D
:1003D000304639461BF02CFE002840F0F480002205
:1003E0000023DDE90867304639461BF021FE00286E
:1003F00040F0FC809DED087B8DED067B209B13F487
:100400008063119301D106231E93DDE906010246A4
:10041000C1F30A50C1F31303904643F07F5949F4E6
:100420004019A0F2FF301BF027FB83A3D3E9002380
:100430001BF08CFB82A3D3E900231BF0D1F9064605
:100440000F4600228F4B404649461BF0C7F97EA35A
:10045000D3E900231BF07AFB02460B4630463946AF
:100460001BF0BEF91BF00CFE06461BF005FB804698
:10047000894677A3D3E900231BF068FB0022824B57
:100480001BF0AEF91BF0FCFD074673A3D3E9002374
:10049000404649461BF05AFB8046894638461BF0C9
:1004A000EBFA6FA3D3E900231BF050FB02460B4687
:1004B000404649461BF092F98046894602460B4663
:1004C0001BF044FBCDE90C0107F2FF3700210022AD
:1004D000CDE90A123B050B9300230A9342464B4693
:1004E000404649461BF07CF9CDE90E0142464B4699
:1004F00000204FF080411BF071F9804689460022B0
:10050000624BDDE90C011BF04BFC0022604B1BF041
:1005100067F902460B46DDE90C011BF041FC0022A5
:100520005C4B1BF05DF902460B46DDE90C011BF04C
:1005300037FC02460B46404649461BF051F902463D
:100540000B46DDE90E011BF02BFC0022524B1BF089
:1005500047F9DDE90A231BF0F9FA8046894649ECA0
:10056000188BDDE906231BF081FD40B1013E00221E
:10057000474B404649461BF013FC41EC180B06F173
:100580006303C62B3BD80427209B13F4006F40D095
:1005900035A3D3E90023DDE90689404649461BF02F
:1005A0005BFD00283BD032A3D3E9002340464946F7
:1005B0001BF03EFD002832D01E9BB34221DD9E1B66
:1005C000731E1E931FE0209B02931F9B01931E9B93
:1005D00000939DED080B2B465A462146504600F0ED
:1005E000CBF813B0BDEC028BBDE8F08F9FED227B02
:1005F0008DED067B069607F100430793FEE605277F
:10060000C2E700231E93209B43F4806320930027BE
:100610003E461F9B9F4241D2A3EB070840E01E9B32
:10062000002BF6D0119B002BF3D01E9B013B1E9399
:10063000EFE700BFAFF30080FB799F501344D33F37
:10064000B3C8608B288AC63F61436F63A787D23FD8
:1006500071A379094F930A401655B5BBB16B02409F
:10066000EF39FAFE422EE63F2D431CEBE2361A3FED
:100670000000000080842E41000000000000000007
:10068000FFFFEF7F0000F83F0000E03F00002C403C
:1006900000002440000018400000F03F4FF0000828
:1006A000209B13F0020902D00FB14FF000083EB1B9
:1006B00053EC182BDDE906011BF072FBCDE90601B6
:1006C00000220023DDE908011BF0B2FC00283BD129
:1006D000209B23F400630293CDF804801E9B0093BB
:1006E0009DED060B2B465A462146504600F044F835
:1006F000002F3FF476AF209B13F0200F2CD04FF04B
:10070000450C00F101082B46024621466046D047C1
:1007100086EAE672A2EBE67205230593013F049791
:10072000002303930A230293F30F019300922B46B5
:1007300042462146504622F0ACFFB9F1000F3FF48B
:1007400050AF02461F9F10E0DDE90601024601F1AD
:100750000043CDE90623BBE74FF0650CD1E7561CFB
:100760002B4621462020D0473246A2EB0B03BB424A
:10077000F5D3104635E700BF2DE9F04F2DED028B84
:1007800093B00590089192469B4659EC108B1E9DA4
:1007900042464B46404649461BF040FC002840D0AC
:1007A0004FF0FF326FF48013404649461BF040FC87
:1007B000002845D14FF0FF32B14B404649461BF06F
:1007C00055FC00284BD1AAA3D3E900234046494653
:1007D0001BF04CFC00285AD1A7A3D3E900234046C4
:1007E00049461BF025FC002851D100220023404639
:1007F00049461BF01DFC002857D100230993209B7C
:1008000013F4806F5CD000241F2C5BD8092D59D9BC
:1008100004F148036B44302203F8202C013D0134DD
:10082000F2E7209B03931F9B029303230193954BB5
:1008300000935B4652460899059822F050FE10E15D
:10084000209B03931F9B0293042301938E4B0093E1
:100850005B4652460899059822F041FE01E1209B33
:1008600013F004030FD0894A7BB10423209903912C
:100870001F990291019300925B4652460899059890
:1008800022F02DFEEDE0824AEEE70323EEE7209B07
:1008900002931F9B0193009549EC108B5B465246D7
:1008A00008990598FFF770FDDBE042464B460020B3
:1008B00000211AF093FF80468946012309939EE7A1
:1008C0000625A0E7404649461BF0DAFB06461BF02A
:1008D000D3F802460B46404649461AF07FFF6D4B5F
:1008E00003EBC50393ED008B53EC182B1BF02EF993
:1008F00002460B46CDE906231BF0EAFB07461BF038
:10090000ABF802460B46DDE906011AF067FF024626
:100910000B46CDE9062300225F4B1BF0A7FB50B32B
:10092000013738461BF098F802460B4651EC180B7D
:100930001BF088FB08B10136002755BB30461BF081
:100940009BF802460B46404649461AF047FF804650
:1009500089460022504B1BF06BFB38B100224E4BF6
:10096000404649461BF082FB002842D016F0010F9A
:100970003FD001363DE00022474BDDE906011BF088
:1009800057FB0028D9D117B117F0010FD5D0013787
:10099000D3E71F2C17D8013D404BA3FB0723DB08EF
:1009A000194603EB8303A7EB4303621C303304F1C6
:1009B00048000DEB000404F8203C092F02D90F4633
:1009C0001446E6E714461F2C0AD86B1E45B104F105
:1009D00048026A44302102F8201C1D460134F2E727
:1009E0001F2C06D804F148036B442E2203F8202C58
:1009F00001341F2C17D82A4A82FB0632F317C3EBA7
:100A0000A2031A4603EB8303A6EB4303611C3033B6
:100A100004F148000DEB000404F8203C16460AB12E
:100A20000C46E6E70C46209B03F00303012B39D06C
:100A30001F2C09D8099B002B51D004F148036B44AB
:100A40002D2203F8202C0134209B03931F9B02933B
:100A500001940AAB00935B4652460899059822F030
:100A60003EFD13B0BDEC028BBDE8F08FAFF300800C
:100A70000000000065CDCD410000000065CDCDC176
:100A8000FFFFEF7F748D0208788D0208688D0208E1
:100A9000708D0208808D02080000E03FCDCCCCCCE8
:100AA000676666661F9BB3B1099B1BB9209B13F059
:100AB0000C0F12D01F9B013B1F93194606E004F157
:100AC00048036B44302203F8202C01348C42AFD20F
:100AD0001F2CF4D9ACE71F99F8E71F99F6E7209B84
:100AE00013F0040F07D004F148036B442B2203F8E2
:100AF000202C0134A8E7209B13F0080FA4D004F1A8
:100B000048036B44202203F8202C01349CE700BFEB
:100B100038B50D46044625F0B5FF064A13889BB24A
:100B20002DB123431380BDE8384025F0A6BF23EA4A
:100B30000403F7E7344B00200022034B01214FF45C
:100B400080709A70E4E700BF344B00207FB54E6898
:100B500002A9044623F037FC9DF808300C2B19D16C
:100B6000134BB3F90050134B9E4218D807F02EFCDC
:100B700003460068694600909B882046ADF8043023
:100B800023F00EFC70B140F25F620B490B480DF090
:100B900025FDFEE7204613F023FB0546E3E71FF0A3
:100BA0002CF8E5E72946204623F0E0FB04B070BDB1
:100BB0000A510020FFC99A3B29900208F48D0208CF
:100BC000002330B5134C85B0CDE90133039323786E
:100BD0008DF8043025F056FFA288E38805469A4236
:100BE0000DD0E188A06801AAA18023F075FA58B160
:100BF00040F2DA62084909480DF0F0FCFEE7A0680F
:100C000023F043FA0128ECD0284625F036FF05B042
:100C100030BD00BF7055002029900208F48D0208F5
:100C200038B50F4C656835B940F2C7720D490E48AA
:100C30000DF0D4FCFEE722F001FE284410F01EFC6B
:100C400000F00700032809D164680921204622F03A
:100C500011FF205C031F5842584138BD0020FCE7BB
:100C6000344B002029900208F48D020808B5114B7E
:100C70009A78042A06D040F28E520F490F480DF0A0
:100C8000ADFCFEE71B881B0706D440F28F520A49D1
:100C90000A480DF0A3FCFEE700210820FFF738FF0B
:100CA0000222074B98681A7313F054F8BDE8084005
:100CB00021F0C8B9344B002029900208F48D0208B5
:100CC0007055002010B5084CA06813F043F8A068D8
:100CD00023F0DBF9012806D00122A0681146BDE807
:100CE000104023F0D4B910BD7055002038B5194D0F
:100CF000AB7833B140F22B72174918480DF06EFCF7
:100D0000FEE725F0BFFE2988044611F0060109D050
:100D100001214FF48070FFF7FBFE2046BDE838400C
:100D200025F0ABBE4FF48070FFF7F2FE12F064F9CD
:100D3000012805D010F0FD0F05D1FFF741FFECE7CA
:100D4000FFF7C0FFE9E740F24172034903480DF0A5
:100D500045FCFEE7344B002029900208F48D020880
:100D600070B50446064D95F90860FFF7BFFF12F015
:100D700041F8314620466A68BDE8704011F072BE05
:100D8000344B002008B50A4B1B88DB0606D440F222
:100D9000A752084908480DF021FCFEE70021102069
:100DA000FFF7B6FE12F0A4F9BDE8084021F04AB9F9
:100DB000344B002029900208F48D02080D4B10B529
:100DC0001B8804469B0713D500210220FFF7A0FED5
:100DD000094B5A7BFF2A06D040F2E54207490848F2
:100DE0000DF0FCFBFEE75C73BDE8104021F02AB972
:100DF00010BD00BF344B0020705500202990020820
:100E0000F48D02087047704707B5ADF8061001462B
:100E100030B94FF4B572104910480DF0DFFBFEE712
:100E2000BDF8063033B940F26B120B490B480DF098
:100E3000D5FBFEE70A4B0DF10602986823F07AFB1A
:100E400030B140F26D12044904480DF0C7FBFEE7D3
:100E500003B05DF804FB00BF29900208F48D02087E
:100E60007055002010B50E4CA37833B14FF4EA72E0
:100E70000C490D480DF0B2FBFEE7606019B1A17B93
:100E8000003918BF01212020FFF742FE074B084818
:100E90009B7B23760223A370BDE8104010F0BAB903
:100EA000344B002029900208F48D02087055002070
:100EB000504B002008B50BF0BFFE80F00100C0B21F
:100EC00008BD0A4B9A780AB1062A0CD11B8803F494
:100ED0008B7343B9064B5A7BFF2A04D1187BFF382A
:100EE00018BF012070470120704700BF344B00201D
:100EF0007055002008B50BF08FFE0028FBD108BD0F
:100F00000C4B42889A8142789A730278DA7382880D
:100F10001A82C2885A82C2685A61017A064A91735B
:100F2000028A998C914204D001214FF400709A8476
:100F3000EEE57047344B002070550020094B9A892C
:100F400042809A7B4270DA7B02701A8A82805A8AC7
:100F5000C2805A699B8CC260034A0382927B0272F0
:100F6000704700BF344B0020705500204B1E012BF2
:100F700070B50C4606D940F2B7221A491A480DF04E
:100F80002DFBFEE7194D0A460146A86823F0FCFA3E
:100F900030B140F2B922134913480DF01FFBFEE7B0
:100FA000AE6810F0ABF822460146304623F0E6FA70
:100FB00030B140F2BD220B490B480DF00FFBFEE7AC
:100FC000AD6810F0A7F822460146284623F0E2FA61
:100FD00030B140F2C122034903480DF0FFFAFEE7A9
:100FE00070BD00BF29900208F48D020870550020E2
:100FF000054BDB7B1B0913F00E0003D0052B8CBFC8
:1010000000200120704700BF70550020044BDB7B9F
:101010001B0913F00E0F0CBF01200020704700BF0A
:10102000705500202DE9F04F15469A0580461F4661
:101030008FB003D501218020FFF76AFDEB014FF04F
:10104000000955D5984C23889E0751D5974E737B40
:10105000FF2B06D040F2AF42954996480DF0BEFAFC
:10106000FEE7636833B94FF49662914991480DF0F9
:10107000B5FAFEE749460220FFF74AFDA37886F855
:101080000D90042B03D101210820FFF741FD00231F
:10109000B06808A98DF82C3023F097F930B140F2F0
:1010A000BA42834983480DF099FAFEE7FFF7A0FFA3
:1010B000B0B922F0C3FB8146606822F0CAFB08A9E0
:1010C0008144B068ADF8249023F082F930B140F249
:1010D000C242774977480DF081FAFEE7089BA36288
:1010E000A378032B02D1B06812F034FE20F0AAFFDF
:1010F000B80702D50120FFF761FE15F0A84F02D016
:101100000220FFF75BFEA90220D50021402003AC9E
:10111000FFF7FEFC2146404623F054FAB0B99DF893
:10112000143008AA022B22D18DF82830BDF80C30DB
:10113000ADF82030104611F067FE38B1404623F07C
:101140003FFA18B901214020FFF7E2FC2A0753D5E6
:10115000564E0321B06803AA23F0EEF9814688B900
:1011600040F2FE42524953480DF038FAFEE7032B95
:1011700005BF8DF82830D4E900018DF82800C2E9B8
:101180000001D7E79DF80C30B068072B40F01F81B5
:10119000494608AA23F0D2F930B140F2015244493D
:1011A00044480DF01BFAFEE7FFF722FFBDF80E20C2
:1011B000A0B9FFF72BFF78B1043292B2B06808A94A
:1011C000ADF8242023F0BCF940B140F21252384966
:1011D00038480DF003FAFEE70232EEE7BDF80E00E4
:1011E0000121073080B225F077FB8246002842D1EA
:1011F00001210C2012F042FDA90705D52A4B1B88BE
:101200001A0701D5FFF732FDAB010BD500210420F1
:10121000FFF77EFC244B9B78012B03D1234B98686E
:1012200012F098FD15F0284F03D000210420FFF79D
:101230006FFC7E060CD51C4C23881D0701D5FFF7DB
:1012400015FD2388580703D500210420FFF760FC13
:10125000F90540F1D88003A9404608AA22F013FFFF
:101260000146002800F0BA8040F2D25210491148DD
:101270000DF0B4F9FEE74FF0000B25F0B1FACDF810
:1012800000B00246BDF80E3004464946B06823F06F
:101290005BF9BDF80E3083420ED040F22252044971
:1012A00004480DF09BF9FEE7344B002070550020F8
:1012B00029900208F48D020822F0C0FA204410F0B0
:1012C000DDF800F007000228DFF8589124D199F8E2
:1012D0000230042B90D122F0B1FA504B2044827896
:1012E0001B789A4288D159460820FFF711FC22F05A
:1012F000A5FA204410F0C2F89DF82E30C0F300107B
:10130000307389F80830FFF78BFC00287FF474AF46
:10131000B06812F01FFD6FE722F090FA204410F041
:10132000ADF883064AD522F089FA204410F0A6F8D9
:1013300000F0070003280BD10921204622F09AFB78
:1013400014F800B0ABF1040CDCF1000B4BEB0C0B10
:1013500001210420FFF7DCFBB06823F008F9C9F88D
:101360002C00BBF1000F30D0B9F8003058062CD556
:1013700000214020FFF7CCFB0126BDF80E309DF880
:101380002E200120E254BDF80E309DF82F2023447A
:101390009A71BDF80E10089A0131214410F07CF8C2
:1013A000BDF80E3050461C44667125F0EDFA1C4B1A
:1013B000187810F035F820F045FE1DE799F8023056
:1013C000012B02D1B06812F0C5FC0026D5E723F04E
:1013D00097F84946B06823F0B5F80DE79DF80C3052
:1013E00003F0BF02032A01D0022B0FD10D4C23883A
:1013F0005A0702D50420FFF78BFB23889B0702D5F1
:101400000120FFF7DBFC0FB0BDE8F08F4FF4BF62A7
:10141000054906480DF0E2F8FEE700BFA14B0020A9
:10142000C44A0020344B002029900208F48D0208A1
:1014300008B50246FFF7DCFD30B1072A06D80020C8
:10144000034B83F8302008BD7020FCE70220FAE748
:10145000344B002008B50246FFF7CAFD28B1002032
:10146000034B93F83030137008BD7020FCE700BFC9
:10147000344B002008B5074B01460022986823F042
:1014800083F830B140F2EB22034904480DF0A6F88E
:10149000FEE708BD7055002029900208F48D02086F
:1014A00008B5074B01460022986823F067F830B171
:1014B00040F2F122034904480DF090F8FEE708BD20
:1014C0007055002029900208F48D020808B5074BDA
:1014D0000146986823F064F830B140F2F7220449DD
:1014E00004480DF07BF8FEE708BD00BF70550020F2
:1014F00029900208F48D020808B5074B9B7833B198
:1015000040F20132054906480DF068F8FEE7BDE8F3
:101510000840FFF7EBBB00BF344B002029900208C6
:10152000F48D020808B5054B0146986822F01EFFAD
:10153000002814BF8B20002008BD00BF705500207C
:10154000014B986812F04CBE70550020014BD888B2
:10155000704700BF705500207FB50123ADF80E30F5
:101560004FF6FE7309480093806800230DF10E02C8
:1015700004A922F088FE212800D020B9BDF810006F
:1015800007B05DF804FB4FF6FF70F9E770550020D7
:1015900008B5044B0146986822F029FEB0FA80F0A5
:1015A000400908BD7055002038B50B4D0446AB7896
:1015B000012B0DD8FFF7ECFF60B1084BDC80AB7856
:1015C0001BB9FFF793FB002038BDFFF7F9FAFAE7E4
:1015D0003E20F9E78A20F7E7344B002070550020C1
:1015E000024B9B780BB9FFF781BB7047344B00204F
:1015F000014BD873704700BF344B002008B5064B31
:101600004FF0FF31986822F06BFD0028B8BF03301F
:1016100040F3870008BD00BF7055002008B5044B9B
:10162000986822F0E0FD034BB3FBF0F080B208BDF8
:101630007055002040420F0030B58DB02C2204467A
:10164000002101A823F0C9FC01234FF002328DF8DC
:1016500008306423CDE9032306930B238DF82C3047
:10166000214B9B8CADF80A30FFF7C2FCA8B140F2C9
:10167000F23307934FF47A7305930CB9FFF722FB0B
:101680001A4D01A9A86812F07FFEC0B140F2AC6209
:10169000174918480CF0A2FFFEE7FFF7BFFF0C2325
:1016A0004343902B0793A3F10A02D8BF91230592DD
:1016B000D8BF0793059B8B2BDFD88C23DCE7FFF784
:1016C000A5FC60B10122A868114622F077FF30B175
:1016D00040F2AF62064907480CF080FFFEE70CB904
:1016E000FFF704FB0DB030BD344B002070550020D7
:1016F00029900208F48D0208F8B525F0C3F9554C7D
:1017000006462388D90503D5A37843BBFFF7EEFA35
:10171000514D6B7BFF2B13D06B7B03F0FF0723BB7B
:10172000FF236B73A378032B0AD100233046A370E9
:1017300025F0A3F93846FFF713FB25F0A3F9064679
:10174000A378042B08D12B7BFF2B05D02B7B022BFE
:1017500014D142480FF05EFDFF232B7327E00021D8
:101760004FF48070FFF7D4F9D2E76B7B012B4FF079
:10177000FF0314BF89278D276B73D6E72B7B13B12B
:101780002B7B012B1ED1FFF74BFA0022FF212B7B75
:101790000746DBB222772973002847D0012B0AD1F4
:1017A00064212E48A3700FF040FDFFF709FA304680
:1017B00025F063F906E03046A27025F05EF931208D
:1017C000FFF7CEFA23881A0608D500218020FFF7FC
:1017D0009FF9A86822F035FE11F06BFC23889B0569
:1017E00007D54FF400700021FFF792F90020FFF7B2
:1017F00023FF0BF011FA608620B324F0F1FF0121E2
:101800000546002012F03AFAA678012E14D10026DF
:101810002677A670FFF76AFA284611F045F8A378F4
:1018200066867BB9BDE8F84011F0E4BAA070304696
:1018300025F023F93846C3E72EB1284611F034F8D5
:1018400000236386F8BDFFF751FA284611F02CF803
:101850006686F7E7344B002070550020504B00207F
:101860008B4BF0B51B888B4C8B4D63848B4B85B0B9
:101870001B68E3628A4B1B8823848A4B1B68A36224
:101880002B88DB0700F1FC8001210846FFF740F9B7
:101890000523854A04F1100104F10800AB7012F031
:1018A0001BFA28B1F522814981480CF097FEFEE72A
:1018B000A3682BB9F7227D497D480CF08FFEFEE727
:1018C0007C4822F028FC70A3D3E90023CDE9002353
:1018D0004FF0FF324FF0FF33A06822F0CBFC4FF403
:1018E0008811A06812F0F4FC014630B140F20F12EA
:1018F0006E496F480CF072FEFEE76F4B1B78012BB0
:101900000ED16E4AA06812F0B5FAA06812F06AFD16
:10191000E0B140F21B12654965480CF05FFEFEE73E
:10192000674E316831B94FF48F72604960480CF0EE
:1019300055FEFEE7614AA06812F09CFA33689B6886
:1019400023B1DB6913B15B7803B1E373FFF704FEE6
:101950000146E080A06812F009FC064630B140F272
:101960002D12524952480CF039FEFEE7554B01202A
:101970001B78C3EB431203EB8203DB00AB84FFF75E
:101980005BFEA7680FF0C6FB32460146384622F0E0
:1019900001FE064630B140F23312444944480CF08F
:1019A0001DFEFEE740F203530427AB81464BAF73A5
:1019B0001B78EB73FFF732FE00EB80039B002B825A
:1019C000FFF72CFEC00068823946A0686E6122F0E5
:1019D000F9FB30B14FF4A172344935480CF0FEFDEB
:1019E000FEE73A46A06803A922F07FFC042806D04F
:1019F0004FF4A3722D492E480CF0F0FDFEE703A929
:101A000001200FF057FD0AF08DFE08224FF0FF3144
:101A1000A06822F040FC30B140F24F122349244824
:101A20000CF0DCFDFEE712F05DFE30B140F2551225
:101A30001E491F480CF0D2FDFEE7FFF7D9FA68B146
:101A40001EF0DDF80146A06822F0AAFC30B140F299
:101A50005912164916480CF0C1FDFEE7A468FFF7BD
:101A60007BFD1A4B014603F10C02204622F036FBA7
:101A700030B14FF4B0720D490D480CF0AFFDFEE7E8
:101A800005B0F0BDAFF300800A0020FF4203000064
:101A90002093020870550020344B00202493020844
:101AA0002293020828930208390B000829900208A3
:101AB000F48D0208690345EC854B00204D0B0008AE
:101AC0005C54002015570020145700205490020841
:101AD00008B5044B986822F088FB034BB3FBF0F089
:101AE00080B208BD7055002040420F002DE9F04340
:101AF0008C4D87B02B889B0706D440F24C728A49E4
:101B00008A480CF06BFDFEE7AB78033B012B06D94E
:101B100040F24E72844985480CF060FDFEE76A6829
:101B200032B940F25172804980480CF057FDFEE70F
:101B30007F4E2C88F77B14F0200418BF4FF47A7482
:101B40004FEA1718FFF754FA00287DD0B8F1020FBA
:101B50000AD0A8F10303022B74D940F265727249CE
:101B600072480CF03BFDFEE7032795F8303008EB98
:101B7000C80898446F4B104603EB4803B3F81C8029
:101B800021F067FE4FF4FA534343B3FBF8F3782296
:101B90007733B3FBF2F31F44C7EB0717AB78FF00B3
:101BA000BFB204F5347417FA84F4042BA4B203D141
:101BB00007F6E8072744BCB2D5F8048021F03EFEC2
:101BC0000746686821F045FE074421F05DFEBFB27C
:101BD0003F1A21F033FE40440FF050FC7378C0F3FD
:101BE00040198DF80C30544BBFB2CDE904340024B9
:101BF00021F056FE009402463B464146B06822F072
:101C000081FC287EB278737812FB00F29342C4BF45
:101C10009B1ADCB22B88F18813F0200FB068B180DA
:101C20008DF80C4003AB76D000934A46434B22F02C
:101C30004AFA002873D040F224723B493B480CF02A
:101C4000CDFCFEE7062790E7FFF7E0F9002846D035
:101C5000384B07F00F0708EBC801394403EB410389
:101C60001046B3F81C9021F0F4FDB8F1000F2CD011
:101C7000B8F1010F2CD14FF00408400080B2F319E5
:101C800093F834304BB14FF4FA52023303444344D7
:101C90009BB25343B3FBF9F39CB2AB78042B8BD1CB
:101CA000FFF7BCFC374497F834308146053398443D
:101CB000FFF70EFF0C2308FB00F003FB09F909EB0B
:101CC000C009A1441FFA89F476E74FF00208D6E76D
:101CD00040F28672144915480CF080FCFEE7FFF7CD
:101CE000F7FE0746686821F0B4FD09307843AB7809
:101CF00004EBC000042B84B27FF45EAFFFF78EFCD0
:101D00000746FFF7E5FE602358430C2303FB07005B
:101D1000204484B250E74A4622F0D3F989E707B05D
:101D2000BDE8F083344B002029900208F48D0208AE
:101D3000705500205490020820A10700404B00205D
:101D4000F8B5494C258815F0020506D040F2751209
:101D5000464947480CF042FCFEE7257724F092FE06
:101D6000238806465A070CD5424B986822F0FFFBA1
:101D7000E36AC01AA38C984203D929460420FEF7CF
:101D8000C7FE304624F079FEA778022F37D124F021
:101D900079FE2388064613F0040507D036480FF075
:101DA00039FA3046BDE8F84024F067BE24F065FEFD
:101DB000606811F059F820B1A570BDE8F840FEF751
:101DC000CFBF24F05FFE6668054621F037FD304442
:101DD0000FF054FB10F0200F0CBF0323042301214C
:101DE0003846A370FEF794FEFFF780FE284624F0E5
:101DF00044FE01210846BDE8F84011F03FBF042F22
:101E000027D11C4B1B7BFF2B2DD1237EF3B124F05C
:101E100039FE238805465B0704D517480FF0FAF909
:101E20002846BFE724F029FE237E013B237624F0D9
:101E300029FE044601210220FEF76AFEFFF756FE46
:101E4000204624F01AFE01210820D4E74020A37088
:101E5000B3E7012F07D10023A370064B986811F058
:101E600079FF3120A9E7F8BD344B00202990020802
:101E7000F48D020870550020504B002038B5012128
:101E800004461020FEF744FE064B9D68FFF7C6FB94
:101E9000012200FB04F1044B284622F0FDF800204B
:101EA00038BD00BF70550020850D000808B50A4BED
:101EB0001B88DB0606D44FF46172084908480CF011
:101EC0008DFBFEE710200021FEF722FE054B9868EF
:101ED000BDE8084022F0EEB8344B002029900208FB
:101EE000F48D02087055002038B50E4D688E30B95B
:101EF00040F291320C490D480CF070FBFEE724F0E3
:101F00006FFC0446688E24F089FC811F2144012067
:101F10000FF0D0FA064B0446986822F028FB001B0D
:101F200038BD00BF344B002029900208F48D020810
:101F30007055002010B5084C636833B94FF46872CF
:101F4000064907480CF04AFBFEE7064B986822F06A
:101F50000EFBA36AC01A10BD344B00202990020862
:101F6000F48D02087055002038B50A4D688E30B9DE
:101F700040F2AA32084909480CF030FBFEE724F091
:101F80002FFC0446688E24F049FC044414F8020C2B
:101F900038BD00BF344B002029900208F48D0208A0
:101FA00038B50A4D688E30B940F2B932084909484F
:101FB0000CF014FBFEE724F013FC0446688E24F0BA
:101FC0002DFC044414F9070C38BD00BF344B00202D
:101FD00029900208F48D020838B50A4D688E30B990
:101FE0004FF47272084909480CF0F8FAFEE724F041
:101FF000F7FB0446688E24F011FC044414F9010C2C
:1020000038BD00BF344B002029900208F48D02082F
:10201000024B1888C0F3C010704700BF344B00203B
:1020200030B585B005466C460D4B0FCB84E80F00EC
:102030000DB12B6800930B4B21460022986812F0DB
:10204000E5F8044630B140F2E632074907480CF0A3
:10205000C5FAFEE7FEF7B4FD204605B030BD00BF6F
:10206000DC9002087055002029900208F48D0208C7
:1020700030B5154D87B004460DF10701A86822F070
:10208000FBF830B140F2F732104911480CF0A6FAD3
:10209000FEE79DF80720531EDBB2FD2B0FD90294FB
:1020A000FF2A00D10394A86802A922F0CDF940B11B
:1020B00040F20442054906480CF090FAFEE7012A76
:1020C000EFE707B030BD00BF70550020299002082F
:1020D000F48D020808B5064B986822F0C4F930B1B7
:1020E0004FF48262034904480CF078FAFEE708BD19
:1020F0007055002029900208F48D02080122024B3D
:102100001146986821F0C3BF705500207047F8B59C
:10211000064604200D4621F073FB030622D5124F1C
:10212000BC78FCB926B1012E17D002242046F8BD98
:1021300001262846FFF72CFA0028F6D00B4800238A
:1021400032462946806821F0C0FF40B14FF48A62D0
:10215000074908480CF042FAFEE72646E9E706235D
:10216000BB70E3E77024E1E7344B0020705500209A
:1021700029900208F48D0208042010B521F040FBDC
:10218000030611D5094CA378062B0DD1084B98688E
:1021900021F09DFF30B140F26A42064906480CF03A
:1021A0001DFAFEE7A07010BD7020FCE7344B002044
:1021B0007055002029900208F48D02081FB50446CE
:1021C00001A811F0EBFF9DF80D3053B14CB1064B57
:1021D0002078617818700020A27859709A7004B045
:1021E00010BD0220FBE700BF705500201FB504465C
:1021F00001A811F0D3FF9DF80D3053B14CB1002070
:10220000054B1A7822705A789B786270A37004B0DC
:1022100010BD0220FBE700BF70550020FFF7CEBFC6
:10222000FFF7E4BF0348044B834202D0034B03B1E2
:10223000184770472C5700202C5700200000000042
:10224000064B0749C91A891048BF0131491003D00C
:10225000044B0BB101481847704700BF2C570020B2
:102260002C5700200000000010B5064C237843B91D
:10227000FFF7D8FF044B13B10448AFF300800123EC
:10228000237010BDC451002000000000C8CC02081B
:1022900008B5054B1BB105490548AFF30080BDE803
:1022A0000840FFF7CDBF00BF00000000A0220020C3
:1022B000C8CC0208A3F5803A704700BF174B002B2B
:1022C00008BF134B9D46FFF7F5FF00218B460F46D5
:1022D0001348144A121A22F080FE0E4B002B00D035
:1022E00098470D4B002B00D0984700200021040098
:1022F0000D000D48002802D00C48AFF300801AF002
:102300001FFC200029001BF09EF81AF0AFF800BF58
:102310000000080000000000000000000020002075
:1023200000200020405200200000000000000000BB
:1023300008B5224B1B78012B1BD0022B2BD003B1ED
:1023400008BD1F4B1B781F4A1278B3EB420F06DA09
:1023500001331B4A13701C481BF010F9F0E7184BAF
:1023600000221A7018481BF00DF9184823F0EEFEF1
:10237000E6E7134B1B78134A1278B3EB420F03DAEC
:1023800001330F4A1370DBE70D4B00221A700F4820
:1023900023F0DCFED4E70A4B1B780A4A1278B3EB31
:1023A000420F03DA0133064A1370C9E7044B0022D7
:1023B0001A70064823F0CAFEC2E700BFC5510020CC
:1023C000C7510020C651002004850208B822002011
:1023D00070B582B014460B4B18700B4B197000256A
:1023E0000A4B1D700A4E304623F0B0FE01230193C4
:1023F00000952B46074A2146304624F08BFD02B05B
:1024000070BD00BFC5510020C6510020C75100203B
:10241000B82200203123000800B583B0074B012209
:10242000DA60064B5B6913F0400FFAD10349684646
:102430001DF09DFA009803B05DF804FB00400059C0
:1024400010B582B004461AF070FF08B902B010BD92
:1024500000230093ADF80430074B1B88ADF8023021
:10246000ADF8044041F23423ADF800306946042051
:102470001FF07FFEEAE700BF0051002008B51346B9
:102480000A4601460448006803F040FB00B908BD55
:1024900002480CF0A3F8FAE72855002088710208DA
:1024A0000A2800D9704730B583B004460D466B4604
:1024B00001AA01461048006803F08EFA08B9019B92
:1024C00023B10E480CF08AF803B030BD009B2A46B9
:1024D00021460948006803F0BFF940B92146084881
:1024E0000CF07CF8294607480CF078F8ECE7214618
:1024F00005480CF073F8E7E72855002090710208B2
:10250000B4710208D0710208D87102080A2800D9F3
:10251000704710B504460146064B186803F0C4FB2B
:1025200020B9214604480CF059F810BD03480CF0BE
:1025300055F8FAE728550020FC71020818720208C5
:1025400038B504461FF021FEA04201D8012038BD55
:102550000546032001F0E8FA0028F8D01BF032F815
:102560001BF031F82B4622460349044800681EF050
:102570003EFC0020EBE700BF307202085427002029
:1025800030B583B004468368C26853F822301D8892
:102590002846FFF7D5FF08B903B030BD00230093EC
:1025A000ADF80430164B1B88ADF80230ADF804507E
:1025B0006368E2689B1A012B1DDDA368013253F8A2
:1025C00022301B88ADF800301FF0CFFD6946032094
:1025D0001FF0CFFD0446032001F0A6FA0028DBD04F
:1025E0001AF0F0FF1AF0EFFF22460649064B186872
:1025F0001EF0FDFBD0E740F2FF13ADF80030E3E73B
:1026000002510020687202085427002030B583B0C0
:1026100004468368C26853F822301D882846FFF7B5
:102620008FFF08B903B030BD00230093ADF804302C
:10263000154B1B88ADF80230ADF804506368E268B2
:102640009B1A012B1BDDA368013253F822301B8833
:10265000ADF80030694604201FF08BFD04460320CE
:1026600001F062FA0028DDD01AF0ACFF1AF0ABFFDF
:1026700022460649064B18681EF0B9FBD2E740F225
:10268000FF13ADF80030E5E7025100208872020820
:102690005427002030B583B004468368C26853F8DD
:1026A00022301D882846FFF74BFF08B903B030BD24
:1026B00000230093ADF80430154B1B88ADF80230B1
:1026C000ADF804506368E2689B1A012B1BDDA36818
:1026D000013253F822301B88ADF8003069460220E1
:1026E0001FF047FD0446032001F01EFA0028DDD04C
:1026F0001AF068FF1AF067FF22460649064B186871
:102700001EF075FBD2E740F2FF13ADF80030E5E7AD
:10271000025100209C7202085427002030B583B07B
:102720008368C26853F822301C7800230193436801
:102730009B1A012B19DD01AA01211DF025FE01467E
:102740009DF804001FF00DFD054680B1022001F048
:10275000EBF960B11AF036FF1AF035FF2A46064948
:10276000064B18681EF043FB01E01FF0FEFC2046FC
:102770001FF003FD03B030BDB872020854270020DB
:1027800010B503468168C26851F82200B0F9000014
:102790001A4C20805B689B1A012B0FDD013251F827
:1027A000223093F90010003918BF01211FF08AFC74
:1027B000A0B9032001F0B8F910B910BD0021F5E768
:1027C0001AF000FF1AF0FFFE0D4B1C681FF07EFC94
:1027D00002460C4920461EF00AFBEEE7012001F0FC
:1027E000A3F90028E9D01AF0EDFE1AF0ECFE064934
:1027F000034B18681EF0FBFADFE700BF0251002010
:10280000542700201C7302083073020808B51FF01B
:102810004DFC032001F088F900B908BD1AF0D2FE82
:102820001AF0D1FE0249034B18681EF0E0FAF4E7F3
:10283000487302085427002008B58368C26853F81B
:1028400022301A88094B1A80032001F06DF900B973
:1028500008BD1AF0B7FE1AF0B6FE044B1A880449F8
:10286000044B18681EF0C3FAF2E700BF9056002030
:10287000687302085427002008B5024B18680EF050
:10288000C9FC08BD042300202DE9F04186B01FF0EB
:1028900029FC0446894B1B7813F0020F2CD0884E7C
:1028A00013F0010F2AD0864F13F0040F28D0DFF861
:1028B0001082032001F038F928BB032001F034F91D
:1028C00058BB032001F030F9002835D1032001F076
:1028D0002BF900283ED1032001F026F9002847D12A
:1028E000032001F021F900285ED1032001F01CF93A
:1028F000002867D1002471E0724ED1E7714FD3E711
:10290000DFF8C081D5E71AF05DFE1AF05CFE6E4973
:102910006E4B18681EF06BFACFE71AF053FE1AF0F0
:1029200052FE6A4B1D6805F021FA02460B466849C3
:1029300028461EF05CFAC4E71AF044FE1AF043FE83
:10294000624B1D681FF0A6FB0246624928461EF036
:102950004EFABBE71AF036FE1AF035FE5B4B1D68E7
:102960001FF0CCFB02465C4928461EF040FAB2E755
:102970001AF028FE1AF027FEE279A379617920790E
:10298000E57894F802C094F801E024780594CDF835
:1029900010E0CDF80CC00295019000914F494B48D2
:1029A00000681EF024FA9BE71AF00CFE1AF00BFEEA
:1029B000464B1C681FF09AFB0246494920461EF010
:1029C00016FA92E71AF0FEFD1AF0FDFD45493F4B5D
:1029D00018681EF00CFA8DE70134E4B2072C12D807
:1029E000032001F0A1F80028F6D01AF0EBFD1AF050
:1029F000EAFD364B1D681FF075FB025D3A4928461B
:102A00001EF0F5F9E8E7032001F08EF898B90320ED
:102A100001F08AF8C8B9032001F086F818BB03203A
:102A200001F082F868BB032001F07EF8002836D15F
:102A300006B0BDE8F0811AF0C5FD1AF0C4FD2B49BF
:102A4000224B18681EF0D3F9E1E71AF0BBFD1AF02B
:102A5000BAFD1E4B1C681FF04DFB02462449204660
:102A60001EF0C5F9D7E71AF0ADFD1AF0ACFD174B13
:102A70001C681FF023FB02461E4920461EF0B7F9D2
:102A8000CDE71AF09FFD1AF09EFD104B1C681FF059
:102A90001DFB0246184920461EF0A9F9C3E71AF0AB
:102AA00091FD1AF090FDCDF800803B463246134967
:102AB000064800681EF09BF9BAE700BF06570020E1
:102AC000D0720208D87202088473020854270020CA
:102AD0008C730208A8730208C4730208E07302082A
:102AE000047402082074020834740208CC710208CD
:102AF0003C74020858740208707402088874020852
:102B000030B583B08368C26853F822301C7801A9BD
:102B100020461FF0CFFA88B9032001F005F808B964
:102B200003B030BD1AF04EFD1AF04DFD019B224658
:102B30000B490C4800681EF05AF9F1E705460120E0
:102B400000F0F2FF0028EBD01AF03CFD1AF03BFD3C
:102B50002A460549034B18681EF049F9E0E700BF13
:102B6000C074020854270020DC74020870B5826823
:102B7000C36852F823100C88013352F823301D78B3
:102B8000294620461FF0E9FA80B9032000F0CCFF67
:102B900000B970BD1AF016FD1AF015FD2B4622463D
:102BA0000B490C4800681EF022F9F2E706460120A6
:102BB00000F0BAFF0028ECD01AF004FD1AF003FD73
:102BC00032460549034B18681EF011F9E1E700BFD2
:102BD00000750208542700203075020870B582B0D5
:102BE0008368C26853F822301B78134A137013F0BD
:102BF000020F0ED0114C13F0010F0CD00F4D13F03B
:102C0000040F0AD00D4E032000F08EFF38B902B039
:102C100070BD0B4CEFE70A4DF1E7094EF3E71AF0F0
:102C2000D1FC1AF0D0FC00962B46224605490648F6
:102C300000681EF0DCF8EAE706570020D0720208B0
:102C4000D8720208E47202085427002030B58FB011
:102C500004460D4668461AF07EFB0DF1200EEC4648
:102C6000BCE80F00AEE80F009CE803008EE803000C
:102C700008A9464B186820F07EF810F1880F46D15D
:102C800068461AF068FB0DF1200EEC46BCE80F0018
:102C9000AEE80F009CE803008EE803004FF41053E9
:102CA000ADF820308023ADF822304FF44073079305
:102CB00007A81AF060FB079B0A93354B0B93334B25
:102CC0001A68099B0D9213F0FF0F04D123F0FF0344
:102CD00043F001030993012309932C4B2A46214613
:102CE00008A820F065F8044610BB032000F01CFF84
:102CF00090B9264B18681FF0D5F90546002831D148
:102D0000032000F011FF044610BB01242FE01F4BED
:102D1000186820F007F8B3E71AF054FC1AF053FCD7
:102D20001A4B1A681B491C4B18681EF060F8E0E744
:102D3000032000F0F9FE0028DBD01AF043FC1AF063
:102D400042FC22461549144B18681EF050F8D0E793
:102D50001AF038FC1AF037FC11490F4B18681EF0B6
:102D600046F804E0032000F0DFFE044610B92046D8
:102D70000FB030BD1AF026FC1AF025FC2A4609498E
:102D8000054B18681EF033F80024F0E7D822002025
:102D90000001440560750208542700209075020860
:102DA000B4750208D475020800B583B00021019102
:102DB00001AA1DF0E9FA019910290ED0032000F0B4
:102DC000B3FE60B11AF0FEFB1AF0FDFB10220549BC
:102DD000054B18681EF00BF801E0FFF737FF03B052
:102DE0005DF804FBF47502085427002010B588B084
:102DF00020F0DDF8032000F097FEF8B901244A4BDB
:102E00001C6002A81AF0CEFA02A920461FF0B3FFF8
:102E100010F1880F1CD0032000F086FE00286ED130
:102E2000414B18681FF03EF91FF093F90446032048
:102E300000F07AFE00286CD108B010BD1AF0C2FB79
:102E40001AF0C1FB39493A4B18681DF0D0FFD5E79D
:102E5000032000F069FE002837D1334B1A68039B2A
:102E6000079213F0FF0F04D123F0FF0343F0010397
:102E70000393304B05934FF44073019301A81AF06C
:102E8000A1FA019B04934FF41053ADF8083080234E
:102E9000ADF80A3001230393234B1022264902A8E0
:102EA0001FF086FF0446D0B9032000F03DFE002845
:102EB000B6D01AF087FB1AF086FB1B4B1A681F4925
:102EC0001B4B18681DF093FFAAE71AF07BFB1AF062
:102ED0007AFB1B49164B18681DF089FFBDE70320DC
:102EE00000F022FE00289BD01AF06CFB1AF06BFB5E
:102EF000224614490E4B18681DF079FF90E71AF02E
:102F000061FB1AF060FB1049094B18681DF06FFF58
:102F100086E71AF057FB1AF056FB22460B49044B82
:102F200018681DF064FF87E7D82200201C7602088D
:102F300054270020000144054C540020607502080D
:102F40002876020890750208507602087C760208FE
:102F500038B5012009F07EFB134D29460120FFF70B
:102F60009FFA124C21460020FFF79AFA10490220DE
:102F7000FFF796FA691C0320FFF792FA00F048FC6D
:102F800020781AF0E2F900F0B9FB0A4B01221A701E
:102F9000094B1B6800221A704FF4FA61074B18683E
:102FA0000EF043F938BD00BFE8220020CA510020CE
:102FB00004510020CB510020FC22002000230020DF
:102FC00010B5204B1B781E2B28D01F2B34D11D4C45
:102FD0006378214601F80D3F01220320FFF74EFAE6
:102FE000637B012B0ED0032B12D02BB1C822022100
:102FF0000020FFF7EDF91FE0C82201210020FFF7B4
:10300000E7F919E0C82202210020FFF7E1F913E0F7
:10301000C82201210020FFF7DBF90DE0094C63789D
:1030200004F80D3FC82201210020FFF7D1F9012249
:1030300021460320FFF722FA034B1B6800221A7077
:1030400010BD00BFDC220020F822002010B50B4983
:103050000B4809F005FA0B490B4809F001FA0B4C33
:103060000B49204609F0FCF90A490B4809F0F8F928
:10307000322120680EF0D9F810BD00BF25320008BB
:1030800004230020C131000800230020FC2200207E
:10309000512F0008C12F0008F822002038B5002069
:1030A000FFF734FA0120FFF731FA094D9620287016
:1030B0001AF04BF90024074901F80C4F0122104681
:1030C000FFF7DCF9012229462046FFF7D7F938BD82
:1030D000CA510020DC22002008B502281BD1022999
:1030E00017D81A4B1B7B73B9194B01221A70194858
:1030F0001AF06FFD1AF023F941F27071164B18683F
:103100000EF093F816E0C82202210020FFF760F9C4
:10311000F2E703290FD90D4B10229A7201309873F0
:1031200032220A210020FFF753F901210B4B1868C6
:103130000EF07BF808BD1AF002F9FFF7AFFF4FF46D
:10314000FA61054B18680EF070F8F3E7DC220020F6
:10315000C851002004850208002300200423002019
:1031600008B51AF0D9F882B222B1124B1B883BB9CC
:10317000104B1A8002220F491046FFF77FF908BD55
:1031800082B207EE902AF8EEE77A9FED0B7A67EEAF
:10319000877A07EE103AB8EEC77ADFED086A27EEB5
:1031A000267A77EE877AFCEEE77A024B17EE902AC2
:1031B0001A80DFE704510020CDCCCC3D6666663F27
:1031C00008B5144B5B6FC3F3C003134A12789AB16E
:1031D000114A0021117043B9FFF7C2FF08F084FAC9
:1031E0000E4B1B6800221A7008BD4FF4FA610B4B9E
:1031F00018680EF01AF8F7E7074B01221A70FFF76C
:10320000AFFF07481AF0BEF90A21044B18680EF008
:103210000CF8E9E700C00350CC5100200023002047
:103220000485020800B583B01F4B1B7B9BB1022BAA
:1032300026D01E481AF0D5F8FFF792FF1C4B1B68EA
:1032400000221A704FF4FA611A4B18680DF0EDFF66
:1032500003B05DF804FB9DF804306FF304038DF8B0
:1032600004309DF804306FF346138DF804300F4B93
:103270000F221A7002225A729DF804205A70D8E761
:10328000094B9B7A102BD4D1084B10221A700522BF
:103290005A7205498A7B5A70074A12889A70120A34
:1032A000DA70CA7A1A71C4E7DC220020EC2200200E
:1032B000042300200023002004510020014B187833
:1032C000704700BFCD51002010B504468179806859
:1032D0001AF05CF963795B42014AD37210BD00BFFA
:1032E000DC22002010B50C468B681B780F2B04D015
:1032F000237B5B42084AD37210BD074B1B7B002B1C
:10330000F6D10028F4D10449022301F80C3F012230
:103310001046FFF7B3F8EBE7DC22002008B5903841
:1033200006285AD8DFE800F0041F355959434E00EB
:103330000123334A1370334A1370334B1B7863B93C
:10334000324B1B7B43BB304B1B782BB3304B198864
:10335000304B18680DF069FF1EE0C82202210020E2
:10336000FFF736F8ECE7264B00221A70264B1B7845
:1033700093B1294B1B7833B11046FFF761F8264B08
:1033800000221A7008E0642205210020FFF720F8CF
:1033900002E01D4B1B781BB91B4B1B7843BB08BDC0
:1033A0004FF47A7202210020FFF712F8F4E7164B6F
:1033B0001B78002BF0D04FF47A7202210020FFF727
:1033C00007F8E9E7104B1B78002BE5D04FF47A7231
:1033D00002210020FEF7FCFFDEE70B4B1B78002BE1
:1033E000DAD04FF47A7202210020FEF7F1FFD3E722
:1033F00041F27071094B18680DF017FFCFE700BF5D
:10340000C9510020CD510020CB510020DC220020EA
:103410009056002004230020C851002000230020E3
:1034200008B5024B1B6803B1984708BD382300203C
:1034300008B5024B5B6803B1984708BD38230020EC
:1034400008B5024B9B6803B1984708BD382300209C
:1034500008B5024BDB6803B1984708BD382300204C
:1034600008B5024B1B6903B1984708BD38230020FB
:1034700008B5024B5B6903B1984708BD38230020AB
:1034800000B585B0094B1868094B1860094B0A4A0A
:1034900013600A4A01920A4A12680292039301A930
:1034A0001CF094FF05B05DF804FB00BF78540020C9
:1034B000983100206C54002094310020648402086C
:1034C0000C26002008B5024B18681CF093FF08BDBD
:1034D0007854002038B507F07BFA0446064D2B6877
:1034E000D3F8B00207F068FA28681CF09DFF204668
:1034F00007F062FA38BD00BF7854002008B50348D1
:1035000023F082FB024801F00FF908BD8888020809
:103510007C5400200023062073B1704754B224B9B4
:10352000013353B15DF8044B70470228F8D00868A6
:103530000A4908601046F3E710B4094A52F823100C
:103540000A7A022AEAD9032AEAD1441EE4B2012CFB
:10355000E6D90868014908601046E1E70C2600201A
:103560009054002010B5A2B00DF1680C284C0FCC7F
:10357000ACE80F0094E80F008CE80F0000211591D3
:1035800016911791189119914FF480131593214BAF
:103590001993109111911291139114911E4B109344
:1035A0001E4B14933C2201A821F017FD01AC0DF134
:1035B000540CBCE80F000FC4DCF80030236006ACEC
:1035C0000DF1400CBCE80F000FC4DCF800302360A4
:1035D000134B0B9320230C9301238DF834308DF87B
:1035E0003530104B0F93104B1AAA01A90F4807F062
:1035F0009BFA04469DF837303BB100214FF4E1308F
:103600001AF05FF9204622B010BD0321F6E700BF93
:10361000848402083C00015B010010004400015B4F
:1036200010260020A454002030260020EC26002084
:1036300008B531B9084B1868036823B107F08AFE52
:1036400001E0012900D908BD034B18680368002B6D
:10365000F9D01DF0AEFEF6E7B854002008B50349D6
:10366000034807F0EBFFFFF77DFF08BDBC540020C7
:103670001427002008B502481DF0FFFB08BD00BF5D
:10368000EC26002008B502481DF0F7FB08BD00BF7E
:10369000EC26002008B5024B5A6A1868904708BD0E
:1036A000EC26002008B506481AF08FF905481AF0F4
:1036B0008CF905481AF089F904481AF086F908BD12
:1036C000EC840208D4840208BC840208A4840208A2
:1036D00008B502481AF078FA08BD00BF0485020850
:1036E00008B5044A19F098FE034B18680DF092FDD6
:1036F00008BD00BFDC220020F822002070B590B089
:1037000001212A2003F02CF800250D950E950F9528
:103710001B4E2A461B49304603F0CAFF8DF839007C
:103720000DF10C0C184C0FCCACE80F000FCCACE832
:103730000F0094E803008CE803004FF496630693AF
:103740000195029503238DF806308DF8065001236C
:103750008DF800308DF801508DF802508DF803502F
:1037600010238DF8013003AA0DA9304603F0E0FFC5
:103770006A4601A930461CF0BBF810B070BD00BF0E
:103780000040005940420F001C85020800B583B07C
:103790000B460549097801910092002201211EF093
:1037A000C5FC03B05DF804FB0657002070B5044665
:1037B00006790568322022F0ADFD854205D2134B13
:1037C00003EBC60300221A7170BD25684FF47A70AE
:1037D00022F0A0FD854205D20C4B03EBC60301226B
:1037E0001A71F1E7246840F6B83022F093FD844264
:1037F00005D2064B03EBC60302221A71E4E7034B22
:1038000003EBC60303221A71DEE700BF3427002052
:1038100038B5114B186819F09CFF054690B1284641
:1038200038BD0134E4B2032C0ED80C4B53F82400FD
:103830001AF0D2F80128F4D123F060FB084B43F8CA
:103840003400EEE70024EEE7064B00221A70024B2C
:10385000186819F08EFFE2E730270020C4540020DA
:10386000342700200757002000B9704730B583B0D7
:103870000446104D104928681DF0B9FA19F0A2FE4F
:1038800019F0A1FE0D4B00934FF48D730C4A0D49B6
:1038900028681DF0ACFA23460B4A0C4928681DF035
:1038A000A6FA204600F088F9094928681DF09FFA19
:1038B00000BEFDE754270020CC710208F485020801
:1038C00044850208B4850208C0850208C88502083C
:1038D000E085020800B589B0002307E000222649F0
:1038E00041F823202549CA540133DBB2032BF5D913
:1038F000002309E0224A02EBC301042008710021E1
:1039000042F833100133DBB2032BF3D900230193C8
:103910000293039304930593069307939DF8043051
:1039200043F001038DF80430DBB243F008038DF857
:103930000430DBB243F020038DF80430114B0293C6
:10394000114B039302238DF810304FF480630593DD
:103950000523ADF818300423ADF81A300823079377
:103960000A4901A800F046F910B909B05DF804FB56
:10397000FFF77AFFF9E700BF202700201C2700206F
:10398000342700209139000895D501083027002000
:1039900010B584B001AA02A9124B186819F02BFFC8
:1039A000E8B902A8FFF702FF002401E00134E4B205
:1039B000032C0ED80C4B03EBC40319790429F5D062
:1039C0002046FFF789FB084B03EBC40304221A715E
:1039D000ECE7044B186819F0CCFE04B010BDFFF7FB
:1039E00043FFFAE730270020342700201D4B1B78C7
:1039F000002B35D170B582B00024032C2ED81A4B81
:103A000053F82430834202D00134E4B2F5E719F0D0
:103A1000E3FF01281DD023F071FA144B53F83460F2
:103A2000861B00968DF80440282022F073FC864205
:103A300005D80E4B03EBC4031B79052B0ED10822CE
:103A400069460B4B186819F0A4FE38B1FFF70CFF5C
:103A500004E023F053FA054B43F8340002B070BD84
:103A6000704700BF07570020C454002034270020AF
:103A70003027002010B58368C26853F822301C78C4
:103A8000032C00D90324064B1B5D03B110BD23F0AA
:103A900035FA044B43F82400014B01221A55F5E78F
:103AA0001C2700202027002038B58368C26853F8FF
:103AB00022301C78032C00D90324194B1B5D012BE9
:103AC00000D038BD23F01AFA164B53F82450451B8A
:103AD000134B00221A55322022F01CFCA84204D9B4
:103AE00000212046FFF7F8FAEBE74FF47A7022F056
:103AF00011FCA84204D901212046FFF7EDFAE0E7C6
:103B000040F6B83022F006FCA84204D90221204633
:103B1000FFF7E2FAD5E703212046FFF7DDFAD0E709
:103B20001C2700202027002003460B4A107828B1CC
:103B30000A4A12789A4202D2002000E00120084A84
:103B400012783AB1074A127842FA03F313F0010FE0
:103B500000D10020704700BF0A57002009570020FD
:103B6000CF5100200857002008B5084B01221A70D9
:103B7000074B00221A70074B04221A70064B1F22B3
:103B80001A7006F025FF054B186008BD0A57002083
:103B9000CF5100200957002008570020542700204B
:103BA00008B50349034B18681DF021F908BD00BF93
:103BB0000C8602085427002070B506460A4C0B49B3
:103BC00020681DF014F906F003FF0546206806F092
:103BD000F3FE3046FFF7E4FF284606F0EDFE044909
:103BE00020681DF004F970BD5427002010860208DB
:103BF00014860208F8B500284FD00D460446002967
:103C00004DD0037813F0030F36D04268002A48D015
:103C100013F0080F02D0A28A002A44D013F0200F1C
:103C200005D0E38A002B40D0A369002B3FD02C2085
:103C30001DF019FD064600283BD02C22002121F062
:103C4000CCF921686268A368E0687160B260F360D3
:103C5000306121696269A3697161B261F36123789E
:103C600013F0040F0ED000272E60636843B1314675
:103C7000114819F04AFE03E04268002AC8D0212703
:103C80003846F8BD0121304619F02FFD07460028BF
:103C9000EAD030461DF0C6FDF2E72227F0E72227E2
:103CA000EEE72127ECE72127EAE72127E8E72127AC
:103CB000E6E71927E4E700BF5827002008B50348C6
:103CC00019F01CFE19F0CBFB08BD00BF58270020DF
:103CD00010B50B4B1C6802E022F0BCFE246864B1F6
:103CE00022F0BDFE94F82030002BF5D0A36A002B03
:103CF000F2D022F0AFFE002000E0012010BD00BF96
:103D00005827002010B50B4B1C6802E022F0A2FEE1
:103D1000246864B122F0A3FE94F82030002BF5D083
:103D2000A36A002BF2D022F095FE042000E00120CF
:103D300010BD00BF5827002010B50C4B1C6802E0D6
:103D400022F088FE24687CB122F089FE94F82030AD
:103D5000002BF5D0A36A002BF2D0013BA36222F026
:103D600079FEA3689847EDE710BD00BF58270020F3
:103D700008B5054822F048FF19F095FB012019F01D
:103D80006FFD00F085F808BD8888020808B5024874
:103D900022F03AFF08BD00BF888802082DE9F041F3
:103DA00080460F4601F109050026344604E05B21F8
:103DB000082000F081FA0134AC4233D2052C1BD824
:103DC00001A353F824F000BFAF3D0008E13D000817
:103DD000153E0008E93D0008ED3D0008F13D0008F2
:103DE000FBB20433D9B2E3E78021E1E70021DFE74A
:103DF000731C3146DEB2DBE7BB1DA3420CD0FB1DBA
:103E0000A3420BD007F10803A34209D0A31F18F85F
:103E10000310CDE7D121CBE75A21C9E75A21C7E7E3
:103E20005D21C5E70020BDE8F08100BF00B583B08B
:103E300000220092019202218DF80010054819F02D
:103E40002AFD019008216846FFF7A8FF03B05DF83E
:103E500004FB00BF006A180000B583B0044B1B8848
:103E6000ADF8043001A800F003FB03B05DF804FBDB
:103E70001886020800B583B0044B1B88ADF80430E7
:103E800001A800F0C5FA03B05DF804FB188602082B
:103E9000F0B58DB0444C0DF1140C04F1040EBEE8E5
:103EA0000F00ACE80F009EE807008CE80700238CA9
:103EB000ADF81030A38CADF80C30238DADF8083080
:103EC0002388ADF80430394822F09EFE384F38463A
:103ED00022F09AFE01258DF82250364B0793364E7C
:103EE00005A930461BF0C8FD2A46042104A800F0AD
:103EF00053FA0022294603A800F04EFA2A4604216C
:103F000002A800F049FA2A4604210DEB010000F056
:103F100043FA2A4C2A4BC4F8AC374FF00213C4F8CA
:103F2000A837A3F58033C4F8B0371C23C4F89837FA
:103F30004FF4487008F032FAFFF78EFF142008F0B3
:103F40002DFAFFF797FF232008F028FAFFF784FFE8
:103F5000B92130461BF0DEFDFFF78CFF0022114631
:103F600004A800F019FA0022114603A800F014FA80
:103F70002A46002102A800F00FFA2A46002101A8D3
:103F800000F00AFA304603F011FF0023C4F8983716
:103F9000C4F8AC37C4F8A837C4F8B037384622F0B4
:103FA00038FE0DB0F0BD00BF1886020888880208F0
:103FB0007088020800127A0000C0055000C003504B
:103FC0000200030008B50448044A121A921004497A
:103FD00019F08AFC08BD00BF8001000880030008BA
:103FE0004052002008B5154B83F30A8800F030F8E2
:103FF000FFF7E8FF124A0AE01068516850F8230002
:1040000041F82300013391688B42F5D30C320D4BFC
:104010009A4201D20023F6E70B4A08E0116800201B
:1040200041F82300013351688B42F7D30832074B24
:104030009A4201D20023F6E7FEF740F90000002083
:10404000D0CC0208DCCC0208DCCC0208DCCC0208B4
:1040500070B5134B134A9A60D3F8882042F470026B
:10406000C3F88820104A4FF4804191660F4D05F542
:1040700000544FF0FF3222660D4A62660222C3F8F6
:10408000D020BFF34F8FBFF36F8F002006F06AFC84
:104090004FF44036E66000201CF054FE2E6170BDE7
:1040A00000ED00E000000008009000500080004497
:1040B0007FFF7F01014B1860704700BFFC54002058
:1040C00008B5064B1860064B1B6F03F00703032B64
:1040D00000D008BD21F008FAFBE700BF045500201E
:1040E00000800050BFF34F8F0549CA6802F4E062B8
:1040F000044B1343CB60BFF34F8F00BFFDE700BFFE
:1041000000ED00E00400FA05F0B18446F1B110B40E
:1041100009E004F120000FE02033C01A18D1BCB12F
:104120000CF1010C01319CF800400B4B1B5D03F0BE
:104130000303012BEDD020460B78074AD25C02F036
:104140000302012AE9D1E7E7012070470120704707
:104150005DF8044B704700BF95CB020830B587B0BF
:104160000546046823798DF80C3063798DF80D309D
:104170001A4822F049FD0022012103A800F00CF9A1
:104180000DF10B0103A819F0E8FC9DF80B3023702A
:10419000A379022B02D0002007B030BD4FF0FF33CF
:1041A0000593049300950E4B012205A903A800F086
:1041B0002FFA059BB3F1FF3F07D00095084B022271
:1041C00004A903A800F084F9E5E70095044B042254
:1041D00004A903A800F07CF9DDE700BF8888020885
:1041E000E7D9010810B582B0002401942A4822F0D2
:1041F0000BFD8DF8004003238DF8013001220421CE
:10420000684600F0C9F8254B0122C3F8442401A9EF
:10421000052022F0F2FC00283BD1214BD3F8F020FE
:1042200042F00102C3F8F020D3F8FC2042F0807283
:10423000C3F8FC20A3F55D431A4A1A60019B03F5FD
:10424000D52303F2FC43DB08174AA2FB03239B0A96
:10425000013B164A13610223C2F8F0304FF4807319
:10426000C2F804334FF06043114AC3F8B02F114A2B
:10427000C3F8802ED3F8002E42F48072C3F8002ECB
:10428000FF2283F82020D3F8002E22F48072C3F896
:10429000002E02B010BD00BF8888020800D0035075
:1042A00000ED00E0FF03004017916502000004E00C
:1042B00055CEACC5090001004FF06043D3F8803EF5
:1042C00013F0010F01D1112070470E4AD2F8FC30D3
:1042D00043F08073C2F8FC304FF06043D3F8002EF7
:1042E0004FF0010C0CFA00FC42EA0C02C3F8002E5D
:1042F00053F82030002BE8D04FF0604303F8201033
:104300000020704700ED00E010B504460FE00123E7
:10431000834024EA03040F2814D800EB40020E4B1C
:1043200003EB82035A6812B19968C0B2904794B106
:10433000234600201F28EAD813F0010FE7D10130EF
:104340005B08F7E7103800EB40039B00B033024AEC
:1043500013440433E6E710BD5C27002008B50D4880
:1043600022F052FC1A2006F0EDFA28B91B2006F0C4
:10437000E9FA40B9002008BD1A2006F0F3FA1A2025
:104380001CF0E0FCF2E71B2006F0ECFA1B201CF00E
:10439000D9FCEFE7888802082DE9F04170B30C469C
:1043A000174605460F292BD803784BB1022B20D096
:1043B000032B21D0012B01D0002303E07F2301E058
:1043C00040F2FF736A78D34013F0010F1AD00F4BFD
:1043D000D3F81063C6B922F055FB80463A46214611
:1043E000284603F009FD404622F047FB3046BDE871
:1043F000F08140F2FF33E5E73F23E3E72226F5E7CC
:104400002126F3E72126F1E70226EFE700C003505B
:1044100040B310B5044603784BB1022B1DD0032BDB
:104420001ED0012B01D0002303E07F2301E040F2E6
:10443000FF736278D34013F0010F15D022F022FBF6
:10444000237862780121914003EB43031B01074A63
:10445000D15022F012FB002010BD40F2FF33E8E7FC
:104460003F23E6E7222070472120F5E740D00350A4
:1044700040B310B5044603784BB1022B1DD0032B7B
:104480001ED0012B01D0002303E07F2301E040F286
:10449000FF736278D34013F0010F15D022F0F2FAC7
:1044A000237862780121914003EB43031B01074A03
:1044B000D15022F0E2FA002010BD40F2FF33E8E7CD
:1044C0003F23E6E7222070472120F5E740E0035034
:1044D000002866D02DE9F0410C4615461F460646D9
:1044E000002960D002784AB1022A3ED0032A3FD088
:1044F000012A01D0002303E07F2301E040F2FF7393
:104500007178CB4013F0010F01D1FF2A4DD1022D5C
:1045100001D9042D4BD122F0B5FA80463378FF2B18
:1045200028D12368B3F1FF3F2BD02268B2F1FF3FBF
:1045300032D0204B02EB420203EB8202576022682A
:1045400002EB420203EB8203069A9A603378FF2B58
:1045500005D0226801239340174AC2F8243440460C
:1045600022F08BFA0020BDE8F08140F2FF33C7E76C
:104570003F23C5E72A462168304603F0A7FC2060A8
:10458000CFE73378FF2BD0D10C4BD3F824147078BD
:104590001BF0DAFA2060C8E7404622F06EFA2D20C0
:1045A000E1E7222070472220DDE72120DBE7212000
:1045B000D9E700BF5C27002000D0035000C00350A3
:1045C000B0F1FF3F1AD038B504460F2818DC002898
:1045D00018DB22F057FA0123A3400B4AC2F820341B
:1045E000C2F82434094B04EB440203EB8202002599
:1045F0005560956022F041FA284638BD2120704769
:104600002120FAE72120F8E700E003505C27002092
:10461000002856D02DE9F0410C4617461E460546A7
:10462000002950D0017849B1022939D003293AD064
:10463000012901D0002303E07F2301E040F2FF7352
:104640006A78D34013F0010F01D1FF293DD122F048
:1046500019FA80462B78FF2B27D12268B2F1FF3F51
:104660002AD01B4B02EB420203EB8202C2F8B86075
:10467000226802EB420203EB8203069AC3F8BC20D5
:104680002B78FF2B06D02268103201239340114A69
:10469000C2F82434404622F0F0F90020BDE8F08151
:1046A00040F2FF33CCE73F23CAE73A462168284669
:1046B00003F0ACFC2060D0E7404622F0DEF92D206C
:1046C000ECE7222070472220E8E72120E6E700BF40
:1046D0005C27002000D0035008B5084BD3F8240411
:1046E000D3F82024104000F0553020F0502003F57E
:1046F0000053C3F82004FFF707FE08BD00C00350B5
:1047000008B5084BD3F82404D3F82024104000F057
:10471000AA3020F0A02003F50053C3F82004FFF7CF
:10472000F3FD08BD00C0035070B586B005460368B0
:10473000B3F1B64F27D0304A934222D04FF0FF3624
:10474000B3F1B64F21D02C4A934252D12B4822F0DC
:104750005BFA2B798DF804306B798DF80530AB79E5
:104760008DF80030EB798DF8013001220A2101A883
:10477000FFF712FE01220A216846FFF70DFE002412
:1047800012E00126DCE70026DAE71D48DFE701A892
:10479000FFF76EFE642007F001FE01A8FFF738FE68
:1047A000642007F0FBFD0134092CF0DD154A02EB13
:1047B00006110323C1F8383568792B7943EA0043A1
:1047C000C1F83C35E979AB7943EA01435436360107
:1047D000935101238DF808308DF80930EB6804936C
:1047E000AB6803932B7C8DF8143002A9286802F083
:1047F00003FF06B070BD00BF00800650808802082D
:104800008488020800C0035010B582B004460A48EC
:1048100022F0FAF923788DF8043063788DF80530AA
:10482000A278B2FA82F2520904210DEB0100FFF7DF
:10483000B3FD002002B010BD88880208F0B585B035
:104840000C4694469DF83410664A1278002A00F00F
:10485000BD800546BCF1070F00F2BA800A9A002A13
:1048600000F0B8800B9A002A00F0B6800E9AB2F5DC
:10487000006F00F3B38001285BD05B4A02EB0C129F
:10488000127B002A00F0AC8000220092019202927A
:104890000392564A02EB4C1E002C4FD14FEA4C16A5
:1048A00000209051CEF80400CEF80800CEF80C009D
:1048B0009EF8020040F010008EF802009EF80300FF
:1048C00040F030008EF8030021B9C1B241F003017D
:1048D0008EF8031000930E9B013B444A4FEA4C10A4
:1048E00002EB4C11165A63F30E1616520A9B8B609C
:1048F0000B9B4B60CB789DF83C2062F38303CB701D
:10490000012D36D0109B002B56D0374A4FEA0C11A0
:1049100002EB0C1310985050119A5A6000249C60BE
:104920005D7372466946604603F028F9204605B07B
:10493000F0BD0C9A002AA0D12D48F8E72B4F4FEA82
:104940004C1607EB4C120020B85150609060D060BC
:10495000907840F010009070D07840F00300D07054
:104960000029B7D107EB4C12C1B241F03001D17030
:10497000B0E70E460A7B42F001020A73D2B242F05F
:1049800002020A73CA68042161F39F02F26006F111
:10499000100796E80F0087E80F00F2696FF0030137
:1049A00061F39F02F2610C9B7361012CAAD10B9AF7
:1049B000B2610C9A7260A5E7002DA6D10B4B03EBF8
:1049C0004C139A786FF304129A709EE70948AEE789
:1049D0000748ACE70648AAE70548A8E70448A6E761
:1049E0000548A4E7D0510020C4290020C428002095
:1049F000018000F0028000F0078000F0134B1B786C
:104A0000FBB110B50446F0B122F03CF80023072BAF
:104A100013D80F4A02EB0312127B0AB10133F6E7F7
:104A200023600B4A190102EB031301241C730024B9
:104A3000545022F022F8204602E022F01EF80548E9
:104A400010BD054870470548FAE700BFD051002067
:104A5000C4290020048000F0028000F0018000F0F2
:104A600038B522F00FF804460023072B06DC0C4A69
:104A700002EB0312127B12B90133F6E7002222B1D6
:104A8000204621F0FAFF074838BD03F023F800253F
:104A9000054B1D70204621F0F0FF2846F4E700BFCB
:104AA000C4290020058000F0D05100200F4B1B7856
:104AB000BBB110B50446072815D821F0E3FF0C4B15
:104AC00003EB04131B7B1BB921F0D7FF09480BE054
:104AD000074B03EB041300241C7321F0CEFF204688
:104AE00002E005487047054810BD00BFD0510020C6
:104AF000C4290020068000F0028000F0018000F050
:104B000000B583B0134B1B68019300238DF804306C
:104B100021F0B8FF104B1B7833B90F4B01221A70EC
:104B200021F0ABFF002309E021F0A7FF0B480EE0C6
:104B30000B4A02EB0312002111730133072BF7DD3F
:104B400008238DF8073001A802F0E8FF002003B029
:104B50005DF804FB44860208D0510020038000F079
:104B6000C429002010B5104C2478BCB1072817DCEC
:104B70000E4C04EB0014247BA4B10C4C4FEA001E35
:104B800004EB001C44F80E30029BCCF804300024E7
:104B9000CCF8084002F0F2FF204610BD0448FCE7C4
:104BA0000448FAE70448F8E7D0510020C42900205F
:104BB000028000F0018000F0078000F008B50A4B89
:104BC0001B785BB107280BD8084B03EB00131B7B4A
:104BD00043B1002102F094FF002008BD0448FCE727
:104BE0000448FAE70448F8E7D0510020C42900201F
:104BF000028000F0018000F0078000F008B50A4B49
:104C00001B785BB107280BD8084B03EB00131B7B09
:104C100043B1012102F074FF002008BD0448FCE705
:104C20000448FAE70448F8E7D0510020C4290020DE
:104C3000028000F0018000F0078000F0F8B5194B09
:104C40001F6D5B6D1F4002D40125002402E0FEE7CA
:104C500001346D00072C24D83D42F9D0124B1D655C
:104C60002301124AD358002BF2D002EB0416B1688C
:104C70000131B16072682046984780F00100C0B2EF
:104C8000737B012BE4D10028E2D0094B03EB4413E2
:104C90001A7B6FF341021A731A7F6FF341021A777E
:104CA000D6E7F8BD0000045000200450C4290020BD
:104CB000C42800202DE9F04F89B005460E46144661
:104CC0009846C36B5B69012207A960689847EB6B44
:104CD0005B69012206A93046984707A81AF0CEF969
:104CE00048B10027A77567754FF0FF33A3603846BA
:104CF00009B0BDE8F08F074606A81AF0CFF90123E6
:104D0000A375237E033304EBC3035E6000221A8184
:104D10006368B3422AD02368834201D00023A3757D
:104D200006A81AF0E0F9237D984201D00023A3756C
:104D300006A81AF0B7F9814607A81AF0B3F9814519
:104D400001D00023A37506A81AF0B4F9814607A87C
:104D50001AF0B0F9814501D00023A375237D043BEF
:104D6000DBB2022B0BD80023A375C0E7206006A896
:104D70001AF0B9F920754FF0FF33A360EEE706A8EB
:104D80001AF090F980B1EB6B5B69022204A93046FE
:104D9000984704A81AF099F90346207D032868D89B
:104DA000DFE800F0615B070D06A81AF08EF90346F4
:104DB000F3E7237E033304EBC303CC221A811AF0FA
:104DC000A2F9129B187094F8189006A81AF05DF9D1
:104DD00009F1030904EBC90989F80A00237E0333AA
:104DE00004EBC303B3F808A093F80AB006A81AF0BE
:104DF00059F9814606A81AF05DF90390B9F1000F40
:104E00003DD0EB6B5B69022204A93046984704A8A9
:104E10001AF017F96075637D03B9A375A37DA3B17B
:104E2000BAF1000F11D0039BF1186B6C5B4286EA5C
:104E300001021A4201D00023A3756B6C5A1E0A406E
:104E40009B1A9A4501D90023A375A37D002B40D05E
:104E5000BBF1000F18D1E77D3CE0227E033204EB6A
:104E6000C2021381ABE7227E033204EBC20213813C
:104E7000A5E7227E033204EBC20213819FE706A856
:104E80001AF0C8F86075C6E70122E275627EBAB909
:104E9000BBF1010F08D095F83470DFB9EA6AB2F1BE
:104EA000FF3F05D01F4615E001216176174611E04E
:104EB000BBF1030F01D01F460CE00122A27609E0EE
:104EC000BBF1010F37D0BBF1030F03D10122A27652
:104ED00000E01F4653B117B1BBF1010F06D953468D
:104EE000039A3146284619F00CFAA060A37D13B14D
:104EF000236953442361237E114A127893421CD2C2
:104F000001332376B8F1000F13D0A37D8BB1E37D7D
:104F10007BB177B9BBF1030F0BD0A168B1F1FF3FB3
:104F200007D0129B0093012322462846FFF7C2FEBA
:104F3000A075A77DDBE61746CCE70023A375E1E764
:104F4000688602082DE9F04F89B005460F46924663
:104F50009B4600238DF80B304FF0FF31104600F0D8
:104F6000EFFFB7F5801F1DD30023009317F1020F49
:104F700007D0009B002B40F09E802B7C002B00F084
:104F80008C80EB6AB3F1FF3F2CD02A689B1A6A6CC5
:104F9000B3FBF2F917F1020818BF4FF00108002324
:104FA00001935DE00DF10A02394605F1080000F0B9
:104FB00017FF0146B0F1FF3F11D0504600F0C0FF8F
:104FC0000DF10B0301225146284619F019FA009001
:104FD0000028CBD09DF80B308BF80030C6E70023BB
:104FE0000093C3E7696A284619F0ACF88146D1E717
:104FF0000123019337E09DF80B308BF80030324BE2
:105000001A683249504620F00FF800942F4B9968E7
:10501000B1F1FF3F1BD06B6C5B4281EA06021A4282
:1050200015D12A4C204600F08BFF0DF10B034246B0
:105030002146284619F0E4F904460028E6D017F185
:10504000020FD8D0214B1B68BB42DFD1D3E74946C2
:10505000284619F077F88146019BCBB9009BBBB974
:105060006B6A4B45C4D02C686B6C03FB0944EB6B3B
:105070005B69052203A92046984703A81AF0DAF8CD
:105080001AF0FFF820461AF008F906460146BFE775
:10509000009BA3B1B7F5801F03D3009B8BB1002009
:1050A0000AE09BF80030DAF80420394605F10800E0
:1050B00000F0B4FEF1E7002009B0BDE8F08F2D202C
:1050C000FAE72D20F8E700BF64860208B830002018
:1050D00070B582B004464FF0FF33C3620DF1070391
:1050E0001A4A6FF00101FFF72DFF20BB174B9B6899
:1050F000E362E56A2946204618F015FE2063E8B110
:105100002946204619F0EDF80546A36AAB421BD0AC
:105110002946204618F007FE0646236B0344236306
:105120002946204619F0DDF80546002EEDD1002372
:105130002363E062E9E7A36AE362DAE7E16A204613
:1051400019F0CFF8E062DBE702B070BDE430002078
:1051500030B583B01C46032A14BF002201221B7EF7
:105160009A4202D0012003B030BD0D460968236881
:105170009942F7D363689942F4D80DF10703114AB5
:10518000FFF7E0FE0028EDD10E4B5A686B689A429B
:10519000E8D19DF80730032B14BF00230123227EA2
:1051A0009342DFD16369013363612369E26893420B
:1051B000D8D2A268296842F82310236901332361F9
:1051C000D0E700BFE43000202DE9F04182B0044672
:1051D0000E4690461F46816A06E01A4B9968B1F167
:1051E000FF3F1FD0012E23D0E06A884217D0B1F1D3
:1051F000FF3F14D0134D284600F0A2FE0DF1070327
:1052000001222946204619F0FBF80028E5D03B464C
:105210009DF8072029462046C0470028DDD102B06E
:10522000BDE8F0815968204619F05BF80146D9E7DE
:10523000044B5A68636C5B424A401A42D4D04FF028
:10524000FF31D1E78C30002010B50446083000F063
:105250008DFD0023024A19462046FFF7B5FF10BD19
:10526000EFE3010838B50446037C0BBB0246134943
:10527000083000F01DFE616A204618F085FF421CD0
:10528000616A204618F0D6FE054620B9236B626C91
:105290001344143B2363A16A204619F022F8A0624C
:1052A0002368C01A636CB0FBF3F06062284638BD17
:1052B0000023034A0121FFF787FFDCE787E70108A6
:1052C00055E70108F0B589B080B30F4616461D4674
:1052D000044690F834301BB90025284609B0F0BDCB
:1052E000012118F07CFE01950E9B02930397049612
:1052F0000023059306939DF83C308DF81C30237CE9
:105300005BB901AA0A4904F1080000F0D1FD5EB9B9
:10531000069D204619F005F9DFE701AB054A00219B
:105320002046FFF751FFF2E7059DF2E70025D4E79D
:10533000A3DF010851510008F0B58BB004460D46BB
:10534000406AE36B5B69052205A92668676C07FB69
:105350000060984705A819F06DFF012836D0009429
:10536000002301938DF80850039301238DF810302A
:10537000A16AE36A99420FD0237CBBB96A461449FB
:1053800004F1080000F094FD019B13B99DF8103062
:105390009BB901980BB0F0BD204618F0A2FFE06267
:1053A000236B626C9B1A14332363EDE76B46094A47
:1053B00001212046FFF708FFE6E7626A2368616C77
:1053C00001FB0231E06B19F0E7FEE2E70020E1E7C4
:1053D000DD5500085D5500082DE9F04F89B0044601
:1053E0008A4691461D46002307930969026BCB1D2F
:1053F000406C1438B3FBF0F3013301EBC30191426D
:1054000000F2A7804E4677E03D2840F0928004905D
:10541000BB4605961EE04FF000092368616C01FB56
:105420000631E06B19F0A4FE204618F0E2FD20469C
:1054300018F07EFF2063B9F1000F76D0DAF8102063
:10544000D31D616C1439B3FBF1F3013302EBC302DA
:1054500090423AD32368ABEB0309606CB9FBF0F9D7
:1054600009FB003019F019FF8046E16A204618F068
:1054700038FFA36A83422CD0E062374B9A68616C94
:105480004B1E1340226B5B1A13442363ABEB0807DC
:105490002368079EF61AB6FBF1F6B145BBD197B16A
:1054A000E36B9B69BA08414698478146E36A3B44EF
:1054B000E362236BA8EB0B084344236304F1080069
:1054C00000F054FCA9E7B946A7E7DDF810B0059E47
:1054D00002E0DDF810B0059EBBF1000F29D0DAF82C
:1054E0001000226BC31D616C1439B3FBF1F301335F
:1054F00000EBC30082421CD3E76ADFF85C803946C8
:10550000404600F01DFD07AB0293019500963B4617
:1055100042465146204619F02FFA834600287FF470
:1055200073AFD8F80830E362D6E7DDF810B0059E17
:10553000D2E75F461FB1384609B0BDE8F08F2B4671
:10554000054A5268DAF8001004F1080000F066FC21
:10555000F1E71C27EFE700BFB8300020F0B583B0BB
:105560001C46032A05D1237A012B33D0012003B036
:10557000F0BD06460F4615460DF10703164A0968A9
:10558000FFF7E0FC60600028EDD19DF80730032BA9
:10559000E9D0114B5A687B689A42E4D1237A012BF7
:1055A00008D13B69E26813447269934202D900232F
:1055B0002374D8E7E3683A6913440833E3602B4661
:1055C000012239463046FFF707FF60600028CAD045
:1055D0000020CCE7207CCAE7E4300020F0B583B09F
:1055E000089C2668032A05D1237A012B4DD001207F
:1055F00003B0F0BD15460DF10703254A3046FFF70D
:10560000A1FC60600028EFD12168214B5A688B6AA9
:10561000486CC0F1000C5A4012EA0C0FE4D1227A17
:10562000012A19D00F68DB1BB3FBF0F3CA6AD21B47
:10563000B2FBF0F29A4219D0E36815490A691344A3
:105640000833E3602B4601222068FFF7C5FE606047
:105650000028C9D00020CBE70D4A1269E7683A4418
:105660007769BA42DED900232374BDE7726CF16A10
:10567000531E0B40316B9B1A0B4433632668B16A8F
:10568000304618F02EFEF062D6E7207CB0E700BF6F
:10569000E4300020F8B56E4B1E6800221A60002826
:1056A00000F0B6800D46044690F8343013B30A6813
:1056B00003689A4240F0AE804A6843689A4240F0DC
:1056C000AC808A6883689A4240F0A980CA68C3683F
:1056D0009A4240F0A6800A6943699A4240F0A3804A
:1056E0008A69C36B9A4201D05D2594E04B6983615E
:1056F000002590E0876B682200211FF06EFCA763F5
:105700002B6823606B6863602B6963616B69A361BD
:10571000EA68A96804F1080000F03AFBAB69E363AA
:105720009B6804F14000984730B9636C23B162680C
:10573000B2FBF3F2E26101E00023E36194F843304D
:10574000002B72D000232366656C002D6FD0E369B7
:10575000002B6ED02368B3FBF5F205FB1233002B50
:1057600069D16768B7FBF5F305FB1373002B64D1B0
:10577000204618F0C8FAA369034404339F425ED35D
:105780006369B3F5805F5CD8CB2B5CD9B5F5805FDE
:105790005BD30321204618F022FCE36B1B68616891
:1057A000206898470546E36BDB6802209847EDB117
:1057B000636C143B5DB9266A03FB06F6204618F0BD
:1057C000A2FAA369034404339E4200D25A25B5FAD3
:1057D00085F35B0984F834301BB11E4A136801332A
:1057E000136085B1204618F09CFE14E03146204637
:1057F00018F01AFE05466428DAD13146204618F022
:1058000013FE0546D4E76168206819F0A6FBE9E7B6
:10581000212500E05D252846F8BD5D25FBE75D25D7
:10582000F9E75D25F7E75D25F5E72125F3E75B253A
:10583000F1E75B25EFE75925EDE75925EBE75A2519
:10584000E9E75F25E7E75F25E5E75B25E3E700BFDD
:10585000482A0020442A0020F0B585B0A8B30C46A1
:1058600017461E46054690F8343083B3B1F5801FC5
:105870002FD2012118F0B3FB0DF10F03164A214678
:105880002846FFF75FFB044630B99DF80F30012B27
:1058900008D0022B17D02D24284618F042FE2046AF
:1058A00005B0F0BD0C4B1B69B34201D06324F3E794
:1058B00000220192084B009333463946284618F0DF
:1058C00038FE0446E8E76024E6E72124E7E71124F0
:1058D000E5E72924E3E700BF10310020F0B585B0EB
:1058E000002838D00C4617461E46054690F834303E
:1058F0009BB3B1F5801F32D2012118F070FB0DF17E
:105900000F03184A21462846FFF71CFB044630B90E
:105910009DF80F30012B08D0022B1AD02D242846D9
:1059200018F0FFFD204605B0F0BD0E4B1A690A9B2A
:10593000F3189A4201D26324F1E700230193094B43
:1059400000930A9B32463946284618F0F2FD044679
:10595000E5E76024E3E72124E4E71124E2E72924D2
:10596000E0E700BF1031002070B582B058B30C469C
:105970001646054690F834303BB3B1F5801F26D269
:10598000012118F02CFB0DF10703124A214628468D
:10599000FFF7D8FA044668B99DF80730032B10D0FA
:1059A000022B01D0612406E00A49284618F0A8FF1E
:1059B000306000E02D24284618F0B3FD204602B0E8
:1059C00070BD2D24F7E72124F8E71124F6E72924F8
:1059D000F4E700BF10310020F0B583B01C4600236F
:1059E000236070B30E461746054690F8343053B323
:1059F000B1F5801F29D2012118F0F1FA0DF107034A
:105A0000134A31462846FFF79DFA064680B99DF8AD
:105A10000730032B13D0022B05D000233B600C4B27
:105A20001B69236005E001233B600423236000E041
:105A30002D26284618F075FD304603B0F0BD2D2602
:105A4000F7E72126F8E71126F6E72926F4E700BF55
:105A50001031002000B583B0044B009300231A4698
:105A6000194619F07EF903B05DF804FBFFFF0F0043
:105A700000B583B0044B009300231A46194619F071
:105A80007AF903B05DF804FBFFFF0F002DE9F8433E
:105A90001D469DF820704369AB422FD304468846CB
:105AA000914618F02CFE032F06D0266B294620467F
:105AB00018F019F9864225D3134E4FF0FF313046C6
:105AC00000F03EFAC6F800803561C6F80C903B46FF
:105AD000002231462046FFF77FFC0546236E73B156
:105AE000204619F052F994F8503013B994F8583010
