S014000054785F4C525F436F6E6E6563742E733337EE
S31508000000002000201D39000817CE010817CE010868
S31508000010BD12020817CE010817CE010817CE01082F
S3150800002017CE010817CE010817CE010817CE01080A
S3150800003017CE010817CE010817CE010817CE0108FA
S3150800004017CE010817CE010817CE010817CE0108EA
S315080000505559000817CE010817CE010817CE010812
S3150800006017CE010817CE010817CE0108413500083A
S315080000703135000817CE010817CE010817CE01083A
S3150800008017CE010817CE010817CE010817CE0108AA
S3150800009017CE010817CE01087545000817CE0108C6
S315080000A017CE010817CE010839400008114000088C
S315080000B017CE010817CE010831A30108DDAD0108E6
S315080000C0DB430208D743020891A50108F143020859
S315080000D0DF430208ADAD0108E343020841AE01085B
S315080000E079AE010817CE010817CE010801BF00082E
S315080000F017CE01085302020817CE010817CE0108C9
S3150800010017CE010817CE010817CE010817CE010829
S3150800011017CE010817CE010817CE010817CE010819
S3150800012017CE010817CE010817CE010817CE010809
S3150800013017CE010817CE010817CE010817CE0108F9
S3150800014017CE010817CE010817CE010817CE0108E9
S3150800015017CE010817CE0108036502081D88010895
S3150800016017CE010817CE0108754302087B4302081B
S31508000180194A5AB3194BDB6913F0040F29D110B475
S315080001900AE003EA00048C4210D0013AB2B1134BCC
S315080001A0DB6913F0040F14D110F0010FF1D1104CD4
S315080001B01C40002CEDD06FF001000CE00C4A1A40F0
S315080001C00AB9002007E06FF0010004E06FF00200B2
S315080001D001E04FF0FF305DF8044B70476FF0020006
S315080001E070474FF0FF307047809698000000035024
S315080001F0020001000D4BDB6913F4803F12D170B584
S315080002000A4B03F580560124F46003F500552C6467
S315080002104FF480721A6100212046FFF7B1FF34645B
S31508000220EC6070BD6FF00100704700BF000003501E
S3150800023010B5124B4FF480329A6603F51C33DC690D
S31508000240144041F67132DA6303F580520121D16018
S31508000250586102221A6100212120FFF791FF40B15F
S31508000260074B0122DA601CB1A3F500530022DA63BA
S3150800027010BD00212120FFF783FFF1E70090005011
S315080002800020035038B51A4B5861DB6913F0040F88
S315080002902AD10C4654F8041B154B9961151F06E024
S315080002A0214651F8042B124B9A61043D0C465DB168
S315080002B008210846FFF764FF03460028F0D00C4AD9
S315080002C004211161184638BD094B04221A61002120
S315080002D02120FFF755FF03460028F3D100212120EE
S315080002E0FFF74EFF0346EDE74FF0FF33EAE700BF9F
S315080002F0000003502DE9F0410F46164605461A4BF5
S315080003004FF480329A6603F51C33DA6902F48038B2
S3150800031041F67132DA6303F580530122DA6000236D
S3150800032002E025442744361B8EB105F5005424F413
S31508000330FF5424F01F04641BB44228BF34462246E7
S3150800034039462846FFF79EFF03460028E9D0074AA4
S315080003500121D160B8F1000F03D0A2F500520021A7
S31508000360D1631846BDE8F081009000500020035084
S31508000370000000000000000000000000000000006F
S31508000380013800D0FCE770472DE9F04F2DED028BC0
S3150800039093B082460C4693461D4657EC106B8DED7E
S315080003A0080B32463B46304639461BF039FA0028D8
S315080003B000F009814FF0FF32B14B304639461BF049
S315080003C057FA002840F0FF804FF0FF326FF4801391
S315080003D0304639461BF02EFA002840F0F4800022F9
S315080003E00023DDE90867304639461BF023FA002862
S315080003F040F0FC809DED087B8DED067B209B13F479
S315080004008063119301D106231E93DDE90601024696
S31508000410C1F30A50C1F31303904643F07F5949F4D8
S315080004204019A0F2FF301AF029FF83A3D3E900236D
S315080004301AF08EFF82A3D3E900231AF0D3FD0646ED
S315080004400F4600228F4B404649461AF0C9FD7EA347
S31508000450D3E900231AF07CFF02460B46304639469C
S315080004601AF0C0FD1BF00EFA06461AF007FF804682
S31508000470894677A3D3E900231AF06AFF0022824B44
S315080004801AF0B0FD1BF0FEF9074673A3D3E9002363
S31508000490404649461AF05CFF8046894638461AF0B7
S315080004A0EDFE6FA3D3E900231AF052FF02460B466E
S315080004B0404649461AF094FD8046894602460B4650
S315080004C01AF046FFCDE90C0107F2FF37002100229A
S315080004D0CDE90A123B050B9300230A9342464B4685
S315080004E0404649461AF07EFDCDE90E0142464B4686
S315080004F000204FF080411AF073FD8046894600229D
S31508000500624BDDE90C011BF04DF80022604B1AF036
S3150800051069FD02460B46DDE90C011BF043F8002293
S315080005205C4B1AF05FFD02460B46DDE90C011BF039
S3150800053039F802460B46404649461AF053FD02462C
S315080005400B46DDE90E011BF02DF80022524B1AF07E
S3150800055049FDDDE90A231AF0FBFE8046894649EC87
S31508000560188BDDE906231BF083F940B1013E002212
S31508000570474B404649461BF015F841EC180B06F167
S315080005806303C62B3BD80427209B13F4006F40D087
S3150800059035A3D3E90023DDE90689404649461BF021
S315080005A05DF900283BD032A3D3E9002340464946EB
S315080005B01BF040F9002832D01E9BB34221DD9E1B5A
S315080005C0731E1E931FE0209B02931F9B01931E9B85
S315080005D000939DED080B2B465A462146504600F0DF
S315080005E0CBF813B0BDEC028BBDE8F08F9FED227BF4
S315080005F08DED067B069607F100430793FEE6052771
S31508000600C2E700231E93209B43F4806320930027B0
S315080006103E461F9B9F4241D2A3EB070840E01E9B24
S31508000620002BF6D0119B002BF3D01E9B013B1E938B
S31508000630EFE700BFAFF30080FB799F501344D33F29
S31508000640B3C8608B288AC63F61436F63A787D23FCA
S3150800065071A379094F930A401655B5BBB16B024091
S31508000660EF39FAFE422EE63F2D431CEBE2361A3FDF
S315080006700000000080842E410000000000000000F9
S31508000680FFFFEF7F0000F83F0000E03F00002C402E
S3150800069000002440000018400000F03F4FF000081A
S315080006A0209B13F0020902D00FB14FF000083EB1AB
S315080006B053EC182BDDE906011AF074FFCDE90601A3
S315080006C000220023DDE908011BF0B4F800283BD11D
S315080006D0209B23F400630293CDF804801E9B0093AD
S315080006E09DED060B2B465A462146504600F044F827
S315080006F0002F3FF476AF209B13F0200F2CD04FF03D
S31508000700450C00F101082B46024621466046D047B3
S3150800071086EAE672A2EBE67205230593013F049783
S31508000720002303930A230293F30F019300922B46A7
S3150800073042462146504622F044FAB9F1000F3FF4EA
S3150800074050AF02461F9F10E0DDE90601024601F19F
S315080007500043CDE90623BBE74FF0650CD1E7561CED
S315080007602B4621462020D0473246A2EB0B03BB423C
S31508000770F5D3104635E700BF2DE9F04F2DED028B76
S3150800078093B00590089192469B4659EC108B1E9D96
S3150800079042464B46404649461BF042F8002840D0A0
S315080007A04FF0FF326FF48013404649461BF042F87B
S315080007B0002845D14FF0FF32B14B404649461BF061
S315080007C057F800284BD1AAA3D3E900234046494647
S315080007D01BF04EF800285AD1A7A3D3E900234046B8
S315080007E049461BF027F8002851D10022002340462D
S315080007F049461BF01FF8002857D100230993209B70
S3150800080013F4806F5CD000241F2C5BD8092D59D9AE
S3150800081004F148036B44302203F8202C013D0134CF
S31508000820F2E7209B03931F9B029303230193954BA7
S3150800083000935B4652460899059822F0E8F810E1BD
S31508000840209B03931F9B0293042301938E4B0093D3
S315080008505B4652460899059822F0D9F801E1209B93
S3150800086013F004030FD0894A7BB10423209903911E
S315080008701F990291019300925B4652460899059882
S3150800088022F0C5F8EDE0824AEEE70323EEE7209B67
S3150800089002931F9B0193009549EC108B5B465246C9
S315080008A008990598FFF770FDDBE042464B460020A5
S315080008B000211AF095FB80468946012309939EE795
S315080008C00625A0E7404649461AF0DCFF06461AF018
S315080008D0D5FC02460B46404649461AF081FB6D4B4D
S315080008E003EBC50393ED008B53EC182B1AF030FD80
S315080008F002460B46CDE906231AF0ECFF07461AF026
S31508000900ADFC02460B46DDE906011AF069FB024614
S315080009100B46CDE9062300225F4B1AF0A9FF50B318
S31508000920013738461AF09AFC02460B4651EC180B6A
S315080009301AF08AFF08B10136002755BB30461AF06F
S315080009409DFC02460B46404649461AF049FB80463E
S3150800095089460022504B1AF06DFF38B100224E4BE3
S31508000960404649461AF084FF002842D016F0010F87
S315080009703FD001363DE00022474BDDE906011AF07B
S3150800098059FF0028D9D117B117F0010FD5D0013773
S31508000990D3E71F2C17D8013D404BA3FB0723DB08E1
S315080009A0194603EB8303A7EB4303621C303304F1B8
S315080009B048000DEB000404F8203C092F02D90F4625
S315080009C01446E6E714461F2C0AD86B1E45B104F1F7
S315080009D048026A44302102F8201C1D460134F2E719
S315080009E01F2C06D804F148036B442E2203F8202C4A
S315080009F001341F2C17D82A4A82FB0632F317C3EB99
S31508000A00A2031A4603EB8303A6EB4303611C3033A8
S31508000A1004F148000DEB000404F8203C16460AB120
S31508000A200C46E6E70C46209B03F00303012B39D05E
S31508000A301F2C09D8099B002B51D004F148036B449D
S31508000A402D2203F8202C0134209B03931F9B02932D
S31508000A5001940AAB00935B4652460899059821F023
S31508000A60D6FF13B0BDEC028BBDE8F08FAFF3008064
S31508000A700000000065CDCD410000000065CDCDC168
S31508000A80FFFFEF7FE87F0208EC7F0208DC7F0208A1
S31508000A90E47F0208F87F02080000E03FCDCCCCCC0A
S31508000AA0676666661F9BB3B1099B1BB9209B13F04B
S31508000AB00C0F12D01F9B013B1F93194606E004F149
S31508000AC048036B44302203F8202C01348C42AFD201
S31508000AD01F2CF4D9ACE71F99F8E71F99F6E7209B76
S31508000AE013F0040F07D004F148036B442B2203F8D4
S31508000AF0202C0134A8E7209B13F0080FA4D004F19A
S31508000B0048036B44202203F8202C01349CE700BFDD
S31508000B1038B50D46044625F028FA064A13889BB2CE
S31508000B202DB123431380BDE8384025F019BA23EACE
S31508000B300403F7E7E04A00200022034B01214FF4A3
S31508000B4080709A70E4E700BFE04A00207FB54E68DF
S31508000B5002A9044622F0CFFE9DF808300C2B19D1C5
S31508000B60134BB3F90050134B9E4218D807F0CAF836
S31508000B7003460068694600909B882046ADF8043015
S31508000B8022F0A6FE70B140F25F620B490B480DF0E9
S31508000B9027F9FEE7204612F025FF0546E3E71EF093
S31508000BA0C4FAE5E72946204622F078FE04B070BD6F
S31508000BB0B6500020FFC99A3BA18202086C80020841
S31508000BC0002330B5134C85B0CDE901330393237860
S31508000BD08DF8043025F0C9F9A288E38805469A42BB
S31508000BE00DD0E188A06801AAA18022F00DFD58B1B8
S31508000BF040F2DA62084909480DF0F2F8FEE7A06803
S31508000C0022F0DBFC0128ECD0284625F0A9F905B02E
S31508000C1030BD00BFE8540020A18202086C8002089B
S31508000C2038B50F4C656835B940F2C7720D490E489C
S31508000C300DF0D6F8FEE722F099F8284410F020F8CF
S31508000C4000F00700032809D164680921204622F02C
S31508000C50A9F9205C031F5842584138BD0020FCE71B
S31508000C60E04A0020A18202086C80020808B5114BF0
S31508000C709A78042A06D040F28E520F490F480DF092
S31508000C80AFF8FEE71B881B0706D440F28F520A49C5
S31508000C900A480DF0A5F8FEE700210820FFF738FFFF
S31508000CA00222074B98681A7312F056FCBDE80840F2
S31508000CB020F060BCE04A0020A18202086C8002088D
S31508000CC0E854002010B5084CA06812F045FCA0684E
S31508000CD022F073FC012806D00122A0681146BDE85F
S31508000CE0104022F06CBC10BDE854002038B5194DF0
S31508000CF0AB7833B140F22B72174918480DF070F8EB
S31508000D00FEE725F032F92988044611F0060109D0D4
S31508000D1001214FF48070FFF7FBFE2046BDE83840FE
S31508000D2025F01EB94FF48070FFF7F2FE11F066FD4C
S31508000D30012805D010F0FD0F05D1FFF741FFECE7BC
S31508000D40FFF7C0FFE9E740F24172034903480DF097
S31508000D5047F8FEE7E04A0020A18202086C800208F4
S31508000D6070B50446064D95F90860FFF7BFFF11F008
S31508000D7043FC314620466A68BDE8704011F074BAF3
S31508000D80E04A002008B50A4B1B88DB0606D440F269
S31508000D90A752084908480DF023F8FEE7002110205D
S31508000DA0FFF7B6FE11F0A6FDBDE8084020F0E2BB4D
S31508000DB0E04A0020A18202086C8002080D4B10B59B
S31508000DC01B8804469B0713D500210220FFF7A0FEC7
S31508000DD0094B5A7BFF2A06D040F2E54207490848E4
S31508000DE00CF0FEFFFEE75C73BDE8104020F0C2BBC6
S31508000DF010BD00BFE04A0020E8540020A182020886
S31508000E006C8002087047704707B5ADF806100146B2
S31508000E1030B94FF4B572104910480CF0E1FFFEE7FF
S31508000E20BDF8063033B940F26B120B490B480CF08B
S31508000E30D7FFFEE70A4B0DF10602986822F012FE6C
S31508000E4030B140F26D12044904480CF0C9FFFEE7C0
S31508000E5003B05DF804FB00BFA18202086C8002089B
S31508000E60E854002010B50E4CA37833B14FF4EA725B
S31508000E700C490D480CF0B4FFFEE7606019B1A17B80
S31508000E80003918BF01212020FFF742FE074B08480A
S31508000E909B7B23760223A370BDE810400FF0BCBDF0
S31508000EA0E04A0020A18202086C800208E85400206B
S31508000EB0FC4A002008B50BF0C1FA80F00100C0B268
S31508000EC008BD0A4B9A780AB1062A0CD11B8803F486
S31508000ED08B7343B9064B5A7BFF2A04D1187BFF381C
S31508000EE018BF012070470120704700BFE04A002064
S31508000EF0E854002008B50BF091FA0028FBD108BD8C
S31508000F000C4B42889A8142789A730278DA738288FF
S31508000F101A82C2885A82C2685A61017A064A91734D
S31508000F20028A998C914204D001214FF400709A8468
S31508000F30EEE57047E04A0020E8540020094B9A89FC
S31508000F4042809A7B4270DA7B02701A8A82805A8AB9
S31508000F50C2805A699B8CC260034A0382927B0272E2
S31508000F60704700BFE04A0020E85400204B1E012BC2
S31508000F7070B50C4606D940F2B7221A491A480CF041
S31508000F802FFFFEE7194D0A460146A86822F094FD90
S31508000F9030B140F2B922134913480CF021FFFEE79D
S31508000FA0AE680FF0ADFC22460146304622F07EFDC3
S31508000FB030B140F2BD220B490B480CF011FFFEE799
S31508000FC0AD680FF0A9FC22460146284622F07AFDB4
S31508000FD030B140F2C122034903480CF001FFFEE795
S31508000FE070BD00BFA18202086C800208E854002088
S31508000FF0054BDB7B1B0913F00E0003D0052B8CBFBA
S3150800100000200120704700BFE8540020044BDB7B1A
S315080010101B0913F00E0F0CBF01200020704700BFFC
S31508001020E85400202DE9F04F15469A0580461F46DC
S315080010308FB003D501218020FFF76AFDEB014FF041
S31508001040000955D5984C23889E0751D5974E737B32
S31508001050FF2B06D040F2AF42954996480CF0C0FEE9
S31508001060FEE7636833B94FF49662914991480CF0EC
S31508001070B7FEFEE749460220FFF74AFDA37886F841
S315080010800D90042B03D101210820FFF741FD002311
S31508001090B06808A98DF82C3022F02FFC30B140F248
S315080010A0BA42834983480CF09BFEFEE7FFF7A0FF90
S315080010B0B0B921F05BFE8146606821F062FE08A99E
S315080010C08144B068ADF8249022F01AFC30B140F2A1
S315080010D0C242774977480CF083FEFEE7089BA36275
S315080010E0A378032B02D1B06812F036FA20F042FA40
S315080010F0B80702D50120FFF761FE15F0A84F02D008
S315080011000220FFF75BFEA90220D50021402003AC90
S31508001110FFF7FEFC2146404622F0ECFCB0B99DF8EC
S31508001120143008AA022B22D18DF82830BDF80C30CD
S31508001130ADF82030104611F069FA38B1404622F071
S31508001140D7FC18B901214020FFF7E2FC2A0753D53E
S31508001150564E0321B06803AA22F086FC814688B958
S3150800116040F2FE42524953480CF03AFEFEE7032B82
S3150800117005BF8DF82830D4E900018DF82800C2E9AA
S315080011800001D7E79DF80C30B068072B40F01F81A7
S31508001190494608AA22F06AFC30B140F20152444995
S315080011A044480CF01DFEFEE7FFF722FFBDF80E20AF
S315080011B0A0B9FFF72BFF78B1043292B2B06808A93C
S315080011C0ADF8242022F054FC40B140F212523849BE
S315080011D038480CF005FEFEE70232EEE7BDF80E00D1
S315080011E00121073080B224F0FBFD8246002842D157
S315080011F001210C2012F044F9A90705D52A4B1B88B2
S315080012001A0701D5FFF732FDAB010BD500210420E3
S31508001210FFF77EFC244B9B78012B03D1234B986860
S3150800122012F09AF915F0284F03D000210420FFF791
S315080012306FFC7E060CD51C4C23881D0701D5FFF7CD
S3150800124015FD2388580703D500210420FFF760FC05
S31508001250F90540F1D88003A9404608AA22F0ABF95F
S315080012600146002800F0BA8040F2D25210491148CF
S315080012700CF0B6FDFEE74FF0000B24F035FDCDF877
S3150800128000B00246BDF80E3004464946B06822F062
S31508001290F3FBBDF80E3083420ED040F222520449C9
S315080012A004480CF09DFDFEE7E04A0020E8540020C3
S315080012B0A18202086C80020821F058FD20440FF034
S315080012C0DFFC00F007000228DFF8589124D199F8CE
S315080012D00230042B90D121F049FD504B20448278EE
S315080012E01B789A4288D159460820FFF711FC21F04D
S315080012F03DFD20440FF0C4FC9DF82E30C0F30010CD
S31508001300307389F80830FFF78BFC00287FF474AF38
S31508001310B06812F021F96FE721F028FD20440FF09C
S31508001320AFFC83064AD521F021FD20440FF0A8FC26
S3150800133000F0070003280BD10921204621F032FED0
S3150800134014F800B0ABF1040CDCF1000B4BEB0C0B02
S3150800135001210420FFF7DCFBB06822F0A0FBC9F8E6
S315080013602C00BBF1000F30D0B9F8003058062CD548
S3150800137000214020FFF7CCFB0126BDF80E309DF872
S315080013802E200120E254BDF80E309DF82F2023446C
S315080013909A71BDF80E10089A013121440FF07EFCAF
S315080013A0BDF80E3050461C44667124F071FD1C4B86
S315080013B018780FF037FC20F0DDF81DE799F80230B1
S315080013C0012B02D1B06812F0C7F80026D5E722F043
S315080013D02FFB4946B06822F04DFB0DE79DF80C300F
S315080013E003F0BF02032A01D0022B0FD10D4C23882C
S315080013F05A0702D50420FFF78BFB23889B0702D5E3
S315080014000120FFF7DBFC0FB0BDE8F08F4FF4BF6299
S31508001410054906480CF0E4FCFEE700BF4D4B0020EA
S31508001420704A0020E04A0020A18202086C80020867
S3150800143008B50246FFF7DCFD30B1072A06D80020BA
S31508001440034B83F8302008BD7020FCE70220FAE73A
S31508001450E04A002008B50246FFF7CAFD28B1002079
S31508001460034B93F83030137008BD7020FCE700BFBB
S31508001470E04A002008B5074B01460022986822F08A
S315080014801BFB30B140F2EB22034904480CF0A8FCE0
S31508001490FEE708BDE8540020A18202086C80020815
S315080014A008B5074B01460022986822F0FFFA30B1CA
S315080014B040F2F122034904480CF092FCFEE708BD0D
S315080014C0E8540020A18202086C80020808B5074B80
S315080014D00146986822F0FCFA30B140F2F722044936
S315080014E004480CF07DFCFEE708BD00BFE854002068
S315080014F0A18202086C80020808B5074B9B7833B1B5
S3150800150040F20132054906480CF06AFCFEE7BDE8E0
S315080015100840FFF7EBBB00BFE04A0020A1820208A3
S315080015206C80020808B5054B0146986822F0B6F9A2
S31508001530002814BF8B20002008BD00BFE8540020F7
S31508001540014B986812F04EBAE8540020014BD8882F
S31508001550704700BFE85400207FB50123ADF80E3070
S315080015604FF6FE7309480093806800230DF10E02BA
S3150800157004A922F020F9212800D020B9BDF81000CE
S3150800158007B05DF804FB4FF6FF70F9E7E854002052
S3150800159008B5044B0146986822F0C1F8B0FA80F005
S315080015A0400908BDE854002038B50B4D0446AB7811
S315080015B0012B0DD8FFF7ECFF60B1084BDC80AB7848
S315080015C01BB9FFF793FB002038BDFFF7F9FAFAE7D6
S315080015D03E20F9E78A20F7E7E04A0020E854002091
S315080015E0024B9B780BB9FFF781BB7047E04A002096
S315080015F0014BD873704700BFE04A002008B5064B78
S315080016004FF0FF31986822F003F80028B8BF03307E
S3150800161040F3870008BD00BFE854002008B5044B16
S31508001620986822F078F8034BB3FBF0F080B208BD57
S31508001630E854002040420F0030B58DB02C220446F5
S31508001640002101A822F061FF01234FF002328DF834
S3150800165008306423CDE9032306930B238DF82C3039
S31508001660214B9B8CADF80A30FFF7C2FCA8B140F2BB
S31508001670F23307934FF47A7305930CB9FFF722FBFD
S315080016801A4D01A9A86812F081FAC0B140F2AC62FD
S31508001690174918480CF0A4FBFEE7FFF7BFFF0C2319
S315080016A04343902B0793A3F10A02D8BF91230592CF
S315080016B0D8BF0793059B8B2BDFD88C23DCE7FFF776
S315080016C0A5FC60B10122A868114622F00FFA30B1D4
S315080016D040F2AF62064907480CF082FBFEE70CB9F8
S315080016E0FFF704FB0DB030BDE04A0020E8540020A7
S315080016F0A18202086C800208F8B524F036FC554C25
S3150800170006462388D90503D5A37843BBFFF7EEFA27
S31508001710514D6B7BFF2B13D06B7B03F0FF0723BB6D
S31508001720FF236B73A378032B0AD100233046A370DB
S3150800173024F016FC3846FFF713FB24F016FC064681
S31508001740A378042B08D12B7BFF2B05D02B7B022BF0
S3150800175014D142480FF060F9FF232B7327E00021CC
S315080017604FF48070FFF7D4F9D2E76B7B012B4FF06B
S31508001770FF0314BF89278D276B73D6E72B7B13B11D
S315080017802B7B012B1ED1FFF74BFA0022FF212B7B67
S315080017900746DBB222772973002847D0012B0AD1E6
S315080017A064212E48A3700FF042F9FFF709FA304674
S315080017B024F0D6FB06E03046A27024F0D1FB312097
S315080017C0FFF7CEFA23881A0608D500218020FFF7EE
S315080017D09FF9A86822F0CDF811F06DF823889B05CB
S315080017E007D54FF400700021FFF792F90020FFF7A4
S315080017F023FF0AF013FE608620B324F075FA012150
S315080018000546002011F03CFEA678012E14D10026CC
S315080018102677A670FFF76AFA284610F047FCA378E1
S3150800182066867BB9BDE8F84010F0E6BEA070304683
S3150800183024F096FB3846C3E72EB1284610F036FC4E
S3150800184000236386F8BDFFF751FA284610F02EFCF0
S315080018506686F7E7E04A0020E8540020FC4A0020A4
S315080018608B4BF0B51B888B4C8B4D63848B4B85B0AB
S315080018701B68E3628A4B1B8823848A4B1B68A36216
S315080018802B88DB0700F1FC8001210846FFF740F9A9
S315080018900523854A04F1100104F10800AB7011F024
S315080018A01DFE28B1F522814981480CF099FAFEE718
S315080018B0A3682BB9F7227D497D480CF091FAFEE71B
S315080018C07C4821F0C0FE70A3D3E90023CDE90023AC
S315080018D04FF0FF324FF0FF33A06821F063FF4FF45B
S315080018E08811A06812F0F6F8014630B140F20F12DE
S315080018F06E496F480CF074FAFEE76F4B1B78012BA4
S315080019000ED16E4AA06811F0B7FEA06812F06CF905
S31508001910E0B140F21B12654965480CF061FAFEE732
S31508001920674E316831B94FF48F72604960480CF0E0
S3150800193057FAFEE7614AA06811F09EFE33689B6875
S3150800194023B1DB6913B15B7803B1E373FFF704FED8
S315080019500146E080A06812F00BF8064630B140F266
S315080019602D12524952480CF03BFAFEE7554B01201E
S315080019701B78C3EB431203EB8203DB00AB84FFF750
S315080019805BFEA7680EF0C8FF32460146384622F0CD
S3150800199099F8064630B140F23312444944480CF0EF
S315080019A01FFAFEE740F203530427AB81464BAF7399
S315080019B01B78EB73FFF732FE00EB80039B002B824C
S315080019C0FFF72CFEC00068823946A0686E6121F0D8
S315080019D091FE30B14FF4A172344935480CF000FA43
S315080019E0FEE73A46A06803A921F017FF042806D0A7
S315080019F04FF4A3722D492E480CF0F2F9FEE703A91D
S31508001A0001200FF059F90AF08FFA08224FF0FF313A
S31508001A10A06821F0D8FE30B140F24F12234924487D
S31508001A200CF0DEF9FEE712F05FFA30B140F255121B
S31508001A301E491F480CF0D4F9FEE7FFF7D9FA68B13A
S31508001A401DF075FB0146A06821F042FF30B140F257
S31508001A505912164916480CF0C3F9FEE7A468FFF7B1
S31508001A607BFD1A4B014603F10C02204621F0CEFD00
S31508001A7030B14FF4B0720D490D480CF0B1F9FEE7DC
S31508001A8005B0F0BDAFF300800A0020FF4203000056
S31508001A9098850208E8540020E04A00209C85020840
S31508001AA09A850208A0850208390B0008A182020857
S31508001AB06C800208690345EC314B00204D0B000889
S31508001AC0FC5300208C5600208B560020CC8202083E
S31508001AD008B5044B986821F020FE034BB3FBF0F0E1
S31508001AE080B208BDE854002040420F002DE9F043BB
S31508001AF08C4D87B02B889B0706D440F24C728A49D6
S31508001B008A480CF06DF9FEE7AB78033B012B06D942
S31508001B1040F24E72844985480CF062F9FEE76A681D
S31508001B2032B940F25172804980480CF059F9FEE703
S31508001B307F4E2C88F77B14F0200418BF4FF47A7474
S31508001B404FEA1718FFF754FA00287DD0B8F1020FAC
S31508001B500AD0A8F10303022B74D940F265727249C0
S31508001B6072480CF03DF9FEE7032795F8303008EB8C
S31508001B70C80898446F4B104603EB4803B3F81C801B
S31508001B8021F0FFF84FF4FA534343B3FBF8F37822F6
S31508001B907733B3FBF2F31F44C7EB0717AB78FF00A5
S31508001BA0BFB204F5347417FA84F4042BA4B203D133
S31508001BB007F6E8072744BCB2D5F8048021F0D6F822
S31508001BC00746686821F0DDF8074421F0F5F8BFB24A
S31508001BD03F1A21F0CBF840440FF052F87378C0F35F
S31508001BE040198DF80C30544BBFB2CDE904340024AB
S31508001BF021F0EEF8009402463B464146B06821F0D3
S31508001C0019FF287EB278737812FB00F29342C4BF9C
S31508001C109B1ADCB22B88F18813F0200FB068B180CC
S31508001C208DF80C4003AB76D000934A46434B21F01F
S31508001C30E2FC002873D040F224723B493B480CF082
S31508001C40CFF8FEE7062790E7FFF7E0F9002846D029
S31508001C50384B07F00F0708EBC801394403EB41037B
S31508001C601046B3F81C9021F08CF8B8F1000F2CD070
S31508001C70B8F1010F2CD14FF00408400080B2F319D7
S31508001C8093F834304BB14FF4FA52023303444344C9
S31508001C909BB25343B3FBF9F39CB2AB78042B8BD1BD
S31508001CA0FFF7BCFC374497F834308146053398442F
S31508001CB0FFF70EFF0C2308FB00F003FB09F909EBFD
S31508001CC0C009A1441FFA89F476E74FF00208D6E75F
S31508001CD040F28672144915480CF082F8FEE7FFF7C1
S31508001CE0F7FE0746686821F04CF809307843AB7868
S31508001CF004EBC000042B84B27FF45EAFFFF78EFCC2
S31508001D000746FFF7E5FE602358430C2303FB07004D
S31508001D10204484B250E74A4621F06BFC89E707B0B5
S31508001D20BDE8F083E04A0020A18202086C80020820
S31508001D30E8540020CC82020820A10700EC4A0020C3
S31508001D40F8B5494C258815F0020506D040F27512FB
S31508001D50464947480CF044F8FEE7257724F005F98C
S31508001D60238806465A070CD5424B986821F097FEF9
S31508001D70E36AC01AA38C984203D929460420FEF7C1
S31508001D80C7FE304624F0ECF8A778022F37D124F0A6
S31508001D90ECF82388064613F0040507D036480EF0FB
S31508001DA03BFE3046BDE8F84024F0DAB824F0D8F80F
S31508001DB0606810F05BFC20B1A570BDE8F840FEF73E
S31508001DC0CFBF24F0D2F86668054620F0CFFF30442E
S31508001DD00EF056FF10F0200F0CBF03230423012139
S31508001DE03846A370FEF794FEFFF780FE284624F0D7
S31508001DF0B7F801210846BDE8F84011F041BB042FA9
S31508001E0027D11C4B1B7BFF2B2DD1237EF3B124F04E
S31508001E10ACF8238805465B0704D517480EF0FCFD89
S31508001E202846BFE724F09CF8237E013B237624F05E
S31508001E309CF8044601210220FEF76AFEFFF756FECB
S31508001E40204624F08DF801210820D4E74020A3700D
S31508001E50B3E7012F07D10023A370064B986811F04A
S31508001E607BFB3120A9E7F8BDE04A0020A1820208E1
S31508001E706C800208E8540020FC4A002038B501218D
S31508001E8004461020FEF744FE064B9D68FFF7C6FB86
S31508001E90012200FB04F1044B284621F095FB0020A3
S31508001EA038BD00BFE8540020850D000808B50A4B68
S31508001EB01B88DB0606D44FF46172084908480BF004
S31508001EC08FFFFEE710200021FEF722FE054B9868DB
S31508001ED0BDE8084021F086BBE04A0020A18202083E
S31508001EE06C800208E854002038B50E4D688E30B96B
S31508001EF040F291320C490D480BF072FFFEE723F0D1
S31508001F00F3FE0446688E23F00DFF811F214401204D
S31508001F100EF0D2FE064B0446986821F0C0FD001B61
S31508001F2038BD00BFE04A0020A18202086C80020882
S31508001F30E854002010B5084C636833B94FF468724A
S31508001F40064907480BF04CFFFEE7064B986821F058
S31508001F50A6FDA36AC01A10BDE04A0020A1820208A5
S31508001F606C800208E854002038B50A4D688E30B9EE
S31508001F7040F2AA32084909480BF032FFFEE723F07F
S31508001F80B3FE0446688E23F0CDFE044414F8020C12
S31508001F9038BD00BFE04A0020A18202086C80020812
S31508001FA038B50A4D688E30B940F2B9320849094841
S31508001FB00BF016FFFEE723F097FE0446688E23F023
S31508001FC0B1FE044414F9070C38BD00BFE04A0020EE
S31508001FD0A18202086C80020838B50A4D688E30B9AD
S31508001FE04FF47272084909480BF0FAFEFEE723F02F
S31508001FF07BFE0446688E23F095FE044414F9010C12
S3150800200038BD00BFE04A0020A18202086C800208A1
S31508002010024B1888C0F3C010704700BFE04A002082
S3150800202030B585B005466C460D4B0FCB84E80F00DE
S315080020300DB12B6800930B4B21460022986811F0CE
S31508002040E7FC044630B140F2E632074907480BF090
S31508002050C7FEFEE7FEF7B4FD204605B030BD00BF5B
S3150800206054830208E8540020A18202086C80020802
S3150800207030B5154D87B004460DF10701A86821F063
S3150800208093FB30B140F2F732104911480BF0A8FE25
S31508002090FEE79DF80720531EDBB2FD2B0FD90294ED
S315080020A0FF2A00D10394A86802A921F065FC40B173
S315080020B040F20442054906480BF092FEFEE7012A63
S315080020C0EFE707B030BD00BFE8540020A182020840
S315080020D06C80020808B5064B986821F05CFC30B1A4
S315080020E04FF48262034904480BF07AFEFEE708BD06
S315080020F0E8540020A18202086C8002080122024BE3
S315080021001146986821F05BBAE85400207047F8B584
S31508002110064604200D4620F00BFE030622D5124F74
S31508002120BC78FCB926B1012E17D002242046F8BD8A
S3150800213001262846FFF72CFA0028F6D00B4800237C
S3150800214032462946806821F058FA40B14FF48A622F
S31508002150074908480BF044FEFEE72646E9E706234A
S31508002160BB70E3E77024E1E7E04A0020E85400206A
S31508002170A18202086C800208042010B520F0D8FD60
S31508002180030611D5094CA378062B0DD1084B986880
S3150800219021F035FA30B140F26A42064906480BF09A
S315080021A01FFEFEE7A07010BD7020FCE7E04A002085
S315080021B0E8540020A18202086C8002081FB5044674
S315080021C001A811F0EDFB9DF80D3053B14CB1064B4B
S315080021D02078617818700020A27859709A7004B037
S315080021E010BD0220FBE700BFE85400201FB50446D7
S315080021F001A811F0D5FB9DF80D3053B14CB1002064
S31508002200054B1A7822705A789B786270A37004B0CE
S3150800221010BD0220FBE700BFE8540020FFF7CEBF41
S31508002220FFF7E4BF0348044B834202D0034B03B1D4
S3150800223018477047A4560020A45600200000000046
S31508002240064B0749C91A891048BF0131491003D0FE
S31508002250044B0BB101481847704700BFA45600202D
S31508002260A45600200000000010B5064C237843B998
S31508002270FFF7D8FF044B13B10448AFF300800123DE
S31508002280237010BD705100200000000040BF0208F6
S3150800229008B5054B1BB105490548AFF30080BDE8F5
S315080022A00840FFF7CDBF00BF00000000A0220020B5
S315080022B040BF0208A3F5803A704700BF174B002BB2
S315080022C008BF134B9D46FFF7F5FF00218B460F46C7
S315080022D01348144A121A22F018F90E4B002B00D094
S315080022E098470D4B002B00D098470020002104008A
S315080022F00D000D48002802D00C48AFF300801AF0F4
S3150800230021F8200029001AF083FC19F0B1FC00BF5F
S315080023100000080000000000000000000020002067
S3150800232000200020E051002000000000000000000E
S3150800233008B5224B1B78012B1BD0022B2BD003B1DF
S3150800234008BD1F4B1B781F4A1278B3EB420F06DAFB
S3150800235001331B4A13701C481AF0E7FCF0E7184BC8
S3150800236000221A7018481AF0E8FC184823F086F973
S31508002370E6E7134B1B78134A1278B3EB420F03DADE
S3150800238001330F4A1370DBE70D4B00221A700F4812
S3150800239023F074F9D4E70A4B1B780A4A1278B3EB90
S315080023A0420F03DA0133064A1370C9E7044B0022C9
S315080023B01A70064823F062F9C2E700BF715100207F
S315080023C073510020725100204C780208B822002070
S315080023D000B583B08C461146074B1870074B83F837
S315080023E000C00123019300230093054A054824F001
S315080023F004F803B05DF804FB715100207251002007
S3150800240031230008B822002000B583B0074B01220B
S31508002410DA60064B5B6913F0400FFAD10349684648
S315080024201CF03DFD009803B05DF804FB0040005920
S3150800243010B582B004461AF07AFB08B902B010BD8E
S3150800244000230093ADF80430074B1B88ADF8023023
S31508002450ADF8044040F2FF13ADF800306946042099
S315080024601FF01FF9EAE700BFAC50002038B5044654
S315080024701FF023F9A04201D8012038BD05460320E4
S3150800248001F0D6F80028F8D01AF05BFC1AF05AFCCE
S315080024902B4622460349044800681DF040FF0020E9
S315080024A0EBE700BF686602080427002030B583B052
S315080024B004468368C26853F822301D882846FFF709
S315080024C0D5FF08B903B030BD00230093ADF804303A
S315080024D0164B1B88ADF80230ADF804506368E26805
S315080024E09B1A012B1DDDA368013253F822301B8885
S315080024F0ADF800301FF0D1F8694603201FF0D1F877
S315080025000446032001F094F80028DBD01AF019FCE1
S315080025101AF018FC22460649064B18681DF0FFFEFD
S31508002520D0E740F2FF13ADF80030E3E7AE500020E5
S31508002530A06602080427002030B583B004468368E5
S31508002540C26853F822301D882846FFF78FFF08B95E
S3150800255003B030BD00230093ADF80430154B1B883B
S31508002560ADF80230ADF804506368E2689B1A012B97
S315080025701BDDA368013253F822301B88ADF8003002
S31508002580694604201FF08DF80446032001F050F830
S315080025900028DDD01AF0D5FB1AF0D4FB22460649EE
S315080025A0064B18681DF0BBFED2E740F2FF13ADF8E4
S315080025B00030E5E7AE500020C06602080427002078
S315080025C030B583B004468368C26853F822301D8844
S315080025D02846FFF74BFF08B903B030BD0023009328
S315080025E0ADF80430154B1B88ADF80230ADF8045031
S315080025F06368E2689B1A012B1BDDA368013253F856
S3150800260022301B88ADF80030694602201FF049F8D1
S315080026100446032001F00CF80028DDD01AF091FBDF
S315080026201AF090FB22460649064B18681DF077FEFD
S31508002630D2E740F2FF13ADF80030E5E7AE500020D0
S31508002640D46602080427002030B583B08368C268C0
S3150800265053F822301C780023019343689B1A012BF8
S3150800266019DD01AA01211DF027F901469DF804008C
S315080026701FF00FF8054680B1022000F0D9FF60B1BF
S315080026801AF05FFB1AF05EFB2A460649064B1868E5
S315080026901DF045FE01E01FF000F820461FF005F882
S315080026A003B030BDF06602080427002010B50346C3
S315080026B08168C26851F82200B0F900001A4C2080DF
S315080026C05B689B1A012B0FDD013251F8223093F912
S315080026D00010003918BF01211EF08CFFA0B9032095
S315080026E000F0A6FF10B910BD0021F5E71AF029FB86
S315080026F01AF028FB0D4B1C681EF080FF02460C4999
S3150800270020461DF00CFEEEE7012000F091FF0028A0
S31508002710E9D01AF016FB1AF015FB0649034B1868A0
S315080027201DF0FDFDDFE700BFAE50002004270020A6
S31508002730546702086867020808B51EF04FFF0320B1
S3150800274000F076FF00B908BD1AF0FBFA1AF0FAFA9B
S315080027500249034B18681DF0E2FDF4E7806702089A
S315080027600427002008B58368C26853F822301A88FF
S31508002770094B1A80032000F05BFF00B908BD1AF068
S31508002780E0FA1AF0DFFA044B1A880449044B186871
S315080027901DF0C5FDF2E700BF08560020A067020835
S315080027A00427002008B5024B18680EF035F908BD55
S315080027B0EC2200202DE9F04186B01EF02BFF0446DE
S315080027C0894B1B7813F0020F2CD0884E13F0010F9B
S315080027D02AD0864F13F0040F28D0DFF81082032082
S315080027E000F026FF28BB032000F022FF58BB032079
S315080027F000F01EFF002835D1032000F019FF00283D
S315080028003ED1032000F014FF002847D1032000F032
S315080028100FFF00285ED1032000F00AFF002867D1C9
S31508002820002471E0724ED1E7714FD3E7DFF8C0811B
S31508002830D5E71AF086FA1AF085FA6E496E4B1868CB
S315080028401DF06DFDCFE71AF07CFA1AF07BFA6A4B99
S315080028501D6804F027FF02460B46684928461DF006
S315080028605EFDC4E71AF06DFA1AF06CFA624B1D6841
S315080028701EF0A8FE0246624928461DF050FDBBE739
S315080028801AF05FFA1AF05EFA5B4B1D681EF0CEFE70
S3150800289002465C4928461DF042FDB2E71AF051FA95
S315080028A01AF050FAE279A37961792079E57894F8F3
S315080028B002C094F801E024780594CDF810E0CDF82C
S315080028C00CC00295019000914F494B4800681DF0D5
S315080028D026FD9BE71AF035FA1AF034FA464B1C68BF
S315080028E01EF09CFE0246494920461DF018FD92E757
S315080028F01AF027FA1AF026FA45493F4B18681DF0D0
S315080029000EFD8DE70134E4B2072C12D8032000F03F
S315080029108FFE0028F6D01AF014FA1AF013FA364B7E
S315080029201D681EF077FE025D3A4928461DF0F7FC41
S31508002930E8E7032000F07CFE98B9032000F078FE53
S31508002940C8B9032000F074FE18BB032000F070FE1F
S3150800295068BB032000F06CFE002836D106B0BDE83F
S31508002960F0811AF0EEF91AF0EDF92B49224B1868A6
S315080029701DF0D5FCE1E71AF0E4F91AF0E3F91E4B6D
S315080029801C681EF04FFE0246244920461DF0C7FC6F
S31508002990D7E71AF0D6F91AF0D5F9174B1C681EF0C6
S315080029A025FE02461E4920461DF0B9FCCDE71AF061
S315080029B0C8F91AF0C7F9104B1C681EF01FFE02462C
S315080029C0184920461DF0ABFCC3E71AF0BAF91AF00D
S315080029D0B9F9CDF800803B463246134906480068E7
S315080029E01DF09DFCBAE700BF7E5600200867020866
S315080029F010670208BC67020804270020C46702089B
S31508002A00E0670208FC670208186802083C680208C2
S31508002A10586802086C680208207E02087468020872
S31508002A2090680208A8680208C068020830B583B032
S31508002A308368C26853F822301C7801A920461EF024
S31508002A40D1FD88B9032000F0F3FD08B903B030BD05
S31508002A501AF077F91AF076F9019B22460B490C48C9
S31508002A6000681DF05CFCF1E70546012000F0E0FD7A
S31508002A700028EBD01AF065F91AF064F92A460549D8
S31508002A80034B18681DF04BFCE0E700BFF868020826
S31508002A90042700201469020870B58268C36852F8D2
S31508002AA023100C88013352F823301D782946204616
S31508002AB01EF0EBFD80B9032000F0BAFD00B970BD29
S31508002AC01AF03FF91AF03EF92B4622460B490C48F4
S31508002AD000681DF024FCF2E70646012000F0A8FD78
S31508002AE00028ECD01AF02DF91AF02CF932460549CF
S31508002AF0034B18681DF013FCE1E700BF38690208AC
S31508002B00042700206869020870B582B08368C26825
S31508002B1053F822301B78134A137013F0020F0ED0A5
S31508002B20114C13F0010F0CD00F4D13F0040F0AD0FF
S31508002B300D4E032000F07CFD38B902B070BD0B4C79
S31508002B40EFE70A4DF1E7094EF3E71AF0FAF81AF03B
S31508002B50F9F800962B4622460549064800681DF0F6
S31508002B60DEFBEAE77E5600200867020810670208BF
S31508002B701C6702080427002030B58FB004460D46AE
S31508002B80684619F0E4FF0DF1200EEC46BCE80F008C
S31508002B90AEE80F009CE803008EE8030008A9464B40
S31508002BA018681FF080FB10F1880F46D1684619F0A7
S31508002BB0CEFF0DF1200EEC46BCE80F00AEE80F0084
S31508002BC09CE803008EE803004FF41053ADF820305C
S31508002BD08023ADF822304FF44073079307A819F005
S31508002BE0C6FF079B0A93354B0B93334B1A68099B11
S31508002BF00D9213F0FF0F04D123F0FF0343F00103F6
S31508002C000993012309932C4B2A46214608A81FF04D
S31508002C1067FB044610BB032000F00AFD90B9264B5B
S31508002C2018681EF0D7FC0546002831D1032000F0AD
S31508002C30FFFC044610BB01242FE01F4B18681FF049
S31508002C4009FBB3E71AF07DF81AF07CF81A4B1A68F4
S31508002C501B491C4B18681DF062FBE0E7032000F0D7
S31508002C60E7FC0028DBD01AF06CF81AF06BF822465D
S31508002C701549144B18681DF052FBD0E71AF061F895
S31508002C801AF060F811490F4B18681DF048FB04E06C
S31508002C90032000F0CDFC044610B920460FB030BD25
S31508002CA01AF04FF81AF04EF82A460949054B1868E3
S31508002CB01DF035FB0024F0E7D8220020000144056A
S31508002CC09869020804270020C8690208EC69020806
S31508002CD00C6A020800B583B00021019101AA1CF014
S31508002CE0EBFD019910290ED0032000F0A1FC60B17C
S31508002CF01AF027F81AF026F810220549054B186825
S31508002D001DF00DFB01E0FFF737FF03B05DF804FB8C
S31508002D102C6A02080427002010B588B01FF0DFFBD4
S31508002D2000F02EFC5249534808F0D4FF032000F067
S31508002D307FFC08BB0124504B1C6002A819F02EFF2B
S31508002D4002A920461FF0AFFA10F1880F1ED0032003
S31508002D5000F06EFC002870D1474B18681EF03AFC4C
S31508002D601EF08FFC0446032000F062FC00286ED19A
S31508002D70002C77D008B010BD19F0E3FF19F0E2FF78
S31508002D803E493F4B18681DF0CAFAD3E7032000F006
S31508002D904FFC002837D1384B1A68039B079213F06B
S31508002DA0FF0F04D123F0FF0343F001030393354BD0
S31508002DB005934FF44073019301A819F0FFFE019B98
S31508002DC004934FF41053ADF808308023ADF80A3059
S31508002DD001230393284B10222B4902A81FF080FADF
S31508002DE00446D0B9032000F023FC0028B4D019F01B
S31508002DF0A8FF19F0A7FF204B1A682449204B18682A
S31508002E001DF08DFAA8E719F09CFF19F09BFF2049E1
S31508002E101B4B18681DF083FABDE7032000F008FC79
S31508002E20002899D019F08DFF19F08CFF2246194910
S31508002E30134B18681DF073FA8EE719F082FF19F024
S31508002E4081FF15490E4B18681DF069FA84E719F0D9
S31508002E5078FF19F077FF22461049094B18681DF0CC
S31508002E605EFA85E7034B18680DF0D6FD82E700BFCA
S31508002E704D2F0008EC220020D8220020546A0208B0
S31508002E800427002000014405EC5300209869020835
S31508002E90606A0208C8690208886A0208B46A0208F1
S31508002EA010B504461AF030F8012804D020461AF066
S31508002EB02BF8A0B110BD1E4B9C42F7D123F091FA16
S31508002EC01C4B18601C4B01221A701C4B1B78002BDC
S31508002ED0ECD032220A210020FFF77AFAE6E723F03F
S31508002EE080FA0446144B00221A704EF65F23984265
S31508002EF002D8124B1B7883B90E4B1B68E41A4CF2A6
S31508002F004F339C42D6D80D4B1B784BB90020FFF7A0
S31508002F108FFA0B4819F00DFFCCE719F012FEEBE714
S31508002F20084B1988084B18680DF081FDC2E700BFE9
S31508002F3034780208DC2200207551002076510020E2
S31508002F404C78020808560020EC22002000B583B011
S31508002F509DF804306FF304038DF804309DF80430AF
S31508002F606FF346138DF80430164B1B78CBB1164B0E
S31508002F7010221A7004225A7201225A70134A1288B1
S31508002F80110A9970DA70104819F027FE19F0C6FD73
S31508002F900E4B18800E4B1B6800221A7003B05DF8A2
S31508002FA004FB094B0F221A7002225A729DF804205C
S31508002FB05A7019F0B3FD054B1880024B01221A709E
S31508002FC0E1E700BF74510020E0220020B050002045
S31508002FD0EC220020014B1878704700BF775100207B
S31508002FE038B50379012B00D038BD0546032000F01B
S31508002FF01FFB08B900240CE019F0A3FE19F0A2FE85
S315080030006A881549154B18681DF089F9F2E70134E5
S31508003010E4B2EB889C4210D2032000F009FB00289A
S31508003020F5D019F08EFE19F08DFEAB681A5D0C49C5
S315080030300A4B18681DF073F9E9E7032000F0F8FA5F
S315080030400028D1D019F07DFE19F07CFE0549034B06
S3150800305018681DF064F9C7E7CC6A0208042700203F
S31508003060E46A0208207E020800B9704710B50446D3
S31508003070032000F0DDFA00B910BD19F062FE19F060
S3150800308061FE22460249034B18681DF048F9F3E72A
S31508003090E86A02080427002010B5A0F19003062B61
S315080030A000F28C80DFE803F004354B8A8A607500ED
S315080030B0032000F0BDFAA0B9032000F0B9FAD0B990
S315080030C001234A4A13704A4A1370C8220221002073
S315080030D0FFF77EF9474B1988474B18680DF0A7FC90
S315080030E010BD19F02EFE19F02DFE4449444B186800
S315080030F01DF015F9E0E719F024FE19F023FE404B00
S315080031001C681EF08BFA02463E4920461DF007F958
S31508003110D6E7032000F08CFA38B90020334B187034
S3150800312064220521FFF754F9DAE719F00AFE19F0C7
S3150800313009FE3549324B18681DF0F1F8EDE74FF4F2
S315080031407A7202210020FFF743F9012000F070FA95
S315080031500028C5D019F0F5FD19F0F4FD2B49284BC8
S3150800316018681DF0DCF8BBE74FF47A7202210020DC
S31508003170FFF72EF9012000F05BFA0028B0D019F00D
S31508003180E0FD19F0DFFD22491D4B18681DF0C7F850
S31508003190A6E74FF47A7202210020FFF719F90320F7
S315080031A000F046FA00289BD019F0CBFD19F0CAFDAD
S315080031B01849134B18681DF0B2F891E704464FF406
S315080031C07A7202210020FFF703F9032000F030FA93
S315080031D0002885D019F0B5FD19F0B4FD22460E4930
S315080031E0074B18681DF09BF87AE700BF7651002058
S315080031F07751002008560020EC220020F46A0208C5
S3150800320004270020006B0208286B0208386B0208A6
S31508003210586B02087C6B0208986B020808B523F005
S31508003220E0F8074B1B782BB1064B1B68C01A064BF8
S31508003230984200D808BD054819F063FFFAE700BFB1
S3150800324075510020DC220020A08601004C78020877
S3150800325010B580B10446012000F0EAF900B910BDA6
S3150800326019F06FFD19F06EFD22460A490A4B1868D7
S315080032701DF055F8F3E7032000F0DAF90028EED040
S3150800328019F05FFD19F05EFD0449034B18681DF03F
S3150800329046F8E4E7B06B020804270020D86B02085A
S315080032A0F0B583B004460D4616461F46032000F0C7
S315080032B0BFF908B903B0F0BD19F043FD19F042FD96
S315080032C0019700962B4622460249034800681DF0DE
S315080032D026F8EFE7F06B02080427002008B5024B32
S315080032E01B6803B1984708BD2023002008B5024B88
S315080032F05B6803B1984708BD2023002008B5024B38
S315080033009B6803B1984708BD2023002008B5024BE7
S31508003310DB6803B1984708BD2023002008B5024B97
S315080033201B6903B1984708BD2023002008B5024B46
S315080033305B6903B1984708BD2023002000B585B016
S31508003340094B1868094B1860094B0A4A13600A4A60
S3150800335001920A4A12680292039301A91CF0CEFA56
S3150800336005B05DF804FB00BF185400204431002066
S315080033700C54002040310020F4770208F425002080
S3150800338008B5024B18681CF0CDFA08BD1854002081
S3150800339038B506F0B9FF0446064D2B68D3F8B002D7
S315080033A006F0A6FF28681CF0D7FA204606F0A0FF0C
S315080033B038BD00BF1854002008B5034822F097FE10
S315080033C0024800F04DFE08BDFC7A02081C54002095
S315080033D00023062073B1704754B224B9013353B1A0
S315080033E05DF8044B70470228F8D008680A49086057
S315080033F01046F3E710B4094A52F823100A7A022A4B
S31508003400EAD9032AEAD1441EE4B2012CE6D90868AF
S31508003410014908601046E1E7F425002030540020F1
S3150800342010B5A2B00DF1680C284C0FCCACE80F0013
S3150800343094E80F008CE80F0000211591169117915A
S31508003440189119914FF480131593214B19931091E4
S3150800345011911291139114911E4B10931E4B1493B4
S315080034603C2201A821F051F801AC0DF1540CBCE83E
S315080034700F000FC4DCF80030236006AC0DF1400CD9
S31508003480BCE80F000FC4DCF800302360134B0B9325
S3150800349020230C9301238DF834308DF83530104BEA
S315080034A00F93104B1AAA01A90F4806F0D9FF044634
S315080034B09DF837303BB100214FF4E13019F099FC03
S315080034C0204622B010BD0321F6E700BF1478020893
S315080034D03C00015B010010004400015BF825002058
S315080034E04454002018260020D426002008B531B9F7
S315080034F0084B1868036823B107F0C8FB01E00129E7
S3150800350000D908BD034B18680368002BF9D01DF0D5
S31508003510E8F9F6E75854002008B50349034807F0C8
S3150800352029FDFFF77DFF08BD5C540020FC2600201E
S3150800353008B502481CF039FF08BD00BFD426002094
S3150800354008B502481CF031FF08BD00BFD42600208C
S3150800355008B5024B5A6A1868904708BDD426002059
S3150800356008B5024819F0C9FC08BD00BF347802083E
S3150800357008B5024819F0C0FD08BD00BF4C7802081E
S3150800358070B590B001212A2002F086FD00250D9520
S315080035900E950F951B4E2A461B49304603F024FD0F
S315080035A08DF839000DF10C0C184C0FCCACE80F0057
S315080035B00FCCACE80F0094E803008CE803004FF446
S315080035C0966306930195029503238DF806308DF8C8
S315080035D0065001238DF800308DF801508DF8025001
S315080035E08DF8035010238DF8013003AA0DA9304633
S315080035F003F03AFD6A4601A930461BF011FC10B0EB
S3150800360070BD00BF0040005940420F0064780208B0
S3150800361000B583B00B46054909780191009200224E
S3150800362001211EF01BF803B05DF804FB7E5600204E
S3150800363003460B4A107828B10A4A12789A4202D2EF
S31508003640002000E00120084A12783AB1074A1278A9
S3150800365042FA03F313F0010F00D10020704700BFB0
S315080036608156002080560020795100207F56002080
S3150800367008B5084B01221A70074B00221A70074B2F
S3150800368004221A70064B1F221A7006F03DFE054BDF
S31508003690186008BD81560020795100208056002008
S315080036A07F5600200427002008B5054822F01FFD94
S315080036B019F0D8FA012019F06BFB00F085F808BD5F
S315080036C0FC7A020808B5024822F011FD08BD00BFC1
S315080036D0FC7A02082DE9F04180460F4601F10905FA
S315080036E00026344604E05B21082000F081FA013404
S315080036F0AC4233D2052C1BD801A353F824F000BFE3
S31508003700E7360008193700084D3700082137000842
S315080037102537000829370008FBB20433D9B2E3E796
S315080037208021E1E70021DFE7731C3146DEB2DBE7E3
S31508003730BB1DA3420CD0FB1DA3420BD007F1080307
S31508003740A34209D0A31F18F80310CDE7D121CBE770
S315080037505A21C9E75A21C7E75D21C5E70020BDE818
S31508003760F08100BF00B583B00022009201920221C9
S315080037708DF80010054819F026FB019008216846C7
S31508003780FFF7A8FF03B05DF804FB00BF006A180046
S3150800379000B583B0044B1B88ADF8043001A800F0CF
S315080037A003FB03B05DF804FB8C78020800B583B010
S315080037B0044B1B88ADF8043001A800F0C5FA03B025
S315080037C05DF804FB8C780208F0B58DB0444C0DF119
S315080037D0140C04F1040EBEE80F00ACE80F009EE8D6
S315080037E007008CE80700238CADF81030A38CADF8E1
S315080037F00C30238DADF808302388ADF804303948ED
S3150800380022F075FC384F384622F071FC01258DF8F8
S315080038102250364B0793364E05A930461BF0C4FB9B
S315080038202A46042104A800F053FA0022294603A8D0
S3150800383000F04EFA2A46042102A800F049FA2A4660
S3150800384004210DEB010000F043FA2A4C2A4BC4F878
S31508003850AC374FF00213C4F8A837A3F58033C4F881
S31508003860B0371C23C4F898374FF4487008F0D0F9DD
S31508003870FFF78EFF142008F0CBF9FFF797FF2320F8
S3150800388008F0C6F9FFF784FFB92130461BF0DAFBCA
S31508003890FFF78CFF0022114604A800F019FA00224F
S315080038A0114603A800F014FA2A46002102A800F0DF
S315080038B00FFA2A46002101A800F00AFA304603F05A
S315080038C011FF0023C4F89837C4F8AC37C4F8A837F2
S315080038D0C4F8B037384622F00FFC0DB0F0BD00BF73
S315080038E08C780208FC7A0208E47A020800127A0048
S315080038F000C0055000C003500200030008B5044884
S31508003900044A121A9210044919F086FA08BD00BF33
S315080039108001000880030008E051002008B5154B17
S3150800392083F30A8800F030F8FFF7E8FF124A0AE046
S315080039301068516850F8230041F823000133916854
S315080039408B42F5D30C320D4B9A4201D20023F6E78F
S315080039500B4A08E01168002041F82300013351683A
S315080039608B42F7D30832074B9A4201D20023F6E777
S31508003970FEF7A4FC0000002048BF020854BF020856
S3150800398054BF020854BF020870B5134B134A9A6015
S31508003990D3F8882042F47002C3F88820104A4FF4FE
S315080039A0804191660F4D05F500544FF0FF322266AF
S315080039B00D4A62660222C3F8D020BFF34F8FBFF3C9
S315080039C06F8F002006F06AFC4FF44036E660002050
S315080039D01CF050FC2E6170BD00ED00E000000008F0
S315080039E000900050008000447FFF7F01014B186063
S315080039F0704700BF7454002008B5064B1860064B84
S31508003A001B6F03F00703032B00D008BD21F004F851
S31508003A10FBE700BF7C54002000800050BFF34F8FA7
S31508003A200549CA6802F4E062044B1343CB60BFF34E
S31508003A304F8F00BFFDE700BF00ED00E00400FA0568
S31508003A40F0B18446F1B110B409E004F120000FE0AA
S31508003A502033C01A18D1BCB10CF1010C01319CF805
S31508003A6000400B4B1B5D03F00303012BEDD02046F2
S31508003A700B78074AD25C02F00302012AE9D1E7E78C
S31508003A8001207047012070475DF8044B704700BF5E
S31508003A900DBE020830B587B00546046823798DF84F
S31508003AA00C3063798DF80D301A4822F020FB00227D
S31508003AB0022103A800F00CF90DF10B0103A819F077
S31508003AC0E4FA9DF80B302370A379022B02D000206C
S31508003AD007B030BD4FF0FF330593049300950E4BA6
S31508003AE0012205A903A800F02FFA059BB3F1FF3FB1
S31508003AF007D00095084B022204A903A800F084F910
S31508003B00E5E70095044B042204A903A800F07CF914
S31508003B10DDE700BFFC7A020817CF010810B582B0AE
S31508003B20002401942A4822F0E2FA8DF80040032383
S31508003B308DF8013001220421684600F0C9F8254BAA
S31508003B400122C3F8442401A9052022F0C9FA002855
S31508003B503BD1214BD3F8F02042F00102C3F8F02004
S31508003B60D3F8FC2042F08072C3F8FC20A3F55D432D
S31508003B701A4A1A60019B03F5D52303F2FC43DB08B6
S31508003B80174AA2FB03239B0A013B164A1361022329
S31508003B90C2F8F0304FF48073C2F804334FF0604334
S31508003BA0114AC3F8B02F114AC3F8802ED3F8002E55
S31508003BB042F48072C3F8002EFF2283F82020D3F83F
S31508003BC0002E22F48072C3F8002E02B010BD00BF8A
S31508003BD0FC7A020800D0035000ED00E0FF03004025
S31508003BE017916502000004E055CEACC50900010036
S31508003BF04FF06043D3F8803E13F0010F01D1112036
S31508003C0070470E4AD2F8FC3043F08073C2F8FC3095
S31508003C104FF06043D3F8002E4FF0010C0CFA00FC6D
S31508003C2042EA0C02C3F8002E53F82030002BE8D0E5
S31508003C304FF0604303F820100020704700ED00E0C5
S31508003C4010B504460FE00123834024EA03040F2835
S31508003C5014D800EB40020E4B03EB82035A6812B1EC
S31508003C609968C0B2904794B1234600201F28EAD825
S31508003C7013F0010FE7D101305B08F7E7103800EBC6
S31508003C8040039B00B033024A13440433E6E710BDF1
S31508003C900827002008B50D4822F029FA1A2006F050
S31508003CA0EDFA28B91B2006F0E9FA40B9002008BD4C
S31508003CB01A2006F0F3FA1A201CF0DCFAF2E71B20A9
S31508003CC006F0ECFA1B201CF0D5FAEFE7FC7A02089E
S31508003CD02DE9F04170B30C46174605460F292BD837
S31508003CE003784BB1022B20D0032B21D0012B01D016
S31508003CF0002303E07F2301E040F2FF736A78D34094
S31508003D0013F0010F1AD00F4BD3F81063C6B922F07F
S31508003D102CF980463A462146284603F009FD4046D6
S31508003D2022F01EF93046BDE8F08140F2FF33E5E7A0
S31508003D303F23E3E72226F5E72126F3E72126F1E7E5
S31508003D400226EFE700C0035040B310B504460378D7
S31508003D504BB1022B1DD0032B1ED0012B01D0002303
S31508003D6003E07F2301E040F2FF736278D34013F04B
S31508003D70010F15D022F0F9F82378627801219140D5
S31508003D8003EB43031B01074AD15022F0E9F8002050
S31508003D9010BD40F2FF33E8E73F23E6E722207047ED
S31508003DA02120F5E740D0035040B310B50446037808
S31508003DB04BB1022B1DD0032B1ED0012B01D00023A3
S31508003DC003E07F2301E040F2FF736278D34013F0EB
S31508003DD0010F15D022F0C9F82378627801219140A5
S31508003DE003EB43031B01074AD15022F0B9F8002020
S31508003DF010BD40F2FF33E8E73F23E6E7222070478D
S31508003E002120F5E740E00350002866D02DE9F0416F
S31508003E100C4615461F460646002960D002784AB168
S31508003E20022A3ED0032A3FD0012A01D0002303E00C
S31508003E307F2301E040F2FF737178CB4013F0010F46
S31508003E4001D1FF2A4DD1022D01D9042D4BD122F0E3
S31508003E508CF880463378FF2B28D12368B3F1FF3FCF
S31508003E602BD02268B2F1FF3F32D0204B02EB420240
S31508003E7003EB82025760226802EB420203EB8203DD
S31508003E80069A9A603378FF2B05D02268012393405F
S31508003E90174AC2F82434404622F062F80020BDE8EA
S31508003EA0F08140F2FF33C7E73F23C5E72A4621687A
S31508003EB0304603F0A7FC2060CFE73378FF2BD0D13C
S31508003EC00C4BD3F8241470781BF0D6F82060C8E79A
S31508003ED0404622F045F82D20E1E7222070472220AF
S31508003EE0DDE72120DBE72120D9E700BF08270020EE
S31508003EF000D0035000C00350B0F1FF3F1AD038B5C8
S31508003F0004460F2818DC002818DB22F02EF80123B7
S31508003F10A3400B4AC2F82034C2F82434094B04EBF8
S31508003F20440203EB820200255560956022F018F8DA
S31508003F30284638BD212070472120FAE72120F8E7D6
S31508003F4000E0035008270020002856D02DE9F0414C
S31508003F500C4617461E460546002950D0017849B139
S31508003F60022939D003293AD0012901D0002303E0D8
S31508003F707F2301E040F2FF736A78D34013F0010F04
S31508003F8001D1FF293DD121F0F0FF80462B78FF2B88
S31508003F9027D12268B2F1FF3F2AD01B4B02EB42021F
S31508003FA003EB8202C2F8B860226802EB420203EB16
S31508003FB08203069AC3F8BC202B78FF2B06D022680A
S31508003FC0103201239340114AC2F82434404621F0A6
S31508003FD0C7FF0020BDE8F08140F2FF33CCE73F235E
S31508003FE0CAE73A462168284603F0ACFC2060D0E7C9
S31508003FF0404621F0B5FF2D20ECE72220704722200D
S31508004000E8E72120E6E700BF0827002000D0035094
S3150800401008B5084BD3F82404D3F82024104000F040
S31508004020553020F0502003F50053C3F82004FFF75D
S3150800403007FE08BD00C0035008B5084BD3F8240492
S31508004040D3F82024104000F0AA3020F0A02003F571
S315080040500053C3F82004FFF7F3FD08BD00C0035062
S3150800406070B586B005460368B3F1B64F27D0304A17
S31508004070934222D04FF0FF36B3F1B64F21D02C4AE7
S31508004080934252D12B4822F032F82B798DF804301E
S315080040906B798DF80530AB798DF80030EB798DF8B2
S315080040A0013001220A2101A8FFF712FE01220A2186
S315080040B06846FFF70DFE002412E00126DCE700261D
S315080040C0DAE71D48DFE701A8FFF76EFE642007F070
S315080040D09FFD01A8FFF738FE642007F099FD01341B
S315080040E0092CF0DD154A02EB06110323C1F8383511
S315080040F068792B7943EA0043C1F83C35E979AB790D
S3150800410043EA014354363601935101238DF80830AA
S315080041108DF80930EB680493AB6803932B7C8DF814
S31508004120143002A9286802F003FF06B070BD00BF6C
S3150800413000800650F47A0208F87A020800C0035094
S3150800414010B582B004460A4821F0D1FF23788DF8CD
S31508004150043063788DF80530A278B2FA82F25209F3
S3150800416004210DEB0100FFF7B3FD002002B010BDDE
S31508004170FC7A0208F0B585B00C4694469DF83410D2
S31508004180664A1278002A00F0BD800546BCF1070F82
S3150800419000F2BA800A9A002A00F0B8800B9A002A20
S315080041A000F0B6800E9AB2F5006F00F3B3800128CE
S315080041B05BD05B4A02EB0C12127B002A00F0AC8043
S315080041C000220092019202920392564A02EB4C1E7A
S315080041D0002C4FD14FEA4C1600209051CEF804001F
S315080041E0CEF80800CEF80C009EF8020040F0100049
S315080041F08EF802009EF8030040F030008EF80300A7
S3150800420021B9C1B241F003018EF8031000930E9B49
S31508004210013B444A4FEA4C1002EB4C11165A63F321
S315080042200E1616520A9B8B600B9B4B60CB789DF83B
S315080042303C2062F38303CB70012D36D0109B002BF4
S3150800424056D0374A4FEA0C1102EB0C13109850500F
S31508004250119A5A6000249C605D73724669466046EE
S3150800426003F028F9204605B0F0BD0C9A002AA0D123
S315080042702D48F8E72B4F4FEA4C1607EB4C12002057
S31508004280B85150609060D060907840F010009070FF
S31508004290D07840F00300D0700029B7D107EB4C1254
S315080042A0C1B241F03001D170B0E70E460A7B42F048
S315080042B001020A73D2B242F002020A73CA680421E2
S315080042C061F39F02F26006F1100796E80F0087E88F
S315080042D00F00F2696FF0030161F39F02F2610C9B14
S315080042E07361012CAAD10B9AB2610C9A7260A5E788
S315080042F0002DA6D10B4B03EB4C139A786FF30412DF
S315080043009A709EE70948AEE70748ACE70648AAE769
S315080043100548A8E70448A6E70548A4E77A51002017
S315080043207029002070280020018000F0028000F02B
S31508004330078000F0134B1B78FBB110B50446F0B1AB
S3150800434021F013FE0023072B13D80F4A02EB0312A2
S31508004350127B0AB10133F6E723600B4A190102EB17
S31508004360031301241C730024545021F0F9FD204640
S3150800437002E021F0F5FD054810BD054870470548DF
S31508004380FAE700BF7A51002070290020048000F067
S31508004390028000F0018000F038B521F0E6FD044601
S315080043A00023072B06DC0C4A02EB0312127B12B918
S315080043B00133F6E7002222B1204621F0D1FD074855
S315080043C038BD03F023F80025054B1D70204621F063
S315080043D0C7FD2846F4E700BF70290020058000F0D5
S315080043E07A5100200F4B1B78BBB110B5044607283D
S315080043F015D821F0BAFD0C4B03EB04131B7B1BB934
S3150800440021F0AEFD09480BE0074B03EB041300242B
S315080044101C7321F0A5FD204602E0054870470548B3
S3150800442010BD00BF7A51002070290020068000F0D8
S31508004430028000F0018000F000B583B0134B1B68C2
S31508004440019300238DF8043021F08FFD104B1B7863
S3150800445033B90F4B01221A7021F082FD002309E0BF
S3150800446021F07EFD0B480EE00B4A02EB03120021F9
S3150800447011730133072BF7DD08238DF8073001A8E0
S3150800448002F0E8FF002003B05DF804FBB8780208E4
S315080044907A510020038000F07029002010B5104CD6
S315080044A02478BCB1072817DC0E4C04EB0014247BD7
S315080044B0A4B10C4C4FEA001E04EB001C44F80E3065
S315080044C0029BCCF804300024CCF8084002F0F2FF36
S315080044D0204610BD0448FCE70448FAE70448F8E714
S315080044E07A51002070290020028000F0018000F037
S315080044F0078000F008B50A4B1B785BB107280BD874
S31508004500084B03EB00131B7B43B1002102F094FF19
S31508004510002008BD0448FCE70448FAE70448F8E721
S315080045207A51002070290020028000F0018000F0F6
S31508004530078000F008B50A4B1B785BB107280BD833
S31508004540084B03EB00131B7B43B1012102F074FFF8
S31508004550002008BD0448FCE70448FAE70448F8E7E1
S315080045607A51002070290020028000F0018000F0B6
S31508004570078000F0F8B5194B1F6D5B6D1F4002D41C
S315080045800125002402E0FEE701346D00072C24D83B
S315080045903D42F9D0124B1D652301124AD358002B10
S315080045A0F2D002EB0416B1680131B1607268204698
S315080045B0984780F00100C0B2737B012BE4D1002834
S315080045C0E2D0094B03EB44131A7B6FF341021A73CB
S315080045D01A7F6FF341021A77D6E7F8BD0000045038
S315080045E00020045070290020702800202DE9F04F83
S315080045F089B005460E4614469846C36B5B69012288
S3150800460007A960689847EB6B5B69012206A93046E3
S31508004610984707A819F0CAFF48B10027A775677514
S315080046204FF0FF33A360384609B0BDE8F08F074660
S3150800463006A819F0CBFF0123A375237E033304EBE9
S31508004640C3035E6000221A816368B3422AD02368D6
S31508004650834201D00023A37506A819F0DCFF237D49
S31508004660984201D00023A37506A819F0B3FF814626
S3150800467007A819F0AFFF814501D00023A37506A846
S3150800468019F0B0FF814607A819F0ACFF814501D0A3
S315080046900023A375237D043BDBB2022B0BD8002332
S315080046A0A375C0E7206006A819F0B5FF20754FF07E
S315080046B0FF33A360EEE706A819F08CFF80B1EB6B19
S315080046C05B69022204A93046984704A819F095FFA9
S315080046D00346207D032868D8DFE800F0615B070DF4
S315080046E006A819F08AFF0346F3E7237E033304EB93
S315080046F0C303CC221A8119F09EFF129B187094F8F6
S31508004700189006A819F059FF09F1030904EBC9091D
S3150800471089F80A00237E033304EBC303B3F808A021
S3150800472093F80AB006A819F055FF814606A819F0AD
S3150800473059FF0390B9F1000F3DD0EB6B5B6902227C
S3150800474004A93046984704A819F013FF6075637DDD
S3150800475003B9A375A37DA3B1BAF1000F11D0039BCA
S31508004760F1186B6C5B4286EA01021A4201D00023FB
S31508004770A3756B6C5A1E0A409B1A9A4501D90023E9
S31508004780A375A37D002B40D0BBF1000F18D1E77DA0
S315080047903CE0227E033204EBC2021381ABE7227EA1
S315080047A0033204EBC2021381A5E7227E033204EB2F
S315080047B0C20213819FE706A819F0C4FE6075C6E712
S315080047C00122E275627EBAB9BBF1010F08D095F8ED
S315080047D03470DFB9EA6AB2F1FF3F05D01F4615E02B
S315080047E001216176174611E0BBF1030F01D01F4680
S315080047F00CE00122A27609E0BBF1010F37D0BBF12C
S31508004800030F03D10122A27600E01F4653B117B168
S31508004810BBF1010F06D95346039A3146284619F0CB
S3150800482008F8A060A37D13B1236953442361237E4E
S31508004830114A127893421CD201332376B8F1000F3D
S3150800484013D0A37D8BB1E37D7BB177B9BBF1030FA1
S315080048500BD0A168B1F1FF3F07D0129B009301234B
S3150800486022462846FFF7C2FEA075A77DDBE6174657
S31508004870CCE70023A375E1E7DC7802082DE9F04FC1
S3150800488089B005460F4692469B4600238DF80B30A5
S315080048904FF0FF31104600F0EFFFB7F5801F1DD32C
S315080048A00023009317F1020F07D0009B002B40F05E
S315080048B09E802B7C002B00F08C80EB6AB3F1FF3FC7
S315080048C02CD02A689B1A6A6CB3FBF2F917F1020816
S315080048D018BF4FF00108002301935DE00DF10A02AD
S315080048E0394605F1080000F017FF0146B0F1FF3F11
S315080048F011D0504600F0C0FF0DF10B0301225146BE
S31508004900284619F015F800900028CBD09DF80B30F2
S315080049108BF80030C6E700230093C3E7696A284688
S3150800492018F0A8FE8146D1E70123019337E09DF8E8
S315080049300B308BF80030324B1A68324950461FF05C
S315080049400BFE00942F4B9968B1F1FF3F1BD06B6C9F
S315080049505B4281EA06021A4215D12A4C204600F02B
S315080049608BFF0DF10B0342462146284618F0E0FF5F
S3150800497004460028E6D017F1020FD8D0214B1B6851
S31508004980BB42DFD1D3E74946284618F073FE814675
S31508004990019BCBB9009BBBB96B6A4B45C4D02C684D
S315080049A06B6C03FB0944EB6B5B69052203A9204684
S315080049B0984703A819F0D6FE19F0FBFE204619F011
S315080049C004FF06460146BFE7009BA3B1B7F5801F63
S315080049D003D3009B8BB100200AE09BF80030DAF87D
S315080049E00420394605F1080000F0B4FEF1E700207E
S315080049F009B0BDE8F08F2D20FAE72D20F8E700BFB3
S31508004A00D87802086430002070B582B004464FF0AA
S31508004A10FF33C3620DF107031A4A6FF00101FFF76E
S31508004A202DFF20BB174B9B68E362E56A29462046A3
S31508004A3018F011FC2063E8B12946204618F0E9FE73
S31508004A400546A36AAB421BD02946204618F003FC4C
S31508004A500646236B034423632946204618F0D9FEED
S31508004A600546002EEDD100232363E062E9E7A36A39
S31508004A70E362DAE7E16A204618F0CBFEE062DBE79C
S31508004A8002B070BD9030002030B583B01C46032AB2
S31508004A9014BF002201221B7E9A4202D0012003B0D5
S31508004AA030BD0D46096823689942F7D36368994271
S31508004AB0F4D80DF10703114AFFF7E0FE0028EDD1FF
S31508004AC00E4B5A686B689A42E8D19DF80730032B5B
S31508004AD014BF00230123227E9342DFD16369013389
S31508004AE063612369E2689342D8D2A268296842F8CA
S31508004AF02310236901332361D0E700BF90300020DB
S31508004B002DE9F04182B004460E4690461F46816A5A
S31508004B1006E01A4B9968B1F1FF3F1FD0012E23D04A
S31508004B20E06A884217D0B1F1FF3F14D0134D2846EA
S31508004B3000F0A2FE0DF1070301222946204618F0CF
S31508004B40F7FE0028E5D03B469DF807202946204673
S31508004B50C0470028DDD102B0BDE8F081596820467B
S31508004B6018F057FE0146D9E7044B5A68636C5B4256
S31508004B704A401A42D4D04FF0FF31D1E738300020EE
S31508004B8010B50446083000F08DFD0023024A194688
S31508004B902046FFF7B5FF10BD1FD9010838B50446F2
S31508004BA0037C0BBB02461349083000F01DFE616A00
S31508004BB0204618F081FD421C616A204618F0D2FC96
S31508004BC0054620B9236B626C1344143B2363A16A20
S31508004BD0204618F01EFEA0622368C01A636CB0FB5C
S31508004BE0F3F06062284638BD0023034A0121FFF727
S31508004BF087FFDCE7B7DC010885DC0108F0B589B07A
S31508004C0080B30F4616461D46044690F834301BB945
S31508004C100025284609B0F0BD012118F078FC019559
S31508004C200E9B0293039704960023059306939DF81B
S31508004C303C308DF81C30237C5BB901AA0A4904F183
S31508004C40080000F0D1FD5EB9069D204618F001FF68
S31508004C50DFE701AB054A00212046FFF751FFF2E7DF
S31508004C60059DF2E70025D4E7D3D40108894A000850
S31508004C70F0B58BB004460D46406AE36B5B690522C6
S31508004C8005A92668676C07FB0060984705A819F010
S31508004C9069FD012836D00094002301938DF8085049
S31508004CA0039301238DF81030A16AE36A99420FD065
S31508004CB0237CBBB96A46144904F1080000F094FD48
S31508004CC0019B13B99DF810309BB901980BB0F0BD44
S31508004CD0204618F09EFDE062236B626C9B1A143323
S31508004CE02363EDE76B46094A01212046FFF708FFD3
S31508004CF0E6E7626A2368616C01FB0231E06B19F032
S31508004D00E3FCE2E70020E1E7154F0008954E0008AE
S31508004D102DE9F04F89B004468A4691461D46002380
S31508004D2007930969026BCB1D406C1438B3FBF0F38B
S31508004D30013301EBC301914200F2A7804E4677E0AA
S31508004D403D2840F092800490BB4605961EE04FF041
S31508004D5000092368616C01FB0631E06B19F0A0FCC1
S31508004D60204618F0DEFB204618F07AFD2063B9F1DC
S31508004D70000F76D0DAF81020D31D616C1439B3FB16
S31508004D80F1F3013302EBC30290423AD32368ABEB4B
S31508004D900309606CB9FBF0F909FB003019F015FD41
S31508004DA08046E16A204618F034FDA36A83422CD077
S31508004DB0E062374B9A68616C4B1E1340226B5B1A94
S31508004DC013442363ABEB08072368079EF61AB6FB62
S31508004DD0F1F6B145BBD197B1E36B9B69BA08414679
S31508004DE098478146E36A3B44E362236BA8EB0B08CA
S31508004DF04344236304F1080000F054FCA9E7B946CC
S31508004E00A7E7DDF810B0059E02E0DDF810B0059EB4
S31508004E10BBF1000F29D0DAF81000226BC31D616CB4
S31508004E201439B3FBF1F3013300EBC30082421CD300
S31508004E30E76ADFF85C803946404600F01DFD07AB9F
S31508004E400293019500963B4642465146204619F084
S31508004E502BF8834600287FF473AFD8F80830E3624E
S31508004E60D6E7DDF810B0059ED2E75F461FB1384693
S31508004E7009B0BDE8F08F2B46054A5268DAF80010EB
S31508004E8004F1080000F066FCF1E71C27EFE700BF15
S31508004E9064300020F0B583B01C46032A05D1237A76
S31508004EA0012B33D0012003B0F0BD06460F46154648
S31508004EB00DF10703164A0968FFF7E0FC6060002851
S31508004EC0EDD19DF80730032BE9D0114B5A687B6862
S31508004ED09A42E4D1237A012B08D13B69E26813444C
S31508004EE07269934202D900232374D8E7E3683A69C2
S31508004EF013440833E3602B46012239463046FFF750
S31508004F0007FF60600028CAD00020CCE7207CCAE7EB
S31508004F1090300020F0B583B0089C2668032A05D196
S31508004F20237A012B4DD0012003B0F0BD15460DF1B3
S31508004F300703254A3046FFF7A1FC60600028EFD139
S31508004F402168214B5A688B6A486CC0F1000C5A409C
S31508004F5012EA0C0FE4D1227A012A19D00F68DB1B5A
S31508004F60B3FBF0F3CA6AD21BB2FBF0F29A4219D02D
S31508004F70E36815490A6913440833E3602B4601229E
S31508004F802068FFF7C5FE60600028C9D00020CBE77F
S31508004F900D4A1269E7683A447769BA42DED90023AE
S31508004FA02374BDE7726CF16A531E0B40316B9B1A72
S31508004FB00B4433632668B16A304618F02AFCF0625F
S31508004FC0D6E7207CB0E700BF90300020F8B56E4BDE
S31508004FD01E6800221A60002800F0B6800D460446B6
S31508004FE090F8343013B30A6803689A4240F0AE80EA
S31508004FF04A6843689A4240F0AC808A6883689A4255
S3150800500040F0A980CA68C3689A4240F0A6800A6937
S3150800501043699A4240F0A3808A69C36B9A4201D0D9
S315080050205D2594E04B698361002590E0876B6822D3
S3150800503000211FF06AFAA7632B6823606B68636018
S315080050402B6963616B69A361EA68A96804F10800C2
S3150800505000F03AFBAB69E3639B6804F140009847AC
S3150800506030B9636C23B16268B2FBF3F2E26101E026
S315080050700023E36194F84330002B72D000232366A3
S31508005080656C002D6FD0E369002B6ED02368B3FBE7
S31508005090F5F205FB1233002B69D16768B7FBF5F308
S315080050A005FB1373002B64D1204618F0C4F8A369D6
S315080050B0034404339F425ED36369B3F5805F5CD8CB
S315080050C0CB2B5CD9B5F5805F5BD30321204618F05E
S315080050D01EFAE36B1B686168206898470546E36B10
S315080050E0DB6802209847EDB1636C143B5DB9266A0C
S315080050F003FB06F6204618F09EF8A369034404331A
S315080051009E4200D25A25B5FA85F35B0984F83430F5
S315080051101BB11E4A13680133136085B1204618F087
S3150800512098FC14E03146204618F016FC054664281B
S31508005130DAD13146204618F00FFC0546D4E76168F7
S31508005140206819F0A2F9E9E7212500E05D2528463F
S31508005150F8BD5D25FBE75D25F9E75D25F7E75D25E4
S31508005160F5E72125F3E75B25F1E75B25EFE7592509
S31508005170EDE75925EBE75A25E9E75F25E7E75F25D8
S31508005180E5E75B25E3E700BFF4290020F0290020C6
S31508005190F0B585B0A8B30C4617461E46054690F8E6
S315080051A0343083B3B1F5801F2FD2012118F0AFF93F
S315080051B00DF10F03164A21462846FFF75FFB044602
S315080051C030B99DF80F30012B08D0022B17D02D24AB
S315080051D0284618F03EFC204605B0F0BD0C4B1B696E
S315080051E0B34201D06324F3E700220192084B0093EF
S315080051F033463946284618F034FC0446E8E7602466
S31508005200E6E72124E7E71124E5E72924E3E700BFD9
S31508005210BC300020F0B585B0002838D00C461746BB
S315080052201E46054690F834309BB3B1F5801F32D23E
S31508005230012118F06CF90DF10F03184A214628468A
S31508005240FFF71CFB044630B99DF80F30012B08D038
S31508005250022B1AD02D24284618F0FBFB204605B051
S31508005260F0BD0E4B1A690A9BF3189A4201D26324C1
S31508005270F1E700230193094B00930A9B324639460E
S31508005280284618F0EEFB0446E5E76024E3E7212408
S31508005290E4E71124E2E72924E0E700BFBC30002058
S315080052A070B582B058B30C461646054690F83430A9
S315080052B03BB3B1F5801F26D2012118F028F90DF16C
S315080052C00703124A21462846FFF7D8FA044668B962
S315080052D09DF80730032B10D0022B01D0612406E07D
S315080052E00A49284618F0A4FD306000E02D24284617
S315080052F018F0AFFB204602B070BD2D24F7E7212435
S31508005300F8E71124F6E72924F4E700BFBC300020AB
S31508005310F0B583B01C460023236070B30E461746CB
S31508005320054690F8343053B3B1F5801F29D20121D0
S3150800533018F0EDF80DF10703134A31462846FFF732
S315080053409DFA064680B99DF80730032B13D0022B29
S3150800535005D000233B600C4B1B69236005E0012345
S315080053603B600423236000E02D26284618F071FBD5
S31508005370304603B0F0BD2D26F7E72126F8E71126BB
S31508005380F6E72926F4E700BFBC30002000B583B055
S31508005390044B009300231A46194618F07AFF03B007
S315080053A05DF804FBFFFF0F0000B583B0044B0093C4
S315080053B000231A46194618F076FF03B05DF804FB79
S315080053C0FFFF0F002DE9F8431D469DF8207043693D
S315080053D0AB422FD304468846914618F028FC032F83
S315080053E006D0266B2946204617F015FF864225D398
S315080053F0134E4FF0FF31304600F03EFAC6F80080F3
S315080054003561C6F80C903B46002231462046FFF728
S315080054107FFC0546236E73B1204618F04EFF94F8BC
S31508005420503013B994F858302BB1236E04F150005C
S31508005430984700E062252846BDE8F8831C25FAE768
S31508005440903000202DE9F04184B000283AD00C466F
S3150800545090461F46054690F83430ABB3B1F5801F29
S3150800546034D2022118F053F80DF10F03184A2146D9
S315080054702846FFF703FA18B99DF80F30012B0FD00D
S31508005480012300933B46424621462846FFF79AFFEA
S315080054900646284618F0DDFA304604B0BDE8F08125
S315080054A00B4B1B69BB42EBD101230193084B0093BD
S315080054B03B4600224146284618F0D3FA06460028FD
S315080054C0E7D0DDE72126E7E71126E5E72926E3E722
S315080054D0BC300020F0B583B0A0B30C46164605468E
S315080054E090F8343083B3B1F5801F2FD2022118F01B
S315080054F00EF80DF10703164A21462846FFF7BEF9AE
S31508005500B8B99DF80730032B1AD0022B01D06124B5
