:020000040800F2
:1000000000200020E53700085BC301085BC301083E
:100010004F0602085BC301085BC301085BC301080C
:100020005BC301085BC301085BC301085BC3010834
:100030005BC301085BC301085BC301085BC3010824
:100040005BC301085BC301085BC301085BC3010814
:100050005BC301085BC301085BC301085BC3010804
:100060005BC3010841340008313400085BC3010858
:100070005BC301085BC301085BC301085BC30108E4
:100080005BC301085BC301085BC301085BC30108D4
:100090005BC301085BC30108414400085BC301085E
:1000A0005BC301085BC30108053F0008DD3E000893
:1000B0005BC301085BC30108FD980108A9A30108FF
:1000C000233902081F3902085D9B010839390208EB
:1000D0002739020879A301082B3902080DA4010869
:1000E00045A401085BC301085BC30108A5B600086D
:1000F0005BC3010879F501085BC301085BC3010814
:100100005BC301085BC301085BC301085BC3010853
:100110005BC301085BC301085BC301085BC3010843
:100120005BC301085BC301085BC301085BC3010833
:100130005BC301085BC301085BC301085BC3010823
:100140005BC301085BC301085BC301085BC3010813
:100150005BC301085BC30108CF590208E97D0108B0
:100160005BC301085BC30108BD380208C33802083D
:10017000194A5AB3194BDB6913F0040F29D110B493
:100180000AE003EA00048C4210D0013AB2B1134BEA
:10019000DB6913F0040F14D110F0010FF1D1104CF2
:1001A0001C40002CEDD06FF001000CE00C4A1A400E
:1001B0000AB9002007E06FF0010004E06FF00200D0
:1001C00001E04FF0FF305DF8044B70476FF0020024
:1001D00070474FF0FF307047809698000000035042
:1001E000020001000D4BDB6913F4803F12D170B5A2
:1001F0000A4B03F580560124F46003F500552C6486
:100200004FF480721A6100212046FFF7B1FF346479
:10021000EC6070BD6FF00100704700BF000003503C
:1002200010B5124B4FF480329A6603F51C33DC692B
:10023000144041F67132DA6303F580520121D16036
:10024000586102221A6100212120FFF791FF40B17D
:10025000074B0122DA601CB1A3F500530022DA63D8
:1002600010BD00212120FFF783FFF1E7009000502F
:100270000020035038B51A4B5861DB6913F0040FA6
:100280002AD10C4654F8041B154B9961151F06E042
:10029000214651F8042B124B9A61043D0C465DB186
:1002A00008210846FFF764FF03460028F0D00C4AF7
:1002B00004211161184638BD094B04221A6100213E
:1002C0002120FFF755FF03460028F3D1002121200C
:1002D000FFF74EFF0346EDE74FF0FF33EAE700BFBD
:1002E000000003502DE9F0410F46164605461A4B13
:1002F0004FF480329A6603F51C33DA6902F48038D1
:1003000041F67132DA6303F580530122DA6000238B
:1003100002E025442744361B8EB105F5005424F431
:10032000FF5424F01F04641BB44228BF3446224605
:1003300039462846FFF79EFF03460028E9D0074AC2
:100340000121D160B8F1000F03D0A2F500520021C5
:10035000D1631846BDE8F0810090005000200350A2
:10036000000000000000000000000000000000008D
:10037000013800D0FCE770472DE9F04F2DED028BDE
:1003800093B082460C4693461D4657EC106B8DED9C
:10039000080B32463B46304639461AF027FD002806
:1003A00000F009814FF0FF32B14B304639461AF068
:1003B00045FD002840F0FF804FF0FF326FF48013BE
:1003C000304639461AF01CFD002840F0F480002227
:1003D0000023DDE90867304639461AF011FD002890
:1003E00040F0FC809DED087B8DED067B209B13F497
:1003F0008063119301D106231E93DDE906010246B5
:10040000C1F30A50C1F31303904643F07F5949F4F6
:100410004019A0F2FF301AF017FA83A3D3E90023A2
:100420001AF07CFA82A3D3E900231AF0C1F8064639
:100430000F4600228F4B404649461AF0B7F87EA37C
:10044000D3E900231AF06AFA02460B4630463946D1
:100450001AF0AEF81AF0FCFC06461AF0F5F98046E0
:10046000894677A3D3E900231AF058FA0022824B79
:100470001AF09EF81AF0ECFC074673A3D3E90023A8
:10048000404649461AF04AFA8046894638461AF0EC
:10049000DBF96FA3D3E900231AF040FA02460B46BA
:1004A000404649461AF082F88046894602460B4685
:1004B0001AF034FACDE90C0107F2FF3700210022CF
:1004C000CDE90A123B050B9300230A9342464B46A3
:1004D000404649461AF06CF8CDE90E0142464B46BB
:1004E00000204FF080411AF061F8804689460022D2
:1004F000624BDDE90C011AF03BFB0022604B1AF065
:1005000057F802460B46DDE90C011AF031FB0022D8
:100510005C4B1AF04DF802460B46DDE90C011AF06F
:1005200027FB02460B46404649461AF041F8024670
:100530000B46DDE90E011AF01BFB0022524B1AF0AC
:1005400037F8DDE90A231AF0E9F98046894649ECD3
:10055000188BDDE906231AF071FC40B1013E002240
:10056000474B404649461AF003FB41EC180B06F195
:100570006303C62B3BD80427209B13F4006F40D0A5
:1005800035A3D3E90023DDE90689404649461AF040
:100590004BFC00283BD032A3D3E900234046494618
:1005A0001AF02EFC002832D01E9BB34221DD9E1B88
:1005B000731E1E931FE0209B02931F9B01931E9BA3
:1005C00000939DED080B2B465A462146504600F0FD
:1005D000CBF813B0BDEC028BBDE8F08F9FED227B12
:1005E0008DED067B069607F100430793FEE605278F
:1005F000C2E700231E93209B43F4806320930027CF
:100600003E461F9B9F4241D2A3EB070840E01E9B42
:10061000002BF6D0119B002BF3D01E9B013B1E93A9
:10062000EFE700BFAFF30080FB799F501344D33F47
:10063000B3C8608B288AC63F61436F63A787D23FE8
:1006400071A379094F930A401655B5BBB16B0240AF
:10065000EF39FAFE422EE63F2D431CEBE2361A3FFD
:100660000000000080842E41000000000000000017
:10067000FFFFEF7F0000F83F0000E03F00002C404C
:1006800000002440000018400000F03F4FF0000838
:10069000209B13F0020902D00FB14FF000083EB1C9
:1006A00053EC182BDDE906011AF062FACDE90601D8
:1006B00000220023DDE908011AF0A2FB00283BD14B
:1006C000209B23F400630293CDF804801E9B0093CB
:1006D0009DED060B2B465A462146504600F044F845
:1006E000002F3FF476AF209B13F0200F2CD04FF05B
:1006F000450C00F101082B46024621466046D047D2
:1007000086EAE672A2EBE67205230593013F0497A1
:10071000002303930A230293F30F019300922B46C5
:1007200042462146504621F0F0FCB9F1000F3FF45B
:1007300050AF02461F9F10E0DDE90601024601F1BD
:100740000043CDE90623BBE74FF0650CD1E7561C0B
:100750002B4621462020D0473246A2EB0B03BB425A
:10076000F5D3104635E700BF2DE9F04F2DED028B94
:1007700093B00590089192469B4659EC108B1E9DB4
:1007800042464B46404649461AF030FB002840D0CE
:100790004FF0FF326FF48013404649461AF030FBA9
:1007A000002845D14FF0FF32B14B404649461AF080
:1007B00045FB00284BD1AAA3D3E900234046494674
:1007C0001AF03CFB00285AD1A7A3D3E900234046E6
:1007D00049461AF015FB002851D10022002340465B
:1007E00049461AF00DFB002857D100230993209B9E
:1007F00013F4806F5CD000241F2C5BD8092D59D9CD
:1008000004F148036B44302203F8202C013D0134ED
:10081000F2E7209B03931F9B029303230193954BC5
:1008200000935B4652460899059821F094FB10E12D
:10083000209B03931F9B0293042301938E4B0093F1
:100840005B4652460899059821F085FB01E1209B03
:1008500013F004030FD0894A7BB10423209903913C
:100860001F990291019300925B46524608990598A0
:1008700021F071FBEDE0824AEEE70323EEE7209BD7
:1008800002931F9B0193009549EC108B5B465246E7
:1008900008990598FFF770FDDBE042464B460020C3
:1008A000002119F083FE80468946012309939EE7C3
:1008B0000625A0E7404649461AF0CAFA064619F04E
:1008C000C3FF02460B464046494619F06FFE6D4B8A
:1008D00003EBC50393ED008B53EC182B1AF01EF8B5
:1008E00002460B46CDE906231AF0DAFA074619F05C
:1008F0009BFF02460B46DDE9060119F057FE024652
:100900000B46CDE9062300225F4B1AF097FA50B34D
:100910000137384619F088FF02460B4651EC180B98
:100920001AF078FA08B10136002755BB304619F0A5
:100930008BFF02460B464046494619F037FE80467B
:1009400089460022504B1AF05BFA38B100224E4B18
:10095000404649461AF072FA002842D016F0010FBC
:100960003FD001363DE00022474BDDE906011AF099
:1009700047FA0028D9D117B117F0010FD5D00137A8
:10098000D3E71F2C17D8013D404BA3FB0723DB08FF
:10099000194603EB8303A7EB4303621C303304F1D6
:1009A00048000DEB000404F8203C092F02D90F4643
:1009B0001446E6E714461F2C0AD86B1E45B104F115
:1009C00048026A44302102F8201C1D460134F2E737
:1009D0001F2C06D804F148036B442E2203F8202C68
:1009E00001341F2C17D82A4A82FB0632F317C3EBB7
:1009F000A2031A4603EB8303A6EB4303611C3033C7
:100A000004F148000DEB000404F8203C16460AB13E
:100A10000C46E6E70C46209B03F00303012B39D07C
:100A20001F2C09D8099B002B51D004F148036B44BB
:100A30002D2203F8202C0134209B03931F9B02934B
:100A400001940AAB00935B4652460899059821F041
:100A500082FA13B0BDEC028BBDE8F08FAFF30080DB
:100A60000000000065CDCD410000000065CDCDC186
:100A7000FFFFEF7F9C740208A074020890740208C4
:100A800098740208A87402080000E03FCDCCCCCCDA
:100A9000676666661F9BB3B1099B1BB9209B13F069
:100AA0000C0F12D01F9B013B1F93194606E004F167
:100AB00048036B44302203F8202C01348C42AFD21F
:100AC0001F2CF4D9ACE71F99F8E71F99F6E7209B94
:100AD00013F0040F07D004F148036B442B2203F8F2
:100AE000202C0134A8E7209B13F0080FA4D004F1B8
:100AF00048036B44202203F8202C01349CE700BFFC
:100B000038B50D46044624F0D4FC064A13889BB23F
:100B10002DB123431380BDE8384024F0C5BC23EA3F
:100B20000403F7E7A44A00200022034B01214FF4FD
:100B300080709A70E4E700BFA44A00207FB54E6839
:100B400002A9044622F07BF99DF808300C2B19D13C
:100B5000134BB3F90050134B9E4218D806F016FE03
:100B600003460068694600909B882046ADF8043033
:100B700022F052F970B140F25F620B490B480CF061
:100B800015FCFEE7204612F013FA0546E3E71DF0D8
:100B90005FFCE5E72946204622F024F904B070BD49
:100BA00076500020FFC99A3B517702081C75020855
:100BB000002330B5134C85B0CDE90133039323787E
:100BC0008DF8043024F075FCA288E38805469A422B
:100BD0000DD0E188A06801AAA18021F0B9FF58B129
:100BE00040F2DA62084909480CF0E0FBFEE7A06831
:100BF00021F087FF0128ECD0284624F055FC05B0F1
:100C000030BD00BFA4540020517702081C750208B3
:100C100038B50F4C656835B940F2C7720D490E48BA
:100C20000CF0C4FBFEE721F045FB28440FF00EFB5F
:100C300000F00700032809D164680921204621F04B
:100C400055FC205C031F5842584138BD0020FCE78A
:100C5000A44A0020517702081C75020808B5114B00
:100C60009A78042A06D040F28E520F490F480CF0B1
:100C70009DFBFEE71B881B0706D440F28F520A49F2
:100C80000A480CF093FBFEE700210820FFF738FF2D
:100C90000222074B98681A7311F044FFBDE8084020
:100CA0001FF031BEA44A0020517702081C750208CB
:100CB000A454002010B5084CA06811F033FFA068C0
:100CC00021F01FFF012806D00122A0681146BDE8CF
:100CD000104021F018BF10BDA454002038B5194DA4
:100CE000AB7833B140F22B72174918480CF05EFB19
:100CF000FEE724F0DEFB2988044611F0060109D046
:100D000001214FF48070FFF7FBFE2046BDE838401C
:100D100024F0CABB4FF48070FFF7F2FE11F054F8D4
:100D2000012805D010F0FD0F05D1FFF741FFECE7DA
:100D3000FFF7C0FFE9E740F24172034903480CF0B6
:100D400035FBFEE7A44A0020517702081C75020813
:100D500070B50446064D95F90860FFF7BFFF10F027
:100D600031FF314620466A68BDE8704010F062BD30
:100D7000A44A002008B50A4B1B88DB0606D440F2C3
:100D8000A752084908480CF011FBFEE7002110208B
:100D9000FFF7B6FE11F094F8BDE808401FF0B3BDB0
:100DA000A44A0020517702081C7502080D4B10B5AB
:100DB0001B8804469B0713D500210220FFF7A0FEE5
:100DC000094B5A7BFF2A06D040F2E5420749084802
:100DD0000CF0ECFAFEE75C73BDE810401FF093BD29
:100DE00010BD00BFA44A0020A4540020517702087F
:100DF0001C7502087047704707B5ADF8061001462C
:100E000030B94FF4B572104910480CF0CFFAFEE734
:100E1000BDF8063033B940F26B120B490B480CF0A9
:100E2000C5FAFEE70A4B0DF10602986822F0BEF8FB
:100E300030B140F26D12044904480CF0B7FAFEE7F5
:100E400003B05DF804FB00BF517702081C7502086F
:100E5000A454002010B50E4CA37833B14FF4EA72BD
:100E60000C490D480CF0A2FAFEE7606019B1A17BB5
:100E7000003918BF01212020FFF742FE074B084828
:100E80009B7B23760223A370BDE810400FF0AAB825
:100E9000A44A0020517702081C750208A4540020BF
:100EA000C04A002008B50AF09BFE80F00100C0B2E5
:100EB00008BD0A4B9A780AB1062A0CD11B8803F4A4
:100EC0008B7343B9064B5A7BFF2A04D1187BFF383A
:100ED00018BF012070470120704700BFA44A0020BE
:100EE000A454002008B50AF06BFE0028FBD108BD11
:100EF0000C4B42889A8142789A730278DA7382881E
:100F00001A82C2885A82C2685A61017A064A91736B
:100F1000028A998C914204D001214FF400709A8486
:100F2000EEE57047A44A0020A4540020094B9A899A
:100F300042809A7B4270DA7B02701A8A82805A8AD7
:100F4000C2805A699B8CC260034A0382927B027200
:100F5000704700BFA44A0020A45400204B1E012B60
:100F600070B50C4606D940F2B7221A491A480CF05F
:100F70001DFAFEE7194D0A460146A86822F040F81E
:100F800030B140F2B922134913480CF00FFAFEE7D2
:100F9000AE680EF09BFF22460146304622F02AF84A
:100FA00030B140F2BD220B490B480CF0FFF9FEE7CF
:100FB000AD680EF097FF22460146284622F026F83B
:100FC00030B140F2C122034903480CF0EFF9FEE7CB
:100FD00070BD00BF517702081C750208A4540020A0
:100FE000054BDB7B1B0913F00E0003D0052B8CBFD8
:100FF00000200120704700BFA4540020044BDB7B7D
:101000001B0913F00E0F0CBF01200020704700BF1A
:10101000A45400202DE9F04F15469A0580461F463E
:101020008FB003D501218020FFF76AFDEB014FF05F
:10103000000955D5984C23889E0751D5974E737B50
:10104000FF2B06D040F2AF42954996480CF0AEF91E
:10105000FEE7636833B94FF49662914991480CF00A
:10106000A5F9FEE749460220FFF74AFDA37886F876
:101070000D90042B03D101210820FFF741FD00232F
:10108000B06808A98DF82C3021F0DBFE30B140F2B9
:10109000BA42834983480CF089F9FEE7FFF7A0FFC5
:1010A000B0B921F007F98146606821F00EF908A96E
:1010B0008144B068ADF8249021F0C6FE30B140F212
:1010C000C242774977480CF071F9FEE7089BA362AA
:1010D000A378032B02D1B06811F024FD1FF013FC9C
:1010E000B80702D50120FFF761FE15F0A84F02D026
:1010F0000220FFF75BFEA90220D50021402003ACAF
:10110000FFF7FEFC2146404621F098FFB0B99DF85C
:10111000143008AA022B22D18DF82830BDF80C30EB
:10112000ADF82030104610F057FD38B1404621F0A0
:1011300083FF18B901214020FFF7E2FC2A0753D5AD
:10114000564E0321B06803AA21F032FF814688B9C8
:1011500040F2FE42524953480CF028F9FEE7032BB7
:1011600005BF8DF82830D4E900018DF82800C2E9C8
:101170000001D7E79DF80C30B068072B40F01F81C5
:10118000494608AA21F016FF30B140F20152444905
:1011900044480CF00BF9FEE7FFF722FFBDF80E20E4
:1011A000A0B9FFF72BFF78B1043292B2B06808A95A
:1011B000ADF8242021F000FF40B140F2125238492E
:1011C00038480CF0F3F8FEE70232EEE7BDF80E0007
:1011D0000121073080B224F0A7F88246002842D1CE
:1011E00001210C2011F032FCA90705D52A4B1B88E0
:1011F0001A0701D5FFF732FDAB010BD50021042002
:10120000FFF77EFC244B9B78012B03D1234B98687E
:1012100011F088FC15F0284F03D000210420FFF7BF
:101220006FFC7E060CD51C4C23881D0701D5FFF7EB
:1012300015FD2388580703D500210420FFF760FC23
:10124000F90540F1D88003A9404608AA21F057FCCF
:101250000146002800F0BA8040F2D25210491148ED
:101260000CF0A4F8FEE74FF0000B23F0E1FFCDF8FF
:1012700000B00246BDF80E3004464946B06821F081
:101280009FFEBDF80E3083420ED040F22252044938
:1012900004480CF08BF8FEE7A44A0020A454002078
:1012A000517702081C75020821F004F820440EF062
:1012B000CDFF00F007000228DFF8589124D199F8FB
:1012C0000230042B90D120F0F5FF504B204482785F
:1012D0001B789A4288D159460820FFF711FC20F06C
:1012E000E9FF20440EF0B2FF9DF82E30C0F300104D
:1012F000307389F80830FFF78BFC00287FF474AF57
:10130000B06811F00FFC6FE720F0D4FF20440EF01E
:101310009DFF83064AD520F0CDFF20440EF096FFB6
:1013200000F0070003280BD10921204621F0DEF848
:1013300014F800B0ABF1040CDCF1000B4BEB0C0B20
:1013400001210420FFF7DCFBB06821F04CFEC9F856
:101350002C00BBF1000F30D0B9F8003058062CD566
:1013600000214020FFF7CCFB0126BDF80E309DF890
:101370002E200120E254BDF80E309DF82F2023448A
:101380009A71BDF80E10089A013121440EF06CFFDD
:10139000BDF80E3050461C44667124F01DF81C4BFD
:1013A00018780EF025FF1FF0AEFA1DE799F802300D
:1013B000012B02D1B06811F0B5FB0026D5E721F072
:1013C000DBFD4946B06821F0F9FD0DE79DF80C30D2
:1013D00003F0BF02032A01D0022B0FD10D4C23884A
:1013E0005A0702D50420FFF78BFB23889B0702D501
:1013F0000120FFF7DBFC0FB0BDE8F08F4FF4BF62B8
:10140000054906480BF0D2FFFEE700BF114B002054
:10141000344A0020A44A0020517702081C750208B3
:1014200008B50246FFF7DCFD30B1072A06D80020D8
:10143000034B83F8302008BD7020FCE70220FAE758
:10144000A44A002008B50246FFF7CAFD28B10020D3
:10145000034B93F83030137008BD7020FCE700BFD9
:10146000A44A002008B5074B01460022986821F0E5
:10147000C7FD30B140F2EB22034904480BF096FF60
:10148000FEE708BDA4540020517702081C7502082D
:1014900008B5074B01460022986821F0ABFD30B13A
:1014A00040F2F122034904480BF080FFFEE708BD3B
:1014B000A4540020517702081C75020808B5074B98
:1014C0000146986821F0A8FD30B140F2F7220449A6
:1014D00004480BF06BFFFEE708BD00BFA4540020DA
:1014E000517702081C75020808B5074B9B7833B189
:1014F00040F20132054906480BF058FFFEE7BDE80F
:101500000840FFF7EBBB00BFA44A00205177020858
:101510001C75020808B5054B0146986821F062FC6D
:10152000002814BF8B20002008BD00BFA454002059
:10153000014B986811F03CBDA4540020014BD888A1
:10154000704700BFA45400207FB50123ADF80E30D2
:101550004FF6FE7309480093806800230DF10E02D8
:1015600004A921F0CCFB212800D020B9BDF810003F
:1015700007B05DF804FB4FF6FF70F9E7A4540020B4
:1015800008B5044B0146986821F06DFBB0FA80F075
:10159000400908BDA454002038B50B4D0446AB7873
:1015A000012B0DD8FFF7ECFF60B1084BDC80AB7866
:1015B0001BB9FFF793FB002038BDFFF7F9FAFAE7F4
:1015C0003E20F9E78A20F7E7A44A0020A45400202F
:1015D000024B9B780BB9FFF781BB7047A44A0020F0
:1015E000014BD873704700BFA44A002008B5064BD2
:1015F0004FF0FF31986821F0AFFA0028B8BF0330F0
:1016000040F3870008BD00BFA454002008B5044B78
:10161000986821F024FB034BB3FBF0F080B208BDC7
:10162000A454002040420F0030B58DB02C22044657
:10163000002101A822F00DFA01234FF002328DF8AB
:1016400008306423CDE9032306930B238DF82C3057
:10165000214B9B8CADF80A30FFF7C2FCA8B140F2D9
:10166000F23307934FF47A7305930CB9FFF722FB1B
:101670001A4D01A9A86811F06FFDC0B140F2AC622B
:10168000174918480BF092FEFEE7FFF7BFFF0C2347
:101690004343902B0793A3F10A02D8BF91230592ED
:1016A000D8BF0793059B8B2BDFD88C23DCE7FFF794
:1016B000A5FC60B10122A868114621F0BBFC30B145
:1016C00040F2AF62064907480BF070FEFEE70CB926
:1016D000FFF704FB0DB030BDA44A0020A454002045
:1016E000517702081C750208F8B523F0E2FE554C4C
:1016F00006462388D90503D5A37843BBFFF7EEFA46
:10170000514D6B7BFF2B13D06B7B03F0FF0723BB8B
:10171000FF236B73A378032B0AD100233046A370F9
:1017200023F0C2FE3846FFF713FB23F0C2FE064645
:10173000A378042B08D12B7BFF2B05D02B7B022B0E
:1017400014D142480EF04EFCFF232B7327E00021FA
:101750004FF48070FFF7D4F9D2E76B7B012B4FF089
:10176000FF0314BF89278D276B73D6E72B7B13B13B
:101770002B7B012B1ED1FFF74BFA0022FF212B7B85
:101780000746DBB222772973002847D0012B0AD104
:1017900064212E48A3700EF030FCFFF709FA3046A2
:1017A00023F082FE06E03046A27023F07DFE312059
:1017B000FFF7CEFA23881A0608D500218020FFF70C
:1017C0009FF9A86821F079FB10F05BFB23889B054B
:1017D00007D54FF400700021FFF792F90020FFF7C2
:1017E00023FF0AF0EDF9608620B323F021FD0121EB
:1017F0000546002011F02AF9A678012E14D1002602
:101800002677A670FFF76AFA28460FF035FFA3780F
:1018100066867BB9BDE8F84010F0D4B9A0703046B8
:1018200023F042FE3846C3E72EB128460FF024FFCE
:1018300000236386F8BDFFF751FA28460FF01CFF1E
:101840006686F7E7A44A0020A4540020C04A00207E
:101850008B4BF0B51B888B4C8B4D63848B4B85B0C9
:101860001B68E3628A4B1B8823848A4B1B68A36234
:101870002B88DB0700F1FC8001210846FFF740F9C7
:101880000523854A04F1100104F10800AB7011F042
:101890000BF928B1F522814981480BF087FDFEE75D
:1018A000A3682BB9F7227D497D480BF07FFDFEE749
:1018B0007C4821F06CF970A3D3E90023CDE9002323
:1018C0004FF0FF324FF0FF33A06821F00FFA4FF4D2
:1018D0008811A06811F0E4FB014630B140F20F120C
:1018E0006E496F480BF062FDFEE76F4B1B78012BD2
:1018F0000ED16E4AA06811F0A5F9A06811F05AFC4B
:10190000E0B140F21B12654965480BF04FFDFEE760
:10191000674E316831B94FF48F72604960480BF0FF
:1019200045FDFEE7614AA06811F08CF933689B68B9
:1019300023B1DB6913B15B7803B1E373FFF704FEF6
:101940000146E080A06811F0F9FA064630B140F295
:101950002D12524952480BF029FDFEE7554B01204C
:101960001B78C3EB431203EB8203DB00AB84FFF76E
:101970005BFEA7680EF0B6FA32460146384621F003
:1019800045FB064630B140F23312444944480BF05F
:101990000DFDFEE740F203530427AB81464BAF73C6
:1019A0001B78EB73FFF732FE00EB80039B002B826A
:1019B000FFF72CFEC00068823946A0686E6121F0F6
:1019C0003DF930B14FF4A172344935480BF0EEFCCB
:1019D000FEE73A46A06803A921F0C3F9042806D01F
:1019E0004FF4A3722D492E480BF0E0FCFEE703A94B
:1019F00001200EF047FC09F069FE08224FF0FF318C
:101A0000A06821F084F930B140F24F1223492448F4
:101A10000BF0CCFCFEE711F04DFD30B140F2551259
:101A20001E491F480BF0C2FCFEE7FFF7D9FA68B168
:101A30001CF010FD0146A06821F0EEF930B140F233
:101A40005912164916480BF0B1FCFEE7A468FFF7DF
:101A50007BFD1A4B014603F10C02204621F07AF877
:101A600030B14FF4B0720D490D480BF09FFCFEE70A
:101A700005B0F0BDAFF300800A0020FF4203000074
:101A8000487A0208A4540020A44A00204C7A020894
:101A90004A7A0208507A0208290B00085177020896
:101AA0001C750208690345ECF54A00203D0B00084F
:101AB000BC53002048560020475600207C7702087F
:101AC00008B5044B986821F0CCF8034BB3FBF0F059
:101AD00080B208BDA454002040420F002DE9F0431D
:101AE0008C4D87B02B889B0706D440F24C728A49F4
:101AF0008A480BF05BFCFEE7AB78033B012B06D971
:101B000040F24E72844985480BF050FCFEE76A684B
:101B100032B940F25172804980480BF047FCFEE731
:101B20007F4E2C88F77B14F0200418BF4FF47A7492
:101B30004FEA1718FFF754FA00287DD0B8F1020FCA
:101B40000AD0A8F10303022B74D940F265727249DE
:101B500072480BF02BFCFEE7032795F8303008EBBA
:101B6000C80898446F4B104603EB4803B3F81C8039
:101B700020F0ABFB4FF4FA534343B3FBF8F3782266
:101B80007733B3FBF2F31F44C7EB0717AB78FF00C3
:101B9000BFB204F5347417FA84F4042BA4B203D151
:101BA00007F6E8072744BCB2D5F8048020F082FB92
:101BB0000746686820F089FB074420F0A1FBBFB20C
:101BC0003F1A20F077FB40440EF040FB7378C0F3DF
:101BD00040198DF80C30544BBFB2CDE904340024C9
:101BE00020F09AFB009402463B464146B06821F043
:101BF000C5F9287EB278737812FB00F29342C4BF15
:101C00009B1ADCB22B88F18813F0200FB068B180EA
:101C10008DF80C4003AB76D000934A46434B20F03E
:101C20008EFF002873D040F224723B493B480BF0F2
:101C3000BDFBFEE7062790E7FFF7E0F9002846D056
:101C4000384B07F00F0708EBC801394403EB410399
:101C50001046B3F81C9020F038FBB8F1000F2CD0E0
:101C6000B8F1010F2CD14FF00408400080B2F319F5
:101C700093F834304BB14FF4FA52023303444344E7
:101C80009BB25343B3FBF9F39CB2AB78042B8BD1DB
:101C9000FFF7BCFC374497F834308146053398444D
:101CA000FFF70EFF0C2308FB00F003FB09F909EB1B
:101CB000C009A1441FFA89F476E74FF00208D6E77D
:101CC00040F28672144915480BF070FBFEE7FFF7EF
:101CD000F7FE0746686820F0F8FA09307843AB78D9
:101CE00004EBC000042B84B27FF45EAFFFF78EFCE0
:101CF0000746FFF7E5FE602358430C2303FB07006C
:101D0000204484B250E74A4620F017FF89E707B025
:101D1000BDE8F083A44A0020517702081C75020830
:101D2000A45400207C77020820A10700B04A0020BC
:101D3000F8B5494C258815F0020506D040F2751219
:101D4000464947480BF032FBFEE7257723F0B1FB0D
:101D5000238806465A070CD5424B986821F043F970
:101D6000E36AC01AA38C984203D929460420FEF7DF
:101D7000C7FE304623F098FBA778022F37D123F017
:101D800098FB2388064613F0040507D036480EF06A
:101D900029F93046BDE8F84023F086BB23F084FBE8
:101DA00060680FF049FF20B1A570BDE8F840FEF76C
:101DB000CFBF23F07EFB6668054620F07BFA3044F7
:101DC0000EF044FA10F0200F0CBF0323042301216E
:101DD0003846A370FEF794FEFFF780FE284623F0F6
:101DE00063FB01210846BDE8F84010F02FBE042F28
:101DF00027D11C4B1B7BFF2B2DD1237EF3B123F06E
:101E000058FB238805465B0704D517480EF0EAF80F
:101E10002846BFE723F048FB237E013B237623F0CF
:101E200048FB044601210220FEF76AFEFFF756FE3A
:101E3000204623F039FB01210820D4E74020A3707D
:101E4000B3E7012F07D10023A370064B986810F069
:101E500069FE3120A9E7F8BDA44A002051770208A5
:101E60001C750208A4540020C04A002038B5012186
:101E700004461020FEF744FE064B9D68FFF7C6FBA4
:101E8000012200FB04F1044B284620F041FE002013
:101E900038BD00BFA4540020750D000808B50A4BDA
:101EA0001B88DB0606D44FF46172084908480BF022
:101EB0007DFAFEE710200021FEF722FE054B986810
:101EC000BDE8084020F032BEA44A00205177020845
:101ED0001C750208A454002038B50E4D688E30B928
:101EE00040F291320C490D480BF060FAFEE723F006
:101EF0009FF90446688E23F0B9F9811F214401201F
:101F00000EF0C0F9064B0446986821F06CF8001BEF
:101F100038BD00BFA44A0020517702081C75020892
:101F2000A454002010B5084C636833B94FF46872AC
:101F3000064907480BF03AFAFEE7064B986821F08D
:101F400052F8A36AC01A10BDA44A002051770208B3
:101F50001C750208A454002038B50A4D688E30B9AB
:101F600040F2AA32084909480BF020FAFEE723F0B4
:101F70005FF90446688E23F079F9044414F8020CE2
:101F800038BD00BFA44A0020517702081C75020822
:101F900038B50A4D688E30B940F2B932084909485F
:101FA0000BF004FAFEE723F043F90446688E23F0B1
:101FB0005DF9044414F9070C38BD00BFA44A0020A1
:101FC000517702081C75020838B50A4D688E30B981
:101FD0004FF47272084909480BF0E8F9FEE723F064
:101FE00027F90446688E23F041F9044414F9010CE2
:101FF00038BD00BFA44A0020517702081C750208B2
:10200000024B1888C0F3C010704700BFA44A0020DC
:1020100030B585B005466C460D4B0FCB84E80F00FC
:102020000DB12B6800930B4B21460022986810F0ED
:10203000D5FF044630B140F2E632074907480BF0BD
:10204000B5F9FEE7FEF7B4FD204605B030BD00BF90
:1020500004780208A4540020517702081C75020875
:1020600030B5154D87B004460DF10701A86820F082
:102070003FFE30B140F2F732104911480BF096F9AB
:10208000FEE79DF80720531EDBB2FD2B0FD902940B
:10209000FF2A00D10394A86802A920F011FF40B1E3
:1020A00040F20442054906480BF080F9FEE7012A98
:1020B000EFE707B030BD00BFA454002051770208FD
:1020C0001C75020808B5064B986820F008FF30B16F
:1020D0004FF48262034904480BF068F9FEE708BD3B
:1020E000A4540020517702081C7502080122024BFB
:1020F0001146986820F007BDA45400207047F8B539
:10210000064604200D4620F0B7F8030622D5124FEC
:10211000BC78FCB926B1012E17D002242046F8BDA8
:1021200001262846FFF72CFA0028F6D00B4800239A
:1021300032462946806820F004FD40B14FF48A629F
:10214000074908480BF032F9FEE72646E9E706237F
:10215000BB70E3E77024E1E7A44A0020A454002008
:10216000517702081C750208042010B520F084F88D
:10217000030611D5094CA378062B0DD1084B98689E
:1021800020F0E1FC30B140F26A42064906480BF00B
:102190000DF9FEE7A07010BD7020FCE7A44A0020F6
:1021A000A4540020517702081C7502081FB504468C
:1021B00001A810F0DBFE9DF80D3053B14CB1064B79
:1021C0002078617818700020A27859709A7004B055
:1021D00010BD0220FBE700BFA45400201FB5044639
:1021E00001A810F0C3FE9DF80D3053B14CB1002092
:1021F000054B1A7822705A789B786270A37004B0ED
:1022000010BD0220FBE700BFA4540020FFF7CEBFA3
:10221000FFF7E4BF0348044B834202D0034B03B1F2
:1022200018477047605600206056002000000000EC
:10223000064B0749C91A891048BF0131491003D01C
:10224000044B0BB101481847704700BF605600208F
:10225000605600200000000010B5064C237843B9FA
:10226000FFF7D8FF044B13B10448AFF300800123FC
:10227000237010BD3051002000000000F0B30208B0
:1022800008B5054B1BB105490548AFF30080BDE813
:102290000840FFF7CDBF00BF00000000A0220020D3
:1022A000F0B30208A3F5803A704700BF174B002B2C
:1022B00008BF134B9D46FFF7F5FF00218B460F46E5
:1022C0001348144A121A21F0C4FB0E4B002B00D005
:1022D00098470D4B002B00D09847002000210400A8
:1022E0000D000D48002802D00C48AFF3008019F013
:1022F0000FFB2000290019F03DFF18F09FFF00BFE1
:102300000000080000000000000000000020002085
:1023100000200020A051002000000000000000006C
:1023200038B504461EF08EFBA04201D8012038BD0E
:102330000546032001F0A8F80028F8D019F0A3FF03
:1023400019F0A2FF2B4622460349044800681DF0FD
:1023500079F90020EBE700BF485B0208D426002093
:1023600030B583B004468368C26853F822301D88B4
:102370002846FFF7D5FF08B903B030BD002300930E
:10238000ADF80430164B1B88ADF80230ADF80450A0
:102390006368E2689B1A012B1DDDA368013253F8C4
:1023A00022301B88ADF800301EF03CFB694603204C
:1023B0001EF03CFB0446032001F066F80028DBD049
:1023C00019F061FF19F060FF22460649064B1868B4
:1023D0001DF038F9D0E740F2FF13ADF80030E3E725
:1023E00070500020805B0208D426002030B583B0F6
:1023F00004468368C26853F822301D882846FFF7D8
:102400008FFF08B903B030BD00230093ADF804304E
:10241000154B1B88ADF80230ADF804506368E268D4
:102420009B1A012B1BDDA368013253F822301B8855
:10243000ADF80030694604201EF0F8FA0446032087
:1024400001F022F80028DDD019F01DFF19F01CFF63
:1024500022460649064B18681DF0F4F8D2E740F210
:10246000FF13ADF80030E5E770500020A05B0208D4
:10247000D426002030B583B004468368C26853F880
:1024800022301D882846FFF74BFF08B903B030BD46
:1024900000230093ADF80430154B1B88ADF80230D3
:1024A000ADF804506368E2689B1A012B1BDDA3683A
:1024B000013253F822301B88ADF800306946022003
:1024C0001EF0B4FA0446032000F0DEFF0028DDD041
:1024D00019F0D9FE19F0D8FE22460649064B1868B5
:1024E0001DF0B0F8D2E740F2FF13ADF80030E5E799
:1024F00070500020B45B0208D426002030B583B0B1
:102500008368C26853F822301C7800230193436823
:102510009B1A012B19DD01AA01211CF060FB014669
:102520009DF804001EF07AFA054680B1022000F002
:10253000ABFF60B119F0A7FE19F0A6FE2A460649C6
:10254000064B18681DF07EF801E01EF06BFA20467D
:102550001EF070FA03B030BDD05B0208D426002014
:1025600010B503468168C26851F82200B0F9000036
:102570001A4C20805B689B1A012B0FDD013251F849
:10258000223093F90010003918BF01211EF0FBF929
:10259000A0B9032000F078FF10B910BD0021F5E7C5
:1025A00019F071FE19F070FE0D4B1C681EF0EFF96A
:1025B00002460C4920461DF045F8EEE7012000F0E8
:1025C00063FF0028E9D019F05EFE19F05DFE0649B0
:1025D000034B18681DF036F8DFE700BF705000208D
:1025E000D4260020345C0208485C020808B51EF0BE
:1025F000BEF9032000F048FF00B908BD19F043FE02
:1026000019F042FE0249034B18681DF01BF8F4E76D
:10261000605C0208D426002008B58368C26853F8BD
:1026200022301A88094B1A80032000F02DFF00B9D0
:1026300008BD19F028FE19F027FE044B1A8804493A
:10264000044B18681CF0FEFFF2E700BFC4550020E1
:10265000805C0208D426002008B5024B18680DF0F3
:10266000C1FC08BDC02200202DE9F04186B01EF05B
:102670009AF90446894B1B7813F0020F2CD0884E30
:1026800013F0010F2AD0864F13F0040F28D0DFF883
:102690001082032000F0F8FE28BB032000F0F4FEB7
:1026A00058BB032000F0F0FE002835D1032000F0D5
:1026B000EBFE00283ED1032000F0E6FE002847D1C3
:1026C000032000F0E1FE00285ED1032000F0DCFED4
:1026D000002867D1002471E0724ED1E7714FD3E733
:1026E000DFF8C081D5E719F0CEFD19F0CDFD6E49B8
:1026F0006E4B18681CF0A6FFCFE719F0C4FD19F067
:10270000C3FD6A4B1D6804F085FC02460B46684910
:1027100028461CF097FFC4E719F0B5FD19F0B4FD89
:10272000624B1D681EF017F90246624928461CF0EC
:1027300089FFBBE719F0A7FD19F0A6FD5B4B1D68EB
:102740001EF03DF902465C4928461CF07BFFB2E7CB
:1027500019F099FD19F098FDE279A3796179207952
:10276000E57894F802C094F801E024780594CDF857
:1027700010E0CDF80CC00295019000914F494B48F4
:1027800000681CF05FFF9BE719F07DFD19F07CFDF0
:10279000464B1C681EF00BF90246494920461CF0C6
:1027A00051FF92E719F06FFD19F06EFD45493F4B5F
:1027B00018681CF047FF8DE70134E4B2072C12D8EB
:1027C000032000F061FE0028F6D019F05CFD19F03E
:1027D0005BFD364B1D681EF0E6F8025D3A4928465F
:1027E0001CF030FFE8E7032000F04EFE98B903200C
:1027F00000F04AFEC8B9032000F046FE18BB0320D3
:1028000000F042FE68BB032000F03EFE002836D1F7
:1028100006B0BDE8F08119F036FD19F035FD2B4901
:10282000224B18681CF00EFFE1E719F02CFD19F09F
:102830002BFD1E4B1C681EF0BEF8024624492046A4
:102840001CF000FFD7E719F01EFD19F01DFD174B16
:102850001C681EF094F802461E4920461CF0F2FE49
:10286000CDE719F010FD19F00FFD104B1C681EF09C
:102870008EF80246184920461CF0E4FEC3E719F022
:1028800002FD19F001FDCDF800803B4632461349A8
:10289000064800681CF0D6FEBAE700BF3A56002092
:1028A000E85B0208F05B02089C5C0208D42600206A
:1028B000A45C0208C05C0208DC5C0208F85C020848
:1028C0001C5D0208385D02084C5D0208D4720208E3
:1028D000545D0208705D0208885D0208A05D020870
:1028E00030B583B08368C26853F822301C7801A9E0
:1028F00020461EF040F888B9032000F0C5FD08B955
:1029000003B030BD19F0BFFC19F0BEFC019B22469C
:102910000B490C4800681CF095FEF1E705460120C4
:1029200000F0B2FD0028EBD019F0ADFC19F0ACFCC2
:102930002A460549034B18681CF084FEE0E700BFF7
:10294000D85D0208D4260020F45D020870B58268C4
:10295000C36852F823100C88013352F823301D78D5
:10296000294620461EF056F880B9032000F08CFD61
:1029700000B970BD19F087FC19F086FC2B46224681
:102980000B490C4800681CF05DFEF2E7064601208A
:1029900000F07AFD0028ECD019F075FC19F074FCF9
:1029A00032460549034B18681CF04CFEE1E700BFB6
:1029B000185E0208D4260020485E020870B582B076
:1029C0008368C26853F822301B78134A137013F0DF
:1029D000020F0ED0114C13F0010F0CD00F4D13F05D
:1029E000040F0AD00D4E032000F04EFD38B902B09E
:1029F00070BD0B4CEFE70A4DF1E7094EF3E719F014
:102A000042FC19F041FC00962B4622460549064837
:102A100000681CF017FEEAE73A560020E85B02085F
:102A2000F05B0208FC5B0208D426002030B58FB0B2
:102A300004460D46684619F057FB0DF1200EEC4692
:102A4000BCE80F00AEE80F009CE803008EE803002E
:102A500008A9464B18681EF0CAFE10F1880F46D12F
:102A6000684619F041FB0DF1200EEC46BCE80F0062
:102A7000AEE80F009CE803008EE803004FF410530B
:102A8000ADF820308023ADF822304FF44073079327
:102A900007A819F039FB079B0A93354B0B93334B6F
:102AA0001A68099B0D9213F0FF0F04D123F0FF0366
:102AB00043F001030993012309932C4B2A46214635
:102AC00008A81EF0B1FE044610BB032000F0DCFC99
:102AD00090B9264B18681DF046FF0546002831D1F5
:102AE000032000F0D1FC044610BB01242FE01F4B53
:102AF00018681EF053FEB3E719F0C5FB19F0C4FBCC
:102B00001A4B1A681B491C4B18681CF09BFDE0E728
:102B1000032000F0B9FC0028DBD019F0B4FB19F059
:102B2000B3FB22461549144B18681CF08BFDD0E707
:102B300019F0A9FB19F0A8FB11490F4B18681CF0FC
:102B400081FD04E0032000F09FFC044610B92046FC
:102B50000FB030BD19F097FB19F096FB2A460949D2
:102B6000054B18681CF06EFD0024F0E7B822002029
:102B700000014405785E0208D4260020A85E020801
:102B8000CC5E0208EC5E020800B583B00021019122
:102B900001AA1CF024F8019910290ED0032000F09E
:102BA00073FC60B119F06FFB19F06EFB1022054940
:102BB000054B18681CF046FD01E0FFF737FF03B036
:102BC0005DF804FB0C5F0208D426002010B588B025
:102BD0001EF029FF5249534808F04EFC032000F034
:102BE00053FC08BB0124504B1C6002A819F0A3FA47
:102BF00002A920461EF0FBFD10F1880F1ED0032015
:102C000000F042FC002870D1474B18681DF0ABFE65
:102C10001DF0FCFE0446032000F036FC00286ED1B7
:102C2000002C77D008B010BD19F02DFB19F02CFB4B
:102C30003E493F4B18681CF005FDD3E7032000F028
:102C400023FC002837D1384B1A68039B079213F0F6
:102C5000FF0F04D123F0FF0343F001030393354B2F
:102C600005934FF44073019301A819F074FA019B86
:102C700004934FF41053ADF808308023ADF80A30B8
:102C800001230393284B10222B4902A81EF0CCFDF0
:102C90000446D0B9032000F0F7FB0028B4D019F0A7
:102CA000F2FA19F0F1FA204B1A682449204B1868FF
:102CB0001CF0C8FCA8E719F0E6FA19F0E5FA20497B
:102CC0001B4B18681CF0BEFCBDE7032000F0DCFBCA
:102CD000002899D019F0D7FA19F0D6FA22461949E6
:102CE000134B18681CF0AEFC8EE719F0CCFA19F003
:102CF000CBFA15490E4B18681CF0A4FC84E719F0B8
:102D0000C2FA19F0C1FA22461049094B18681CF0A2
:102D100099FC85E7034B18680DF064F982E700BF62
:102D2000B12D0008C0220020B8220020345F020824
:102D3000D426002000014405AC530020785E020830
:102D4000405F0208A85E0208685F0208945F0208FC
:102D500010B5044619F06EFB10B9114B9C4205D01A
:102D6000204619F067FB012805D010BD22F0DDFDDB
:102D70000C4B1860F4E722F0D8FD0A4B1B68C01A10
:102D8000094B984208D84CF24F339842EDD8074B84
:102D900018680DF027F9E8E71DF050FEE5E700BFE1
:102DA000306D0208BC220020A0860100C022002055
:102DB00030B587B01DF0D3FD00B33C4B1B787BB31F
:102DC00000233A4A13700F228DF808208DF809303D
:102DD000CDF80A30ADF80E300223354A1278019250
:102DE00002AA00920022012110461DF000FE0546B5
:102DF000032000F049FB08BB00242CE000240494CD
:102E0000ADF8144040F2FF13ADF810301DF00AFE8B
:102E100004A903201DF00AFE264B1B681C7038E035
:102E200010238DF8083001238DF8093000238DF828
:102E30000A308DF80B3003930423CEE719F023FA00
:102E400019F022FA00221C491C4B18681CF0FAFBEE
:102E5000D2E70134E4B2072C13D8032000F014FBAE
:102E60000028F6D019F00FFA19F00EFA04F1180341
:102E70006B4413F8102C1249104B18681CF0E2FB3D
:102E8000E7E7032000F000FB28B90A4B1B6800228B
:102E90001A7007B030BD19F0F6F919F0F5F92A46A5
:102EA0000849064B18681CF0CDFBEEE731510020B5
:102EB0003A560020C0220020AC5F0208D426002031
:102EC000C05F0208A0600208014B1878704700BF7D
:102ED0003251002038B50379012B00D038BD0546AA
:102EE000032000F0D1FA08B900240CE019F0CBF966
:102EF00019F0CAF96A881549154B18681CF0A2FB2D
:102F0000F2E70134E4B2EB889C4210D2032000F0D7
:102F1000BBFA0028F5D019F0B6F919F0B5F9AB688D
:102F20001A5D0C490A4B18681CF08CFBE9E703207A
:102F300000F0AAFA0028D1D019F0A5F919F0A4F9E7
:102F40000549034B18681CF07DFBC7E7C85F020802
:102F5000D4260020E05F0208D472020800B970474E
:102F600010B50446032000F08FFA00B910BD19F027
:102F70008AF919F089F922460249034B18681CF0B6
:102F800061FBF3E7E45F0208D426002010B5A0F14E
:102F90009003062B6BD8DFE803F0042E3D6A6A4CE1
:102FA0005B00032000F070FA68B9032000F06CFAAF
:102FB00098B9374B01221A70364B1988364B18686E
:102FC0000DF01BF810BD19F05EF919F05DF93349E9
:102FD000334B18681CF036FBE7E719F054F919F089
:102FE00053F92F4B1C681DF0E2FC02462D49204688
:102FF0001CF028FBDDE7032000F046FA0028E1D0B2
:1030000019F041F919F040F92749254B18681CF0CF
:1030100019FBD7E7012000F037FA0028D2D019F0C9
:1030200032F919F031F921491D4B18681CF00AFBDF
:10303000C8E7012000F028FA0028C3D019F023F9CE
:1030400019F022F91A49164B18681CF0FBFAB9E777
:10305000032000F019FA0028B4D019F014F919F07F
:1030600013F914490E4B18681CF0ECFAAAE7044651
:10307000032000F009FA0028A4D019F004F919F08F
:1030800003F922460C49064B18681CF0DBFA99E755
:1030900031510020C4550020C0220020F05F0208FA
:1030A000D4260020FC5F0208246002083460020875
:1030B00054600208786002089460020808B51DF0A8
:1030C0004EFC18B1034819F0B4FA08BD014819F0D4
:1030D000B5FAFAE7606D020810B580B10446012028
:1030E00000F0D2F900B910BD19F0CDF819F0CCF804
:1030F00022460A490A4B18681CF0A4FAF3E7032099
:1031000000F0C2F90028EED019F0BDF819F0BCF8B3
:103110000449034B18681CF095FAE4E7AC60020818
:10312000D4260020D4600208F0B583B004460D46D2
:1031300016461F46032000F0A7F908B903B0F0BDFA
:1031400019F0A1F819F0A0F8019700962B46224635
:103150000249034800681CF075FAEFE7EC600208CA
:10316000D426002008B5024B1B6803B1984708BD60
:10317000F422002008B5024B5B6803B1984708BDF4
:10318000F422002008B5024B9B6803B1984708BDA4
:10319000F422002008B5024BDB6803B1984708BD54
:1031A000F422002008B5024B1B6903B1984708BD03
:1031B000F422002008B5024B5B6903B1984708BDB3
:1031C000F422002000B585B0094B1868094B18603F
:1031D000094B0A4A13600A4A01920A4A126802928B
:1031E000039301A91BF01DFD05B05DF804FB00BFB2
:1031F000D853002014310020CC530020103100207F
:10320000F06C0208C825002008B5024B18681BF0B6
:103210001CFD08BDD853002038B506F04FFD04460C
:10322000064D2B68D3F8B00206F03CFD28681BF071
:1032300026FD204606F036FD38BD00BFD8530020DD
:1032400008B5034822F0F7F9024800F06FFE08BD08
:10325000FC6F0208DC5300200023062073B1704786
:1032600054B224B9013353B15DF8044B70470228BE
:10327000F8D008680A4908601046F3E710B4094A14
:1032800052F823100A7A022AEAD9032AEAD1441E04
:10329000E4B2012CE6D90868014908601046E1E76C
:1032A000C8250020F053002010B5A8B00DF1840C03
:1032B000334C0FCCACE80F0094E807008CE8070013
:1032C00003238DF89D3000211C911D911E911F91AB
:1032D00020912C4B1C9329231D9305238DF87930C5
:1032E00004238DF87B301791189119911A911B9135
:1032F0004FF480231793244B1B9312911391149135
:1033000015911691214B1293214B16933C2203A841
:1033100020F09FFB03AC0DF15C0CBCE80F000FC468
:10332000DCF80030236008AC0DF1480CBCE80F005D
:103330000FC4DCF800302360164B0D9320230E934E
:1033400001238DF83C308DF83D308DF83E30124B26
:103350001193124B00931CAB21AA03A9104806F04D
:10336000D9FF04469DF83F303BB100214FF4E130D6
:1033700018F0E1FF204628B010BD0321F6E700BF9A
:10338000146D020800C0055024C00550020004005E
:103390003CC00550CC25002004540020EC25002022
:1033A000A426002010B50C46831EDBB2012B0BD9DE
:1033B000A31EDBB2012B13D9F4B9154B18680368AF
:1033C000E3B106F071FF19E00129F1D8114B1B6C34
:1033D000C3F3401304220521002003F021FCEBE796
:1033E0000128E9D80B4B1B6CC3F3401300220521C5
:1033F000104603F015FCDFE7012C00D910BD044B8B
:1034000018680368002BF9D01CF0B1FBF6E700BF89
:103410001854002000C0035008B50349034807F0C2
:1034200089F9FFF741FF08BD1C540020CC2600207D
:1034300008B502481CF026FC08BD00BFA4260020E9
:1034400008B502481CF01EFC08BD00BFA4260020E1
:1034500008B5024B5A6A1868904708BDA426002098
:1034600008B5024818F0DFFF08BD00BF306D020844
:1034700008B5034819F0D8F8024819F0D5F808BD86
:10348000606D0208486D020803460B4A107828B1A7
:103490000A4A12789A4202D2002000E00120084A2B
:1034A00012783AB1074A127842FA03F313F0010F87
:1034B00000D10020704700BF3D5600203C56002040
:1034C000345100203B56002070B5184B01221A7071
:1034D0000026174B1E70174B04221A70164B1F2222
:1034E0001A70344602E0286815E00134134B1B685B
:1034F000A3420FD9124B53F824502B7A022BF4D14C
:103500001049686820F0C2FA0028ECD0002EECD1F7
:103510002E68EAE7002010B10B4B186070BD0EB1A9
:103520003046F9E706F0CAFBF6E700BF3D5600203B
:10353000345100203C5600203B560020086D020804
:10354000F05300200C6D0208D426002008B5054871
:1035500022F071F818F036FE012018F0BBFE00F0E2
:1035600085F808BDFC6F020808B5024822F063F830
:1035700008BD00BFFC6F02082DE9F04180460F46F0
:1035800001F109050026344604E05B21082000F023
:1035900095FA0134AC4233D2052C1BD801A353F861
:1035A00024F000BF8B350008BD350008F135000858
:1035B000C5350008C9350008CD350008FBB2043315
:1035C000D9B2E3E78021E1E70021DFE7731C314650
:1035D000DEB2DBE7BB1DA3420CD0FB1DA3420BD028
:1035E00007F10803A34209D0A31F18F80310CDE781
:1035F000D121CBE75A21C9E75A21C7E75D21C5E7A9
:103600000020BDE8F08100BF00B583B00022009229
:10361000019202218DF80010054818F076FE019005
:1036200008216846FFF7A8FF03B05DF804FB00BF60
:10363000006A180000B583B0044B1B88ADF8043055
:1036400001A800F017FB03B05DF804FB786D0208D9
:1036500000B583B0044B1B88ADF8043001A800F01E
:10366000D9FA03B05DF804FB786D02082DE9F04F3C
:1036700097B04D4D09AC2E1D0FCE0FC4336823609B
:1036800001AC05F118060FCE0FC496E80F0084E8D0
:103690000F00464821F0CFFF454821F0CCFF01261E
:1036A0008DF8096000248DF80840424B0B9301AB64
:1036B0000D93414F09A938461AF0D7FDB5F838B037
:1036C000ADF838B0324604210EA800F067FAB5F81C
:1036D0003CA0ADF83CA0224631460FA800F05EFAAF
:1036E000B5F84090ADF840903246042110A800F0A3
:1036F00055FAB5F80080ADF844803246042111A88F
:1037000000F04CFA2D4D2E4BC5F8F8344FF0021353
:10371000C5F8F434A3F58033C5F8FC341C23C5F890
:10372000E4344FF4487007F045FEFFF783FF1420A0
:1037300007F040FEFFF78CFF232007F03BFEFFF76A
:1037400079FFB92138461AF084FDFFF781FFADF803
:1037500048B02246214612A800F020FAADF84CA04D
:103760002246214613A800F019FAADF850903246CF
:10377000214614A800F012FAADF8548032462146D2
:1037800015A800F00BFA384603F0E4F8C5F8E44455
:10379000C5F8F844C5F8F444C5F8FC44044821F0E1
:1037A0004FFF17B0BDE8F08F786D0208FC6F02087C
:1037B00000700208E070720000000A5000C0035060
:1037C0000200030008B50448044A121A9210044982
:1037D00018F0C4FD08BD00BF7001000870030008A8
:1037E000A051002008B5154B83F30A8800F030F88B
:1037F000FFF7E8FF124A0AE01068516850F823000A
:1038000041F82300013391688B42F5D30C320D4B04
:103810009A4201D20023F6E70B4A08E01168002023
:1038200041F82300013351688B42F7D30832074B2C
:103830009A4201D20023F6E7FEF738FD000000208F
:10384000F8B3020804B4020804B4020804B402087D
:1038500070B5134B134A9A60D3F8882042F4700273
:10386000C3F88820104A4FF4804191660F4D05F54A
:1038700000544FF0FF3222660D4A62660222C3F8FE
:10388000D020BFF34F8FBFF36F8F002006F0E0F919
:103890004FF44036E66000201BF07FFE2E6170BDC5
:1038A00000ED00E00000000800900050008000449F
:1038B0007FFF7F01014B1860704700BF3854002024
:1038C00008B5064B1860064B1B6F03F00703032B6C
:1038D00000D008BD20F044FBFBE700BF40540020AF
:1038E00000800050BFF34F8F0549CA6802F4E062C0
:1038F000044B1343CB60BFF34F8F00BFFDE700BF06
:1039000000ED00E00400FA05F0B18446F1B110B416
:1039100009E004F120000FE02033C01A18D1BCB137
:103920000CF1010C01319CF800400B4B1B5D03F0C6
:103930000303012BEDD020460B78074AD25C02F03E
:103940000302012AE9D1E7E701207047012070470F
:103950005DF8044B704700BFBDB2020830B587B0B8
:103960000546046823798DF80C3063798DF80D30A5
:103970001B4821F060FE0022012103A800F00EF98F
:103980000DF10B0103A818F018FE9DF80B3083F021
:1039900001032370A379022B02D0002007B030BDB1
:1039A0004FF0FF330593049300950E4B002205A9B9
:1039B00003A800F02FFA059BB3F1FF3F07D0009555
:1039C000084B012204A903A800F084F9E5E700955B
:1039D000044B042204A903A800F07CF9DDE700BF32
:1039E000FC6F020843C4010810B582B000240194A2
:1039F0002A4821F020FE8DF8004003238DF8013085
:103A000001220421684600F0C9F8254B0122C3F8C1
:103A1000442401A9052021F007FE00283BD1214BB9
:103A2000D3F8F02042F00102C3F8F020D3F8FC20D4
:103A300042F08072C3F8FC20A3F55D431A4A1A6075
:103A4000019B03F5D52303F2FC43DB08174AA2FBD5
:103A500003239B0A013B164A13610223C2F8F0308C
:103A60004FF48073C2F804334FF06043114AC3F837
:103A7000B02F114AC3F8802ED3F8002E42F4807282
:103A8000C3F8002EFF2283F82020D3F8002E22F462
:103A90008072C3F8002E02B010BD00BFFC6F020898
:103AA00000D0035000ED00E0FF03004017916502D5
:103AB000000004E055CEACC5090001004FF06043A2
:103AC000D3F8803E13F0010F01D1112070470E4A48
:103AD000D2F8FC3043F08073C2F8FC304FF0604302
:103AE000D3F8002E4FF0010C0CFA00FC42EA0C0255
:103AF000C3F8002E53F82030002BE8D04FF060437D
:103B000003F820100020704700ED00E010B50446D7
:103B10000FE00123834024EA03040F2814D800EBAC
:103B200040020E4B03EB82035A6812B19968C0B28F
:103B3000904794B1234600201F28EAD813F0010FC4
:103B4000E7D101305B08F7E7103800EB40039B003A
:103B5000B033024A13440433E6E710BDD8260020F0
:103B600008B50D4821F067FD1A2006F061F828B964
:103B70001B2006F05DF840B9002008BD1A2006F0B1
:103B800067F81A201BF009FDF2E71B2006F060F829
:103B90001B201BF002FDEFE7FC6F02082DE9F0414E
:103BA00070B30C46174605460F292BD803784BB146
:103BB000022B20D0032B21D0012B01D0002303E0C6
:103BC0007F2301E040F2FF736A78D34013F0010FC6
:103BD0001AD00F4BD3F81063C6B921F06AFC8046A7
:103BE0003A462146284603F0E7FA404621F05CFCBD
:103BF0003046BDE8F08140F2FF33E5E73F23E3E7DD
:103C00002226F5E72126F3E72126F1E70226EFE752
:103C100000C0035040B310B5044603784BB1022BEB
:103C20001DD0032B1ED0012B01D0002303E07F23E6
:103C300001E040F2FF736278D34013F0010F15D01A
:103C400021F037FC237862780121914003EB430394
:103C50001B01074AD15021F027FC002010BD40F283
:103C6000FF33E8E73F23E6E7222070472120F5E70E
:103C700040D0035040B310B5044603784BB1022B3B
:103C80001DD0032B1ED0012B01D0002303E07F2386
:103C900001E040F2FF736278D34013F0010F15D0BA
:103CA00021F007FC237862780121914003EB430364
:103CB0001B01074AD15021F0F7FB002010BD40F254
:103CC000FF33E8E73F23E6E7222070472120F5E7AE
:103CD00040E00350002866D02DE9F0410C4615461F
:103CE0001F460646002960D002784AB1022A3ED01B
:103CF000032A3FD0012A01D0002303E07F2301E003
:103D000040F2FF737178CB4013F0010F01D1FF2A0D
:103D10004DD1022D01D9042D4BD121F0CAFB804693
:103D20003378FF2B28D12368B3F1FF3F2BD02268D3
:103D3000B2F1FF3F32D0204B02EB420203EB820292
:103D40005760226802EB420203EB8203069A9A60F4
:103D50003378FF2B05D0226801239340174AC2F81D
:103D60002434404621F0A0FB0020BDE8F08140F261
:103D7000FF33C7E73F23C5E72A462168304603F0F3
:103D800085FA2060CFE73378FF2BD0D10C4BD3F8E6
:103D9000241470781AF003FB2060C8E7404621F035
:103DA00083FB2D20E1E7222070472220DDE7212040
:103DB000DBE72120D9E700BFD826002000D0035040
:103DC00000C00350B0F1FF3F1AD038B504460F28A9
:103DD00018DC002818DB21F06CFB0123A3400B4A00
:103DE000C2F82034C2F82434094B04EB440203EB3C
:103DF000820200255560956021F056FB284638BDAB
:103E0000212070472120FAE72120F8E700E0035045
:103E1000D8260020002856D02DE9F0410C46174640
:103E20001E460546002950D0017849B1022939D0F3
:103E300003293AD0012901D0002303E07F2301E0C8
:103E400040F2FF736A78D34013F0010F01D1FF29CC
:103E50003DD121F02EFB80462B78FF2B27D1226805
:103E6000B2F1FF3F2AD01B4B02EB420203EB82026E
:103E7000C2F8B860226802EB420203EB8203069AA2
:103E8000C3F8BC202B78FF2B06D022681032012308
:103E90009340114AC2F82434404621F005FB00202B
:103EA000BDE8F08140F2FF33CCE73F23CAE73A4652
:103EB0002168284603F08AFA2060D0E7404621F0C6
:103EC000F3FA2D20ECE7222070472220E8E721209A
:103ED000E6E700BFD826002000D0035008B5084B05
:103EE000D3F82404D3F82024104000F0553020F0FB
:103EF000502003F50053C3F82004FFF707FE08BD68
:103F000000C0035008B5084BD3F82404D3F820248C
:103F1000104000F0AA3020F0A02003F50053C3F8B1
:103F20002004FFF7F3FD08BD00C0035070B586B054
:103F300005460368B3F1B64F27D0304A934222D0EA
:103F40004FF0FF36B3F1B64F21D02C4A934252D1F5
:103F50002B4821F070FB2B798DF804306B798DF8AC
:103F60000530AB798DF80030EB798DF80130012206
:103F70000A2101A8FFF712FE01220A216846FFF775
:103F80000DFE002412E00126DCE70026DAE71D48DA
:103F9000DFE701A8FFF76EFE642007F00BFA01A827
:103FA000FFF738FE642007F005FA0134092CF0DD34
:103FB000154A02EB06110323C1F8383568792B79CD
:103FC00043EA0043C1F83C35E979AB7943EA014360
:103FD00054363601935101238DF808308DF809309D
:103FE000EB680493AB6803932B7C8DF8143002A923
:103FF000286802F0A1FE06B070BD00BF0080065028
:10400000F46F0208F86F020800C0035010B582B0C8
:1040100004460A4821F00FFB23788DF804306378BA
:104020008DF80530A278B2FA82F2520904210DEB24
:104030000100FFF7B3FD002002B010BDFC6F0208C5
:10404000F0B585B00C4694469DF83410664A127857
:10405000002A00F0BD800546BCF1070F00F2BA80CF
:104060000A9A002A00F0B8800B9A002A00F0B68065
:104070000E9AB2F5006F00F3B38001285BD05B4A63
:1040800002EB0C12127B002A00F0AC80002200929E
:10409000019202920392564A02EB4C1E002C4FD121
:1040A0004FEA4C1600209051CEF80400CEF80800DC
:1040B000CEF80C009EF8020040F010008EF80200CE
:1040C0009EF8030040F030008EF8030021B9C1B221
:1040D00041F003018EF8031000930E9B013B444A0C
:1040E0004FEA4C1002EB4C11165A63F30E1616529F
:1040F0000A9B8B600B9B4B60CB789DF83C2062F356
:104100008303CB70012D36D0109B002B56D0374A3D
:104110004FEA0C1102EB0C1310985050119A5A6090
:1041200000249C605D7372466946604602F07AFE28
:10413000204605B0F0BD0C9A002AA0D12D48F8E722
:104140002B4F4FEA4C1607EB4C120020B851506031
:104150009060D060907840F010009070D07840F07F
:104160000300D0700029B7D107EB4C12C1B241F067
:104170003001D170B0E70E460A7B42F001020A73AB
:10418000D2B242F002020A73CA68042161F39F02AC
:10419000F26006F1100796E80F0087E80F00F26959
:1041A0006FF0030161F39F02F2610C9B7361012CBC
:1041B000AAD10B9AB2610C9A7260A5E7002DA6D124
:1041C0000B4B03EB4C139A786FF304129A709EE733
:1041D0000948AEE70748ACE70648AAE70548A8E75C
:1041E0000448A6E70548A4E73551002040290020EF
:1041F00040280020018000F0028000F0078000F0DD
:10420000134B1B78FBB110B50446F0B121F051F906
:104210000023072B13D80F4A02EB0312127B0AB1BB
:104220000133F6E723600B4A190102EB0313012463
:104230001C730024545021F037F9204602E021F08D
:1042400033F9054810BD054870470548FAE700BF37
:104250003551002040290020048000F0028000F049
:10426000018000F038B521F024F904460023072B23
:1042700006DC0C4A02EB0312127B12B90133F6E79B
:10428000002222B1204621F00FF9074838BD02F084
:1042900075FD0025054B1D70204621F005F92846C7
:1042A000F4E700BF40290020058000F035510020D0
:1042B0000F4B1B78BBB110B50446072815D821F069
:1042C000F8F80C4B03EB04131B7B1BB921F0ECF843
:1042D00009480BE0074B03EB041300241C7321F087
:1042E000E3F8204602E005487047054810BD00BFCE
:1042F0003551002040290020068000F0028000F0A7
:10430000018000F000B583B0134B1B6801930023BC
:104310008DF8043021F0CDF8104B1B7833B90F4BDA
:1043200001221A7021F0C0F8002309E021F0BCF846
:104330000B480EE00B4A02EB03120021117301330C
:10434000072BF7DD08238DF8073001A802F03AFDAE
:10435000002003B05DF804FBBC6D0208355100205D
:10436000038000F04029002010B5104C2478BCB127
:10437000072817DC0E4C04EB0014247BA4B10C4C72
:104380004FEA001E04EB001C44F80E30029BCCF8F0
:1043900004300024CCF8084002F044FD204610BD53
:1043A0000448FCE70448FAE70448F8E735510020E0
:1043B00040290020028000F0018000F0078000F01A
:1043C00008B50A4B1B785BB107280BD8084B03EBE9
:1043D00000131B7B43B1002102F0E6FC002008BD66
:1043E0000448FCE70448FAE70448F8E735510020A0
:1043F00040290020028000F0018000F0078000F0DA
:1044000008B50A4B1B785BB107280BD8084B03EBA8
:1044100000131B7B43B1012102F0C6FC002008BD44
:104420000448FCE70448FAE70448F8E7355100205F
:1044300040290020028000F0018000F0078000F099
:10444000F8B5194B1F6D5B6D1F4002D40125002488
:1044500002E0FEE701346D00072C24D83D42F9D07C
:10446000124B1D652301124AD358002BF2D002EBE8
:104470000416B1680131B16072682046984780F037
:104480000100C0B2737B012BE4D10028E2D0094BBC
:1044900003EB44131A7B6FF341021A731A7F6FF315
:1044A00041021A77D6E7F8BD0000045000200450FE
:1044B00040290020402800202DE9F04F89B0054612
:1044C0000E4614469846C36B5B69012207A96068D3
:1044D0009847EB6B5B69012206A93046984707A80D
:1044E00019F0F2FA48B10027A77567754FF0FF334E
:1044F000A360384609B0BDE8F08F074606A819F05A
:10450000F3FA0123A375237E033304EBC3035E6038
:1045100000221A816368B3422AD02368834201D003
:104520000023A37506A819F004FB237D984201D04F
:104530000023A37506A819F0DBFA814607A819F035
:10454000D7FA814501D00023A37506A819F0D8FA3F
:10455000814607A819F0D4FA814501D00023A3753C
:10456000237D043BDBB2022B0BD80023A375C0E7ED
:10457000206006A819F0DDFA20754FF0FF33A36024
:10458000EEE706A819F0B4FA80B1EB6B5B69022282
:1045900004A93046984704A819F0BDFA0346207DC7
:1045A000032867D8DFE800F0605A070D06A819F065
:1045B000B2FA0346F3E7237E033304EBC303CC22B2
:1045C0001A8119F0C6FA129B187094F8189006A870
:1045D00019F081FA09F1030904EBC90989F80A0005
:1045E000237E033304EBC303B3F808A093F80AB0A7
:1045F00006A819F07DFA814606A819F081FA039001
:10460000B9F1000F3CD0EB6B5B69022204A9304684
:10461000984704A819F03BFA6075637D03B9A37548
:10462000A37DA3B1BAF1000F11D0039BF1186B6CFD
:104630005B4286EA01021A4201D00023A3756B6C2B
:104640005A1E0A409B1A9A4501D90023A375A37DDF
:104650008BB3BBF1000F18D1E77D2DE0227E033232
:1046600004EBC2021381ACE7227E033204EBC202E8
:104670001381A6E7227E033204EBC2021381A0E776
:1046800006A819F0EDF96075C7E70122E275627EB0
:1046900042B9BBF1010F01D01F460DE00121617647
:1046A000174609E0BBF1010F37D0BBF1030F03D16F
:1046B0000122A27600E01F4653B117B1BBF1010FF2
:1046C00006D95346039A3146284618F040FBA060AD
:1046D000A37D13B1236953442361237E114A1278C9
:1046E00093421CD201332376B8F1000F13D0A37D7F
:1046F0008BB1E37D7BB177B9BBF1030F0BD0A16820
:10470000B1F1FF3F07D0129B0093012322462846B8
:10471000FFF7D2FEA075A77DEBE61746CCE7002396
:10472000A375E1E7E06D02082DE9F04F89B0054679
:104730000F4692469B4600238DF80B304FF0FF3119
:10474000104600F0EFFFB7F5801F1DD30023009344
:1047500017F1020F07D0009B002B40F09E802B7CAE
:10476000002B00F08C80EB6AB3F1FF3F2CD02A685D
:104770009B1A6A6CB3FBF2F917F1020818BF4FF0ED
:104780000108002301935DE00DF10A02394605F1AD
:10479000080000F017FF0146B0F1FF3F11D050466E
:1047A00000F0C0FF0DF10B0301225146284618F01E
:1047B0004DFB00900028CBD09DF80B308BF80030DB
:1047C000C6E700230093C3E7696A284618F0E0F9BA
:1047D0008146D1E70123019337E09DF80B308BF838
:1047E0000030324B1A68324950461FF059F9009494
:1047F0002F4B9968B1F1FF3F1BD06B6C5B4281EA94
:1048000006021A4215D12A4C204600F08BFF0DF10A
:104810000B0342462146284618F018FB04460028A0
:10482000E6D017F1020FD8D0214B1B68BB42DFD175
:10483000D3E74946284618F0ABF98146019BCBB92E
:10484000009BBBB96B6A4B45C4D02C686B6C03FBF7
:104850000944EB6B5B69052203A92046984703A82E
:1048600019F00EFA19F033FA204619F03CFA064610
:104870000146BFE7009BA3B1B7F5801F03D3009BA0
:104880008BB100200AE09BF80030DAF804203946AA
:1048900005F1080000F0B4FEF1E7002009B0BDE822
:1048A000F08F2D20FAE72D20F8E700BFDC6D02081D
:1048B0003430002070B582B004464FF0FF33C3623D
:1048C0000DF107031A4A6FF00101FFF72DFF20BB1E
:1048D000174B9B68E362E56A2946204617F049FFBB
:1048E0002063E8B12946204618F021FA0546A36A5C
:1048F000AB421BD02946204617F03BFF0646236BF0
:10490000034423632946204618F011FA0546002E79
:10491000EDD100232363E062E9E7A36AE362DAE70B
:10492000E16A204618F003FAE062DBE702B070BDEE
:104930006030002030B583B01C46032A14BF00222B
:1049400001221B7E9A4202D0012003B030BD0D46E9
:10495000096823689942F7D363689942F4D80DF146
:104960000703114AFFF7E0FE0028EDD10E4B5A680D
:104970006B689A42E8D19DF80730032B14BF0023DF
:104980000123227E9342DFD163690133636123698E
:10499000E2689342D8D2A268296842F823102369BA
:1049A00001332361D0E700BF603000202DE9F041E2
:1049B00082B004460E4690461F46816A06E01A4BB6
:1049C0009968B1F1FF3F1FD0012E23D0E06A8842E1
:1049D00017D0B1F1FF3F14D0134D284600F0A2FECE
:1049E0000DF1070301222946204618F02FFA00286E
:1049F000E5D03B469DF8072029462046C0470028C1
:104A0000DDD102B0BDE8F0815968204618F08FF979
:104A10000146D9E7044B5A68636C5B424A401A422C
:104A2000D4D04FF0FF31D1E70830002010B5044654
:104A3000083000F08DFD0023024A19462046FFF79A
:104A4000B5FF10BD3BCE010838B50446037C0BBB57
:104A500002461349083000F01DFE616A204618F036
:104A6000B9F8421C616A204618F00AF8054620B9D8
:104A7000236B626C1344143B2363A16A204618F035
:104A800056F9A0622368C01A636CB0FBF3F0606251
:104A9000284638BD0023034A0121FFF787FFDCE7E2
:104AA000D3D10108A1D10108F0B589B080B30F4678
:104AB00016461D46044690F834301BB9002528469A
:104AC00009B0F0BD012117F0B0FF01950E9B0293D4
:104AD000039704960023059306939DF83C308DF8C8
:104AE0001C30237C5BB901AA0A4904F1080000F0DC
:104AF000D1FD5EB9069D204618F039FADFE701AB1B
:104B0000054A00212046FFF751FFF2E7059DF2E735
:104B10000025D4E7EFC9010835490008F0B58BB08E
:104B200004460D46406AE36B5B69052205A92668C9
:104B3000676C07FB0060984705A819F0A1F80128E9
:104B400036D00094002301938DF80850039301237D
:104B50008DF81030A16AE36A99420FD0237CBBB96B
:104B60006A46144904F1080000F094FD019B13B952
:104B70009DF810309BB901980BB0F0BD204618F09D
:104B8000D6F8E062236B626C9B1A14332363EDE763
:104B90006B46094A01212046FFF708FFE6E7626AF3
:104BA0002368616C01FB0231E06B19F01BF8E2E74E
:104BB0000020E1E7C14D0008414D00082DE9F04F0C
:104BC00089B004468A4691461D4600230793096929
:104BD000026BCB1D406C1438B3FBF0F3013301EBD7
:104BE000C301914200F2A7804E4677E03D2840F095
:104BF00092800490BB4605961EE04FF000092368A2
:104C0000616C01FB0631E06B18F0D8FF204617F00D
:104C100016FF204618F0B2F82063B9F1000F76D0E5
:104C2000DAF81020D31D616C1439B3FBF1F30133B2
:104C300002EBC30290423AD32368ABEB0309606CEA
:104C4000B9FBF0F909FB003019F04DF88046E16A34
:104C5000204618F06CF8A36A83422CD0E062374BF0
:104C60009A68616C4B1E1340226B5B1A13442363DA
:104C7000ABEB08072368079EF61AB6FBF1F6B145C1
:104C8000BBD197B1E36B9B69BA084146984781460F
:104C9000E36A3B44E362236BA8EB0B0843442363C2
:104CA00004F1080000F054FCA9E7B946A7E7DDF8D5
:104CB00010B0059E02E0DDF810B0059EBBF1000FBC
:104CC00029D0DAF81000226BC31D616C1439B3FBD4
:104CD000F1F3013300EBC30082421CD3E76ADFF833
:104CE0005C803946404600F01DFD07AB02930195FC
:104CF00000963B4642465146204618F063FB8346E9
:104D000000287FF473AFD8F80830E362D6E7DDF807
:104D100010B0059ED2E75F461FB1384609B0BDE826
:104D2000F08F2B46054A5268DAF8001004F10800AB
:104D300000F066FCF1E71C27EFE700BF34300020ED
:104D4000F0B583B01C46032A05D1237A012B33D05A
:104D5000012003B0F0BD06460F4615460DF10703CE
:104D6000164A0968FFF7E0FC60600028EDD19DF865
:104D70000730032BE9D0114B5A687B689A42E4D183
:104D8000237A012B08D13B69E2681344726993428C
:104D900002D900232374D8E7E3683A69134408333F
:104DA000E3602B46012239463046FFF707FF60607B
:104DB0000028CAD00020CCE7207CCAE76030002061
:104DC000F0B583B0089C2668032A05D1237A012B0D
:104DD0004DD0012003B0F0BD15460DF10703254A63
:104DE0003046FFF7A1FC60600028EFD12168214B1D
:104DF0005A688B6A486CC0F1000C5A4012EA0C0FDA
:104E0000E4D1227A012A19D00F68DB1BB3FBF0F33F
:104E1000CA6AD21BB2FBF0F29A4219D0E368154974
:104E20000A6913440833E3602B4601222068FFF728
:104E3000C5FE60600028C9D00020CBE70D4A12698A
:104E4000E7683A447769BA42DED900232374BDE7A4
:104E5000726CF16A531E0B40316B9B1A0B44336327
:104E60002668B16A304617F062FFF062D6E7207C10
:104E7000B0E700BF60300020F8B56E4B1E6800221E
:104E80001A60002800F0B6800D46044690F83430D1
:104E900013B30A6803689A4240F0AE804A684368D8
:104EA0009A4240F0AC808A6883689A4240F0A980B8
:104EB000CA68C3689A4240F0A6800A6943699A4268
:104EC00040F0A3808A69C36B9A4201D05D2594E0CB
:104ED0004B698361002590E0876B682200211EF0FA
:104EE000B8FDA7632B6823606B6863602B696361FF
:104EF0006B69A361EA68A96804F1080000F03AFB55
:104F0000AB69E3639B6804F14000984730B9636C78
:104F100023B16268B2FBF3F2E26101E00023E361D6
:104F200094F84330002B72D000232366656C002D6B
:104F30006FD0E369002B6ED02368B3FBF5F205FB5D
:104F40001233002B69D16768B7FBF5F305FB1373C8
:104F5000002B64D1204617F0FCFBA3690344043303
:104F60009F425ED36369B3F5805F5CD8CB2B5CD97D
:104F7000B5F5805F5BD30321204617F056FDE36B48
:104F80001B686168206898470546E36BDB68022070
:104F90009847EDB1636C143B5DB9266A03FB06F6D6
:104FA000204617F0D6FBA369034404339E4200D287
:104FB0005A25B5FA85F35B0984F834301BB11E4AD3
:104FC00013680133136085B1204617F0D0FF14E059
:104FD0003146204617F04EFF05466428DAD13146A7
:104FE000204617F047FF0546D4E76168206818F0AF
:104FF000DAFCE9E7212500E05D252846F8BD5D25BE
:10500000FBE75D25F9E75D25F7E75D25F5E7212558
:10501000F3E75B25F1E75B25EFE75925EDE7592538
:10502000EBE75A25E9E75F25E7E75F25E5E75B253D
:10503000E3E700BFC4290020C0290020F0B585B0F7
:10504000A8B30C4617461E46054690F8343083B385
:10505000B1F5801F2FD2012117F0E7FC0DF10F03EE
:10506000164A21462846FFF75FFB044630B99DF8F3
:105070000F30012B08D0022B17D02D24284617F013
:1050800076FF204605B0F0BD0C4B1B69B34201D042
:105090006324F3E700220192084B0093334639461C
:1050A000284617F06CFF0446E8E76024E6E7212471
:1050B000E7E71124E5E72924E3E700BF8C3000206F
:1050C000F0B585B0002838D00C4617461E46054678
:1050D00090F834309BB3B1F5801F32D2012117F024
:1050E000A4FC0DF10F03184A21462846FFF71CFBCC
:1050F000044630B99DF80F30012B08D0022B1AD08E
:105100002D24284617F033FF204605B0F0BD0E4B86
:105110001A690A9BF3189A4201D26324F1E700232B
:105120000193094B00930A9B32463946284617F0F3
:1051300026FF0446E5E76024E3E72124E4E71124A1
:10514000E2E72924E0E700BF8C30002070B582B090
:1051500058B30C461646054690F834303BB3B1F5CB
:10516000801F26D2012117F060FC0DF10703124ABF
:1051700021462846FFF7D8FA044668B99DF807305B
:10518000032B10D0022B01D0612406E00A492846E7
:1051900018F0DCF8306000E02D24284617F0E7FE18
:1051A000204602B070BD2D24F7E72124F8E7112432
:1051B000F6E72924F4E700BF8C300020F0B583B077
:1051C0001C460023236070B30E461746054690F830
:1051D000343053B3B1F5801F29D2012117F025FCDB
:1051E0000DF10703134A31462846FFF79DFA06469C
:1051F00080B99DF80730032B13D0022B05D0002374
:105200003B600C4B1B69236005E001233B600423DA
:10521000236000E02D26284617F0A9FE304603B093
:10522000F0BD2D26F7E72126F8E71126F6E7292617
:10523000F4E700BF8C30002000B583B0044B00932E
:1052400000231A46194618F0B2FA03B05DF804FBC1
:10525000FFFF0F0000B583B0044B009300231A46F4
:10526000194618F0AEFA03B05DF804FBFFFF0F001B
:105270002DE9F8431D469DF820704369AB422FD3BA
:1052800004468846914617F060FF032F06D0266B30
:105290002946204617F04DFA864225D3134E4FF08B
:1052A000FF31304600F03EFAC6F800803561C6F89E
:1052B0000C903B46002231462046FFF77FFC054616
:1052C000236E73B1204618F086FA94F8503013B963
:1052D00094F858302BB1236E04F15000984700E049
:1052E00062252846BDE8F8831C25FAE760300020D7
:1052F0002DE9F04184B000283AD00C4690461F4674
:10530000054690F83430ABB3B1F5801F34D202219A
:1053100017F08BFB0DF10F03184A21462846FFF7C3
:1053200003FA18B99DF80F30012B0FD00123009319
:105330003B46424621462846FFF79AFF0646284646
:1053400017F015FE304604B0BDE8F0810B4B1B6929
:10535000BB42EBD101230193084B00933B46002253
:105360004146284617F00BFE06460028E7D0DDE749
:105370002126E7E71126E5E72926E3E78C30002020
:10538000F0B583B0A0B30C461646054690F834300D
:1053900083B3B1F5801F2FD2022117F046FB0DF128
:1053A0000703164A21462846FFF7BEF9B8B99DF80B
:1053B0000730032B1AD0022B01D0612410E00F4CD0
:1053C0002146284617F0C2FF0346471C3A462146AD
:1053D000284618F02DFA044616B1376000E02D2457
:1053E000284617F0C4FD204603B0F0BD2D24F7E792
:1053F0002124F8E71124F6E72924F4E78C30002073
:1054000070B586B00392C0B30C46054690F83430B0
:10541000ABB3B1F5801F34D2022117F006FB0DF1BA
:105420001703194A21462846FFF77EF9064638B980
:105430009DF81730032B03D0022B10D0612608E013
:1054400002230093CC2303AA21462846FFF710FF2E
:105450000646284617F08BFD304606B070BD0A4957
:10546000284617F073FF039A8242F2D0034606499A
:10547000284618F0DDF90646EBE72126ECE7112671
:10548000EAE72926E8E700BF8C30002030B585B078
:1054900048B30C46054690F8343033B3B1F5801F5D
:1054A00025D2022117F0C1FA0DF10F03114A21464E
:1054B0002846FFF739F978B99DF80F30032B01D151
:1054C0002D240AE00323009300231A462146284690
:1054D000FFF7CEFE044600E02D24284617F047FDD6
:1054E000204605B030BD2124FAE71124F8E729242D
:1054F000F6E700BF8C300020036853F83100C0F39A
:1055000013007047036853F83100C0F30750704729
:10551000036803EBC1035868704700BF006850F888
:1055200031301B0D1B05134340F83130704700BF6D
:10553000006850F83130C3F3130343EA025340F8D4
:1055400031307047036803EBC1035A60704700BFF6
:10555000002309E002684FF0FF3142F8331002687F
:1055600002EBC3025160013342689A42F2D8002331
:105570000372704708B501604260FFF7E9FF08BD9C
:10558000002342689A421BD910B403E001334268F9
:105590009A4212D904684FEAC30C54F83320B2F18E
:1055A000FF3FF3D0C2F313029142EFD14FF0FF322D
:1055B00044F80C20036863445A605DF8044B70475C
:1055C000704700BF10B5002300E0013344689C42DF
:1055D00012D904684FEAC30E54F83340B4F1FF3FC8
:1055E000F3D0C4F3130C6145EFD1C4F30754147026
:1055F00003687344586801E04FF0FF3010BD00BFEE
:105600002DE9F047456806467DB30F46914698461A
:105610000024D0F800A05AF83430013305D02146D8
:105620003046FFF769FFB84210D00134A542F2D1ED
:10563000002402E00134A54214D05AF8343001337A
:10564000F8D13A4621463046FFF768FF42462146E8
:105650003046FFF76DFF4A4621463046BDE8F04729
:10566000FFF770BFB8F1030F03D101233372BDE818
:10567000F087002402E00134A542F6D021463046EE
:10568000FFF740FF0328F6D13A4621463046FFF7A0
:1056900045FFDBE72DE9F0439146426883B00AB34A
:1056A0000546884600242B6853F83430013316D061
:1056B00021462846FFF720FF214607462846FFF7E8
:1056C00021FF214606462846FFF722FF39460346BA
:1056D00032462846CDF80090C04718B16A680134B8
:1056E0009442E0D303B0BDE8F08300BF08B5034B9C
:1056F0001968034B1868FFF7BFFB08BD445400202E
:105700006454002008B51FF0C1FE014B186008BDAD
:10571000B830002008B5024B18681FF0B2FE08BD73
:10572000B830002038B504460D46094B1A680021F0
:105730001EF08FF94FF0FF32226065600023A375E1
:105740002361A260E3756376A376237638BD00BF3C
:10575000DC6D02082DE9F04186B006460D4617467D
:105760009846586818F003FA4403A4B298F8033036
:105770001B0303F480531C4498F80230DB0203F44B
:1057800000631C44B8F80030C3F30A031C441B4BED
:1057900001930021384618F0F4F9029001213846AF
:1057A00018F0EFF903904FF0FF3304936FEA0444CD
:1057B0006FEA14440594B369012205A905F11000AC
:1057C00098470446B369012203A905F108009847E8
:1057D000074600B92746B369012202A9281D984748
:1057E000044600B93C46B369012201A928469847FE
:1057F00000B9204606B0BDE8F08100BF01009AB2B2
:1058000038B505460C46164BD3F8283103F007038C
:10581000013B052B20D8DFE803F003131B0F0B1708
:105820001EF078FB052305B1286004B1236038BD64
:105830001EF070FB0623F6E71EF0B6FB0723F2E727
:105840001EF0A8FB0323EEE71EF0A4FB0423EAE707
:105850001EF09CFB0223E6E700231846E3E700BFA7
:105860000080005030B583B005460C4600230193FC
:10587000154BD3F8203203F00703042B21D8DFE8BF
:1058800003F0030B11161B0001230DB1019A2A60CE
:1058900004B1236003B030BD002101A8FFF7B0FFC1
:1058A0001123F2E71EF080FB01900723EDE71FF0C4
:1058B000E2FD01900A23E8E71EF0C0FB01900923F6
:1058C000E3E70023E1E700BF0080005038B505465C
:1058D0000C460F4BD3F8503203F00303022B12D0C7
:1058E000032B08D0012B0AD00023184605B12860ED
:1058F00004B1236038BD1FF0C1FD0B23F6E71FF094
:10590000BAFD0A23F2E71EF099FB0923EEE700BF78
:105910000080005038B505460C460C4BD3F8903249
:1059200003F00303012B05D0022B07D11EF03CFB33
:10593000072305E01EF02AFB022301E0002318469E
:1059400005B1286004B1236038BD00BF008000505D
:10595000024B4FF480321A67704700BF009000502E
:10596000204B984236D009D91F4B984236D01F4B56
:10597000984222D11E4BD3F8D0007047A3F5B7034D
:10598000A3F55863984221D006D91A4B984212D1F8
:10599000174BD3F8BC007047174B984202D0174BF7
:1059A000984203D1124BD3F8A0007047144B984291
:1059B000F8D00020704700207047124B984203D166
:1059C0000B4BD3F8C800704700207047084BD3F842
:1059D000B8007047064BD3F8C0007047044BD3F8AB
:1059E000CC007047C0EA21010048E801005A620279
:1059F0000080E00F0024F40080841E0000093D00B8
:105A000040420F0080BA8C0138B505460C46104B59
:105A1000D3F8000100F00300032815D8DFE800F0F8
:105A200002080C10012305B1286004B1236038BDC1
:105A30001EF0B0FA0323F6E71EF000FB0923F2E79D
:105A40001EF0AEFA0823EEE700231846EBE700BF8E
:105A50000080005038B505460C46174BD3F820019E
:105A600000F00700062823D8DFE800F0040A0E162D
:105A7000121A1E00012305B1286004B1236038BD4D
:105A80001EF048FA0523F6E71EF084FA0323F2E736
:105A90001EF08AFA0723EEE71EF078FA0223EAE7FF
:105AA0001EF038FA0623E6E71EF074FA0423E2E754
:105AB00000231846DFE700BF0080005038B50546D8
:105AC0000C46104BD3F8400100F00300032815D812
:105AD000DFE800F002080C10012305B1286004B1D2
