:020000040800F2
:1000000000200020514000085BD901085BD901089D
:10001000011E02085BD901085BD901085BD9010800
:100020005BD901085BD901085BD901085BD90108DC
:100030005BD901085BD901085BD901085BD90108CC
:100040005BD901085BD901085BD901085BD90108BC
:10005000896000085BD901085BD901085BD90108F8
:100060005BD901085BD901085BD90108F1360008AA
:10007000E13600085BD901085BD901085BD90108AA
:100080005BD901085BD901085BD901085BD901087C
:100090005BD901085BD90108A94C00085BD90108AC
:1000A0005BD901085BD901086D4700084547000886
:1000B0005BD901085BD9010899AB010845B6010875
:1000C0001F4F02081B4F0208F9AD0108354F020807
:1000D000234F020815B60108274F0208A9B60108E8
:1000E000E1B601085BD901085BD9010869C70008BE
:1000F0005BD90108970D02085BD901085BD901089B
:100100005BD901085BD901085BD901085BD90108FB
:100110005BD901085BD901085BD901085BD90108EB
:100120005BD901085BD901085BD901085BD90108DB
:100130005BD901085BD901085BD901085BD90108CB
:100140005BD901085BD901085BD901085BD90108BB
:100150005BD901085BD901089170020885900108FC
:100160005BD901085BD90108B94E0208BF4E0208ED
:10018000194A5AB3194BDB6913F0040F29D110B483
:100190000AE003EA00048C4210D0013AB2B1134BDA
:1001A000DB6913F0040F14D110F0010FF1D1104CE2
:1001B0001C40002CEDD06FF001000CE00C4A1A40FE
:1001C0000AB9002007E06FF0010004E06FF00200C0
:1001D00001E04FF0FF305DF8044B70476FF0020014
:1001E00070474FF0FF307047809698000000035032
:1001F000020001000D4BDB6913F4803F12D170B592
:100200000A4B03F580560124F46003F500552C6475
:100210004FF480721A6100212046FFF7B1FF346469
:10022000EC6070BD6FF00100704700BF000003502C
:1002300010B5124B4FF480329A6603F51C33DC691B
:10024000144041F67132DA6303F580520121D16026
:10025000586102221A6100212120FFF791FF40B16D
:10026000074B0122DA601CB1A3F500530022DA63C8
:1002700010BD00212120FFF783FFF1E7009000501F
:100280000020035038B51A4B5861DB6913F0040F96
:100290002AD10C4654F8041B154B9961151F06E032
:1002A000214651F8042B124B9A61043D0C465DB176
:1002B00008210846FFF764FF03460028F0D00C4AE7
:1002C00004211161184638BD094B04221A6100212E
:1002D0002120FFF755FF03460028F3D100212120FC
:1002E000FFF74EFF0346EDE74FF0FF33EAE700BFAD
:1002F000000003502DE9F0410F46164605461A4B03
:100300004FF480329A6603F51C33DA6902F48038C0
:1003100041F67132DA6303F580530122DA6000237B
:1003200002E025442744361B8EB105F5005424F421
:10033000FF5424F01F04641BB44228BF34462246F5
:1003400039462846FFF79EFF03460028E9D0074AB2
:100350000121D160B8F1000F03D0A2F500520021B5
:10036000D1631846BDE8F081009000500020035092
:10037000000000000000000000000000000000007D
:10038000013800D0FCE770472DE9F04F2DED028BCE
:1003900093B082460C4693461D4657EC106B8DED8C
:1003A000080B32463B46304639461BF06DFE0028AE
:1003B00000F009814FF0FF32B14B304639461BF057
:1003C0008BFE002840F0FF804FF0FF326FF4801367
:1003D000304639461BF062FE002840F0F4800022CF
:1003E0000023DDE90867304639461BF057FE002838
:1003F00040F0FC809DED087B8DED067B209B13F487
:100400008063119301D106231E93DDE906010246A4
:10041000C1F30A50C1F31303904643F07F5949F4E6
:100420004019A0F2FF301BF05DFB83A3D3E900234A
:100430001BF0C2FB82A3D3E900231BF007FA064698
:100440000F4600228F4B404649461BF0FDF97EA324
:10045000D3E900231BF0B0FB02460B463046394679
:100460001BF0F4F91BF042FE06461BF03BFB8046F6
:10047000894677A3D3E900231BF09EFB0022824B21
:100480001BF0E4F91BF032FE074673A3D3E9002307
:10049000404649461BF090FB8046894638461BF093
:1004A00021FB6FA3D3E900231BF086FB02460B461A
:1004B000404649461BF0C8F98046894602460B462D
:1004C0001BF07AFBCDE90C0107F2FF370021002277
:1004D000CDE90A123B050B9300230A9342464B4693
:1004E000404649461BF0B2F9CDE90E0142464B4663
:1004F00000204FF080411BF0A7F98046894600227A
:10050000624BDDE90C011BF081FC0022604B1BF00B
:100510009DF902460B46DDE90C011BF077FC002239
:100520005C4B1BF093F902460B46DDE90C011BF016
:100530006DFC02460B46404649461BF087F90246D1
:100540000B46DDE90E011BF061FC0022524B1BF053
:100550007DF9DDE90A231BF02FFB8046894649EC33
:10056000188BDDE906231BF0B7FD40B1013E0022E8
:10057000474B404649461BF049FC41EC180B06F13D
:100580006303C62B3BD80427209B13F4006F40D095
:1005900035A3D3E90023DDE90689404649461BF02F
:1005A00091FD00283BD032A3D3E9002340464946C1
:1005B0001BF074FD002832D01E9BB34221DD9E1B30
:1005C000731E1E931FE0209B02931F9B01931E9B93
:1005D00000939DED080B2B465A462146504600F0ED
:1005E000CBF813B0BDEC028BBDE8F08F9FED227B02
:1005F0008DED067B069607F100430793FEE605277F
:10060000C2E700231E93209B43F4806320930027BE
:100610003E461F9B9F4241D2A3EB070840E01E9B32
:10062000002BF6D0119B002BF3D01E9B013B1E9399
:10063000EFE700BFAFF30080FB799F501344D33F37
:10064000B3C8608B288AC63F61436F63A787D23FD8
:1006500071A379094F930A401655B5BBB16B02409F
:10066000EF39FAFE422EE63F2D431CEBE2361A3FED
:100670000000000080842E41000000000000000007
:10068000FFFFEF7F0000F83F0000E03F00002C403C
:1006900000002440000018400000F03F4FF0000828
:1006A000209B13F0020902D00FB14FF000083EB1B9
:1006B00053EC182BDDE906011BF0A8FBCDE9060180
:1006C00000220023DDE908011BF0E8FC00283BD1F3
:1006D000209B23F400630293CDF804801E9B0093BB
:1006E0009DED060B2B465A462146504600F044F835
:1006F000002F3FF476AF209B13F0200F2CD04FF04B
:10070000450C00F101082B46024621466046D047C1
:1007100086EAE672A2EBE67205230593013F049791
:10072000002303930A230293F30F019300922B46B5
:1007300042462146504622F0E6FFB9F1000F3FF451
:1007400050AF02461F9F10E0DDE90601024601F1AD
:100750000043CDE90623BBE74FF0650CD1E7561CFB
:100760002B4621462020D0473246A2EB0B03BB424A
:10077000F5D3104635E700BF2DE9F04F2DED028B84
:1007800093B00590089192469B4659EC108B1E9DA4
:1007900042464B46404649461BF076FC002840D076
:1007A0004FF0FF326FF48013404649461BF076FC51
:1007B000002845D14FF0FF32B14B404649461BF06F
:1007C0008BFC00284BD1AAA3D3E90023404649461D
:1007D0001BF082FC00285AD1A7A3D3E9002340468E
:1007E00049461BF05BFC002851D100220023404603
:1007F00049461BF053FC002857D100230993209B46
:1008000013F4806F5CD000241F2C5BD8092D59D9BC
:1008100004F148036B44302203F8202C013D0134DD
:10082000F2E7209B03931F9B029303230193954BB5
:1008300000935B4652460899059822F08AFE10E123
:10084000209B03931F9B0293042301938E4B0093E1
:100850005B4652460899059822F07BFE01E1209BF9
:1008600013F004030FD0894A7BB10423209903912C
:100870001F990291019300925B4652460899059890
:1008800022F067FEEDE0824AEEE70323EEE7209BCD
:1008900002931F9B0193009549EC108B5B465246D7
:1008A00008990598FFF770FDDBE042464B460020B3
:1008B00000211AF0C9FF80468946012309939EE76B
:1008C0000625A0E7404649461BF010FC06461BF0F3
:1008D00009F902460B46404649461AF0B5FF6D4BF2
:1008E00003EBC50393ED008B53EC182B1BF064F95D
:1008F00002460B46CDE906231BF020FC07461BF001
:10090000E1F802460B46DDE906011AF09DFF0246BA
:100910000B46CDE9062300225F4B1BF0DDFB50B3F5
:10092000013738461BF0CEF802460B4651EC180B47
:100930001BF0BEFB08B10136002755BB30461BF04B
:10094000D1F802460B46404649461AF07DFF8046E4
:1009500089460022504B1BF0A1FB38B100224E4BC0
:10096000404649461BF0B8FB002842D016F0010F64
:100970003FD001363DE00022474BDDE906011BF088
:100980008DFB0028D9D117B117F0010FD5D0013751
:10099000D3E71F2C17D8013D404BA3FB0723DB08EF
:1009A000194603EB8303A7EB4303621C303304F1C6
:1009B00048000DEB000404F8203C092F02D90F4633
:1009C0001446E6E714461F2C0AD86B1E45B104F105
:1009D00048026A44302102F8201C1D460134F2E727
:1009E0001F2C06D804F148036B442E2203F8202C58
:1009F00001341F2C17D82A4A82FB0632F317C3EBA7
:100A0000A2031A4603EB8303A6EB4303611C3033B6
:100A100004F148000DEB000404F8203C16460AB12E
:100A20000C46E6E70C46209B03F00303012B39D06C
:100A30001F2C09D8099B002B51D004F148036B44AB
:100A40002D2203F8202C0134209B03931F9B02933B
:100A500001940AAB00935B4652460899059822F030
:100A600078FD13B0BDEC028BBDE8F08FAFF30080D2
:100A70000000000065CDCD410000000065CDCDC176
:100A8000FFFFEF7F6C8E0208708E0208608E0208F6
:100A9000688E0208788E02080000E03FCDCCCCCCF6
:100AA000676666661F9BB3B1099B1BB9209B13F059
:100AB0000C0F12D01F9B013B1F93194606E004F157
:100AC00048036B44302203F8202C01348C42AFD20F
:100AD0001F2CF4D9ACE71F99F8E71F99F6E7209B84
:100AE00013F0040F07D004F148036B442B2203F8E2
:100AF000202C0134A8E7209B13F0080FA4D004F1A8
:100B000048036B44202203F8202C01349CE700BFEB
:100B100038B50D46044625F0EFFF064A13889BB210
:100B20002DB123431380BDE8384025F0E0BF23EA10
:100B30000403F7E7344B00200022034B01214FF45C
:100B400080709A70E4E700BF344B00207FB54E6898
:100B500002A9044623F071FC9DF808300C2B19D132
:100B6000134BB3F90050134B9E4218D807F064FCA6
:100B700003460068694600909B882046ADF8043023
:100B800023F048FC70B140F25F620B490B480DF056
:100B90005BFDFEE7204613F059FB0546E3E71FF037
:100BA00066F8E5E72946204623F01AFC04B070BD3C
:100BB0000A510020FFC99A3B21910208EC8E0208DD
:100BC000002330B5134C85B0CDE90133039323786E
:100BD0008DF8043025F090FFA288E38805469A42FC
:100BE0000DD0E188A06801AAA18023F0AFFA58B126
:100BF00040F2DA62084909480DF026FDFEE7A068D8
:100C000023F07DFA0128ECD0284625F070FF05B0CE
:100C100030BD00BF7055002021910208EC8E020803
:100C200038B50F4C656835B940F2C7720D490E48AA
:100C30000DF00AFDFEE722F03BFE284410F054FCC4
:100C400000F00700032809D164680921204622F03A
:100C50004BFF205C031F5842584138BD0020FCE781
:100C6000344B002021910208EC8E020808B5114B8C
:100C70009A78042A06D040F28E520F490F480DF0A0
:100C8000E3FCFEE71B881B0706D440F28F520A499B
:100C90000A480DF0D9FCFEE700210820FFF738FFD5
:100CA0000222074B98681A7313F08AF8BDE80840CF
:100CB00021F002BA344B002021910208EC8E020888
:100CC0007055002010B5084CA06813F079F8A068A2
:100CD00023F015FA012806D00122A0681146BDE8CC
:100CE000104023F00EBA10BD7055002038B5194DD4
:100CF000AB7833B140F22B72174918480DF0A4FCC1
:100D0000FEE725F0F9FE2988044611F0060109D016
:100D100001214FF48070FFF7FBFE2046BDE838400C
:100D200025F0E5BE4FF48070FFF7F2FE12F09AF95D
:100D3000012805D010F0FD0F05D1FFF741FFECE7CA
:100D4000FFF7C0FFE9E740F24172034903480DF0A5
:100D50007BFCFEE7344B002021910208EC8E020858
:100D600070B50446064D95F90860FFF7BFFF12F015
:100D700077F8314620466A68BDE8704011F0A8BE99
:100D8000344B002008B50A4B1B88DB0606D440F222
:100D9000A752084908480DF057FCFEE70021102033
:100DA000FFF7B6FE12F0DAF9BDE8084021F084B989
:100DB000344B002021910208EC8E02080D4B10B537
:100DC0001B8804469B0713D500210220FFF7A0FED5
:100DD000094B5A7BFF2A06D040F2E54207490848F2
:100DE0000DF032FCFEE75C73BDE8104021F064B901
:100DF00010BD00BF344B0020705500202191020827
:100E0000EC8E02087047704707B5ADF80610014632
:100E100030B94FF4B572104910480DF015FCFEE7DB
:100E2000BDF8063033B940F26B120B490B480DF098
:100E30000BFCFEE70A4B0DF10602986823F0B4FBA9
:100E400030B140F26D12044904480DF0FDFBFEE79D
:100E500003B05DF804FB00BF21910208EC8E02088C
:100E60007055002010B50E4CA37833B14FF4EA72E0
:100E70000C490D480DF0E8FBFEE7606019B1A17B5D
:100E8000003918BF01212020FFF742FE074B084818
:100E90009B7B23760223A370BDE8104010F0F0B9CD
:100EA000344B002021910208EC8E0208705500207E
:100EB000504B002008B50BF0F5FE80F00100C0B2E9
:100EC00008BD0A4B9A780AB1062A0CD11B8803F494
:100ED0008B7343B9064B5A7BFF2A04D1187BFF382A
:100EE00018BF012070470120704700BF344B00201D
:100EF0007055002008B50BF0C5FE0028FBD108BDD9
:100F00000C4B42889A8142789A730278DA7382880D
:100F10001A82C2885A82C2685A61017A064A91735B
:100F2000028A998C914204D001214FF400709A8476
:100F3000EEE57047344B002070550020094B9A892C
:100F400042809A7B4270DA7B02701A8A82805A8AC7
:100F5000C2805A699B8CC260034A0382927B0272F0
:100F6000704700BF344B0020705500204B1E012BF2
:100F700070B50C4606D940F2B7221A491A480DF04E
:100F800063FBFEE7194D0A460146A86823F036FBCD
:100F900030B140F2B922134913480DF055FBFEE77A
:100FA000AE6810F0E1F822460146304623F020FBFF
:100FB00030B140F2BD220B490B480DF045FBFEE776
:100FC000AD6810F0DDF822460146284623F01CFBF0
:100FD00030B140F2C122034903480DF035FBFEE772
:100FE00070BD00BF21910208EC8E020870550020F0
:100FF000054BDB7B1B0913F00E0003D0052B8CBFC8
:1010000000200120704700BF70550020044BDB7B9F
:101010001B0913F00E0F0CBF01200020704700BF0A
:10102000705500202DE9F04F15469A0580461F4661
:101030008FB003D501218020FFF76AFDEB014FF04F
:10104000000955D5984C23889E0751D5974E737B40
:10105000FF2B06D040F2AF42954996480DF0F4FAC6
:10106000FEE7636833B94FF49662914991480DF0F9
:10107000EBFAFEE749460220FFF74AFDA37886F81F
:101080000D90042B03D101210820FFF741FD00231F
:10109000B06808A98DF82C3023F0D1F930B140F2B6
:1010A000BA42834983480DF0CFFAFEE7FFF7A0FF6D
:1010B000B0B922F0FDFB8146606822F004FC08A96B
:1010C0008144B068ADF8249023F0BCF930B140F20F
:1010D000C242774977480DF0B7FAFEE7089BA36252
:1010E000A378032B02D1B06812F06AFE20F0E4FF6F
:1010F000B80702D50120FFF761FE15F0A84F02D016
:101100000220FFF75BFEA90220D50021402003AC9E
:10111000FFF7FEFC2146404623F08EFAB0B99DF859
:10112000143008AA022B22D18DF82830BDF80C30DB
:10113000ADF82030104611F09DFE38B1404623F046
:1011400079FA18B901214020FFF7E2FC2A0753D5AC
:10115000564E0321B06803AA23F028FA814688B9C5
:1011600040F2FE42524953480DF06EFAFEE7032B5F
:1011700005BF8DF82830D4E900018DF82800C2E9B8
:101180000001D7E79DF80C30B068072B40F01F81B5
:10119000494608AA23F00CFA30B140F20152444902
:1011A00044480DF051FAFEE7FFF722FFBDF80E208C
:1011B000A0B9FFF72BFF78B1043292B2B06808A94A
:1011C000ADF8242023F0F6F940B140F2125238492C
:1011D00038480DF039FAFEE70232EEE7BDF80E00AE
:1011E0000121073080B225F0B1FB8246002842D1B0
:1011F00001210C2012F078FDA90705D52A4B1B8888
:101200001A0701D5FFF732FDAB010BD500210420F1
:10121000FFF77EFC244B9B78012B03D1234B98686E
:1012200012F0CEFD15F0284F03D000210420FFF767
:101230006FFC7E060CD51C4C23881D0701D5FFF7DB
:1012400015FD2388580703D500210420FFF760FC13
:10125000F90540F1D88003A9404608AA22F04DFFC5
:101260000146002800F0BA8040F2D25210491148DD
:101270000DF0EAF9FEE74FF0000B25F0EBFACDF8A0
:1012800000B00246BDF80E3004464946B06823F06F
:1012900095F9BDF80E3083420ED040F22252044937
:1012A00004480DF0D1F9FEE7344B002070550020C2
:1012B00021910208EC8E020822F0FAFA204410F084
:1012C00013F900F007000228DFF8589124D199F8AB
:1012D0000230042B90D122F0EBFA504B204482785C
:1012E0001B789A4288D159460820FFF711FC22F05A
:1012F000DFFA204410F0F8F89DF82E30C0F300100B
:10130000307389F80830FFF78BFC00287FF474AF46
:10131000B06812F055FD6FE722F0CAFA204410F0D1
:10132000E3F883064AD522F0C3FA204410F0DCF833
:1013300000F0070003280BD10921204622F0D4FB3E
:1013400014F800B0ABF1040CDCF1000B4BEB0C0B10
:1013500001210420FFF7DCFBB06823F042F9C9F853
:101360002C00BBF1000F30D0B9F8003058062CD556
:1013700000214020FFF7CCFB0126BDF80E309DF880
:101380002E200120E254BDF80E309DF82F2023447A
:101390009A71BDF80E10089A0131214410F0B2F88C
:1013A000BDF80E3050461C44667125F027FB1C4BDF
:1013B000187810F06BF820F07FFE1DE799F80230E6
:1013C000012B02D1B06812F0FBFC0026D5E723F018
:1013D000D1F84946B06823F0EFF80DE79DF80C30DE
:1013E00003F0BF02032A01D0022B0FD10D4C23883A
:1013F0005A0702D50420FFF78BFB23889B0702D5F1
:101400000120FFF7DBFC0FB0BDE8F08F4FF4BF62A7
:10141000054906480DF018F9FEE700BFA14B002072
:10142000C44A0020344B002021910208EC8E0208AF
:1014300008B50246FFF7DCFD30B1072A06D80020C8
:10144000034B83F8302008BD7020FCE70220FAE748
:10145000344B002008B50246FFF7CAFD28B1002032
:10146000034B93F83030137008BD7020FCE700BFC9
:10147000344B002008B5074B01460022986823F042
:10148000BDF830B140F2EB22034904480DF0DCF81E
:10149000FEE708BD7055002021910208EC8E02087D
:1014A00008B5074B01460022986823F0A1F830B137
:1014B00040F2F122034904480DF0C6F8FEE708BDEA
:1014C0007055002021910208EC8E020808B5074BE8
:1014D0000146986823F09EF830B140F2F7220449A3
:1014E00004480DF0B1F8FEE708BD00BF70550020BC
:1014F00021910208EC8E020808B5074B9B7833B1A6
:1015000040F20132054906480DF09EF8FEE7BDE8BD
:101510000840FFF7EBBB00BF344B002021910208CD
:10152000EC8E020808B5054B0146986822F058FF7A
:10153000002814BF8B20002008BD00BF705500207C
:10154000014B986812F082BE70550020014BD8887C
:10155000704700BF705500207FB50123ADF80E30F5
:101560004FF6FE7309480093806800230DF10E02C8
:1015700004A922F0C2FE212800D020B9BDF8100035
:1015800007B05DF804FB4FF6FF70F9E770550020D7
:1015900008B5044B0146986822F063FEB0FA80F06B
:1015A000400908BD7055002038B50B4D0446AB7896
:1015B000012B0DD8FFF7ECFF60B1084BDC80AB7856
:1015C0001BB9FFF793FB002038BDFFF7F9FAFAE7E4
:1015D0003E20F9E78A20F7E7344B002070550020C1
:1015E000024B9B780BB9FFF781BB7047344B00204F
:1015F000014BD873704700BF344B002008B5064B31
:101600004FF0FF31986822F0A5FD0028B8BF0330E5
:1016100040F3870008BD00BF7055002008B5044B9B
:10162000986822F01AFE034BB3FBF0F080B208BDBD
:101630007055002040420F0030B58DB02C2204467A
:10164000002101A823F003FD01234FF002328DF8A1
:1016500008306423CDE9032306930B238DF82C3047
:10166000214B9B8CADF80A30FFF7C2FCA8B140F2C9
:10167000F23307934FF47A7305930CB9FFF722FB0B
:101680001A4D01A9A86812F0B5FEC0B140F2AC62D3
:10169000174918480CF0D8FFFEE7FFF7BFFF0C23EF
:1016A0004343902B0793A3F10A02D8BF91230592DD
:1016B000D8BF0793059B8B2BDFD88C23DCE7FFF784
:1016C000A5FC60B10122A868114622F0B1FF30B13B
:1016D00040F2AF62064907480CF0B6FFFEE70CB9CE
:1016E000FFF704FB0DB030BD344B002070550020D7
:1016F00021910208EC8E0208F8B525F0FDF9554C51
:1017000006462388D90503D5A37843BBFFF7EEFA35
:10171000514D6B7BFF2B13D06B7B03F0FF0723BB7B
:10172000FF236B73A378032B0AD100233046A370E9
:1017300025F0DDF93846FFF713FB25F0DDF9064605
:10174000A378042B08D12B7BFF2B05D02B7B022BFE
:1017500014D142480FF094FDFF232B7327E00021A2
:101760004FF48070FFF7D4F9D2E76B7B012B4FF079
:10177000FF0314BF89278D276B73D6E72B7B13B12B
:101780002B7B012B1ED1FFF74BFA0022FF212B7B75
:101790000746DBB222772973002847D0012B0AD1F4
:1017A00064212E48A3700FF076FDFFF709FA30464A
:1017B00025F09DF906E03046A27025F098F9312019
:1017C000FFF7CEFA23881A0608D500218020FFF7FC
:1017D0009FF9A86822F06FFE11F0A1FC23889B05F9
:1017E00007D54FF400700021FFF792F90020FFF7B2
:1017F00023FF0BF047FA608620B325F02BF8012178
:101800000546002012F070FAA678012E14D10026A9
:101810002677A670FFF76AFA284611F07BF8A378BE
:1018200066867BB9BDE8F84011F01ABBA07030465F
:1018300025F05DF93846C3E72EB1284611F06AF865
:1018400000236386F8BDFFF751FA284611F062F8CD
:101850006686F7E7344B002070550020504B00207F
:101860008B4BF0B51B888B4C8B4D63848B4B85B0B9
:101870001B68E3628A4B1B8823848A4B1B68A36224
:101880002B88DB0700F1FC8001210846FFF740F9B7
:101890000523854A04F1100104F10800AB7012F031
:1018A00051FA28B1F522814981480CF0CDFEFEE7BE
:1018B000A3682BB9F7227D497D480CF0C5FEFEE7F1
:1018C0007C4822F062FC70A3D3E90023CDE9002319
:1018D0004FF0FF324FF0FF33A06822F005FD4FF4C8
:1018E0008811A06812F02AFD014630B140F20F12B3
:1018F0006E496F480CF0A8FEFEE76F4B1B78012B7A
:101900000ED16E4AA06812F0EBFAA06812F0A0FDAA
:10191000E0B140F21B12654965480CF095FEFEE708
:10192000674E316831B94FF48F72604960480CF0EE
:101930008BFEFEE7614AA06812F0D2FA33689B681A
:1019400023B1DB6913B15B7803B1E373FFF704FEE6
:101950000146E080A06812F03FFC064630B140F23C
:101960002D12524952480CF06FFEFEE7554B0120F4
:101970001B78C3EB431203EB8203DB00AB84FFF75E
:101980005BFEA7680FF0FCFB32460146384622F0AA
:101990003BFE064630B140F23312444944480CF055
:1019A00053FEFEE740F203530427AB81464BAF736F
:1019B0001B78EB73FFF732FE00EB80039B002B825A
:1019C000FFF72CFEC00068823946A0686E6122F0E5
:1019D00033FC30B14FF4A172344935480CF034FE79
:1019E000FEE73A46A06803A922F0B9FC042806D015
:1019F0004FF4A3722D492E480CF026FEFEE703A9F2
:101A000001200FF08DFD0AF0C3FE08224FF0FF31D8
:101A1000A06822F07AFC30B140F24F1223492448EA
:101A20000CF012FEFEE712F093FE30B140F25512B8
:101A30001E491F480CF008FEFEE7FFF7D9FA68B10F
:101A40001EF017F90146A06822F0E4FC30B140F224
:101A50005912164916480CF0F7FDFEE7A468FFF787
:101A60007BFD1A4B014603F10C02204622F070FB6D
:101A700030B14FF4B0720D490D480CF0E5FDFEE7B2
:101A800005B0F0BDAFF300800A0020FF4203000064
:101A90001894020870550020344B00201C94020852
:101AA0001A94020820940208390B000821910208B8
:101AB000EC8E0208690345EC854B00204D0B0008B5
:101AC0005C54002015570020145700204C91020848
:101AD00008B5044B986822F0C2FB034BB3FBF0F04F
:101AE00080B208BD7055002040420F002DE9F04340
:101AF0008C4D87B02B889B0706D440F24C728A49E4
:101B00008A480CF0A1FDFEE7AB78033B012B06D918
:101B100040F24E72844985480CF096FDFEE76A68F3
:101B200032B940F25172804980480CF08DFDFEE7D9
:101B30007F4E2C88F77B14F0200418BF4FF47A7482
:101B40004FEA1718FFF754FA00287DD0B8F1020FBA
:101B50000AD0A8F10303022B74D940F265727249CE
:101B600072480CF071FDFEE7032795F8303008EB62
:101B7000C80898446F4B104603EB4803B3F81C8029
:101B800021F0A1FE4FF4FA534343B3FBF8F378225C
:101B90007733B3FBF2F31F44C7EB0717AB78FF00B3
:101BA000BFB204F5347417FA84F4042BA4B203D141
:101BB00007F6E8072744BCB2D5F8048021F078FE88
:101BC0000746686821F07FFE074421F097FEBFB208
:101BD0003F1A21F06DFE40440FF086FC7378C0F38D
:101BE00040198DF80C30544BBFB2CDE904340024B9
:101BF00021F090FE009402463B464146B06822F038
:101C0000BBFC287EB278737812FB00F29342C4BF0B
:101C10009B1ADCB22B88F18813F0200FB068B180DA
:101C20008DF80C4003AB76D000934A46434B22F02C
:101C300084FA002873D040F224723B493B480CF0F0
:101C400003FDFEE7062790E7FFF7E0F9002846D0FE
:101C5000384B07F00F0708EBC801394403EB410389
:101C60001046B3F81C9021F02EFEB8F1000F2CD0D6
:101C7000B8F1010F2CD14FF00408400080B2F319E5
:101C800093F834304BB14FF4FA52023303444344D7
:101C90009BB25343B3FBF9F39CB2AB78042B8BD1CB
:101CA000FFF7BCFC374497F834308146053398443D
:101CB000FFF70EFF0C2308FB00F003FB09F909EB0B
:101CC000C009A1441FFA89F476E74FF00208D6E76D
:101CD00040F28672144915480CF0B6FCFEE7FFF797
:101CE000F7FE0746686821F0EEFD09307843AB78CF
:101CF00004EBC000042B84B27FF45EAFFFF78EFCD0
:101D00000746FFF7E5FE602358430C2303FB07005B
:101D1000204484B250E74A4622F00DFA89E707B022
:101D2000BDE8F083344B002021910208EC8E0208BC
:101D3000705500204C91020820A10700404B002064
:101D4000F8B5494C258815F0020506D040F2751209
:101D5000464947480CF078FCFEE7257724F0CCFE96
:101D6000238806465A070CD5424B986822F039FC66
:101D7000E36AC01AA38C984203D929460420FEF7CF
:101D8000C7FE304624F0B3FEA778022F37D124F0E7
:101D9000B3FE2388064613F0040507D036480FF03B
:101DA0006FFA3046BDE8F84024F0A1BE24F09FFE53
:101DB000606811F08FF820B1A570BDE8F840FEF71B
:101DC000CFBF24F099FE6668054621F071FD3044CE
:101DD0000FF08AFB10F0200F0CBF03230423012116
:101DE0003846A370FEF794FEFFF780FE284624F0E5
:101DF0007EFE01210846BDE8F84011F075BF042FB2
:101E000027D11C4B1B7BFF2B2DD1237EF3B124F05C
:101E100073FE238805465B0704D517480FF030FA98
:101E20002846BFE724F063FE237E013B237624F09F
:101E300063FE044601210220FEF76AFEFFF756FE0C
:101E4000204624F054FE01210820D4E74020A3704E
:101E5000B3E7012F07D10023A370064B986811F058
:101E6000AFFF3120A9E7F8BD344B002021910208D3
:101E7000EC8E020870550020504B002038B501212F
:101E800004461020FEF744FE064B9D68FFF7C6FB94
:101E9000012200FB04F1044B284622F037F9002010
:101EA00038BD00BF70550020850D000808B50A4BED
:101EB0001B88DB0606D44FF46172084908480CF011
:101EC000C3FBFEE710200021FEF722FE054B9868B9
:101ED000BDE8084022F028B9344B002021910208C7
:101EE000EC8E02087055002038B50E4D688E30B962
:101EF00040F291320C490D480CF0A6FBFEE724F0AD
:101F0000A9FC0446688E24F0C3FC811F21440120F3
:101F10000FF006FB064B0446986822F062FB001B9C
:101F200038BD00BF344B002021910208EC8E02081E
:101F30007055002010B5084C636833B94FF46872CF
:101F4000064907480CF080FBFEE7064B986822F034
:101F500048FBA36AC01A10BD344B0020219102082F
:101F6000EC8E02087055002038B50A4D688E30B9E5
:101F700040F2AA32084909480CF066FBFEE724F05B
:101F800069FC0446688E24F083FC044414F8020CB7
:101F900038BD00BF344B002021910208EC8E0208AE
:101FA00038B50A4D688E30B940F2B932084909484F
:101FB0000CF04AFBFEE724F04DFC0446688E24F04A
:101FC00067FC044414F9070C38BD00BF344B0020F3
:101FD00021910208EC8E020838B50A4D688E30B99E
:101FE0004FF47272084909480CF02EFBFEE724F00A
:101FF00031FC0446688E24F04BFC044414F9010CB7
:1020000038BD00BF344B002021910208EC8E02083D
:10201000024B1888C0F3C010704700BF344B00203B
:1020200030B585B005466C460D4B0FCB84E80F00EC
:102030000DB12B6800930B4B21460022986812F0DB
:102040001BF9044630B140F2E632074907480CF06C
:10205000FBFAFEE7FEF7B4FD204605B030BD00BF39
:10206000D49102087055002021910208EC8E0208DC
:1020700030B5154D87B004460DF10701A86822F070
:1020800035F930B140F2F732104911480CF0DCFA62
:10209000FEE79DF80720531EDBB2FD2B0FD90294FB
:1020A000FF2A00D10394A86802A922F007FA40B1E0
:1020B00040F20442054906480CF0C6FAFEE7012A40
:1020C000EFE707B030BD00BF705500202191020836
:1020D000EC8E020808B5064B986822F0FEF930B184
:1020E0004FF48262034904480CF0AEFAFEE708BDE3
:1020F0007055002021910208EC8E02080122024B4B
:102100001146986821F0FDBF705500207047F8B562
:10211000064604200D4621F0ADFB030622D5124FE2
:10212000BC78FCB926B1012E17D002242046F8BD98
:1021300001262846FFF72CFA0028F6D00B4800238A
:1021400032462946806821F0FAFF40B14FF48A6296
:10215000074908480CF078FAFEE72646E9E7062327
:10216000BB70E3E77024E1E7344B0020705500209A
:1021700021910208EC8E0208042010B521F07AFBB0
:10218000030611D5094CA378062B0DD1084B98688E
:1021900021F0D7FF30B140F26A42064906480CF000
:1021A00053FAFEE7A07010BD7020FCE7344B00200E
:1021B0007055002021910208EC8E02081FB50446DC
:1021C00001A812F021F89DF80D3053B14CB1064B27
:1021D0002078617818700020A27859709A7004B045
:1021E00010BD0220FBE700BF705500201FB504465C
:1021F00001A812F009F89DF80D3053B14CB1002040
:10220000054B1A7822705A789B786270A37004B0DC
:1022100010BD0220FBE700BF70550020FFF7CEBFC6
:10222000FFF7E4BF0348044B834202D0034B03B1E2
:10223000184770472C5700202C5700200000000042
:10224000064B0749C91A891048BF0131491003D00C
:10225000044B0BB101481847704700BF2C570020B2
:102260002C5700200000000010B5064C237843B91D
:10227000FFF7D8FF044B13B10448AFF300800123EC
:10228000237010BDC451002000000000C0CD020822
:1022900008B5054B1BB105490548AFF30080BDE803
:1022A0000840FFF7CDBF00BF00000000A0220020C3
:1022B000C0CD0208A3F5803A704700BF174B002B32
:1022C00008BF134B9D46FFF7F5FF00218B460F46D5
:1022D0001348144A121A22F0BAFE0E4B002B00D0FB
:1022E00098470D4B002B00D0984700200021040098
:1022F0000D000D48002802D00C48AFF300801AF002
:1023000055FC200029001BF0DBF81AF0E5F800BFAF
:102310000000080000000000000000000020002075
:1023200000200020405200200000000000000000BB
:1023300008B5224B1B78012B1BD0022B2BD003B1ED
:1023400008BD1F4B1B781F4A1278B3EB420F06DA09
:1023500001331B4A13701C481BF04AF9F0E7184B75
:1023600000221A7018481BF047F9184823F028FF7C
:10237000E6E7134B1B78134A1278B3EB420F03DAEC
:1023800001330F4A1370DBE70D4B00221A700F4820
:1023900023F016FFD4E70A4B1B780A4A1278B3EBF6
:1023A000420F03DA0133064A1370C9E7044B0022D7
:1023B0001A70064823F004FFC2E700BFC551002091
:1023C000C7510020C6510020FC850208B822002019
:1023D00070B582B014460B4B18700B4B197000256A
:1023E0000A4B1D700A4E304623F0EAFE012301938A
:1023F00000952B46074A2146304624F0C5FD02B021
:1024000070BD00BFC5510020C6510020C75100203B
:10241000B82200203123000800B583B0074B012209
:10242000DA60064B5B6913F0400FFAD10349684646
:102430001DF0D7FA009803B05DF804FB0040005986
:1024400010B582B004461AF0A6FF08B902B010BD5C
:1024500000230093ADF80430074B1B88ADF8023021
:10246000ADF8044041F6FF73ADF800306946042032
:102470001FF0B9FEEAE700BF0051002008B513467F
:102480000A4601460448006803F076FB00B908BD1F
:1024900002480CF0D9F8FAE7285500200872020823
:1024A0000A2800D9704730B583B004460D466B4604
:1024B00001AA01461048006803F0C4FA08B9019B5C
:1024C00023B10E480CF0C0F803B030BD009B2A4683
:1024D00021460948006803F0F5F940B9214608484B
:1024E0000CF0B2F8294607480CF0AEF8ECE72146AC
:1024F00005480CF0A9F8E7E72855002010720208FB
:102500003472020850720208587202080A2800D970
:10251000704710B504460146064B186803F0FAFBF5
:1025200020B9214604480CF08FF810BD03480CF088
:102530008BF8FAE7285500207C720208987202088E
:1025400038B504461FF05BFEA04201D8012038BD1B
:102550000546032001F01EFB0028F8D01BF06CF8A4
:102560001BF06BF82B4622460349044800681EF016
:1025700078FC0020EBE700BFB0720208542700206F
:1025800030B583B004468368C26853F822301D8892
:102590002846FFF7D5FF08B903B030BD00230093EC
:1025A000ADF80430164B1B88ADF80230ADF804507E
:1025B0006368E2689B1A012B1DDDA368013253F8A2
:1025C00022301B88ADF800301FF009FE6946032059
:1025D0001FF009FE0446032001F0DCFA0028DBD0DE
:1025E0001BF02AF81BF029F822460649064B18680A
:1025F0001EF037FCD0E740F2FF13ADF80030E3E700
:1026000002510020E87202085427002030B583B040
:1026100004468368C26853F822301D882846FFF7B5
:102620008FFF08B903B030BD00230093ADF804302C
:10263000154B1B88ADF80230ADF804506368E268B2
:102640009B1A012B1BDDA368013253F822301B8833
:10265000ADF80030694604201FF0C5FD0446032094
:1026600001F098FA0028DDD01AF0E6FF1AF0E5FF35
:1026700022460649064B18681EF0F3FBD2E740F2EB
:10268000FF13ADF80030E5E702510020087302089F
:102690005427002030B583B004468368C26853F8DD
:1026A00022301D882846FFF74BFF08B903B030BD24
:1026B00000230093ADF80430154B1B88ADF80230B1
:1026C000ADF804506368E2689B1A012B1BDDA36818
:1026D000013253F822301B88ADF8003069460220E1
:1026E0001FF081FD0446032001F054FA0028DDD0DC
:1026F0001AF0A2FF1AF0A1FF22460649064B1868FD
:102700001EF0AFFBD2E740F2FF13ADF80030E5E773
:10271000025100201C7302085427002030B583B0FA
:102720008368C26853F822301C7800230193436801
:102730009B1A012B19DD01AA01211DF05FFE014644
:102740009DF804001FF047FD054680B1022001F00E
:1027500021FA60B11AF070FF1AF06FFF2A4606499D
:10276000064B18681EF07DFB01E01FF038FD204687
:102770001FF03DFD03B030BD387302085427002020
:1027800010B503468168C26851F82200B0F9000014
:102790001A4C20805B689B1A012B0FDD013251F827
:1027A000223093F90010003918BF01211FF0C4FC3A
:1027B000A0B9032001F0EEF910B910BD0021F5E732
:1027C0001AF03AFF1AF039FF0D4B1C681FF0B8FCE5
:1027D00002460C4920461EF044FBEEE7012001F0C2
:1027E000D9F90028E9D01AF027FF1AF026FF064988
:1027F000034B18681EF035FBDFE700BF02510020D5
:10280000542700209C730208B073020808B51FF01B
:1028100087FC032001F0BEF900B908BD1AF00CFFD7
:102820001AF00BFF0249034B18681EF01AFBF4E77D
:10283000C87302085427002008B58368C26853F89B
:1028400022301A88094B1A80032001F0A3F900B93D
:1028500008BD1AF0F1FE1AF0F0FE044B1A88044984
:10286000044B18681EF0FDFAF2E700BF90560020F6
:10287000E87302085427002008B5024B18680EF0D0
:10288000FFFC08BD042300202DE9F04186B01FF0B5
:1028900063FC0446894B1B7813F0020F2CD0884E42
:1028A00013F0010F2AD0864F13F0040F28D0DFF861
:1028B0001082032001F06EF928BB032001F06AF9B1
:1028C00058BB032001F066F9002835D1032001F040
:1028D00061F900283ED1032001F05CF9002847D1BE
:1028E000032001F057F900285ED1032001F052F9CE
:1028F000002867D1002471E0724ED1E7714FD3E711
:10290000DFF8C081D5E71AF097FE1AF096FE6E49FF
:102910006E4B18681EF0A5FACFE71AF08DFE1AF07C
:102920008CFE6A4B1D6805F057FA02460B46684953
:1029300028461EF096FAC4E71AF07EFE1AF07DFED5
:10294000624B1D681FF0E0FB0246624928461EF0FC
:1029500088FABBE71AF070FE1AF06FFE5B4B1D6839
:102960001FF006FC02465C4928461EF07AFAB2E7E0
:102970001AF062FE1AF061FEE279A379617920799A
:10298000E57894F802C094F801E024780594CDF835
:1029900010E0CDF80CC00295019000914F494B48D2
:1029A00000681EF05EFA9BE71AF046FE1AF045FE3C
:1029B000464B1C681FF0D4FB0246494920461EF0D6
:1029C00050FA92E71AF038FE1AF037FE45493F4BAD
:1029D00018681EF046FA8DE70134E4B2072C12D8CD
:1029E000032001F0D7F80028F6D01AF025FE1AF0DF
:1029F00024FE364B1D681FF0AFFB025D3A492846A6
:102A00001EF02FFAE8E7032001F0C4F898B903207C
:102A100001F0C0F8C8B9032001F0BCF818BB0320CE
:102A200001F0B8F868BB032001F0B4F8002836D1F3
:102A300006B0BDE8F0811AF0FFFD1AF0FEFD2B494B
:102A4000224B18681EF00DFAE1E71AF0F5FD1AF0B6
:102A5000F4FD1E4B1C681FF087FB024624492046EC
:102A60001EF0FFF9D7E71AF0E7FD1AF0E6FD174B65
:102A70001C681FF05DFB02461E4920461EF0F1F95E
:102A8000CDE71AF0D9FD1AF0D8FD104B1C681FF0E5
:102A900057FB0246184920461EF0E3F9C3E71AF037
:102AA000CBFD1AF0CAFDCDF800803B4632461349F3
:102AB000064800681EF0D5F9BAE700BF06570020A7
:102AC0005073020858730208047402085427002047
:102AD0000C74020828740208447402086074020826
:102AE00084740208A0740208B47402084C720208CC
:102AF000BC740208D8740208F07402080875020851
:102B000030B583B08368C26853F822301C7801A9BD
:102B100020461FF009FB88B9032001F03BF808B9F3
:102B200003B030BD1AF088FD1AF087FD019B2246E4
:102B30000B490C4800681EF094F9F1E705460120A6
:102B400001F028F80028EBD01AF076FD1AF075FD98
:102B50002A460549034B18681EF083F9E0E700BFD9
:102B600040750208542700205C75020870B5826821
:102B7000C36852F823100C88013352F823301D78B3
:102B8000294620461FF023FB80B9032001F002F8FC
:102B900000B970BD1AF050FD1AF04FFD2B462246C9
:102BA0000B490C4800681EF05CF9F2E7064601206C
:102BB00000F0F0FF0028ECD01AF03EFD1AF03DFDC9
:102BC00032460549034B18681EF04BF9E1E700BF98
:102BD0008075020854270020B075020870B582B0D5
:102BE0008368C26853F822301B78134A137013F0BD
:102BF000020F0ED0114C13F0010F0CD00F4D13F03B
:102C0000040F0AD00D4E032000F0C4FF38B902B003
:102C100070BD0B4CEFE70A4DF1E7094EF3E71AF0F0
:102C20000BFD1AF00AFD00962B4622460549064880
:102C300000681EF016F9EAE70657002050730208F4
:102C400058730208647302085427002030B58FB00F
:102C500004460D4668461AF0B4FB0DF1200EEC4612
:102C6000BCE80F00AEE80F009CE803008EE803000C
:102C700008A9464B186820F0B8F810F1880F46D123
:102C800068461AF09EFB0DF1200EEC46BCE80F00E2
:102C9000AEE80F009CE803008EE803004FF41053E9
:102CA000ADF820308023ADF822304FF44073079305
:102CB00007A81AF096FB079B0A93354B0B93334BEF
:102CC0001A68099B0D9213F0FF0F04D123F0FF0344
:102CD00043F001030993012309932C4B2A46214613
:102CE00008A820F09FF8044610BB032000F052FF14
:102CF00090B9264B18681FF00FFA0546002831D10D
:102D0000032000F047FF044610BB01242FE01F4BB7
:102D1000186820F041F8B3E71AF08EFC1AF08DFC29
:102D20001A4B1A681B491C4B18681EF09AF8E0E70A
:102D3000032000F02FFF0028DBD01AF07DFC1AF0F2
:102D40007CFC22461549144B18681EF08AF8D0E71F
:102D50001AF072FC1AF071FC11490F4B18681EF042
:102D600080F804E0032000F015FF044610B9204667
:102D70000FB030BD1AF060FC1AF05FFC2A4609491A
:102D8000054B18681EF06DF80024F0E7D8220020EB
:102D900000014405E075020854270020107602085F
:102DA000347602085476020800B583B00021019100
:102DB00001AA1DF023FB019910290ED0032000F079
:102DC000E9FE60B11AF038FC1AF037FC1022054910
:102DD000054B18681EF045F801E0FFF737FF03B018
:102DE0005DF804FB747602085427002010B588B003
:102DF00020F017F9032000F0CDFEF8B901244A4B6A
:102E00001C6002A81AF004FB02A920461FF0EDFF87
:102E100010F1880F1CD0032000F0BCFE00286ED1FA
:102E2000414B18681FF078F91FF0CDF904460320D4
:102E300000F0B0FE00286CD108B010BD1AF0FCFB09
:102E40001AF0FBFB39493A4B18681EF00AF8D5E72F
:102E5000032000F09FFE002837D1334B1A68039BF4
:102E6000079213F0FF0F04D123F0FF0343F0010397
:102E70000393304B05934FF44073019301A81AF06C
:102E8000D7FA019B04934FF41053ADF80830802318
:102E9000ADF80A3001230393234B1022264902A8E0
:102EA0001FF0C0FF0446D0B9032000F073FE0028D5
:102EB000B6D01AF0C1FB1AF0C0FB1B4B1A681F49B1
:102EC0001B4B18681DF0CDFFAAE71AF0B5FB1AF0EE
:102ED000B4FB1B49164B18681DF0C3FFBDE7032068
:102EE00000F058FE00289BD01AF0A6FB1AF0A5FBB4
:102EF000224614490E4B18681DF0B3FF90E71AF0F4
:102F00009BFB1AF09AFB1049094B18681DF0A9FFAA
:102F100086E71AF091FB1AF090FB22460B49044B0E
:102F200018681DF09EFF87E7D82200209C760208D3
:102F300054270020000144054C540020E07502088D
:102F4000A876020810760208D0760208FC760208FD
:102F500038B5012009F0B4FB134D29460120FFF7D5
:102F60009FFA124C21460020FFF79AFA10490220DE
:102F7000FFF796FA691C0320FFF792FA00F07EFC37
:102F800020781AF018FA00F0EFFB0A4B01221A70B1
:102F9000094B1B6800221A704FF4FA61074B18683E
:102FA0000EF079F938BD00BFE7220020CA51002099
:102FB00004510020CB510020FC22002000230020DF
:102FC00010B5204B1B781E2B28D01F2B34D11D4C45
:102FD0006378214601F80C3F01220320FFF74EFAE7
:102FE000237B012B0ED0032B12D02BB1C822022140
:102FF0000020FFF7EDF91FE0C82201210020FFF7B4
:10300000E7F919E0C82202210020FFF7E1F913E0F7
:10301000C82201210020FFF7DBF90DE0094C63789D
:1030200004F80C3FC82201210020FFF7D1F901224A
:1030300021460320FFF722FA034B1B6800221A7077
:1030400010BD00BFDC220020F822002010B50B4983
:103050000B4809F03BFA0B490B4809F037FA0B4CC7
:103060000B49204609F032FA0A490B4809F02EFABA
:10307000322120680EF00FF910BD00BF2D3200087C
:1030800004230020C931000800230020FC22002076
:10309000512F0008C12F0008F822002038B5002069
:1030A000FFF734FA0120FFF731FA094D9620287016
:1030B0001AF081F90024074901F80B4F012210464C
:1030C000FFF7DCF9012229462046FFF7D7F938BD82
:1030D000CA510020DC22002008B502280DD01D4B6B
:1030E00010229A720130C0B2587302282CD10121EB
:1030F000194B18680EF0CFF808BD022917D8154BE8
:10310000DB7A73B9154B01221A7015481AF09BFD32
:103110001AF04BF941F27071124B18680EF0BBF8BF
:10312000EAE7C82202210020FFF752F9F2E703295B
:10313000D5D81AF03AF9FFF7B1FF4FF4FA61094B0D
:1031400018680EF0A8F8D7E732220A210020FFF70E
:103150003FF9CCE7DC22002004230020C8510020E6
:10316000FC8502080023002008B51AF00BF982B292
:1031700022B1124B1B883BB9104B1A8002220F4917
:103180001046FFF77BF908BD82B207EE902AF8EEF1
:10319000E77A9FED0B7A67EE877A07EE103AB8EE82
:1031A000C77ADFED086A27EE267A77EE877AFCEE9B
:1031B000E77A024B17EE902A1A80DFE704510020CD
:1031C000CDCCCC3D6666663F08B5144B5B6FC3F350
:1031D0004003134A12789AB1114A0021117043B981
:1031E000FFF7C2FF08F0B6FA0E4B1B6800221A70F8
:1031F00008BD4FF4FA610B4B18680EF04CF8F7E776
:10320000074B01221A70FFF7AFFF07481AF0F4F9D5
:103210000A21044B18680EF03EF8E9E700C003509D
:10322000CC51002000230020FC85020800B583B0AB
:103230001E4BDB7A9BB1022B26D01D481AF007F9F2
:10324000FFF792FF1B4B1B6800221A704FF4FA61C4
:10325000194B18680EF01FF803B05DF804FB9DF8D9
:1032600004306FF304038DF804309DF804306FF3DD
:1032700046138DF804300E4B0F221A7002225A7238
:103280009DF804205A70D8E7084B9B7A102BD4D1B4
:10329000074B10221A7004225A72044A527B5A7049
:1032A000064A12889A70120ADA70C6E7DC220020F9
:1032B000EC220020042300200023002004510020E1
:1032C000014B1878704700BFCD51002008B58B68BE
:1032D0001B780F2B00D008BD074BDB7A002BFAD1EF
:1032E0000028F8D10449022301F80B3F01221046BF
:1032F000FFF7C4F8EFE700BFDC22002008B59038E4
:1033000006285AD8DFE800F0041F355959434E000B
:103310000123334A1370334A1370334B1B7863B95C
:10332000324BDB7A43BB304B1B782BB3304B1988C5
:10333000304B18680DF0AFFF1EE0C82202210020BC
:10334000FFF746F8ECE7264B00221A70264B1B7855
:1033500093B1294B1B7833B11046FFF771F8264B18
:1033600000221A7008E0642205210020FFF730F8DF
:1033700002E01D4B1B781BB91B4B1B7843BB08BDE0
:103380004FF47A7202210020FFF722F8F4E7164B7F
:103390001B78002BF0D04FF47A7202210020FFF747
:1033A00017F8E9E7104B1B78002BE5D04FF47A7241
:1033B00002210020FFF70CF8DEE70B4B1B78002BF7
:1033C000DAD04FF47A7202210020FFF701F8D3E738
:1033D00041F27071094B18680DF05DFFCFE700BF37
:1033E000C9510020CD510020CB510020DC2200200B
:1033F0009056002004230020C85100200023002004
:1034000010B580B10446012000F0C4FB00B910BD26
:103410001AF012F91AF011F922460A490A4B1868F3
:103420001DF01FFDF3E7032000F0B4FB0028EED0F1
:103430001AF002F91AF001F90449034B18681DF05B
:1034400010FDE4E714770208542700203C770208B7
:10345000F0B583B004460D4616461F46032000F023
:1034600099FB08B903B0F0BD1AF0E6F81AF0E5F8D8
:10347000019700962B4622460249034800681DF03A
:10348000F0FCEFE7547702085427002008B5024B00
:103490001B6803B1984708BD3823002008B5024BCC
:1034A0005B6803B1984708BD3823002008B5024B7C
:1034B0009B6803B1984708BD3823002008B5024B2C
:1034C000DB6803B1984708BD3823002008B5024BDC
:1034D0001B6903B1984708BD3823002008B5024B8B
:1034E0005B6903B1984708BD3823002000B585B05B
:1034F000094B1868094B1860094B0A4A13600A4ABD
:1035000001920A4A12680292039301A91CF098FFE3
:1035100005B05DF804FB00BF78540020983100200E
:103520006C540020943100205C8502080C26002099
:1035300008B5024B18681CF097FF08BD78540020AE
:1035400038B507F07BFA0446064D2B68D3F8B00275
:1035500007F068FA28681CF0A1FF204607F062FA1D
:1035600038BD00BF7854002008B5034823F086FB1F
:10357000024801F00FF908BD808902087C54002040
:103580000023062073B1704754B224B9013353B1FC
:103590005DF8044B70470228F8D008680A490860B3
:1035A0001046F3E710B4094A52F823100A7A022AA7
:1035B000EAD9032AEAD1441EE4B2012CE6D908680C
:1035C000014908601046E1E70C26002090540020D5
:1035D00010B5A2B00DF1680C284C0FCCACE80F0070
:1035E00094E80F008CE80F000021159116911791B7
:1035F000189119914FF480131593214B1993109141
:1036000011911291139114911E4B10931E4B149310
:103610003C2201A821F01BFD01AC0DF1540CBCE8CB
:103620000F000FC4DCF80030236006AC0DF1400C35
:10363000BCE80F000FC4DCF800302360134B0B9381
:1036400020230C9301238DF834308DF83530104B46
:103650000F93104B1AAA01A90F4807F09BFA0446D2
:103660009DF837303BB100214FF4E1301AF063F997
:10367000204622B010BD0321F6E700BF7C8502087A
:103680003C00015B010010004400015B102600209B
:10369000A454002030260020EC26002008B531B9C3
:1036A000084B1868036823B107F08AFE01E001297E
:1036B00000D908BD034B18680368002BF9D01DF032
:1036C000B2FEF6E7B854002008B50349034807F0F6
:1036D000EBFFFFF77DFF08BDBC540020142700203E
:1036E00008B502481DF003FC08BD00BFEC26002011
:1036F00008B502481DF0FBFB08BD00BFEC2600200A
:1037000008B5024B5A6A1868904708BDEC2600209D
:1037100008B506481AF093F905481AF090F90548DB
:103720001AF08DF904481AF08AF908BDE4850208F8
:10373000CC850208B48502089C85020808B50248B9
:103740001AF07CFA08BD00BFFC85020808B5044ADF
:1037500019F09FFE034B18680DF092FD08BD00BFE5
:10376000DC220020F822002070B590B001212A2030
:1037700003F02CF800250D950E950F951B4E2A464B
:103780001B49304603F0CAFF8DF839000DF10C0CCF
:10379000184C0FCCACE80F000FCCACE80F0094E84D
:1037A00003008CE803004FF496630693019502959D
:1037B00003238DF806308DF8065001238DF8003074
:1037C0008DF801508DF802508DF8035010238DF8BC
:1037D000013003AA0DA9304603F0E0FF6A4601A9B3
:1037E00030461CF0BFF810B070BD00BF004000595B
:1037F00040420F001486020800B583B00B4605490D
:10380000097801910092002201211EF0C9FC03B049
:103810005DF804FB0657002070B50446067905687C
:10382000322022F0B1FD854205D2134B03EBC603D3
:1038300000221A7170BD25684FF47A7022F0A4FD41
:10384000854205D20C4B03EBC60301221A71F1E746
:10385000246840F6B83022F097FD844205D2064B2A
:1038600003EBC60302221A71E4E7034B03EBC60322
:1038700003221A71DEE700BF3427002038B5114B50
:10388000186819F0A0FF054690B1284638BD0134EC
:10389000E4B2032C0ED80C4B53F824001AF0D6F8DF
:1038A0000128F4D123F064FB084B43F83400EEE721
:1038B0000024EEE7064B00221A70024B186819F03C
:1038C00092FFE2E730270020C45400203427002074
:1038D0000757002000B9704730B583B00446104D3B
:1038E000104928681DF0BDFA19F0A6FE19F0A5FED2
:1038F0000D4B00934FF48D730C4A0D4928681DF051
:10390000B0FA23460B4A0C4928681DF0AAFA204653
:1039100000F088F9094928681DF0A3FA00BEFDE708
:10392000542700204C720208EC8602083C860208EC
:10393000AC860208B8860208C0860208D88602084B
:1039400000B589B0002307E00022264941F8232072
:103950002549CA540133DBB2032BF5D9002309E012
:10396000224A02EBC30104200871002142F83310FF
:103970000133DBB2032BF3D90023019302930393AA
:1039800004930593069307939DF8043043F00103D5
:103990008DF80430DBB243F008038DF80430DBB25D
:1039A00043F020038DF80430114B0293114B039325
:1039B00002238DF810304FF4806305930523ADF892
:1039C00018300423ADF81A30082307930A4901A8D8
:1039D00000F046F910B909B05DF804FBFFF77AFF73
:1039E000F9E700BF202700201C27002034270020F3
:1039F000FD39000809D601083027002010B584B031
:103A000001AA02A9124B186819F02FFFE8B902A801
:103A1000FFF702FF002401E00134E4B2032C0ED8CA
:103A20000C4B03EBC40319790429F5D02046FFF7AA
:103A300053FB084B03EBC40304221A71ECE7044B5D
:103A4000186819F0D0FE04B010BDFFF743FFFAE785
:103A500030270020342700201D4B1B78002B35D148
:103A600070B582B00024032C2ED81A4B53F82430A2
:103A7000834202D00134E4B2F5E719F0E7FF0128F0
:103A80001DD023F075FA144B53F83460861B009652
:103A90008DF80440282022F077FC864205D80E4B92
:103AA00003EBC4031B79052B0ED1082269460B4B8F
:103AB000186819F0A8FE38B1FFF70CFF04E023F0F6
:103AC00057FA054B43F8340002B070BD704700BF91
:103AD00007570020C454002034270020302700203E
:103AE00010B58368C26853F822301C78032C00D9C3
:103AF0000324064B1B5D03B110BD23F039FA044BC0
:103B000043F82400014B01221A55F5E71C27002039
:103B10002027002038B58368C26853F822301C780B
:103B2000032C00D90324194B1B5D012B00D038BD99
:103B300023F01EFA164B53F82450451B134B00225A
:103B40001A55322022F020FCA84204D90021204638
:103B5000FFF7C2FAEBE74FF47A7022F015FCA842A7
:103B600004D901212046FFF7B7FAE0E740F6B83064
:103B700022F00AFCA84204D902212046FFF7ACFA41
:103B8000D5E703212046FFF7A7FAD0E71C2700203E
:103B90002027002003460B4A107828B10A4A1278E1
:103BA0009A4202D2002000E00120084A12783AB17D
:103BB000074A127842FA03F313F0010F00D10020F4
:103BC000704700BF0A57002009570020CF5100203E
:103BD0000857002008B5084B01221A70074B002235
:103BE0001A70074B04221A70064B1F221A7006F037
:103BF00025FF054B186008BD0A570020CF51002053
:103C000009570020085700205427002008B5034911
:103C1000034B18681DF025F908BD00BF0487020892
:103C20005427002070B506460A4C0B4920681DF049
:103C300018F906F003FF0546206806F0F3FE30464B
:103C4000FFF7E4FF284606F0EDFE044920681DF06A
:103C500008F970BD54270020088702080C87020865
:103C6000F8B500284FD00D46044600294DD0037802
:103C700013F0030F36D04268002A48D013F0080F23
:103C800002D0A28A002A44D013F0200F05D0E38A84
:103C9000002B40D0A369002B3FD02C201DF01DFD30
:103CA000064600283BD02C22002121F0D0F92168C3
:103CB0006268A368E0687160B260F3603061216996
:103CC0006269A3697161B261F361237813F0040F33
:103CD0000ED000272E60636843B13146114819F0B9
:103CE0004EFE03E04268002AC8D021273846F8BDBE
:103CF0000121304619F033FD07460028EAD030464E
:103D00001DF0CAFDF2E72227F0E72227EEE7212780
:103D1000ECE72127EAE72127E8E72127E6E719274B
:103D2000E4E700BF5827002008B5034819F020FE3B
:103D300019F0D2FB08BD00BF5827002010B50B4B6F
:103D40001C6802E022F0C0FE246864B122F0C1FECB
:103D500094F82030002BF5D0A36A002BF2D022F08B
:103D6000B3FE002000E0012010BD00BF5827002056
:103D700010B50B4B1C6802E022F0A6FE246864B16B
:103D800022F0A7FE94F82030002BF5D0A36A002B78
:103D9000F2D022F099FE042000E0012010BD00BF07
:103DA0005827002010B50C4B1C6802E022F08CFE56
:103DB00024687CB122F08DFE94F82030002BF5D0E1
:103DC000A36A002BF2D0013BA36222F07DFEA36820
:103DD0009847EDE710BD00BF5827002008B50548FB
:103DE00022F04CFF19F099FB012019F073FD00F04F
:103DF00085F808BD8089020808B5024822F03EFF18
:103E000008BD00BF808902082DE9F04180460F46B9
:103E100001F109050026344604E05B21082000F08A
:103E200081FA0134AC4233D2052C1BD801A353F8DC
:103E300024F000BF1B3E00084D3E0008813E0008F4
:103E4000553E0008593E00085D3E0008FBB20433B1
:103E5000D9B2E3E78021E1E70021DFE7731C3146B7
:103E6000DEB2DBE7BB1DA3420CD0FB1DA3420BD08F
:103E700007F10803A34209D0A31F18F80310CDE7E8
:103E8000D121CBE75A21C9E75A21C7E75D21C5E710
:103E90000020BDE8F08100BF00B583B00022009291
:103EA000019202218DF80010054819F02EFD0190B5
:103EB00008216846FFF7A8FF03B05DF804FB00BFC8
:103EC000006A180000B583B0044B1B88ADF80430BD
:103ED00001A800F003FB03B05DF804FB10870208A3
:103EE00000B583B0044B1B88ADF8043001A800F086
:103EF000C5FA03B05DF804FB10870208F0B58DB079
:103F0000444C0DF1140C04F1040EBEE80F00ACE8B3
:103F10000F009EE807008CE80700238CADF81030F6
:103F2000A38CADF80C30238DADF808302388ADF8A4
:103F30000430394822F0A2FE384F384622F09EFE67
:103F400001258DF82250364B0793364E05A9304691
:103F50001BF0CCFD2A46042104A800F053FA0022ED
:103F6000294603A800F04EFA2A46042102A800F0D0
:103F700049FA2A4604210DEB010000F043FA2A4CCD
:103F80002A4BC4F8AC374FF00213C4F8A837A3F596
:103F90008033C4F8B0371C23C4F898374FF4487006
:103FA00008F032FAFFF78EFF142008F02DFAFFF721
:103FB00097FF232008F028FAFFF784FFB921304645
:103FC0001BF0E2FDFFF78CFF0022114604A800F071
:103FD00019FA0022114603A800F014FA2A4600211B
:103FE00002A800F00FFA2A46002101A800F00AFA00
:103FF000304603F011FF0023C4F89837C4F8AC37FB
:10400000C4F8A837C4F8B037384622F03CFE0DB0EB
:10401000F0BD00BF10870208808902086889020885
:1040200000127A0000C0055000C0035002000300D7
:1040300008B50448044A121A9210044919F08EFC7B
:1040400008BD00BF80010008800300084052002026
:1040500008B5154B83F30A8800F030F8FFF7E8FF46
:10406000124A0AE01068516850F8230041F8230012
:10407000013391688B42F5D30C320D4B9A4201D239
:104080000023F6E70B4A08E01168002041F82300FE
:10409000013351688B42F7D30832074B9A4201D261
:1040A0000023F6E7FEF70AF900000020C8CD020859
:1040B000D4CD0208D4CD0208D4CD020870B5134B7C
:1040C000134A9A60D3F8882042F47002C3F888201B
:1040D000104A4FF4804191660F4D05F500544FF0A2
:1040E000FF3222660D4A62660222C3F8D020BFF377
:1040F0004F8FBFF36F8F002006F06AFC4FF44036FD
:10410000E66000201CF058FE2E6170BD00ED00E05E
:104110000000000800900050008000447FFF7F01F5
:10412000014B1860704700BFFC54002008B5064BD7
:104130001860064B1B6F03F00703032B00D008BD6C
:1041400021F00CFAFBE700BF04550020008000506E
:10415000BFF34F8F0549CA6802F4E062044B134372
:10416000CB60BFF34F8F00BFFDE700BF00ED00E065
:104170000400FA05F0B18446F1B110B409E004F18D
:1041800020000FE02033C01A18D1BCB10CF1010C93
:1041900001319CF800400B4B1B5D03F00303012B26
:1041A000EDD020460B78074AD25C02F00302012AC8
:1041B000E9D1E7E701207047012070475DF8044B23
:1041C000704700BF8DCC020830B587B00546046843
:1041D00023798DF80C3063798DF80D301A4822F070
:1041E0004DFD0022012103A800F00CF90DF10B0197
:1041F00003A819F0ECFC9DF80B302370A379022B77
:1042000002D0002007B030BD4FF0FF330593049378
:1042100000950E4B012205A903A800F02FFA059B7B
:10422000B3F1FF3F07D00095084B022204A903A871
:1042300000F084F9E5E70095044B042204A903A8E3
:1042400000F07CF9DDE700BF808902085BDA010835
:1042500010B582B0002401942A4822F00FFD8DF899
:10426000004003238DF8013001220421684600F04C
:10427000C9F8254B0122C3F8442401A9052022F0E6
:10428000F6FC00283BD1214BD3F8F02042F001028C
:10429000C3F8F020D3F8FC2042F08072C3F8FC2071
:1042A000A3F55D431A4A1A60019B03F5D52303F277
:1042B000FC43DB08174AA2FB03239B0A013B164A77
:1042C00013610223C2F8F0304FF48073C2F8043354
:1042D0004FF06043114AC3F8B02F114AC3F8802E43
:1042E000D3F8002E42F48072C3F8002EFF2283F828
:1042F0002020D3F8002E22F48072C3F8002E02B0E2
:1043000010BD00BF8089020800D0035000ED00E01E
:10431000FF03004017916502000004E055CEACC5D4
:10432000090001004FF06043D3F8803E13F0010F05
:1043300001D1112070470E4AD2F8FC3043F080734F
:10434000C2F8FC304FF06043D3F8002E4FF0010C60
:104350000CFA00FC42EA0C02C3F8002E53F820309D
:10436000002BE8D04FF0604303F820100020704786
:1043700000ED00E010B504460FE00123834024EA7D
:1043800003040F2814D800EB40020E4B03EB82030A
:104390005A6812B19968C0B2904794B12346002080
:1043A0001F28EAD813F0010FE7D101305B08F7E7C7
:1043B000103800EB40039B00B033024A134404332F
:1043C000E6E710BD5C27002008B50D4822F056FC3A
:1043D0001A2006F0EDFA28B91B2006F0E9FA40B9D8
:1043E000002008BD1A2006F0F3FA1A201CF0E4FCA5
:1043F000F2E71B2006F0ECFA1B201CF0DDFCEFE7D7
:10440000808902082DE9F04170B30C461746054635
:104410000F292BD803784BB1022B20D0032B21D0AE
:10442000012B01D0002303E07F2301E040F2FF7362
:104430006A78D34013F0010F1AD00F4BD3F81063F2
:10444000C6B922F059FB80463A462146284603F079
:1044500009FD404622F04BFB3046BDE8F08140F2BA
:10446000FF33E5E73F23E3E72226F5E72126F3E7DD
:104470002126F1E70226EFE700C0035040B310B554
:10448000044603784BB1022B1DD0032B1ED0012B09
:1044900001D0002303E07F2301E040F2FF73627844
:1044A000D34013F0010F15D022F026FB2378627859
:1044B0000121914003EB43031B01074AD15022F035
:1044C00016FB002010BD40F2FF33E8E73F23E6E78C
:1044D000222070472120F5E740D0035040B310B5AB
:1044E000044603784BB1022B1DD0032B1ED0012BA9
:1044F00001D0002303E07F2301E040F2FF736278E4
:10450000D34013F0010F15D022F0F6FA2378627829
:104510000121914003EB43031B01074AD15022F0D4
:10452000E6FA002010BD40F2FF33E8E73F23E6E75C
:10453000222070472120F5E740E00350002866D094
:104540002DE9F0410C4615461F460646002960D06D
:1045500002784AB1022A3ED0032A3FD0012A01D074
:10456000002303E07F2301E040F2FF737178CB402A
:1045700013F0010F01D1FF2A4DD1022D01D9042DD5
:104580004BD122F0B9FA80463378FF2B28D123682B
:10459000B3F1FF3F2BD02268B2F1FF3F32D0204B66
:1045A00002EB420203EB82025760226802EB4202F6
:1045B00003EB8203069A9A603378FF2B05D02268BA
:1045C00001239340174AC2F82434404622F08FFA60
:1045D0000020BDE8F08140F2FF33C7E73F23C5E785
:1045E0002A462168304603F0A7FC2060CFE73378E5
:1045F000FF2BD0D10C4BD3F8241470781BF0DEFACB
:104600002060C8E7404622F072FA2D20E1E7222020
:1046100070472220DDE72120DBE72120D9E700BF1A
:104620005C27002000D0035000C00350B0F1FF3FD2
:104630001AD038B504460F2818DC002818DB22F001
:104640005BFA0123A3400B4AC2F82034C2F8243499
:10465000094B04EB440203EB820200255560956090
:1046600022F045FA284638BD212070472120FAE77C
:104670002120F8E700E003505C270020002856D0F6
:104680002DE9F0410C4617461E460546002950D03C
:10469000017849B1022939D003293AD0012901D042
:1046A000002303E07F2301E040F2FF736A78D340E8
:1046B00013F0010F01D1FF293DD122F01DFA8046F0
:1046C0002B78FF2B27D12268B2F1FF3F2AD01B4B5A
:1046D00002EB420203EB8202C2F8B860226802EBEE
:1046E000420203EB8203069AC3F8BC202B78FF2B0F
:1046F00006D02268103201239340114AC2F82434B4
:10470000404622F0F4F90020BDE8F08140F2FF338A
:10471000CCE73F23CAE73A462168284603F0ACFCC1
:104720002060D0E7404622F0E2F92D20ECE722207D
:1047300070472220E8E72120E6E700BF5C27002041
:1047400000D0035008B5084BD3F82404D3F8202434
:10475000104000F0553020F0502003F50053C3F80E
:104760002004FFF707FE08BD00C0035008B5084B42
:10477000D3F82404D3F82024104000F0AA3020F00D
:10478000A02003F50053C3F82004FFF7F3FD08BD94
:1047900000C0035070B586B005460368B3F1B64F4C
:1047A00027D0304A934222D04FF0FF36B3F1B64FB4
:1047B00021D02C4A934252D12B4822F05FFA2B7918
:1047C0008DF804306B798DF80530AB798DF80030B9
:1047D000EB798DF8013001220A2101A8FFF712FEC2
:1047E00001220A216846FFF70DFE002412E001268F
:1047F000DCE70026DAE71D48DFE701A8FFF76EFED9
:10480000642007F001FE01A8FFF738FE642007F0DE
:10481000FBFD0134092CF0DD154A02EB06110323E0
:10482000C1F8383568792B7943EA0043C1F83C3543
:10483000E979AB7943EA01435436360193510123B8
:104840008DF808308DF80930EB680493AB6803935A
:104850002B7C8DF8143002A9286802F003FF06B003
:1048600070BD00BF00800650788902087C8902086C
:1048700000C0035010B582B004460A4822F0FEF989
:1048800023788DF8043063788DF80530A278B2FA79
:1048900082F2520904210DEB0100FFF7B3FD002065
:1048A00002B010BD80890208F0B585B00C46944670
:1048B0009DF83410664A1278002A00F0BD80054643
:1048C000BCF1070F00F2BA800A9A002A00F0B88003
:1048D0000B9A002A00F0B6800E9AB2F5006F00F332
:1048E000B38001285BD05B4A02EB0C12127B002ADA
:1048F00000F0AC8000220092019202920392564A8C
:1049000002EB4C1E002C4FD14FEA4C160020905168
:10491000CEF80400CEF80800CEF80C009EF8020095
:1049200040F010008EF802009EF8030040F03000C6
:104930008EF8030021B9C1B241F003018EF80310D3
:1049400000930E9B013B444A4FEA4C1002EB4C1182
:10495000165A63F30E1616520A9B8B600B9B4B6024
:10496000CB789DF83C2062F38303CB70012D36D0C9
:10497000109B002B56D0374A4FEA0C1102EB0C1358
:1049800010985050119A5A6000249C605D737246D2
:104990006946604603F028F9204605B0F0BD0C9A40
:1049A000002AA0D12D48F8E72B4F4FEA4C1607EB11
:1049B0004C120020B85150609060D060907840F068
:1049C00010009070D07840F00300D0700029B7D16B
:1049D00007EB4C12C1B241F03001D170B0E70E4686
:1049E0000A7B42F001020A73D2B242F002020A7359
:1049F000CA68042161F39F02F26006F1100796E88D
:104A00000F0087E80F00F2696FF0030161F39F0266
:104A1000F2610C9B7361012CAAD10B9AB2610C9AC2
:104A20007260A5E7002DA6D10B4B03EB4C139A78CF
:104A30006FF304129A709EE70948AEE70748ACE7A7
:104A40000648AAE70548A8E70448A6E70548A4E7FA
:104A5000D0510020C4290020C4280020018000F08B
:104A6000028000F0078000F0134B1B78FBB110B5FB
:104A70000446F0B122F040F80023072B13D80F4A68
:104A800002EB0312127B0AB10133F6E723600B4AF3
:104A9000190102EB031301241C730024545022F06B
:104AA00026F8204602E022F022F8054810BD05480D
:104AB00070470548FAE700BFD0510020C429002004
:104AC000048000F0028000F0018000F038B522F090
:104AD00013F804460023072B06DC0C4A02EB0312F2
:104AE000127B12B90133F6E7002222B1204621F0F1
:104AF000FEFF074838BD03F023F80025054B1D7065
:104B0000204621F0F4FF2846F4E700BFC429002026
:104B1000058000F0D05100200F4B1B78BBB110B5C1
:104B20000446072815D821F0E7FF0C4B03EB0413CC
:104B30001B7B1BB921F0DBFF09480BE0074B03EBA4
:104B4000041300241C7321F0D2FF204602E0054824
:104B50007047054810BD00BFD0510020C429002077
:104B6000068000F0028000F0018000F000B583B004
:104B7000134B1B68019300238DF8043021F0BCFF18
:104B8000104B1B7833B90F4B01221A7021F0AFFF85
:104B9000002309E021F0ABFF0B480EE00B4A02EBCB
:104BA0000312002111730133072BF7DD08238DF861
:104BB000073001A802F0E8FF002003B05DF804FB15
:104BC0003C870208D0510020038000F0C429002057
:104BD00010B5104C2478BCB1072817DC0E4C04EB40
:104BE0000014247BA4B10C4C4FEA001E04EB001C03
:104BF00044F80E30029BCCF804300024CCF8084076
:104C000002F0F2FF204610BD0448FCE70448FAE732
:104C10000448F8E7D0510020C4290020028000F0A9
:104C2000018000F0078000F008B50A4B1B785BB1EB
:104C300007280BD8084B03EB00131B7B43B1002163
:104C400002F094FF002008BD0448FCE70448FAE79E
:104C50000448F8E7D0510020C4290020028000F069
:104C6000018000F0078000F008B50A4B1B785BB1AB
:104C700007280BD8084B03EB00131B7B43B1012122
:104C800002F074FF002008BD0448FCE70448FAE77E
:104C90000448F8E7D0510020C4290020028000F029
:104CA000018000F0078000F0F8B5194B1F6D5B6DB7
:104CB0001F4002D40125002402E0FEE701346D000C
:104CC000072C24D83D42F9D0124B1D652301124A0E
:104CD000D358002BF2D002EB0416B1680131B16059
:104CE00072682046984780F00100C0B2737B012BA8
:104CF000E4D10028E2D0094B03EB44131A7B6FF395
:104D000041021A731A7F6FF341021A77D6E7F8BD92
:104D10000000045000200450C4290020C4280020B2
:104D20002DE9F04F89B005460E4614469846C36BF0
:104D30005B69012207A960689847EB6B5B690122F8
:104D400006A93046984707A81AF0D2F948B10027BB
:104D5000A77567754FF0FF33A360384609B0BDE80B
:104D6000F08F074606A81AF0D3F90123A375237E16
:104D7000033304EBC3035E6000221A816368B3420D
:104D80002AD02368834201D00023A37506A81AF015
:104D9000E4F9237D984201D00023A37506A81AF0F8
:104DA000BBF9814607A81AF0B7F9814501D0002365
:104DB000A37506A81AF0B8F9814607A81AF0B4F945
:104DC000814501D00023A375237D043BDBB2022B78
:104DD0000BD80023A375C0E7206006A81AF0BDF920
:104DE00020754FF0FF33A360EEE706A81AF094F9A0
:104DF00080B1EB6B5B69022204A93046984704A896
:104E00001AF09DF90346207D032868D8DFE800F0FA
:104E1000615B070D06A81AF092F90346F3E7237EBB
:104E2000033304EBC303CC221A811AF0A6F9129BB8
:104E3000187094F8189006A81AF061F909F103099E
:104E400004EBC90989F80A00237E033304EBC3038A
:104E5000B3F808A093F80AB006A81AF05DF98146E5
:104E600006A81AF061F90390B9F1000F3DD0EB6B81
:104E70005B69022204A93046984704A81AF01BF97E
:104E80006075637D03B9A375A37DA3B1BAF1000F6B
:104E900011D0039BF1186B6C5B4286EA01021A4247
:104EA00001D00023A3756B6C5A1E0A409B1A9A45C9
:104EB00001D90023A375A37D002B40D0BBF1000FC7
:104EC00018D1E77D3CE0227E033204EBC20213815D
:104ED000ABE7227E033204EBC2021381A5E7227EF8
:104EE000033204EBC20213819FE706A81AF0CCF844
:104EF0006075C6E70122E275627EBAB9BBF1010FA7
:104F000008D095F83470DFB9EA6AB2F1FF3F05D0F6
:104F10001F4615E001216176174611E0BBF1030F32
:104F200001D01F460CE00122A27609E0BBF1010F7F
:104F300037D0BBF1030F03D10122A27600E01F4658
:104F400053B117B1BBF1010F06D95346039A31464D
:104F5000284619F010FAA060A37D13B123695344C9
:104F60002361237E114A127893421CD201332376A7
:104F7000B8F1000F13D0A37D8BB1E37D7BB177B97E
:104F8000BBF1030F0BD0A168B1F1FF3F07D0129B1B
:104F90000093012322462846FFF7C2FEA075A77D95
:104FA000DBE61746CCE70023A375E1E7608702083C
:104FB0002DE9F04F89B005460F4692469B460023E7
:104FC0008DF80B304FF0FF31104600F0EFFFB7F5D2
:104FD000801F1DD30023009317F1020F07D0009B01
:104FE000002B40F09E802B7C002B00F08C80EB6A25
:104FF000B3F1FF3F2CD02A689B1A6A6CB3FBF2F91D
:1050000017F1020818BF4FF00108002301935DE07B
:105010000DF10A02394605F1080000F017FF0146BC
:10502000B0F1FF3F11D0504600F0C0FF0DF10B036F
:1050300001225146284619F01DFA00900028CBD0D5
:105040009DF80B308BF80030C6E700230093C3E7D0
:10505000696A284619F0B0F88146D1E70123019327
:1050600037E09DF80B308BF80030324B1A6832492C
:10507000504620F013F800942F4B9968B1F1FF3F90
:105080001BD06B6C5B4281EA06021A4215D12A4C96
:10509000204600F08BFF0DF10B03424621462846C7
:1050A00019F0E8F904460028E6D017F1020FD8D02D
:1050B000214B1B68BB42DFD1D3E74946284619F094
:1050C0007BF88146019BCBB9009BBBB96B6A4B4512
:1050D000C4D02C686B6C03FB0944EB6B5B69052245
:1050E00003A92046984703A81AF0DEF81AF003F93E
:1050F00020461AF00CF906460146BFE7009BA3B113
:10510000B7F5801F03D3009B8BB100200AE09BF80A
:105110000030DAF80420394605F1080000F0B4FE4A
:10512000F1E7002009B0BDE8F08F2D20FAE72D202F
:10513000F8E700BF5C870208B830002070B582B085
:1051400004464FF0FF33C3620DF107031A4A6FF0B4
:105150000101FFF72DFF20BB174B9B68E362E56A57
:105160002946204618F019FE2063E8B1294620465A
:1051700019F0F1F80546A36AAB421BD02946204638
:1051800018F00BFE0646236B034423632946204692
:1051900019F0E1F80546002EEDD100232363E0620B
:1051A000E9E7A36AE362DAE7E16A204619F0D3F897
:1051B000E062DBE702B070BDE430002030B583B0C0
:1051C0001C46032A14BF002201221B7E9A4202D0F1
:1051D000012003B030BD0D46096823689942F7D31A
:1051E00063689942F4D80DF10703114AFFF7E0FE16
:1051F0000028EDD10E4B5A686B689A42E8D19DF8B1
:105200000730032B14BF00230123227E9342DFD1FA
:105210006369013363612369E2689342D8D2A2686B
:10522000296842F82310236901332361D0E700BFC6
:10523000E43000202DE9F04182B004460E4690464D
:105240001F46816A06E01A4B9968B1F1FF3F1FD0F3
:10525000012E23D0E06A884217D0B1F1FF3F14D06D
:10526000134D284600F0A2FE0DF107030122294646
:10527000204619F0FFF80028E5D03B469DF80720AE
:1052800029462046C0470028DDD102B0BDE8F081A4
:105290005968204619F05FF80146D9E7044B5A686F
:1052A000636C5B424A401A42D4D04FF0FF31D1E7E1
:1052B0008C30002010B50446083000F08DFD00232E
:1052C000024A19462046FFF7B5FF10BD63E4010806
:1052D00038B50446037C0BBB02461349083000F086
:1052E0001DFE616A204618F089FF421C616A204653
:1052F00018F0DAFE054620B9236B626C1344143BA8
:105300002363A16A204619F026F8A0622368C01A18
:10531000636CB0FBF3F06062284638BD0023034A9B
:105320000121FFF787FFDCE7FBE70108C9E7010878
:10533000F0B589B080B30F4616461D46044690F876
:1053400034301BB90025284609B0F0BD012118F002
:1053500080FE01950E9B029303970496002305930C
:1053600006939DF83C308DF81C30237C5BB901AA74
:105370000A4904F1080000F0D1FD5EB9069D2046FF
:1053800019F009F9DFE701AB054A00212046FFF7D4
:1053900051FFF2E7059DF2E70025D4E717E0010889
:1053A000BD510008F0B58BB004460D46406AE36B72
:1053B0005B69052205A92668676C07FB00609847B2
:1053C00005A819F071FF012836D00094002301933D
:1053D0008DF80850039301238DF81030A16AE36A19
:1053E00099420FD0237CBBB96A46144904F10800E6
:1053F00000F094FD019B13B99DF810309BB9019802
:105400000BB0F0BD204618F0A6FFE062236B626C83
:105410009B1A14332363EDE76B46094A01212046AA
:10542000FFF708FFE6E7626A2368616C01FB02315F
:10543000E06B19F0EBFEE2E70020E1E749560008D7
:10544000C95500082DE9F04F89B004468A469146B7
:105450001D46002307930969026BCB1D406C14386D
:10546000B3FBF0F3013301EBC301914200F2A780DB
:105470004E4677E03D2840F092800490BB4605966A
:105480001EE04FF000092368616C01FB0631E06B00
:1054900019F0A8FE204618F0E6FD204618F082FF1D
:1054A0002063B9F1000F76D0DAF81020D31D616CBB
:1054B0001439B3FBF1F3013302EBC30290423AD348
:1054C0002368ABEB0309606CB9FBF0F909FB003012
:1054D00019F01DFF8046E16A204618F03CFFA36AE0
:1054E00083422CD0E062374B9A68616C4B1E1340AC
:1054F000226B5B1A13442363ABEB08072368079EF8
:10550000F61AB6FBF1F6B145BBD197B1E36B9B69D7
:10551000BA08414698478146E36A3B44E362236BFD
:10552000A8EB0B084344236304F1080000F054FC8B
:10553000A9E7B946A7E7DDF810B0059E02E0DDF85F
:1055400010B0059EBBF1000F29D0DAF81000226BD5
:10555000C31D616C1439B3FBF1F3013300EBC300DD
:1055600082421CD3E76ADFF85C803946404600F08F
:105570001DFD07AB0293019500963B4642465146FE
:10558000204619F033FA834600287FF473AFD8F829
:105590000830E362D6E7DDF810B0059ED2E75F463B
:1055A0001FB1384609B0BDE8F08F2B46054A526856
:1055B000DAF8001004F1080000F066FCF1E71C279F
:1055C000EFE700BFB8300020F0B583B01C46032AD7
:1055D00005D1237A012B33D0012003B0F0BD06465C
:1055E0000F4615460DF10703164A0968FFF7E0FC60
:1055F00060600028EDD19DF80730032BE9D0114BF6
:105600005A687B689A42E4D1237A012B08D13B691E
:10561000E26813447269934202D900232374D8E7E5
:10562000E3683A6913440833E3602B4601223946A4
:105630003046FFF707FF60600028CAD00020CCE7A3
:10564000207CCAE7E4300020F0B583B0089C2668CF
:10565000032A05D1237A012B4DD0012003B0F0BDE0
:1056600015460DF10703254A3046FFF7A1FC60609F
:105670000028EFD12168214B5A688B6A486CC0F131
:10568000000C5A4012EA0C0FE4D1227A012A19D0F8
:105690000F68DB1BB3FBF0F3CA6AD21BB2FBF0F25C
:1056A0009A4219D0E36815490A6913440833E36044
:1056B0002B4601222068FFF7C5FE60600028C9D094
:1056C0000020CBE70D4A1269E7683A447769BA428D
:1056D000DED900232374BDE7726CF16A531E0B40C0
:1056E000316B9B1A0B4433632668B16A304618F05D
:1056F00032FEF062D6E7207CB0E700BFE430002045
:10570000F8B56E4B1E6800221A60002800F0B680C3
:105710000D46044690F8343013B30A6803689A4281
:1057200040F0AE804A6843689A4240F0AC808A6894
:1057300083689A4240F0A980CA68C3689A4240F0E0
:10574000A6800A6943699A4240F0A3808A69C36BC4
:105750009A4201D05D2594E04B698361002590E079
:10576000876B682200211FF072FCA7632B682360FF
:105770006B6863602B6963616B69A361EA68A96800
:1057800004F1080000F03AFBAB69E3639B6804F1A5
:105790004000984730B9636C23B16268B2FBF3F202
:1057A000E26101E00023E36194F84330002B72D002
:1057B00000232366656C002D6FD0E369002B6ED04B
:1057C0002368B3FBF5F205FB1233002B69D1676840
:1057D000B7FBF5F305FB1373002B64D1204618F0DB
:1057E000CCFAA369034404339F425ED36369B3F5E3
:1057F000805F5CD8CB2B5CD9B5F5805F5BD3032190
:10580000204618F026FCE36B1B6861682068984707
:105810000546E36BDB6802209847EDB1636C143BEF
:105820005DB9266A03FB06F6204618F0A6FAA369BE
:10583000034404339E4200D25A25B5FA85F35B092E
:1058400084F834301BB11E4A13680133136085B1EC
:10585000204618F0A0FE14E03146204618F01EFE47
:1058600005466428DAD13146204618F017FE054671
:10587000D4E76168206819F0AAFBE9E7212500E078
:105880005D252846F8BD5D25FBE75D25F9E75D252B
:10589000F7E75D25F5E72125F3E75B25F1E75B25D4
:1058A000EFE75925EDE75925EBE75A25E9E75F25AD
:1058B000E7E75F25E5E75B25E3E700BF482A00202F
:1058C000442A0020F0B585B0A8B30C4617461E4602
:1058D000054690F8343083B3B1F5801F2FD20121F3
:1058E00018F0B7FB0DF10F03164A21462846FFF7C3
:1058F0005FFB044630B99DF80F30012B08D0022B16
:1059000017D02D24284618F046FE204605B0F0BDDD
:105910000C4B1B69B34201D06324F3E700220192D0
:10592000084B009333463946284618F03CFE04469F
:10593000E8E76024E6E72124E7E71124E5E72924E6
:10594000E3E700BF10310020F0B585B0002838D063
:105950000C4617461E46054690F834309BB3B1F509
:10596000801F32D2012118F074FB0DF10F03184A89
:1059700021462846FFF71CFB044630B99DF80F303E
:10598000012B08D0022B1AD02D24284618F003FE34
:10599000204605B0F0BD0E4B1A690A9BF3189A42D7
:1059A00001D26324F1E700230193094B00930A9B82
:1059B00032463946284618F0F6FD0446E5E76024ED
:1059C000E3E72124E4E71124E2E72924E0E700BF2C
:1059D0001031002070B582B058B30C46164605460B
:1059E00090F834303BB3B1F5801F26D2012118F076
:1059F00030FB0DF10703124A21462846FFF7D8FA7B
:105A0000044668B99DF80730032B10D0022B01D053
:105A1000612406E00A49284618F0ACFF306000E037
:105A20002D24284618F0B7FD204602B070BD2D2465
:105A3000F7E72124F8E71124F6E72924F4E700BF6B
:105A400010310020F0B583B01C460023236070B3F2
:105A50000E461746054690F8343053B3B1F5801F13
:105A600029D2012118F0F5FA0DF10703134A314646
:105A70002846FFF79DFA064680B99DF80730032BAC
:105A800013D0022B05D000233B600C4B1B69236015
:105A900005E001233B600423236000E02D26284617
:105AA00018F079FD304603B0F0BD2D26F7E721262A
:105AB000F8E71126F6E72926F4E700BF10310020A9
:105AC00000B583B0044B009300231A46194619F021
:105AD00082F903B05DF804FBFFFF0F0000B583B04F
:105AE000044B009300231A46194619F07EF903B0BF
