:020000040800F2
:1000000000200020253F000865D7010865D70108BA
:100010000B1C020865D7010865D7010865D70108E0
:1000200065D7010865D7010865D7010865D70108BC
:1000300065D7010865D7010865D7010865D70108AC
:1000400065D7010865D7010865D7010865D701089C
:100050005D5F000865D7010865D7010865D701080D
:1000600065D7010865D7010865D70108E1350008A3
:10007000D135000865D7010865D7010865D70108A3
:1000800065D7010865D7010865D7010865D701085C
:1000900065D7010865D701087D4B000865D70108C1
:1000A00065D7010865D701084146000819460008D0
:1000B00065D7010865D70108FDA90108A9B40108A1
:1000C0002B4D0208274D02085DAC0108414D020886
:1000D0002F4D020879B40108334D02080DB501080F
:1000E00045B5010865D7010865D70108CDC50008E9
:1000F00065D70108A10B020865D7010865D701087B
:1001000065D7010865D7010865D7010865D70108DB
:1001100065D7010865D7010865D7010865D70108CB
:1001200065D7010865D7010865D7010865D70108BB
:1001300065D7010865D7010865D7010865D70108AB
:1001400065D7010865D7010865D7010865D701089B
:1001500065D7010865D701089D6E0208E98E010880
:1001600065D7010865D70108C54C0208CB4C0208C9
:10018000194A5AB3194BDB6913F0040F29D110B483
:100190000AE003EA00048C4210D0013AB2B1134BDA
:1001A000DB6913F0040F14D110F0010FF1D1104CE2
:1001B0001C40002CEDD06FF001000CE00C4A1A40FE
:1001C0000AB9002007E06FF0010004E06FF00200C0
:1001D00001E04FF0FF305DF8044B70476FF0020014
:1001E00070474FF0FF307047809698000000035032
:1001F000020001000D4BDB6913F4803F12D170B592
:100200000A4B03F580560124F46003F500552C6475
:100210004FF480721A6100212046FFF7B1FF346469
:10022000EC6070BD6FF00100704700BF000003502C
:1002300010B5124B4FF480329A6603F51C33DC691B
:10024000144041F67132DA6303F580520121D16026
:10025000586102221A6100212120FFF791FF40B16D
:10026000074B0122DA601CB1A3F500530022DA63C8
:1002700010BD00212120FFF783FFF1E7009000501F
:100280000020035038B51A4B5861DB6913F0040F96
:100290002AD10C4654F8041B154B9961151F06E032
:1002A000214651F8042B124B9A61043D0C465DB176
:1002B00008210846FFF764FF03460028F0D00C4AE7
:1002C00004211161184638BD094B04221A6100212E
:1002D0002120FFF755FF03460028F3D100212120FC
:1002E000FFF74EFF0346EDE74FF0FF33EAE700BFAD
:1002F000000003502DE9F0410F46164605461A4B03
:100300004FF480329A6603F51C33DA6902F48038C0
:1003100041F67132DA6303F580530122DA6000237B
:1003200002E025442744361B8EB105F5005424F421
:10033000FF5424F01F04641BB44228BF34462246F5
:1003400039462846FFF79EFF03460028E9D0074AB2
:100350000121D160B8F1000F03D0A2F500520021B5
:10036000D1631846BDE8F081009000500020035092
:10037000000000000000000000000000000000007D
:10038000013800D0FCE770472DE9F04F2DED028BCE
:1003900093B082460C4693461D4657EC106B8DED8C
:1003A000080B32463B46304639461BF09FFD00287D
:1003B00000F009814FF0FF32B14B304639461BF057
:1003C000BDFD002840F0FF804FF0FF326FF4801336
:1003D000304639461BF094FD002840F0F48000229E
:1003E0000023DDE90867304639461BF089FD002807
:1003F00040F0FC809DED087B8DED067B209B13F487
:100400008063119301D106231E93DDE906010246A4
:10041000C1F30A50C1F31303904643F07F5949F4E6
:100420004019A0F2FF301BF08FFA83A3D3E9002319
:100430001BF0F4FA82A3D3E900231BF039F9064636
:100440000F4600228F4B404649461BF02FF97EA3F2
:10045000D3E900231BF0E2FA02460B463046394648
:100460001BF026F91BF074FD06461BF06DFA804662
:10047000894677A3D3E900231BF0D0FA0022824BF0
:100480001BF016F91BF064FD074673A3D3E90023A4
:10049000404649461BF0C2FA8046894638461BF062
:1004A00053FA6FA3D3E900231BF0B8FA02460B46B8
:1004B000404649461BF0FAF88046894602460B46FC
:1004C0001BF0ACFACDE90C0107F2FF370021002246
:1004D000CDE90A123B050B9300230A9342464B4693
:1004E000404649461BF0E4F8CDE90E0142464B4632
:1004F00000204FF080411BF0D9F880468946002249
:10050000624BDDE90C011BF0B3FB0022604B1BF0DA
:10051000CFF802460B46DDE90C011BF0A9FB0022D7
:100520005C4B1BF0C5F802460B46DDE90C011BF0E5
:100530009FFB02460B46404649461BF0B9F802466F
:100540000B46DDE90E011BF093FB0022524B1BF022
:10055000AFF8DDE90A231BF061FA8046894649ECD1
:10056000188BDDE906231BF0E9FC40B1013E0022B7
:10057000474B404649461BF07BFB41EC180B06F10C
:100580006303C62B3BD80427209B13F4006F40D095
:1005900035A3D3E90023DDE90689404649461BF02F
:1005A000C3FC00283BD032A3D3E900234046494690
:1005B0001BF0A6FC002832D01E9BB34221DD9E1BFF
:1005C000731E1E931FE0209B02931F9B01931E9B93
:1005D00000939DED080B2B465A462146504600F0ED
:1005E000CBF813B0BDEC028BBDE8F08F9FED227B02
:1005F0008DED067B069607F100430793FEE605277F
:10060000C2E700231E93209B43F4806320930027BE
:100610003E461F9B9F4241D2A3EB070840E01E9B32
:10062000002BF6D0119B002BF3D01E9B013B1E9399
:10063000EFE700BFAFF30080FB799F501344D33F37
:10064000B3C8608B288AC63F61436F63A787D23FD8
:1006500071A379094F930A401655B5BBB16B02409F
:10066000EF39FAFE422EE63F2D431CEBE2361A3FED
:100670000000000080842E41000000000000000007
:10068000FFFFEF7F0000F83F0000E03F00002C403C
:1006900000002440000018400000F03F4FF0000828
:1006A000209B13F0020902D00FB14FF000083EB1B9
:1006B00053EC182BDDE906011BF0DAFACDE906014F
:1006C00000220023DDE908011BF01AFC00283BD1C1
:1006D000209B23F400630293CDF804801E9B0093BB
:1006E0009DED060B2B465A462146504600F044F835
:1006F000002F3FF476AF209B13F0200F2CD04FF04B
:10070000450C00F101082B46024621466046D047C1
:1007100086EAE672A2EBE67205230593013F049791
:10072000002303930A230293F30F019300922B46B5
:1007300042462146504622F0ECFEB9F1000F3FF44C
:1007400050AF02461F9F10E0DDE90601024601F1AD
:100750000043CDE90623BBE74FF0650CD1E7561CFB
:100760002B4621462020D0473246A2EB0B03BB424A
:10077000F5D3104635E700BF2DE9F04F2DED028B84
:1007800093B00590089192469B4659EC108B1E9DA4
:1007900042464B46404649461BF0A8FB002840D045
:1007A0004FF0FF326FF48013404649461BF0A8FB20
:1007B000002845D14FF0FF32B14B404649461BF06F
:1007C000BDFB00284BD1AAA3D3E9002340464946EC
:1007D0001BF0B4FB00285AD1A7A3D3E9002340465D
:1007E00049461BF08DFB002851D1002200234046D2
:1007F00049461BF085FB002857D100230993209B15
:1008000013F4806F5CD000241F2C5BD8092D59D9BC
:1008100004F148036B44302203F8202C013D0134DD
:10082000F2E7209B03931F9B029303230193954BB5
:1008300000935B4652460899059822F090FD10E11E
:10084000209B03931F9B0293042301938E4B0093E1
:100850005B4652460899059822F081FD01E1209BF4
:1008600013F004030FD0894A7BB10423209903912C
:100870001F990291019300925B4652460899059890
:1008800022F06DFDEDE0824AEEE70323EEE7209BC8
:1008900002931F9B0193009549EC108B5B465246D7
:1008A00008990598FFF770FDDBE042464B460020B3
:1008B00000211AF0FBFE80468946012309939EE73A
:1008C0000625A0E7404649461BF042FB06461BF0C2
:1008D0003BF802460B46404649461AF0E7FE6D4B90
:1008E00003EBC50393ED008B53EC182B1BF096F82C
:1008F00002460B46CDE906231BF052FB07461BF0D0
:1009000013F802460B46DDE906011AF0CFFE024657
:100910000B46CDE9062300225F4B1BF00FFB50B3C3
:10092000013738461BF000F802460B4651EC180B15
:100930001BF0F0FA08B10136002755BB30461BF01A
:1009400003F802460B46404649461AF0AFFE804681
:1009500089460022504B1BF0D3FA38B100224E4B8F
:10096000404649461BF0EAFA002842D016F0010F33
:100970003FD001363DE00022474BDDE906011BF088
:10098000BFFA0028D9D117B117F0010FD5D0013720
:10099000D3E71F2C17D8013D404BA3FB0723DB08EF
:1009A000194603EB8303A7EB4303621C303304F1C6
:1009B00048000DEB000404F8203C092F02D90F4633
:1009C0001446E6E714461F2C0AD86B1E45B104F105
:1009D00048026A44302102F8201C1D460134F2E727
:1009E0001F2C06D804F148036B442E2203F8202C58
:1009F00001341F2C17D82A4A82FB0632F317C3EBA7
:100A0000A2031A4603EB8303A6EB4303611C3033B6
:100A100004F148000DEB000404F8203C16460AB12E
:100A20000C46E6E70C46209B03F00303012B39D06C
:100A30001F2C09D8099B002B51D004F148036B44AB
:100A40002D2203F8202C0134209B03931F9B02933B
:100A500001940AAB00935B4652460899059822F030
:100A60007EFC13B0BDEC028BBDE8F08FAFF30080CD
:100A70000000000065CDCD410000000065CDCDC176
:100A8000FFFFEF7F888C02088C8C02087C8C0208A8
:100A9000848C0208988C02080000E03FCDCCCCCCBE
:100AA000676666661F9BB3B1099B1BB9209B13F059
:100AB0000C0F12D01F9B013B1F93194606E004F157
:100AC00048036B44302203F8202C01348C42AFD20F
:100AD0001F2CF4D9ACE71F99F8E71F99F6E7209B84
:100AE00013F0040F07D004F148036B442B2203F8E2
:100AF000202C0134A8E7209B13F0080FA4D004F1A8
:100B000048036B44202203F8202C01349CE700BFEB
:100B100038B50D46044625F0F5FE064A13889BB20B
:100B20002DB123431380BDE8384025F0E6BE23EA0B
:100B30000403F7E72C4B00200022034B01214FF464
:100B400080709A70E4E700BF2C4B00207FB54E68A0
:100B500002A9044623F077FB9DF808300C2B19D12D
:100B6000134BB3F90050134B9E4218D807F0CEFB3D
:100B700003460068694600909B882046ADF8043023
:100B800023F04EFB70B140F25F620B490B480DF051
:100B90008DFCFEE7204613F08BFA0546E3E71EF0D6
:100BA0006BFFE5E72946204623F020FB04B070BD2B
:100BB00002510020FFC99A3B418F02080C8D0208A8
:100BC000002330B5134C85B0CDE90133039323786E
:100BD0008DF8043025F096FEA288E38805469A42F7
:100BE0000DD0E188A06801AAA18023F0B5F958B121
:100BF00040F2DA62084909480DF058FCFEE7A068A7
:100C000023F083F90128ECD0284625F076FE05B0C4
:100C100030BD00BF50550020418F02080C8D0208E6
:100C200038B50F4C656835B940F2C7720D490E48AA
:100C30000DF03CFCFEE722F041FD284410F086FB5D
:100C400000F00700032809D164680921204622F03A
:100C500051FE205C031F5842584138BD0020FCE77C
:100C60002C4B0020418F02080C8D020808B5114B57
:100C70009A78042A06D040F28E520F490F480DF0A0
:100C800015FCFEE71B881B0706D440F28F520A4969
:100C90000A480DF00BFCFEE700210820FFF738FFA3
:100CA0000222074B98681A7312F0BCFFBDE8084097
:100CB00021F008B92C4B0020418F02080C8D02084E
:100CC0005055002010B5084CA06812F0ABFFA0688A
:100CD00023F01BF9012806D00122A0681146BDE8C7
:100CE000104023F014B910BD5055002038B5194DEF
:100CF000AB7833B140F22B72174918480DF0D6FB90
:100D0000FEE725F0FFFD2988044611F0060109D011
:100D100001214FF48070FFF7FBFE2046BDE838400C
:100D200025F0EBBD4FF48070FFF7F2FE12F0CCF827
:100D3000012805D010F0FD0F05D1FFF741FFECE7CA
:100D4000FFF7C0FFE9E740F24172034903480DF0A5
:100D5000ADFBFEE72C4B0020418F02080C8D0208F2
:100D600070B50446064D95F90860FFF7BFFF11F016
:100D7000A9FF314620466A68BDE8704011F0DABD2F
:100D80002C4B002008B50A4B1B88DB0606D440F22A
:100D9000A752084908480DF089FBFEE70021102002
:100DA000FFF7B6FE12F00CF9BDE8084021F08AB852
:100DB0002C4B0020418F02080C8D02080D4B10B502
:100DC0001B8804469B0713D500210220FFF7A0FED5
:100DD000094B5A7BFF2A06D040F2E54207490848F2
:100DE0000DF064FBFEE75C73BDE8104021F06AB8CB
:100DF00010BD00BF2C4B002050550020418F020831
:100E00000C8D02087047704707B5ADF80610014613
:100E100030B94FF4B572104910480DF047FBFEE7AA
:100E2000BDF8063033B940F26B120B490B480DF098
:100E30003DFBFEE70A4B0DF10602986823F0BAFA73
:100E400030B140F26D12044904480DF02FFBFEE76B
:100E500003B05DF804FB00BF418F02080C8D02084F
:100E60005055002010B50E4CA37833B14FF4EA7200
:100E70000C490D480DF01AFBFEE7606019B1A17B2B
:100E8000003918BF01212020FFF742FE074B084818
:100E90009B7B23760223A370BDE8104010F022B99B
:100EA0002C4B0020418F02080C8D02085055002069
:100EB000484B002008B50BF027FE80F00100C0B2BF
:100EC00008BD0A4B9A780AB1062A0CD11B8803F494
:100ED0008B7343B9064B5A7BFF2A04D1187BFF382A
:100EE00018BF012070470120704700BF2C4B002025
:100EF0005055002008B50BF0F7FD0028FBD108BDC8
:100F00000C4B42889A8142789A730278DA7382880D
:100F10001A82C2885A82C2685A61017A064A91735B
:100F2000028A998C914204D001214FF400709A8476
:100F3000EEE570472C4B002050550020094B9A8954
:100F400042809A7B4270DA7B02701A8A82805A8AC7
:100F5000C2805A699B8CC260034A0382927B0272F0
:100F6000704700BF2C4B0020505500204B1E012B1A
:100F700070B50C4606D940F2B7221A491A480DF04E
:100F800095FAFEE7194D0A460146A86823F03CFA97
:100F900030B140F2B922134913480DF087FAFEE749
:100FA000AE6810F013F822460146304623F026FAC8
:100FB00030B140F2BD220B490B480DF077FAFEE745
:100FC000AD6810F00FF822460146284623F022FAB9
:100FD00030B140F2C122034903480DF067FAFEE741
:100FE00070BD00BF418F02080C8D020850550020D3
:100FF000054BDB7B1B0913F00E0003D0052B8CBFC8
:1010000000200120704700BF50550020044BDB7BBF
:101010001B0913F00E0F0CBF01200020704700BF0A
:10102000505500202DE9F04F15469A0580461F4681
:101030008FB003D501218020FFF76AFDEB014FF04F
:10104000000955D5984C23889E0751D5974E737B40
:10105000FF2B06D040F2AF42954996480DF026FA94
:10106000FEE7636833B94FF49662914991480DF0F9
:101070001DFAFEE749460220FFF74AFDA37886F8ED
:101080000D90042B03D101210820FFF741FD00231F
:10109000B06808A98DF82C3023F0D7F830B140F2B1
:1010A000BA42834983480DF001FAFEE7FFF7A0FF3B
:1010B000B0B922F003FB8146606822F00AFB08A960
:1010C0008144B068ADF8249023F0C2F830B140F20A
:1010D000C242774977480DF0E9F9FEE7089BA36221
:1010E000A378032B02D1B06812F09CFD20F0EAFE39
:1010F000B80702D50120FFF761FE15F0A84F02D016
:101100000220FFF75BFEA90220D50021402003AC9E
:10111000FFF7FEFC2146404623F094F9B0B99DF854
:10112000143008AA022B22D18DF82830BDF80C30DB
:10113000ADF82030104611F0CFFD38B1404623F015
:101140007FF918B901214020FFF7E2FC2A0753D5A7
:10115000564E0321B06803AA23F02EF9814688B9C0
:1011600040F2FE42524953480DF0A0F9FEE7032B2E
:1011700005BF8DF82830D4E900018DF82800C2E9B8
:101180000001D7E79DF80C30B068072B40F01F81B5
:10119000494608AA23F012F930B140F201524449FD
:1011A00044480DF083F9FEE7FFF722FFBDF80E205B
:1011B000A0B9FFF72BFF78B1043292B2B06808A94A
:1011C000ADF8242023F0FCF840B140F21252384927
:1011D00038480DF06BF9FEE70232EEE7BDF80E007D
:1011E0000121073080B225F0B7FA8246002842D1AB
:1011F00001210C2012F0AAFCA90705D52A4B1B8857
:101200001A0701D5FFF732FDAB010BD500210420F1
:10121000FFF77EFC244B9B78012B03D1234B98686E
:1012200012F000FD15F0284F03D000210420FFF735
:101230006FFC7E060CD51C4C23881D0701D5FFF7DB
:1012400015FD2388580703D500210420FFF760FC13
:10125000F90540F1D88003A9404608AA22F053FEC0
:101260000146002800F0BA8040F2D25210491148DD
:101270000DF01CF9FEE74FF0000B25F0F1F9CDF869
:1012800000B00246BDF80E3004464946B06823F06F
:101290009BF8BDF80E3083420ED040F22252044932
:1012A00004480DF003F9FEE72C4B002050550020B8
:1012B000418F02080C8D020822F000FA204410F041
:1012C00045F800F007000228DFF8589124D199F87A
:1012D0000230042B90D122F0F1F9504B2044827857
:1012E0001B789A4288D159460820FFF711FC22F05A
:1012F000E5F9204410F02AF89DF82E30C0F30010D4
:10130000307389F80830FFF78BFC00287FF474AF46
:10131000B06812F087FC6FE722F0D0F9204410F09B
:1013200015F883064AD522F0C9F9204410F00EF8CA
:1013300000F0070003280BD10921204622F0DAFA39
:1013400014F800B0ABF1040CDCF1000B4BEB0C0B10
:1013500001210420FFF7DCFBB06823F048F8C9F84E
:101360002C00BBF1000F30D0B9F8003058062CD556
:1013700000214020FFF7CCFB0126BDF80E309DF880
:101380002E200120E254BDF80E309DF82F2023447A
:101390009A71BDF80E10089A013121440FF0E4FF54
:1013A000BDF80E3050461C44667125F02DFA1C4BDA
:1013B00018780FF09DFF20F085FD1DE799F80230A9
:1013C000012B02D1B06812F02DFC0026D5E722F0E7
:1013D000D7FF4946B06822F0F5FF0DE79DF80C30C5
:1013E00003F0BF02032A01D0022B0FD10D4C23883A
:1013F0005A0702D50420FFF78BFB23889B0702D5F1
:101400000120FFF7DBFC0FB0BDE8F08F4FF4BF62A7
:10141000054906480DF04AF8FEE700BF994B002049
:10142000BC4A00202C4B0020418F02080C8D020882
:1014300008B50246FFF7DCFD30B1072A06D80020C8
:10144000034B83F8302008BD7020FCE70220FAE748
:101450002C4B002008B50246FFF7CAFD28B100203A
:10146000034B93F83030137008BD7020FCE700BFC9
:101470002C4B002008B5074B01460022986822F04B
:10148000C3FF30B140F2EB22034904480DF00EF8DF
:10149000FEE708BD50550020418F02080C8D020860
:1014A00008B5074B01460022986822F0A7FF30B12B
:1014B00040F2F122034904480CF0F8FFFEE708BDB2
:1014C00050550020418F02080C8D020808B5074BCB
:1014D0000146986822F0A4FF30B140F2F722044997
:1014E00004480CF0E3FFFEE708BD00BF50550020A4
:1014F000418F02080C8D020808B5074B9B7833B169
:1015000040F20132054906480CF0D0FFFEE7BDE885
:101510000840FFF7EBBB00BF2C4B0020418F0208B7
:101520000C8D020808B5054B0146986822F05EFE56
:10153000002814BF8B20002008BD00BF505500209C
:10154000014B986812F0B4BD50550020014BD8886B
:10155000704700BF505500207FB50123ADF80E3015
:101560004FF6FE7309480093806800230DF10E02C8
:1015700004A922F0C8FD212800D020B9BDF8100030
:1015800007B05DF804FB4FF6FF70F9E750550020F7
:1015900008B5044B0146986822F069FDB0FA80F066
:1015A000400908BD5055002038B50B4D0446AB78B6
:1015B000012B0DD8FFF7ECFF60B1084BDC80AB7856
:1015C0001BB9FFF793FB002038BDFFF7F9FAFAE7E4
:1015D0003E20F9E78A20F7E72C4B002050550020E9
:1015E000024B9B780BB9FFF781BB70472C4B002057
:1015F000014BD873704700BF2C4B002008B5064B39
:101600004FF0FF31986822F0ABFC0028B8BF0330E0
:1016100040F3870008BD00BF5055002008B5044BBB
:10162000986822F020FD034BB3FBF0F080B208BDB8
:101630005055002040420F0030B58DB02C2204469A
:10164000002101A823F009FC01234FF002328DF89C
:1016500008306423CDE9032306930B238DF82C3047
:10166000214B9B8CADF80A30FFF7C2FCA8B140F2C9
:10167000F23307934FF47A7305930CB9FFF722FB0B
:101680001A4D01A9A86812F0E7FDC0B140F2AC62A2
:10169000174918480CF00AFFFEE7FFF7BFFF0C23BD
:1016A0004343902B0793A3F10A02D8BF91230592DD
:1016B000D8BF0793059B8B2BDFD88C23DCE7FFF784
:1016C000A5FC60B10122A868114622F0B7FE30B136
:1016D00040F2AF62064907480CF0E8FEFEE70CB99D
:1016E000FFF704FB0DB030BD2C4B002050550020FF
:1016F000418F02080C8D0208F8B525F003F9554C0E
:1017000006462388D90503D5A37843BBFFF7EEFA35
:10171000514D6B7BFF2B13D06B7B03F0FF0723BB7B
:10172000FF236B73A378032B0AD100233046A370E9
:1017300025F0E3F83846FFF713FB25F0E3F80646FB
:10174000A378042B08D12B7BFF2B05D02B7B022BFE
:1017500014D142480FF0C6FCFF232B7327E0002171
:101760004FF48070FFF7D4F9D2E76B7B012B4FF079
:10177000FF0314BF89278D276B73D6E72B7B13B12B
:101780002B7B012B1ED1FFF74BFA0022FF212B7B75
:101790000746DBB222772973002847D0012B0AD1F4
:1017A00064212E48A3700FF0A8FCFFF709FA304619
:1017B00025F0A3F806E03046A27025F09EF831200F
:1017C000FFF7CEFA23881A0608D500218020FFF7FC
:1017D0009FF9A86822F075FD11F0D3FB23889B05C3
:1017E00007D54FF400700021FFF792F90020FFF7B2
:1017F00023FF0BF079F9608620B324F031FF01213B
:101800000546002012F0A2F9A678012E14D1002678
:101810002677A670FFF76AFA284610F0ADFFA37886
:1018200066867BB9BDE8F84011F04CBAA07030462E
:1018300025F063F83846C3E72EB1284610F09CFF28
:1018400000236386F8BDFFF751FA284610F094FF95
:101850006686F7E72C4B002050550020484B0020AF
:101860008B4BF0B51B888B4C8B4D63848B4B85B0B9
:101870001B68E3628A4B1B8823848A4B1B68A36224
:101880002B88DB0700F1FC8001210846FFF740F9B7
:101890000523854A04F1100104F10800AB7012F031
:1018A00083F928B1F522814981480CF0FFFDFEE75C
:1018B000A3682BB9F7227D497D480CF0F7FDFEE7C0
:1018C0007C4822F068FB70A3D3E90023CDE9002314
:1018D0004FF0FF324FF0FF33A06822F00BFC4FF4C3
:1018E0008811A06812F05CFC014630B140F20F1282
:1018F0006E496F480CF0DAFDFEE76F4B1B78012B49
:101900000ED16E4AA06812F01DFAA06812F0D2FC47
:10191000E0B140F21B12654965480CF0C7FDFEE7D7
:10192000674E316831B94FF48F72604960480CF0EE
:10193000BDFDFEE7614AA06812F004FA33689B68B7
:1019400023B1DB6913B15B7803B1E373FFF704FEE6
:101950000146E080A06812F071FB064630B140F20B
:101960002D12524952480CF0A1FDFEE7554B0120C3
:101970001B78C3EB431203EB8203DB00AB84FFF75E
:101980005BFEA7680FF02EFB32460146384622F078
:1019900041FD064630B140F23312444944480CF050
:1019A00085FDFEE740F203530427AB81464BAF733E
:1019B0001B78EB73FFF732FE00EB80039B002B825A
:1019C000FFF72CFEC00068823946A0686E6122F0E5
:1019D00039FB30B14FF4A172344935480CF066FD43
:1019E000FEE73A46A06803A922F0BFFB042806D010
:1019F0004FF4A3722D492E480CF058FDFEE703A9C1
:101A000001200FF0BFFC0AF0F5FD08224FF0FF3176
:101A1000A06822F080FB30B140F24F1223492448E5
:101A20000CF044FDFEE712F0C5FD30B140F2551256
:101A30001E491F480CF03AFDFEE7FFF7D9FA68B1DE
:101A40001EF01CF80146A06822F0EAFB30B140F21B
:101A50005912164916480CF029FDFEE7A468FFF755
:101A60007BFD1A4B014603F10C02204622F076FA68
:101A700030B14FF4B0720D490D480CF017FDFEE780
:101A800005B0F0BDAFF300800A0020FF4203000064
:101A900038920208505500202C4B00203C9202083E
:101AA0003A92020840920208390B0008418F02085E
:101AB0000C8D0208690345EC7D4B00204D0B00089E
:101AC0003C540020F5560020F45600206C8F02088C
:101AD00008B5044B986822F0C8FA034BB3FBF0F04A
:101AE00080B208BD5055002040420F002DE9F04360
:101AF0008C4D87B02B889B0706D440F24C728A49E4
:101B00008A480CF0D3FCFEE7AB78033B012B06D9E7
:101B100040F24E72844985480CF0C8FCFEE76A68C2
:101B200032B940F25172804980480CF0BFFCFEE7A8
:101B30007F4E2C88F77B14F0200418BF4FF47A7482
:101B40004FEA1718FFF754FA00287DD0B8F1020FBA
:101B50000AD0A8F10303022B74D940F265727249CE
:101B600072480CF0A3FCFEE7032795F8303008EB31
:101B7000C80898446F4B104603EB4803B3F81C8029
:101B800021F0A7FD4FF4FA534343B3FBF8F3782257
:101B90007733B3FBF2F31F44C7EB0717AB78FF00B3
:101BA000BFB204F5347417FA84F4042BA4B203D141
:101BB00007F6E8072744BCB2D5F8048021F07EFD83
:101BC0000746686821F085FD074421F09DFDBFB2FE
:101BD0003F1A21F073FD40440FF0B8FB7378C0F357
:101BE00040198DF80C30544BBFB2CDE904340024B9
:101BF00021F096FD009402463B464146B06822F033
:101C0000C1FB287EB278737812FB00F29342C4BF06
:101C10009B1ADCB22B88F18813F0200FB068B180DA
:101C20008DF80C4003AB76D000934A46434B22F02C
:101C30008AF9002873D040F224723B493B480CF0EB
:101C400035FCFEE7062790E7FFF7E0F9002846D0CD
:101C5000384B07F00F0708EBC801394403EB410389
:101C60001046B3F81C9021F034FDB8F1000F2CD0D1
:101C7000B8F1010F2CD14FF00408400080B2F319E5
:101C800093F834304BB14FF4FA52023303444344D7
:101C90009BB25343B3FBF9F39CB2AB78042B8BD1CB
:101CA000FFF7BCFC374497F834308146053398443D
:101CB000FFF70EFF0C2308FB00F003FB09F909EB0B
:101CC000C009A1441FFA89F476E74FF00208D6E76D
:101CD00040F28672144915480CF0E8FBFEE7FFF766
:101CE000F7FE0746686821F0F4FC09307843AB78CA
:101CF00004EBC000042B84B27FF45EAFFFF78EFCD0
:101D00000746FFF7E5FE602358430C2303FB07005B
:101D1000204484B250E74A4622F013F989E707B01D
:101D2000BDE8F0832C4B0020418F02080C8D020887
:101D3000505500206C8F020820A10700384B00206E
:101D4000F8B5494C258815F0020506D040F2751209
:101D5000464947480CF0AAFBFEE7257724F0D2FD60
:101D6000238806465A070CD5424B986822F03FFB61
:101D7000E36AC01AA38C984203D929460420FEF7CF
:101D8000C7FE304624F0B9FDA778022F37D124F0E2
:101D9000B9FD2388064613F0040507D036480FF036
:101DA000A1F93046BDE8F84024F0A7BD24F0A5FD18
:101DB000606810F0C1FF20B1A570BDE8F840FEF7E3
:101DC000CFBF24F09FFD6668054621F077FC3044C4
:101DD0000FF0BCFA10F0200F0CBF032304230121E5
:101DE0003846A370FEF794FEFFF780FE284624F0E5
:101DF00084FD01210846BDE8F84011F0A7BE042F7C
:101E000027D11C4B1B7BFF2B2DD1237EF3B124F05C
:101E100079FD238805465B0704D517480FF062F962
:101E20002846BFE724F069FD237E013B237624F09A
:101E300069FD044601210220FEF76AFEFFF756FE07
:101E4000204624F05AFD01210820D4E74020A37049
:101E5000B3E7012F07D10023A370064B986811F058
:101E6000E1FE3120A9E7F8BD2C4B0020418F02088C
:101E70000C8D020850550020484B002038B5012138
:101E800004461020FEF744FE064B9D68FFF7C6FB94
:101E9000012200FB04F1044B284622F03DF800200B
:101EA00038BD00BF50550020850D000808B50A4B0D
:101EB0001B88DB0606D44FF46172084908480CF011
:101EC000F5FAFEE710200021FEF722FE054B986888
:101ED000BDE8084022F02EB82C4B0020418F0208AC
:101EE0000C8D02085055002038B50E4D688E30B963
:101EF00040F291320C490D480CF0D8FAFEE724F07C
:101F0000AFFB0446688E24F0C9FB811F21440120E9
:101F10000FF038FA064B0446986822F068FA001B66
:101F200038BD00BF2C4B0020418F02080C8D0208E9
:101F30005055002010B5084C636833B94FF46872EF
:101F4000064907480CF0B2FAFEE7064B986822F003
:101F50004EFAA36AC01A10BD2C4B0020418F020814
:101F60000C8D02085055002038B50A4D688E30B9E6
:101F700040F2AA32084909480CF098FAFEE724F02A
:101F80006FFB0446688E24F089FB044414F8020CAD
:101F900038BD00BF2C4B0020418F02080C8D020879
:101FA00038B50A4D688E30B940F2B932084909484F
:101FB0000CF07CFAFEE724F053FB0446688E24F014
:101FC0006DFB044414F9070C38BD00BF2C4B0020F6
:101FD000418F02080C8D020838B50A4D688E30B961
:101FE0004FF47272084909480CF060FAFEE724F0D9
:101FF00037FB0446688E24F051FB044414F9010CAD
:1020000038BD00BF2C4B0020418F02080C8D020808
:10201000024B1888C0F3C010704700BF2C4B002043
:1020200030B585B005466C460D4B0FCB84E80F00EC
:102030000DB12B6800930B4B21460022986812F0DB
:102040004DF8044630B140F2E632074907480CF03B
:102050002DFAFEE7FEF7B4FD204605B030BD00BF07
:10206000F48F020850550020418F02080C8D0208A1
:1020700030B5154D87B004460DF10701A86822F070
:102080003BF830B140F2F732104911480CF00EFA2B
:10209000FEE79DF80720531EDBB2FD2B0FD90294FB
:1020A000FF2A00D10394A86802A922F00DF940B1DB
:1020B00040F20442054906480CF0F8F9FEE7012A0F
:1020C000EFE707B030BD00BF50550020418F020838
:1020D0000C8D020808B5064B986822F004F930B15F
:1020E0004FF48262034904480CF0E0F9FEE708BDB2
:1020F00050550020418F02080C8D02080122024B2E
:102100001146986821F003BF505500207047F8B57C
:10211000064604200D4621F0B3FA030622D5124FDD
:10212000BC78FCB926B1012E17D002242046F8BD98
:1021300001262846FFF72CFA0028F6D00B4800238A
:1021400032462946806821F000FF40B14FF48A6290
:10215000074908480CF0AAF9FEE72646E9E70623F6
:10216000BB70E3E77024E1E72C4B002050550020C2
:10217000418F02080C8D0208042010B521F080FA6E
:10218000030611D5094CA378062B0DD1084B98688E
:1021900021F0DDFE30B140F26A42064906480CF0FB
:1021A00085F9FEE7A07010BD7020FCE72C4B0020E5
:1021B00050550020418F02080C8D02081FB50446BF
:1021C00001A811F053FF9DF80D3053B14CB1064BEF
:1021D0002078617818700020A27859709A7004B045
:1021E00010BD0220FBE700BF505500201FB504467C
:1021F00001A811F03BFF9DF80D3053B14CB1002008
:10220000054B1A7822705A789B786270A37004B0DC
:1022100010BD0220FBE700BF50550020FFF7CEBFE6
:10222000FFF7E4BF0348044B834202D0034B03B1E2
:10223000184770470C5700200C5700200000000082
:10224000064B0749C91A891048BF0131491003D00C
:10225000044B0BB101481847704700BF0C570020D2
:102260000C5700200000000010B5064C237843B93D
:10227000FFF7D8FF044B13B10448AFF300800123EC
:10228000237010BDBC51002000000000E0CB02080C
:1022900008B5054B1BB105490548AFF30080BDE803
:1022A0000840FFF7CDBF00BF00000000A0220020C3
:1022B000E0CB0208A3F5803A704700BF174B002B14
:1022C00008BF134B9D46FFF7F5FF00218B460F46D5
:1022D0001348144A121A22F0C0FD0E4B002B00D0F6
:1022E00098470D4B002B00D0984700200021040098
:1022F0000D000D48002802D00C48AFF300801AF002
:1023000087FB2000290001F023F81AF017F800BF1E
:102310000000080000000000000000000020002075
:1023200000200020205200200000000000000000DB
:1023300008B5224B1B78012B1BD0022B2BD003B1ED
:1023400008BD1F4B1B781F4A1278B3EB420F06DA09
:1023500001331B4A13701C481BF053F8F0E7184B6D
:1023600000221A7018481BF050F8184823F02EFE6F
:10237000E6E7134B1B78134A1278B3EB420F03DAEC
:1023800001330F4A1370DBE70D4B00221A700F4820
:1023900023F01CFED4E70A4B1B780A4A1278B3EBF1
:1023A000420F03DA0133064A1370C9E7044B0022D7
:1023B0001A70064823F00AFEC2E700BFBD51002094
:1023C000BF510020BE51002018840208B82200200E
:1023D00030B583B01446094B1870094B1970094D7C
:1023E000284623F0F3FD0123019300230093064ABE
:1023F0002146284624F0CEFC03B030BDBD5100205C
:10240000BE510020B82200203123000800B583B05F
:10241000074B0122DA60064B5B6913F0400FFAD1DB
:10242000034968461DF0E2F9009803B05DF804FB2B
:102430000040005910B582B004461AF0DEFE08B91B
:1024400002B010BD00230093ADF80430074B1B8889
:10245000ADF80230ADF8044040F2FF13ADF80030A3
:10246000694604201FF0C5FDEAE700BFF8500020D0
:1024700008B513460A4601460448006803F0E6FA28
:1024800000B908BD02480CF011F8FAE70855002021
:10249000087002080A2800D9704730B583B0044696
:1024A0000D466B4601AA01461048006803F034FA55
:1024B00008B9019B23B10E480BF0F8FF03B030BD03
:1024C000009B2A4621460948006803F065F940B997
:1024D000214608480BF0EAFF294607480BF0E6FFC3
:1024E000ECE7214605480BF0E1FFE7E7085500203F
:1024F0001070020834700208507002085870020808
:102500000A2800D9704710B504460146064B1868E2
:1025100003F06AFB20B9214604480BF0C7FF10BD49
:1025200003480BF0C3FFFAE7085500207C7002084F
:102530009870020838B504461FF067FDA04201D824
:10254000012038BD0546032001F08EFA0028F8D09E
:102550001AF077FF1AF076FF2B462246034904480B
:1025600000681EF083FB0020EBE700BFB07002089C
:102570004C27002030B583B004468368C26853F806
:1025800022301D882846FFF7D5FF08B903B030BDBB
:1025900000230093ADF80430164B1B88ADF80230D1
:1025A000ADF804506368E2689B1A012B1DDDA36837
:1025B000013253F822301B88ADF800301FF015FDB2
:1025C000694603201FF015FD0446032001F04CFA74
:1025D0000028DBD01AF035FF1AF034FF22460649F6
:1025E000064B18681EF042FBD0E740F2FF13ADF82F
:1025F0000030E3E7FA500020E87002084C27002082
:1026000030B583B004468368C26853F822301D8811
:102610002846FFF78FFF08B903B030BD00230093B1
:10262000ADF80430154B1B88ADF80230ADF80450FE
:102630006368E2689B1A012B1BDDA368013253F823
:1026400022301B88ADF80030694604201FF0D1FC11
:102650000446032001F008FA0028DDD01AF0F1FE4C
:102660001AF0F0FE22460649064B18681EF0FEFAE4
:10267000D2E740F2FF13ADF80030E5E7FA50002052
:10268000087102084C27002030B583B004468368E7
:10269000C26853F822301D882846FFF74BFF08B95F
:1026A00003B030BD00230093ADF80430154B1B88F8
:1026B000ADF80230ADF804506368E2689B1A012B54
:1026C0001BDDA368013253F822301B88ADF80030BF
:1026D000694602201FF08DFC0446032001F0C4F976
:1026E0000028DDD01AF0ADFE1AF0ACFE22460649F5
:1026F000064B18681EF0BAFAD2E740F2FF13ADF8A5
:102700000030E5E7FA5000201C7102084C27002039
:1027100030B583B08368C26853F822301C78002338
:10272000019343689B1A012B19DD01AA01211DF0B9
:102730006AFD01469DF804001FF053FC054680B178
:10274000022001F091F960B11AF07BFE1AF07AFED6
:102750002A460649064B18681EF088FA01E01FF069
:1027600044FC20461FF049FC03B030BD387102081C
:102770004C27002010B503468168C26851F822003A
:10278000B0F900001A4C20805B689B1A012B0FDD0A
:10279000013251F8223093F90010003918BF01219D
:1027A0001FF0D0FBA0B9032001F05EF910B910BDF5
:1027B0000021F5E71AF045FE1AF044FE0D4B1C68A7
:1027C0001FF0C4FB02460C4920461EF04FFAEEE70C
:1027D000012001F049F90028E9D01AF032FE1AF080
:1027E00031FE0649034B18681EF040FADFE700BFD0
:1027F000FA5000204C2700209C710208B07102089A
:1028000008B51FF093FB032001F02EF900B908BDB5
:102810001AF017FE1AF016FE0249034B18681EF054
:1028200025FAF4E7C87102084C27002008B5836830
:10283000C26853F822301A88094B1A80032001F02D
:1028400013F900B908BD1AF0FCFD1AF0FBFD044BAA
:102850001A880449044B18681EF008FAF2E700BF12
:1028600070560020E87102084C27002008B5024B82
:1028700018680EF037FC08BDFC2200202DE9F0415D
:1028800086B01FF06FFB0446894B1B7813F0020FD4
:102890002CD0884E13F0010F2AD0864F13F0040F6E
:1028A00028D0DFF81082032001F0DEF828BB0320D7
:1028B00001F0DAF858BB032001F0D6F8002835D132
:1028C000032001F0D1F800283ED1032001F0CCF81C
:1028D000002847D1032001F0C7F800285ED103206B
:1028E00001F0C2F8002867D1002471E0724ED1E7F0
:1028F000714FD3E7DFF8C081D5E71AF0A2FD1AF0D7
:10290000A1FD6E496E4B18681EF0B0F9CFE71AF0C2
:1029100098FD1AF097FD6A4B1D6805F0C7F902464D
:102920000B46684928461EF0A1F9C4E71AF089FD54
:102930001AF088FD624B1D681FF0ECFA02466249EE
:1029400028461EF093F9BBE71AF07BFD1AF07AFDDA
:102950005B4B1D681FF012FB02465C4928461EF0C7
:1029600085F9B2E71AF06DFD1AF06CFDE279A379F2
:1029700061792079E57894F802C094F801E0247830
:102980000594CDF810E0CDF80CC0029501900091AF
:102990004F494B4800681EF069F99BE71AF051FD5A
:1029A0001AF050FD464B1C681FF0E0FA02464949F8
:1029B00020461EF05BF992E71AF043FD1AF042FD43
:1029C00045493F4B18681EF051F98DE70134E4B2D8
:1029D000072C12D8032001F047F80028F6D01AF08F
:1029E00030FD1AF02FFD364B1D681FF0BBFA025D5B
:1029F0003A4928461EF03AF9E8E7032001F034F896
:102A000098B9032001F030F8C8B9032001F02CF880
:102A100018BB032001F028F868BB032001F024F85C
:102A2000002836D106B0BDE8F0811AF00AFD1AF090
:102A300009FD2B49224B18681EF018F9E1E71AF03E
:102A400000FD1AF0FFFC1E4B1C681FF093FA0246B3
:102A5000244920461EF00AF9D7E71AF0F2FC1AF0D2
:102A6000F1FC174B1C681FF069FA02461E4920460C
:102A70001EF0FCF8CDE71AF0E4FC1AF0E3FC104B72
:102A80001C681FF063FA0246184920461EF0EEF853
:102A9000C3E71AF0D6FC1AF0D5FCCDF800803B460F
:102AA00032461349064800681EF0E0F8BAE700BF56
:102AB000E65600205071020858710208047202089C
:102AC0004C2700200C720208287202084472020887
:102AD0006072020884720208A0720208B4720208CE
:102AE0004C700208BC720208D8720208F072020828
:102AF0000873020830B583B08368C26853F8223087
:102B00001C7801A920461FF015FA88B9032000F0AF
:102B1000ABFF08B903B030BD1AF093FC1AF092FC79
:102B2000019B22460B490C4800681EF09FF8F1E714
:102B30000546012000F098FF0028EBD01AF081FC38
:102B40001AF080FC2A460549034B18681EF08EF8DF
:102B5000E0E700BF407302084C2700205C730208C6
:102B600070B58268C36852F823100C88013352F89C
:102B700023301D78294620461FF02FFA80B9032004
:102B800000F072FF00B970BD1AF05BFC1AF05AFC3D
:102B90002B4622460B490C4800681EF067F8F2E706
:102BA0000646012000F060FF0028ECD01AF049FC36
:102BB0001AF048FC32460549034B18681EF056F8D7
:102BC000E1E700BF807302084C270020B0730208C1
:102BD00070B582B08368C26853F822301B78134AFC
:102BE000137013F0020F0ED0114C13F0010F0CD024
:102BF0000F4D13F0040F0AD00D4E032000F034FFE8
:102C000038B902B070BD0B4CEFE70A4DF1E7094E41
:102C1000F3E71AF016FC1AF015FC00962B46224634
:102C20000549064800681EF021F8EAE7E65600204C
:102C30005071020858710208647102084C27002084
:102C400030B58FB004460D4668461AF0ECFA0DF127
:102C5000200EEC46BCE80F00AEE80F009CE8030035
:102C60008EE8030008A9464B18681FF0C4FF10F156
:102C7000880F46D168461AF0D6FA0DF1200EEC46C0
:102C8000BCE80F00AEE80F009CE803008EE80300EC
:102C90004FF41053ADF820308023ADF822304FF4BC
:102CA0004073079307A81AF0CEFA079B0A93354B97
:102CB0000B93334B1A68099B0D9213F0FF0F04D14D
:102CC00023F0FF0343F001030993012309932C4BE5
:102CD0002A46214608A81FF0ABFF044610BB03207C
:102CE00000F0C2FE90B9264B18681FF01BF905468C
:102CF000002831D1032000F0B7FE044610BB0124A8
:102D00002FE01F4B18681FF04DFFB3E71AF099FB37
:102D10001AF098FB1A4B1A681B491C4B18681DF0D7
:102D2000A5FFE0E7032000F09FFE0028DBD01AF0AB
:102D300088FB1AF087FB22461549144B18681DF0D2
:102D400095FFD0E71AF07DFB1AF07CFB11490F4B81
:102D500018681DF08BFF04E0032000F085FE044698
:102D600010B920460FB030BD1AF06BFB1AF06AFBA9
:102D70002A460949054B18681DF078FF0024F0E742
:102D8000D822002000014405E07302084C270020EF
:102D900010740208347402085474020800B583B039
:102DA0000021019101AA1DF02EFA019910290ED0DF
:102DB000032000F059FE60B11AF043FB1AF042FB09
:102DC00010220549054B18681DF050FF01E0FFF780
:102DD00037FF03B05DF804FB747402084C27002031
:102DE00010B588B020F023F859490120FFF752FBB5
:102DF00058490020FFF74EFB57490220FFF74AFBD6
:102E00005649574809F0CCFA5649574809F0C8FACC
:102E1000032000F029FE28BB0124544B1C6002A8AB
:102E20001AF028FA02A920461FF0E5FE10F1880FDB
:102E300022D0032000F018FE002874D14B4B1868F4
:102E40001FF070F81FF0C5F80446032000F00CFED8
:102E5000002872D14FF4FA61434B18680EF04DF917
:102E600008B010BD1AF0EDFA1AF0ECFA4049414BE7
:102E700018681DF0FBFECFE7032000F0F5FD0028E9
:102E800037D13A4B1A68039B079213F0FF0F04D116
:102E900023F0FF0343F001030393374B05934FF4F3
:102EA0004073019301A81AF0F5F9019B04934FF4C4
:102EB0001053ADF808308023ADF80A300123039396
:102EC0002A4B10222D4902A81FF0B2FE0446D0B9A9
:102ED000032000F0C9FD0028B0D01AF0B2FA1AF0B1
:102EE000B1FA224B1A682649224B18681DF0BEFE23
:102EF000A4E71AF0A6FA1AF0A5FA22491D4B1868A1
:102F00001DF0B4FEBDE7032000F0AEFD002895D013
:102F10001AF097FA1AF096FA22461B49154B1868D0
:102F20001DF0A4FE8AE71AF08CFA1AF08BFA174902
:102F3000104B18681DF09AFE80E71AF082FA1AF01A
:102F400081FA224612490B4B18681DF08FFE81E76B
:102F5000E7220020C3510020FC500020C1300008AF
:102F6000FC2200203D300008F8220020D82200205A
:102F70009C7402084C270020000144052C540020BA
:102F8000E0730208A874020810740208D0740208E2
:102F9000FC74020838B50020FFF7B2FA0120FFF7F1
:102FA000AFFA094D962028701AF037F90024074926
:102FB00001F80B4F01221046FFF75AFA0122294669
:102FC0002046FFF755FA38BDC3510020DC2200200F
:102FD00008B5022803D1022911D903291AD9134BA4
:102FE00010229A720130187332220A210020FFF752
:102FF000EFF9C8210E4B18680EF07FF808BD0020CD
:10300000FFF718FA0B481AF023FD0B4B1B68002240
:103010001A70F3E71AF0FBF8FFF7BCFF4FF4FA6100
:10302000054B18680EF069F8E8E700BFDC220020C5
:10303000FC22002018840208F822002008B51B4B4F
:103040005B6FC3F340031A4A1278EAB1184A0021B1
:10305000117093B91AF0C8F880B2164B188030B9C5
:1030600008F0E2FA144B1B6800221A7008BD022215
:1030700019461046FFF7FCF9F2E74FF4FA610E4BE0
:1030800018680EF03AF8F1E7094B01221A701AF0AD
:10309000ABF8084B188009481AF0B7F94FF4FA71E9
:1030A000054B18680EF029F8E0E700BF00C0035098
:1030B000C1510020FC500020F82200201884020892
:1030C00000B583B01F4BDB7AABB1022B28D01E4872
:1030D0001AF0EFF81AF088F81C4B18801C4B1B688C
:1030E00000221A704FF4FA611A4B18680EF005F8B6
:1030F00003B05DF804FB9DF804306FF304038DF812
:1031000004309DF804306FF346138DF804300E4BF5
:103110000F221A7002225A729DF804205A70D6E7C4
:10312000084B9B7A102BD2D1074B10221A70042225
:103130005A72044A127B5A70044A12889A70120A10
:10314000DA70C4E7DC220020EC220020FC500020D2
:10315000FC220020F8220020014B1878704700BFA5
:10316000C251002038B50379012B00D038BD054687
:10317000032000F079FC08B900240CE01AF061F992
:103180001AF060F96A881549154B18681DF06EFD34
:10319000F2E70134E4B2EB889C4210D2032000F045
:1031A00063FC0028F5D01AF04CF91AF04BF9AB6823
:1031B0001A5D0C490A4B18681DF058FDE9E7032019
:1031C00000F052FC0028D1D01AF03BF91AF03AF97D
:1031D0000549034B18681DF049FDC7E7147502083F
:1031E0004C2700202C7502084C70020808B58B682B
:1031F0001B780F2B00D008BD074BDB7A002BFAD1D0
:103200000028F8D10449022301F80B3F012210469F
:10321000FFF72EF9EFE700BFDC22002008B5903859
:1032200006283CD8DFE800F00418263B3B2D34008C
:1032300001231E4A13701E4A1370C8220221002067
:10324000FFF7C6F81B4BDB7A6BB91B4B19881B4B7E
:1032500018680DF052FF06E00020144B187064222D
:103260000521FFF7B5F841F27071154B18680DF0A4
:1032700044FF08BD4FF47A7202210020FFF7A8F83E
:10328000F1E74FF47A7202210020FFF7A1F8EAE794
:103290004FF47A7202210020FFF79AF8E3E74FF427
:1032A0007A7202210020FFF793F8DCE7C05100207A
:1032B000C2510020DC22002070560020FC22002099
:1032C000F822002010B580B10446012000F0CCFBAC
:1032D00000B910BD1AF0B5F81AF0B4F822460A4940
:1032E0000A4B18681DF0C2FCF3E7032000F0BCFB9A
:1032F0000028EED01AF0A5F81AF0A4F80449034B00
:1033000018681DF0B3FCE4E7307502084C27002074
:1033100058750208F0B583B004460D4616461F46A0
:10332000032000F0A1FB08B903B0F0BD1AF089F842
:103330001AF088F8019700962B4622460249034866
:1033400000681DF093FCEFE7707502084C27002021
:1033500008B51EF08BFC00F0FBF9074B187819F04C
:103360005CFF00F06BF91EF073FC1EF0A8FC1EF071
:1033700070FC22F0F5FAF8E7C351002008B5024BC3
:103380001B6803B1984708BD3023002008B5024BE5
:103390005B6803B1984708BD3023002008B5024B95
:1033A0009B6803B1984708BD3023002008B5024B45
:1033B000DB6803B1984708BD3023002008B5024BF5
:1033C0001B6903B1984708BD3023002008B5024BA4
:1033D0005B6903B1984708BD3023002000B585B074
:1033E000094B1868094B1860094B0A4A13600A4ACE
:1033F00001920A4A12680292039301A91CF025FF68
:1034000005B05DF804FB00BF585400209031002047
:103410004C5400208C3100207883020804260020C0
:1034200008B5024B18681CF024FF08BD5854002052
:1034300038B507F06DFA0446064D2B68D3F8B00294
:1034400007F05AFA28681CF02EFF204607F054FABD
:1034500038BD00BF5854002008B5034823F014FBC2
:10346000024801F001F908BD9C8702085C54002065
:103470000023062073B1704754B224B9013353B10D
:103480005DF8044B70470228F8D008680A490860C4
:103490001046F3E710B4094A52F823100A7A022AB8
:1034A000EAD9032AEAD1441EE4B2012CE6D908681D
:1034B000014908601046E1E704260020705400200E
:1034C00010B5A2B00DF1680C284C0FCCACE80F0081
:1034D00094E80F008CE80F000021159116911791C8
:1034E000189119914FF480131593214B1993109152
:1034F00011911291139114911E4B10931E4B149322
:103500003C2201A821F0A9FC01AC0DF1540CBCE84F
:103510000F000FC4DCF80030236006AC0DF1400C46
:10352000BCE80F000FC4DCF800302360134B0B9392
:1035300020230C9301238DF834308DF83530104B57
:103540000F93104B1AAA01A90F4807F08DFA0446F1
:103550009DF837303BB100214FF4E1301AF0F0F81C
:10356000204622B010BD0321F6E700BF9883020871
:103570003C00015B010010004400015B08260020B4
:103580008454002028260020E426002008B531B904
:10359000084B1868036823B107F07CFE01E001299D
:1035A00000D908BD034B18680368002BF9D01DF043
:1035B0003FFEF6E79854002008B50349034807F09A
:1035C000DDFFFFF77DFF08BD9C5400200C27002085
:1035D00008B502481DF090FB08BD00BFE42600209E
:1035E00008B502481DF088FB08BD00BFE426002096
:1035F00008B5024B5A6A1868904708BDE4260020B7
:1036000008B506481AF020F905481AF01DF90548D2
:103610001AF01AF904481AF017F908BD00840208D4
:10362000E8830208D0830208B883020808B502487C
:103630001AF009FA08BD00BF1884020870B590B0EE
:1036400001212A2003F02CF800250D950E950F95E9
:103650001B4E2A461B49304603F0CAFF8DF839003D
:103660000DF10C0C184C0FCCACE80F000FCCACE8F3
:103670000F0094E803008CE803004FF49663069370
:103680000195029503238DF806308DF8065001232D
:103690008DF800308DF801508DF802508DF80350F0
:1036A00010238DF8013003AA0DA9304603F0E0FF86
:1036B0006A4601A930461CF05AF810B070BD00BF30
:1036C0000040005940420F003084020800B583B02A
:1036D0000B460549097801910092002201211EF054
:1036E00065FC03B05DF804FBE656002070B50446A7
:1036F00006790568322022F04DFD854205D2134B34
:1037000003EBC60300221A7170BD25684FF47A706E
:1037100022F040FD854205D20C4B03EBC60301228B
:103720001A71F1E7246840F6B83022F033FD844284
:1037300005D2064B03EBC60302221A71E4E7034BE2
:1037400003EBC60303221A71DEE700BF2C2700201B
:1037500038B5114B186819F03BFF054690B1284663
:1037600038BD0134E4B2032C0ED80C4B53F82400BE
:103770001AF071F80128F4D123F000FB084B43F84C
:103780003400EEE70024EEE7064B00221A70024BED
:10379000186819F02DFFE2E728270020A454002024
:1037A0002C270020E756002000B9704730B583B0C1
:1037B0000446104D104928681DF058FA19F041FED2
:1037C00019F040FE0D4B00934FF48D730C4A0D49D8
:1037D00028681DF04BFA23460B4A0C4928681DF057
:1037E00045FA204600F088F9094928681DF03EFA9C
:1037F00000BEFDE74C2700204C7002080885020837
:1038000058840208C8840208D4840208DC840208B0
:10381000F484020800B589B0002307E0002226499D
:1038200041F823202549CA540133DBB2032BF5D9D3
:10383000002309E0224A02EBC301042008710021A1
:1038400042F833100133DBB2032BF3D90023019389
:103850000293039304930593069307939DF8043012
:1038600043F001038DF80430DBB243F008038DF818
:103870000430DBB243F020038DF80430114B029387
:10388000114B039302238DF810304FF4806305939E
:103890000523ADF818300423ADF81A300823079338
:1038A0000A4901A800F046F910B909B05DF804FB17
:1038B000FFF77AFFF9E700BF182700201427002040
:1038C0002C270020D138000813D401082827002015
:1038D00010B584B001AA02A9124B186819F0CAFEEB
:1038E000E8B902A8FFF702FF002401E00134E4B2C6
:1038F000032C0ED80C4B03EBC40319790429F5D023
:103900002046FFF765FB084B03EBC40304221A7142
:10391000ECE7044B186819F06BFE04B010BDFFF71C
:1039200043FFFAE7282700202C2700201D4B1B7897
:10393000002B35D170B582B00024032C2ED81A4B41
:1039400053F82430834202D00134E4B2F5E719F091
:1039500082FF01281DD023F011FA144B53F8346074
:10396000861B00968DF80440282022F013FC864226
:1039700005D80E4B03EBC4031B79052B0ED108228F
:1039800069460B4B186819F043FE38B1FFF70CFF7E
:1039900004E023F0F3F9054B43F8340002B070BDA6
:1039A000704700BFE7560020A45400202C270020B9
:1039B0002827002010B58368C26853F822301C788D
:1039C000032C00D90324064B1B5D03B110BD23F06B
:1039D000D5F9044B43F82400014B01221A55F5E7B1
:1039E000142700201827002038B58368C26853F8D0
:1039F00022301C78032C00D90324194B1B5D012BAA
:103A000000D038BD23F0BAF9164B53F82450451BAB
:103A1000134B00221A55322022F0BCFBA84204D9D5
:103A200000212046FFF7D4FAEBE74FF47A7022F03A
:103A3000B1FBA84204D901212046FFF7C9FAE0E70B
:103A400040F6B83022F0A6FBA84204D90221204655
:103A5000FFF7BEFAD5E703212046FFF7B9FAD0E712
:103A6000142700201827002003460B4A107828B19D
:103A70000A4A12789A4202D2002000E00120084A45
:103A800012783AB1074A127842FA03F313F0010FA1
:103A900000D10020704700BFEA560020E956002000
:103AA000C5510020E856002008B5084B01221A70C5
:103AB000074B00221A70074B04221A70064B1F2274
:103AC0001A7006F025FF054B186008BDEA56002065
:103AD000C5510020E9560020E85600204C27002060
:103AE00008B50349034B18681DF0C0F808BD00BFB6
:103AF000208502084C27002070B506460A4C0B4969
:103B000020681DF0B3F806F003FF0546206806F0B4
:103B1000F3FE3046FFF7E4FF284606F0EDFE0449C9
:103B200020681DF0A3F870BD4C27002024850208F2
:103B300028850208F8B500284FD00D460446002914
:103B40004DD0037813F0030F36D04268002A48D0D6
:103B500013F0080F02D0A28A002A44D013F0200FDD
:103B600005D0E38A002B40D0A369002B3FD02C2046
:103B70001DF0B8FC064600283BD02C22002121F085
:103B80006CF921686268A368E0687160B260F360F4
:103B9000306121696269A3697161B261F36123785F
:103BA00013F0040F0ED000272E60636843B1314636
:103BB000114819F0E9FD03E04268002AC8D0212726
:103BC0003846F8BD0121304619F0CEFC07460028E2
:103BD000EAD030461DF065FDF2E72227F0E7222704
:103BE000EEE72127ECE72127EAE72127E8E721276D
:103BF000E6E71927E4E700BF5027002008B503488F
:103C000019F0BBFD19F071FB08BD00BF5027002063
:103C100010B50B4B1C6802E022F05CFE246864B116
:103C200022F05DFE94F82030002BF5D0A36A002B23
:103C3000F2D022F04FFE002000E0012010BD00BFB6
:103C40005027002010B50B4B1C6802E022F042FE0A
:103C5000246864B122F043FE94F82030002BF5D0A4
:103C6000A36A002BF2D022F035FE042000E00120F0
:103C700010BD00BF5027002010B50C4B1C6802E09F
:103C800022F028FE24687CB122F029FE94F820302E
:103C9000002BF5D0A36A002BF2D0013BA36222F0E7
:103CA00019FEA3689847EDE710BD00BF502700201C
:103CB00008B5054822F0E8FE19F038FB012019F09C
:103CC0000EFD00F085F808BD9C87020808B5024883
:103CD00022F0DAFE08BD00BF9C8702082DE9F04102
:103CE00080460F4601F109050026344604E05B21B9
:103CF000082000F081FA0134AC4233D2052C1BD8E5
:103D000001A353F824F000BFEF3C0008213D000858
:103D1000553D0008293D00082D3D0008313D0008B3
:103D2000FBB20433D9B2E3E78021E1E70021DFE70A
:103D3000731C3146DEB2DBE7BB1DA3420CD0FB1D7A
:103D4000A3420BD007F10803A34209D0A31F18F820
:103D50000310CDE7D121CBE75A21C9E75A21C7E7A4
:103D60005D21C5E70020BDE8F08100BF00B583B04C
:103D700000220092019202218DF80010054819F0EE
:103D8000C9FC019008216846FFF7A8FF03B05DF861
:103D900004FB00BF006A180000B583B0044B1B8809
:103DA000ADF8043001A800F003FB03B05DF804FB9C
:103DB0002C85020800B583B0044B1B88ADF8043095
:103DC00001A800F0C5FA03B05DF804FB2C850208D9
:103DD000F0B58DB0444C0DF1140C04F1040EBEE8A6
:103DE0000F00ACE80F009EE807008CE80700238C6A
:103DF000ADF81030A38CADF80C30238DADF8083041
:103E00002388ADF80430394822F03EFE384F38465A
:103E100022F03AFE01258DF82250364B0793364E9C
:103E200005A930461BF067FD2A46042104A800F0CE
:103E300053FA0022294603A800F04EFA2A4604212C
:103E400002A800F049FA2A4604210DEB010000F017
:103E500043FA2A4C2A4BC4F8AC374FF00213C4F88B
:103E6000A837A3F58033C4F8B0371C23C4F89837BB
:103E70004FF4487008F032FAFFF78EFF142008F074
:103E80002DFAFFF797FF232008F028FAFFF784FFA9
:103E9000B92130461BF07DFDFFF78CFF0022114653
:103EA00004A800F019FA0022114603A800F014FA41
:103EB0002A46002102A800F00FFA2A46002101A894
:103EC00000F00AFA304603F011FF0023C4F89837D7
:103ED000C4F8AC37C4F8A837C4F8B037384622F075
:103EE000D8FD0DB0F0BD00BF2C8502089C870208EC
:103EF0008487020800127A0000C0055000C00350F9
:103F00000200030008B50448044A121A921004493A
:103F100019F029FC08BD00BF8001000880030008DB
:103F20002052002008B5154B83F30A8800F030F8C2
:103F3000FFF7E8FF124A0AE01068516850F82300C2
:103F400041F82300013391688B42F5D30C320D4BBD
:103F50009A4201D20023F6E70B4A08E011680020DC
:103F600041F82300013351688B42F7D30832074BE5
:103F70009A4201D20023F6E7FEF7A0F900000020E4
:103F8000E8CB0208F4CB0208F4CB0208F4CB020819
:103F900070B5134B134A9A60D3F8882042F470022C
:103FA000C3F88820104A4FF4804191660F4D05F503
:103FB00000544FF0FF3222660D4A62660222C3F8B7
:103FC000D020BFF34F8FBFF36F8F002006F06AFC45
:103FD0004FF44036E66000201CF0F3FD2E6170BD0A
:103FE00000ED00E000000008009000500080004458
:103FF0007FFF7F01014B1860704700BFDC54002039
:1040000008B5064B1860064B1B6F03F00703032B24
:1040100000D008BD21F0A8F9FBE700BFE454002060
:1040200000800050BFF34F8F0549CA6802F4E06278
:10403000044B1343CB60BFF34F8F00BFFDE700BFBE
:1040400000ED00E00400FA05F0B18446F1B110B4CF
:1040500009E004F120000FE02033C01A18D1BCB1F0
:104060000CF1010C01319CF800400B4B1B5D03F07F
:104070000303012BEDD020460B78074AD25C02F0F7
:104080000302012AE9D1E7E70120704701207047C8
:104090005DF8044B704700BFADCA020830B587B069
:1040A0000546046823798DF80C3063798DF80D305E
:1040B0001A4822F0E9FC0022012103A800F00CF9C3
:1040C0000DF10B0103A819F087FC9DF80B3023704C
:1040D000A379022B02D0002007B030BD4FF0FF3390
:1040E0000593049300950E4B012205A903A800F047
:1040F0002FFA059BB3F1FF3F07D00095084B022232
:1041000004A903A800F084F9E5E70095044B042214
:1041100004A903A800F07CF9DDE700BF9C87020832
:1041200065D8010810B582B0002401942A4822F015
:10413000ABFC8DF8004003238DF8013001220421EF
:10414000684600F0C9F8254B0122C3F8442401A9B0
:10415000052022F092FC00283BD1214BD3F8F0201F
:1041600042F00102C3F8F020D3F8FC2042F0807244
:10417000C3F8FC20A3F55D431A4A1A60019B03F5BE
:10418000D52303F2FC43DB08174AA2FB03239B0A57
:10419000013B164A13610223C2F8F0304FF48073DA
:1041A000C2F804334FF06043114AC3F8B02F114AEC
:1041B000C3F8802ED3F8002E42F48072C3F8002E8C
:1041C000FF2283F82020D3F8002E22F48072C3F857
:1041D000002E02B010BD00BF9C87020800D0035023
:1041E00000ED00E0FF03004017916502000004E0CD
:1041F00055CEACC5090001004FF06043D3F8803EB6
:1042000013F0010F01D1112070470E4AD2F8FC3093
:1042100043F08073C2F8FC304FF06043D3F8002EB7
:104220004FF0010C0CFA00FC42EA0C02C3F8002E1D
:1042300053F82030002BE8D04FF0604303F82010F3
:104240000020704700ED00E010B504460FE00123A8
:10425000834024EA03040F2814D800EB40020E4BDD
:1042600003EB82035A6812B19968C0B2904794B1C7
:10427000234600201F28EAD813F0010FE7D10130B0
:104280005B08F7E7103800EB40039B00B033024AAD
:1042900013440433E6E710BD5427002008B50D4849
:1042A00022F0F2FB1A2006F0EDFA28B91B2006F0E6
:1042B000E9FA40B9002008BD1A2006F0F3FA1A20E6
:1042C0001CF07FFCF2E71B2006F0ECFA1B201CF030
:1042D00078FCEFE79C8702082DE9F04170B30C46AB
:1042E000174605460F292BD803784BB1022B20D057
:1042F000032B21D0012B01D0002303E07F2301E019
:1043000040F2FF736A78D34013F0010F1AD00F4BBD
:10431000D3F81063C6B922F0F5FA80463A46214632
:10432000284603F009FD404622F0E7FA3046BDE892
:10433000F08140F2FF33E5E73F23E3E72226F5E78C
:104340002126F3E72126F1E70226EFE700C003501C
:1043500040B310B5044603784BB1022B1DD0032B9C
:104360001ED0012B01D0002303E07F2301E040F2A7
:10437000FF736278D34013F0010F15D022F0C2FA18
:10438000237862780121914003EB43031B01074A24
:10439000D15022F0B2FA002010BD40F2FF33E8E71E
:1043A0003F23E6E7222070472120F5E740D0035065
:1043B00040B310B5044603784BB1022B1DD0032B3C
:1043C0001ED0012B01D0002303E07F2301E040F247
:1043D000FF736278D34013F0010F15D022F092FAE8
:1043E000237862780121914003EB43031B01074AC4
:1043F000D15022F082FA002010BD40F2FF33E8E7EE
:104400003F23E6E7222070472120F5E740E00350F4
:10441000002866D02DE9F0410C4615461F46064699
:10442000002960D002784AB1022A3ED0032A3FD048
:10443000012A01D0002303E07F2301E040F2FF7353
:104440007178CB4013F0010F01D1FF2A4DD1022D1D
:1044500001D9042D4BD122F055FA80463378FF2B39
:1044600028D12368B3F1FF3F2BD02268B2F1FF3F80
:1044700032D0204B02EB420203EB820257602268EB
:1044800002EB420203EB8203069A9A603378FF2B19
:1044900005D0226801239340174AC2F824344046CD
:1044A00022F02BFA0020BDE8F08140F2FF33C7E78D
:1044B0003F23C5E72A462168304603F0A7FC206069
:1044C000CFE73378FF2BD0D10C4BD3F8241470787E
:1044D0001BF079FA2060C8E7404622F00EFA2D2042
:1044E000E1E7222070472220DDE72120DBE72120C1
:1044F000D9E700BF5427002000D0035000C003506C
:10450000B0F1FF3F1AD038B504460F2818DC002858
:1045100018DB22F0F7F90123A3400B4AC2F820343C
:10452000C2F82434094B04EB440203EB8202002559
:104530005560956022F0E1F9284638BD212070478A
:104540002120FAE72120F8E700E00350542700205B
:10455000002856D02DE9F0410C4617461E46054668
:10456000002950D0017849B1022939D003293AD025
:10457000012901D0002303E07F2301E040F2FF7313
:104580006A78D34013F0010F01D1FF293DD122F009
:10459000B9F980462B78FF2B27D12268B2F1FF3F73
:1045A0002AD01B4B02EB420203EB8202C2F8B86036
:1045B000226802EB420203EB8203069AC3F8BC2096
:1045C0002B78FF2B06D02268103201239340114A2A
:1045D000C2F82434404622F090F90020BDE8F08172
:1045E00040F2FF33CCE73F23CAE73A46216828462A
:1045F00003F0ACFC2060D0E7404622F07EF92D208D
:10460000ECE7222070472220E8E72120E6E700BF00
:104610005427002000D0035008B5084BD3F82404D9
:10462000D3F82024104000F0553020F0502003F53E
:104630000053C3F82004FFF707FE08BD00C0035075
:1046400008B5084BD3F82404D3F82024104000F018
:10465000AA3020F0A02003F50053C3F82004FFF790
:10466000F3FD08BD00C0035070B586B00546036871
:10467000B3F1B64F27D0304A934222D04FF0FF36E5
:10468000B3F1B64F21D02C4A934252D12B4822F09D
:10469000FBF92B798DF804306B798DF80530AB7907
:1046A0008DF80030EB798DF8013001220A2101A844
:1046B000FFF712FE01220A216846FFF70DFE0024D3
:1046C00012E00126DCE70026DAE71D48DFE701A853
:1046D000FFF76EFE642007F001FE01A8FFF738FE29
:1046E000642007F0FBFD0134092CF0DD154A02EBD4
:1046F00006110323C1F8383568792B7943EA004362
:10470000C1F83C35E979AB7943EA014354363601C7
:10471000935101238DF808308DF80930EB6804932C
:10472000AB6803932B7C8DF8143002A9286802F043
:1047300003FF06B070BD00BF0080065094870208DA
:104740009887020800C0035010B582B004460A489A
:1047500022F09AF923788DF8043063788DF80530CB
:10476000A278B2FA82F2520904210DEB0100FFF7A0
:10477000B3FD002002B010BD9C870208F0B585B0E3
:104780000C4694469DF83410664A1278002A00F0D0
:10479000BD800546BCF1070F00F2BA800A9A002AD4
:1047A00000F0B8800B9A002A00F0B6800E9AB2F59D
:1047B000006F00F3B38001285BD05B4A02EB0C1260
:1047C000127B002A00F0AC8000220092019202923B
:1047D0000392564A02EB4C1E002C4FD14FEA4C1666
:1047E00000209051CEF80400CEF80800CEF80C005E
:1047F0009EF8020040F010008EF802009EF80300C0
:1048000040F030008EF8030021B9C1B241F003013D
:104810008EF8031000930E9B013B444A4FEA4C1064
:1048200002EB4C11165A63F30E1616520A9B8B605C
:104830000B9B4B60CB789DF83C2062F38303CB70DD
:10484000012D36D0109B002B56D0374A4FEA0C1161
:1048500002EB0C1310985050119A5A6000249C607F
:104860005D7372466946604603F028F9204605B03C
:10487000F0BD0C9A002AA0D12D48F8E72B4F4FEA43
:104880004C1607EB4C120020B85150609060D0607D
:10489000907840F010009070D07840F00300D07015
:1048A0000029B7D107EB4C12C1B241F03001D170F1
:1048B000B0E70E460A7B42F001020A73D2B242F020
:1048C00002020A73CA68042161F39F02F26006F1D2
:1048D000100796E80F0087E80F00F2696FF00301F8
:1048E00061F39F02F2610C9B7361012CAAD10B9AB8
:1048F000B2610C9A7260A5E7002DA6D10B4B03EBB9
:104900004C139A786FF304129A709EE70948AEE749
:104910000748ACE70648AAE70548A8E70448A6E721
:104920000548A4E7C6510020BC290020BC2800206F
:10493000018000F0028000F0078000F0134B1B782C
:10494000FBB110B50446F0B121F0DCFF0023072BCA
:1049500013D80F4A02EB0312127B0AB10133F6E7B8
:1049600023600B4A190102EB031301241C7300247A
:10497000545021F0C2FF204602E021F0BEFF05485E
:1049800010BD054870470548FAE700BFC651002032
:10499000BC290020048000F0028000F0018000F0BB
:1049A00038B521F0AFFF04460023072B06DC0C4A84
:1049B00002EB0312127B12B90133F6E7002222B197
:1049C000204621F09AFF074838BD03F023F8002560
:1049D000054B1D70204621F090FF2846F4E700BFEC
:1049E000BC290020058000F0C65100200F4B1B7829
:1049F000BBB110B50446072815D821F083FF0C4B36
:104A000003EB04131B7B1BB921F077FF09480BE074
:104A1000074B03EB041300241C7321F06EFF2046A8
:104A200002E005487047054810BD00BFC651002090
:104A3000BC290020068000F0028000F0018000F018
:104A400000B583B0134B1B68019300238DF804302D
:104A500021F058FF104B1B7833B90F4B01221A700D
:104A600021F04BFF002309E021F047FF0B480EE047
:104A70000B4A02EB0312002111730133072BF7DD00
:104A800008238DF8073001A802F0E8FF002003B0EA
:104A90005DF804FB58850208C6510020038000F031
:104AA000BC29002010B5104C2478BCB1072817DCB5
:104AB0000E4C04EB0014247BA4B10C4C4FEA001EF6
:104AC00004EB001C44F80E30029BCCF804300024A8
:104AD000CCF8084002F0F2FF204610BD0448FCE785
:104AE0000448FAE70448F8E7C6510020BC29002032
:104AF000028000F0018000F0078000F008B50A4B4A
:104B00001B785BB107280BD8084B03EB00131B7B0A
:104B100043B1002102F094FF002008BD0448FCE7E7
:104B20000448FAE70448F8E7C6510020BC290020F1
:104B3000028000F0018000F0078000F008B50A4B09
:104B40001B785BB107280BD8084B03EB00131B7BCA
:104B500043B1012102F074FF002008BD0448FCE7C6
:104B60000448FAE70448F8E7C6510020BC290020B1
:104B7000028000F0018000F0078000F0F8B5194BCA
:104B80001F6D5B6D1F4002D40125002402E0FEE78B
:104B900001346D00072C24D83D42F9D0124B1D651D
:104BA0002301124AD358002BF2D002EB0416B1684D
:104BB0000131B16072682046984780F00100C0B2B0
:104BC000737B012BE4D10028E2D0094B03EB4413A3
:104BD0001A7B6FF341021A731A7F6FF341021A773F
:104BE000D6E7F8BD0000045000200450BC29002086
:104BF000BC2800202DE9F04F89B005460E4614462A
:104C00009846C36B5B69012207A960689847EB6B04
:104C10005B69012206A93046984707A81AF06DF98A
:104C200048B10027A77567754FF0FF33A36038467A
:104C300009B0BDE8F08F074606A81AF06EF9012307
:104C4000A375237E033304EBC3035E6000221A8145
:104C50006368B3422AD02368834201D00023A3753E
:104C600006A81AF07FF9237D984201D00023A3758E
:104C700006A81AF056F9814607A81AF052F981459C
:104C800001D00023A37506A81AF053F9814607A89E
:104C90001AF04FF9814501D00023A375237D043B11
:104CA000DBB2022B0BD80023A375C0E7206006A857
:104CB0001AF058F920754FF0FF33A360EEE706A80D
:104CC0001AF02FF980B1EB6B5B69022204A9304620
:104CD000984704A81AF038F90346207D032868D8BD
:104CE000DFE800F0615B070D06A81AF02DF9034616
:104CF000F3E7237E033304EBC303CC221A811AF0BB
:104D000041F9129B187094F8189006A81AF0FCF854
:104D100009F1030904EBC90989F80A00237E03336A
:104D200004EBC303B3F808A093F80AB006A81AF07E
:104D3000F8F8814606A81AF0FCF80390B9F1000FC4
:104D40003DD0EB6B5B69022204A93046984704A86A
:104D50001AF0B6F86075637D03B9A375A37DA3B19E
:104D6000BAF1000F11D0039BF1186B6C5B4286EA1D
:104D700001021A4201D00023A3756B6C5A1E0A402F
:104D80009B1A9A4501D90023A375A37D002B40D01F
:104D9000BBF1000F18D1E77D3CE0227E033204EB2B
:104DA000C2021381ABE7227E033204EBC2021381FD
:104DB000A5E7227E033204EBC20213819FE706A817
:104DC0001AF067F86075C6E70122E275627EBAB92B
:104DD000BBF1010F08D095F83470DFB9EA6AB2F17F
:104DE000FF3F05D01F4615E001216176174611E00F
:104DF000BBF1030F01D01F460CE00122A27609E0AF
:104E0000BBF1010F37D0BBF1030F03D10122A27612
:104E100000E01F4653B117B1BBF1010F06D953464D
:104E2000039A3146284619F0ABF9A060A37D13B16F
:104E3000236953442361237E114A127893421CD282
:104E400001332376B8F1000F13D0A37D8BB1E37D3E
:104E50007BB177B9BBF1030F0BD0A168B1F1FF3F74
:104E600007D0129B0093012322462846FFF7C2FE7B
:104E7000A075A77DDBE61746CCE70023A375E1E725
:104E80007C8502082DE9F04F89B005460F46924611
:104E90009B4600238DF80B304FF0FF31104600F099
:104EA000EFFFB7F5801F1DD30023009317F1020F0A
:104EB00007D0009B002B40F09E802B7C002B00F045
:104EC0008C80EB6AB3F1FF3F2CD02A689B1A6A6C86
:104ED000B3FBF2F917F1020818BF4FF001080023E5
:104EE00001935DE00DF10A02394605F1080000F07A
:104EF00017FF0146B0F1FF3F11D0504600F0C0FF50
:104F00000DF10B0301225146284619F0B8F9009023
:104F10000028CBD09DF80B308BF80030C6E700237B
:104F20000093C3E7696A284619F04BF88146D1E738
:104F30000123019337E09DF80B308BF80030324BA2
:104F40001A68324950461FF0AFFF00942F4B996802
:104F5000B1F1FF3F1BD06B6C5B4281EA06021A4243
:104F600015D12A4C204600F08BFF0DF10B03424671
:104F70002146284619F083F904460028E6D017F1A7
:104F8000020FD8D0214B1B68BB42DFD1D3E7494683
:104F9000284619F016F88146019BCBB9009BBBB996
:104FA0006B6A4B45C4D02C686B6C03FB0944EB6BFC
:104FB0005B69052203A92046984703A81AF079F8EF
:104FC0001AF09EF820461AF0A7F806460146BFE7F9
:104FD000009BA3B1B7F5801F03D3009B8BB10020CA
:104FE0000AE09BF80030DAF80420394605F10800A1
:104FF00000F0B4FEF1E7002009B0BDE8F08F2D20ED
:10500000FAE72D20F8E700BF78850208B0300020CD
:1050100070B582B004464FF0FF33C3620DF1070351
:105020001A4A6FF00101FFF72DFF20BB174B9B6859
:10503000E362E56A2946204618F0B4FD2063E8B132
:105040002946204619F08CF80546A36AAB421BD0CE
:105050002946204618F0A6FD0646236B0344236329
:105060002946204619F07CF80546002EEDD1002394
:105070002363E062E9E7A36AE362DAE7E16A2046D4
:1050800019F06EF8E062DBE702B070BDDC300020A2
:1050900030B583B01C46032A14BF002201221B7EB8
:1050A0009A4202D0012003B030BD0D460968236842
:1050B0009942F7D363689942F4D80DF10703114A76
:1050C000FFF7E0FE0028EDD10E4B5A686B689A425C
:1050D000E8D19DF80730032B14BF00230123227E63
:1050E0009342DFD16369013363612369E2689342CC
:1050F000D8D2A268296842F82310236901332361BA
:10510000D0E700BFDC3000202DE9F04182B004463A
:105110000E4690461F46816A06E01A4B9968B1F127
:10512000FF3F1FD0012E23D0E06A884217D0B1F193
:10513000FF3F14D0134D284600F0A2FE0DF10703E7
:1051400001222946204619F09AF80028E5D03B466E
:105150009DF8072029462046C0470028DDD102B02F
:10516000BDE8F0815968204618F0FAFF0146D9E7FA
:10517000044B5A68636C5B424A401A42D4D04FF0E9
:10518000FF31D1E78430002010B50446083000F02C
:105190008DFD0023024A19462046FFF7B5FF10BDDA
:1051A0006DE2010838B50446037C0BBB0246134987
:1051B000083000F01DFE616A204618F024FF421CF2
:1051C000616A204618F075FE054620B9236B626CB3
:1051D0001344143B2363A16A204618F0C1FFA06268
:1051E0002368C01A636CB0FBF3F06062284638BDD8
:1051F0000023034A0121FFF787FFDCE705E60108EA
:10520000D3E50108F0B589B080B30F4616461D46B8
:10521000044690F834301BB90025284609B0F0BD8B
:10522000012118F01BFE01950E9B02930397049633
:105230000023059306939DF83C308DF81C30237CA9
:105240005BB901AA0A4904F1080000F0D1FD5EB97A
:10525000069D204619F0A4F8DFE701AB054A0021BE
:105260002046FFF751FFF2E7059DF2E70025D4E75E
:1052700021DE010891500008F0B58BB004460D46C0
:10528000406AE36B5B69052205A92668676C07FB2A
:105290000060984705A819F00CFF012836D000944B
:1052A000002301938DF80850039301238DF81030EB
:1052B000A16AE36A99420FD0237CBBB96A461449BC
:1052C00004F1080000F094FD019B13B99DF8103023
:1052D0009BB901980BB0F0BD204618F041FFE06289
:1052E000236B626C9B1A14332363EDE76B46094A08
:1052F00001212046FFF708FFE6E7626A2368616C38
:1053000001FB0231E06B19F086FEE2E70020E1E7E5
:105310001D5500089D5400082DE9F04F89B0044642
:105320008A4691461D46002307930969026BCB1DEF
:10533000406C1438B3FBF0F3013301EBC30191422D
:1053400000F2A7804E4677E03D2840F0928004901E
:10535000BB4605961EE04FF000092368616C01FB17
:105360000631E06B19F043FE204618F081FD20461F
:1053700018F01DFF2063B9F1000F76D0DAF8102085
:10538000D31D616C1439B3FBF1F3013302EBC3029B
:1053900090423AD32368ABEB0309606CB9FBF0F998
:1053A00009FB003019F0B8FE8046E16A204618F08B
:1053B000D7FEA36A83422CD0E062374B9A68616CB7
:1053C0004B1E1340226B5B1A13442363ABEB08079D
:1053D0002368079EF61AB6FBF1F6B145BBD197B12B
:1053E000E36B9B69BA08414698478146E36A3B44B0
:1053F000E362236BA8EB0B084344236304F108002A
:1054000000F054FCA9E7B946A7E7DDF810B0059E07
:1054100002E0DDF810B0059EBBF1000F29D0DAF8EC
:105420001000226BC31D616C1439B3FBF1F301331F
:1054300000EBC30082421CD3E76ADFF85C80394688
:10544000404600F01DFD07AB0293019500963B46D8
:1054500042465146204619F0CEF9834600287FF493
:1054600073AFD8F80830E362D6E7DDF810B0059ED8
:10547000D2E75F461FB1384609B0BDE8F08F2B4632
:10548000054A5268DAF8001004F1080000F066FCE2
:10549000F1E71C27EFE700BFB0300020F0B583B084
:1054A0001C46032A05D1237A012B33D0012003B0F7
:1054B000F0BD06460F4615460DF10703164A09686A
:1054C000FFF7E0FC60600028EDD19DF80730032B6A
:1054D000E9D0114B5A687B689A42E4D1237A012BB8
:1054E00008D13B69E26813447269934202D90023F0
:1054F0002374D8E7E3683A6913440833E3602B4622
:10550000012239463046FFF707FF60600028CAD005
:105510000020CCE7207CCAE7DC300020F0B583B067
:10552000089C2668032A05D1237A012B4DD001203F
:1055300003B0F0BD15460DF10703254A3046FFF7CD
:10554000A1FC60600028EFD12168214B5A688B6A6A
:10555000486CC0F1000C5A4012EA0C0FE4D1227AD8
:10556000012A19D00F68DB1BB3FBF0F3CA6AD21B08
:10557000B2FBF0F29A4219D0E36815490A69134464
:105580000833E3602B4601222068FFF7C5FE606008
:105590000028C9D00020CBE70D4A1269E7683A44D9
:1055A0007769BA42DED900232374BDE7726CF16AD1
:1055B000531E0B40316B9B1A0B4433632668B16A50
:1055C000304618F0CDFDF062D6E7207CB0E700BF92
:1055D000DC300020F8B56E4B1E6800221A600028EF
:1055E00000F0B6800D46044690F8343013B30A68D4
:1055F00003689A4240F0AE804A6843689A4240F09D
:10560000AC808A6883689A4240F0A980CA68C368FF
:105610009A4240F0A6800A6943699A4240F0A3800A
:105620008A69C36B9A4201D05D2594E04B6983611E
:10563000002590E0876B682200211FF00EFCA76315
:105640002B6823606B6863602B6963616B69A3617E
:10565000EA68A96804F1080000F03AFBAB69E3636B
:105660009B6804F14000984730B9636C23B16268CD
:10567000B2FBF3F2E26101E00023E36194F843300E
:10568000002B72D000232366656C002D6FD0E36978
:10569000002B6ED02368B3FBF5F205FB1233002B11
:1056A00069D16768B7FBF5F305FB1373002B64D171
:1056B000204618F067FAA369034404339F425ED37F
:1056C0006369B3F5805F5CD8CB2B5CD9B5F5805F9F
:1056D0005BD30321204618F0C1FBE36B1B686168B4
:1056E000206898470546E36BDB6802209847EDB1D8
:1056F000636C143B5DB9266A03FB06F6204618F07E
:1057000041FAA369034404339E4200D25A25B5FAF4
:1057100085F35B0984F834301BB11E4A13680133EA
:10572000136085B1204618F03BFE14E03146204658
:1057300018F0B9FD05466428DAD13146204618F044
:10574000B2FD0546D4E76168206819F045FBE9E73A
:10575000212500E05D252846F8BD5D25FBE75D2598
:10576000F9E75D25F7E75D25F5E72125F3E75B25FB
:10577000F1E75B25EFE75925EDE75925EBE75A25DA
:10578000E9E75F25E7E75F25E5E75B25E3E700BF9E
:10579000402A00203C2A0020F0B585B0A8B30C4672
:1057A00017461E46054690F8343083B3B1F5801F86
:1057B0002FD2012118F052FB0DF10F03164A21469A
:1057C0002846FFF75FFB044630B99DF80F30012BE8
:1057D00008D0022B17D02D24284618F0E1FD2046D2
:1057E00005B0F0BD0C4B1B69B34201D06324F3E755
:1057F00000220192084B009333463946284618F0A0
:10580000D7FD0446E8E76024E6E72124E7E7112412
:10581000E5E72924E3E700BF08310020F0B585B0B3
:10582000002838D00C4617461E46054690F83430FE
:105830009BB3B1F5801F32D2012118F00FFB0DF19F
:105840000F03184A21462846FFF71CFB044630B9CF
:105850009DF80F30012B08D0022B1AD02D2428469A
:1058600018F09EFD204605B0F0BD0E4B1A690A9B4C
:10587000F3189A4201D26324F1E700230193094B04
:1058800000930A9B32463946284618F091FD04469B
:10589000E5E76024E3E72124E4E71124E2E7292493
:1058A000E0E700BF0831002070B582B058B30C4665
:1058B0001646054690F834303BB3B1F5801F26D22A
:1058C000012118F0CBFA0DF10703124A21462846B0
:1058D000FFF7D8FA044668B99DF80730032B10D0BB
:1058E000022B01D0612406E00A49284618F047FF40
:1058F000306000E02D24284618F052FD204602B00A
:1059000070BD2D24F7E72124F8E71124F6E72924B8
:10591000F4E700BF08310020F0B583B01C46002337
:10592000236070B30E461746054690F8343053B3E3
:10593000B1F5801F29D2012118F090FA0DF107036B
:10594000134A31462846FFF79DFA064680B99DF86E
:105950000730032B13D0022B05D000233B600C4BE8
:105960001B69236005E001233B600423236000E002
:105970002D26284618F014FD304603B0F0BD2D2624
:10598000F7E72126F8E71126F6E72926F4E700BF16
:105990000831002000B583B0044B009300231A4661
:1059A000194619F01DF903B05DF804FBFFFF0F0065
:1059B00000B583B0044B009300231A46194619F032
:1059C00019F903B05DF804FBFFFF0F002DE9F84360
:1059D0001D469DF820704369AB422FD3044688468C
:1059E000914618F0CBFD032F06D0266B29462046A2
:1059F00018F0B8F8864225D3134E4FF0FF313046E9
:105A000000F03EFAC6F800803561C6F80C903B46BF
:105A1000002231462046FFF77FFC0546236E73B116
:105A2000204619F0F1F894F8503013B994F8583032
:105A30002BB1236E04F15000984700E06225284600
:105A4000BDE8F8831C25FAE7DC3000202DE9F041A1
:105A500084B000283AD00C4690461F46054690F880
:105A60003430ABB3B1F5801F34D2022118F0F6F90F
:105A70000DF10F03184A21462846FFF703FA18B91B
:105A80009DF80F30012B0FD0012300933B46424677
:105A900021462846FFF79AFF0646284618F080FC64
:105AA000304604B0BDE8F0810B4B1B69BB42EBD123
:105AB00001230193084B00933B46002241462846B0
:105AC00018F076FC06460028E7D0DDE72126E7E758
:105AD0001126E5E72926E3E708310020F0B583B079
:105AE000A0B30C461646054690F8343083B3B1F5A2
