S014000054785F4C525F436F6E6E6563742E733337EE
S3150800000000200020A141000875DA010875DA010808
S315080000101B1F020875DA010875DA010875DA010886
S3150800002075DA010875DA010875DA010875DA010862
S3150800003075DA010875DA010875DA010875DA010852
S3150800004075DA010875DA010875DA010875DA010842
S31508000050D961000875DA010875DA010875DA010848
S3150800006075DA010875DA010875DA01082138000819
S315080000701138000875DA010875DA010875DA010819
S3150800008075DA010875DA010875DA010875DA010802
S3150800009075DA010875DA0108F94D000875DA0108FC
S315080000A075DA010875DA0108BD48000895480008A0
S315080000B075DA010875DA0108E9AC010895B701088F
S315080000C0395002083550020849AF01084F50020856
S315080000D03D50020865B7010841500208F9B7010802
S315080000E031B8010875DA010875DA0108B9C80008D7
S315080000F075DA0108B10E020875DA010875DA010821
S3150800010075DA010875DA010875DA010875DA010881
S3150800011075DA010875DA010875DA010875DA010871
S3150800012075DA010875DA010875DA010875DA010861
S3150800013075DA010875DA010875DA010875DA010851
S3150800014075DA010875DA010875DA010875DA010841
S3150800015075DA010875DA0108A9710208D59101084E
S3150800016075DA010875DA0108D34F0208D94F020873
S31508000180194A5AB3194BDB6913F0040F29D110B475
S315080001900AE003EA00048C4210D0013AB2B1134BCC
S315080001A0DB6913F0040F14D110F0010FF1D1104CD4
S315080001B01C40002CEDD06FF001000CE00C4A1A40F0
S315080001C00AB9002007E06FF0010004E06FF00200B2
S315080001D001E04FF0FF305DF8044B70476FF0020006
S315080001E070474FF0FF307047809698000000035024
S315080001F0020001000D4BDB6913F4803F12D170B584
S315080002000A4B03F580560124F46003F500552C6467
S315080002104FF480721A6100212046FFF7B1FF34645B
S31508000220EC6070BD6FF00100704700BF000003501E
S3150800023010B5124B4FF480329A6603F51C33DC690D
S31508000240144041F67132DA6303F580520121D16018
S31508000250586102221A6100212120FFF791FF40B15F
S31508000260074B0122DA601CB1A3F500530022DA63BA
S3150800027010BD00212120FFF783FFF1E70090005011
S315080002800020035038B51A4B5861DB6913F0040F88
S315080002902AD10C4654F8041B154B9961151F06E024
S315080002A0214651F8042B124B9A61043D0C465DB168
S315080002B008210846FFF764FF03460028F0D00C4AD9
S315080002C004211161184638BD094B04221A61002120
S315080002D02120FFF755FF03460028F3D100212120EE
S315080002E0FFF74EFF0346EDE74FF0FF33EAE700BF9F
S315080002F0000003502DE9F0410F46164605461A4BF5
S315080003004FF480329A6603F51C33DA6902F48038B2
S3150800031041F67132DA6303F580530122DA6000236D
S3150800032002E025442744361B8EB105F5005424F413
S31508000330FF5424F01F04641BB44228BF34462246E7
S3150800034039462846FFF79EFF03460028E9D0074AA4
S315080003500121D160B8F1000F03D0A2F500520021A7
S31508000360D1631846BDE8F081009000500020035084
S31508000370000000000000000000000000000000006F
S31508000380013800D0FCE770472DE9F04F2DED028BC0
S3150800039093B082460C4693461D4657EC106B8DED7E
S315080003A0080B32463B46304639461BF015FF0028F7
S315080003B000F009814FF0FF32B14B304639461BF049
S315080003C033FF002840F0FF804FF0FF326FF48013B0
S315080003D0304639461BF00AFF002840F0F480002218
S315080003E00023DDE90867304639461BF0FFFE002882
S315080003F040F0FC809DED087B8DED067B209B13F479
S315080004008063119301D106231E93DDE90601024696
S31508000410C1F30A50C1F31303904643F07F5949F4D8
S315080004204019A0F2FF301BF005FC83A3D3E9002393
S315080004301BF06AFC82A3D3E900231BF0AFFA064639
S315080004400F4600228F4B404649461BF0A5FA7EA36D
S31508000450D3E900231BF058FC02460B4630463946C2
S315080004601BF09CFA1BF0EAFE06461BF0E3FB8046EF
S31508000470894677A3D3E900231BF046FC0022824B6A
S315080004801BF08CFA1BF0DAFE074673A3D3E90023A8
S31508000490404649461BF038FC8046894638461BF0DC
S315080004A0C9FB6FA3D3E900231BF02EFC02460B46BB
S315080004B0404649461BF070FA8046894602460B4676
S315080004C01BF022FCCDE90C0107F2FF3700210022C0
S315080004D0CDE90A123B050B9300230A9342464B4685
S315080004E0404649461BF05AFACDE90E0142464B46AC
S315080004F000204FF080411BF04FFA804689460022C3
S31508000500624BDDE90C011BF029FD0022604B1BF054
S3150800051045FA02460B46DDE90C011BF01FFD0022D9
S315080005205C4B1BF03BFA02460B46DDE90C011BF05F
S3150800053015FD02460B46404649461BF02FFA024671
S315080005400B46DDE90E011BF009FD0022524B1BF09C
S3150800055025FADDE90A231BF0D7FB8046894649ECD4
S31508000560188BDDE906231BF05FFE40B1013E002231
S31508000570474B404649461BF0F1FC41EC180B06F187
S315080005806303C62B3BD80427209B13F4006F40D087
S3150800059035A3D3E90023DDE90689404649461BF021
S315080005A039FE00283BD032A3D3E90023404649460A
S315080005B01BF01CFE002832D01E9BB34221DD9E1B79
S315080005C0731E1E931FE0209B02931F9B01931E9B85
S315080005D000939DED080B2B465A462146504600F0DF
S315080005E0CBF813B0BDEC028BBDE8F08F9FED227BF4
S315080005F08DED067B069607F100430793FEE6052771
S31508000600C2E700231E93209B43F4806320930027B0
S315080006103E461F9B9F4241D2A3EB070840E01E9B24
S31508000620002BF6D0119B002BF3D01E9B013B1E938B
S31508000630EFE700BFAFF30080FB799F501344D33F29
S31508000640B3C8608B288AC63F61436F63A787D23FCA
S3150800065071A379094F930A401655B5BBB16B024091
S31508000660EF39FAFE422EE63F2D431CEBE2361A3FDF
S315080006700000000080842E410000000000000000F9
S31508000680FFFFEF7F0000F83F0000E03F00002C402E
S3150800069000002440000018400000F03F4FF000081A
S315080006A0209B13F0020902D00FB14FF000083EB1AB
S315080006B053EC182BDDE906011BF050FCCDE90601C9
S315080006C000220023DDE908011BF090FD00283BD13C
S315080006D0209B23F400630293CDF804801E9B0093AD
S315080006E09DED060B2B465A462146504600F044F827
S315080006F0002F3FF476AF209B13F0200F2CD04FF03D
S31508000700450C00F101082B46024621466046D047B3
S3150800071086EAE672A2EBE67205230593013F049783
S31508000720002303930A230293F30F019300922B46A7
S3150800073042462146504623F073F8B9F1000F3FF4BC
S3150800074050AF02461F9F10E0DDE90601024601F19F
S315080007500043CDE90623BBE74FF0650CD1E7561CED
S315080007602B4621462020D0473246A2EB0B03BB423C
S31508000770F5D3104635E700BF2DE9F04F2DED028B76
S3150800078093B00590089192469B4659EC108B1E9D96
S3150800079042464B46404649461BF01EFD002840D0BF
S315080007A04FF0FF326FF48013404649461BF01EFD9A
S315080007B0002845D14FF0FF32B14B404649461BF061
S315080007C033FD00284BD1AAA3D3E900234046494666
S315080007D01BF02AFD00285AD1A7A3D3E900234046D7
S315080007E049461BF003FD002851D10022002340464C
S315080007F049461BF0FBFC002857D100230993209B90
S3150800080013F4806F5CD000241F2C5BD8092D59D9AE
S3150800081004F148036B44302203F8202C013D0134CF
S31508000820F2E7209B03931F9B029303230193954BA7
S3150800083000935B4652460899059822F017FF10E187
S31508000840209B03931F9B0293042301938E4B0093D3
S315080008505B4652460899059822F008FF01E1209B5D
S3150800086013F004030FD0894A7BB10423209903911E
S315080008701F990291019300925B4652460899059882
S3150800088022F0F4FEEDE0824AEEE70323EEE7209B32
S3150800089002931F9B0193009549EC108B5B465246C9
S315080008A008990598FFF770FDDBE042464B460020A5
S315080008B000211BF071F880468946012309939EE7BB
S315080008C00625A0E7404649461BF0B8FC06461BF03D
S315080008D0B1F902460B46404649461BF05DF86D4B9A
S315080008E003EBC50393ED008B53EC182B1BF00CFAA6
S315080008F002460B46CDE906231BF0C8FC07461BF04B
S3150800090089F902460B46DDE906011BF045F8024661
S315080009100B46CDE9062300225F4B1BF085FC50B33E
S31508000920013738461BF076F902460B4651EC180B90
S315080009301BF066FC08B10136002755BB30461BF094
S3150800094079F902460B46404649461BF025F880468B
S3150800095089460022504B1BF049FC38B100224E4B09
S31508000960404649461BF060FC002842D016F0010FAD
S315080009703FD001363DE00022474BDDE906011BF07A
S3150800098035FC0028D9D117B117F0010FD5D001379A
S31508000990D3E71F2C17D8013D404BA3FB0723DB08E1
S315080009A0194603EB8303A7EB4303621C303304F1B8
S315080009B048000DEB000404F8203C092F02D90F4625
S315080009C01446E6E714461F2C0AD86B1E45B104F1F7
S315080009D048026A44302102F8201C1D460134F2E719
S315080009E01F2C06D804F148036B442E2203F8202C4A
S315080009F001341F2C17D82A4A82FB0632F317C3EB99
S31508000A00A2031A4603EB8303A6EB4303611C3033A8
S31508000A1004F148000DEB000404F8203C16460AB120
S31508000A200C46E6E70C46209B03F00303012B39D05E
S31508000A301F2C09D8099B002B51D004F148036B449D
S31508000A402D2203F8202C0134209B03931F9B02932D
S31508000A5001940AAB00935B4652460899059822F022
S31508000A6005FE13B0BDEC028BBDE8F08FAFF3008036
S31508000A700000000065CDCD410000000065CDCDC168
S31508000A80FFFFEF7F148F0208188F0208088F0208ED
S31508000A90108F0208208F02080000E03FCDCCCCCC96
S31508000AA0676666661F9BB3B1099B1BB9209B13F04B
S31508000AB00C0F12D01F9B013B1F93194606E004F149
S31508000AC048036B44302203F8202C01348C42AFD201
S31508000AD01F2CF4D9ACE71F99F8E71F99F6E7209B76
S31508000AE013F0040F07D004F148036B442B2203F8D4
S31508000AF0202C0134A8E7209B13F0080FA4D004F19A
S31508000B0048036B44202203F8202C01349CE700BFDD
S31508000B1038B50D46044626F07BF8064A13889BB27C
S31508000B202DB123431380BDE8384026F06CB823EA7C
S31508000B300403F7E7384B00200022034B01214FF44A
S31508000B4080709A70E4E700BF384B00207FB54E6886
S31508000B5002A9044623F0FEFC9DF808300C2B19D197
S31508000B60134BB3F90050134B9E4218D807F00CFDEF
S31508000B7003460068694600909B882046ADF8043015
S31508000B8023F0D5FC70B140F25F620B490B480DF0BB
S31508000B9003FEFEE7204613F001FC0546E3E71FF0D7
S31508000BA0F3F8E5E72946204623F0A7FC04B070BD14
S31508000BB00E510020FFC99A3BC9910208948F02087A
S31508000BC0002330B5134C85B0CDE901330393237860
S31508000BD08DF8043026F01CF8A288E38805469A4268
S31508000BE00DD0E188A06801AAA18023F03CFB58B18A
S31508000BF040F2DA62084909480DF0CEFDFEE7A06822
S31508000C0023F00AFB0128ECD0284625F0FCFF05B0A6
S31508000C1030BD00BF70550020C9910208948F0208A4
S31508000C2038B50F4C656835B940F2C7720D490E489C
S31508000C300DF0B2FDFEE722F0C8FE284410F0FCFCD9
S31508000C4000F00700032809D164680921204622F02C
S31508000C50D8FF205C031F5842584138BD0020FCE7E6
S31508000C60384B0020C9910208948F020808B5114B29
S31508000C709A78042A06D040F28E520F490F480DF092
S31508000C808BFDFEE71B881B0706D440F28F520A49E4
S31508000C900A480DF081FDFEE700210820FFF738FF1E
S31508000CA00222074B98681A7313F032F9BDE8084018
S31508000CB021F08FBA384B0020C9910208948F020898
S31508000CC07055002010B5084CA06813F021F9A068EB
S31508000CD023F0A2FA012806D00122A0681146BDE831
S31508000CE0104023F09BBA10BD7055002038B5194D39
S31508000CF0AB7833B140F22B72174918480DF04CFD0A
S31508000D00FEE725F085FF2988044611F0060109D07B
S31508000D1001214FF48070FFF7FBFE2046BDE83840FE
S31508000D2025F071BF4FF48070FFF7F2FE12F042FA19
S31508000D30012805D010F0FD0F05D1FFF741FFECE7BC
S31508000D40FFF7C0FFE9E740F24172034903480DF097
S31508000D5023FDFEE7384B0020C9910208948F02084C
S31508000D6070B50446064D95F90860FFF7BFFF12F007
S31508000D701FF9314620466A68BDE8704011F050BF39
S31508000D80384B002008B50A4B1B88DB0606D440F210
S31508000D90A752084908480DF0FFFCFEE7002110207D
S31508000DA0FFF7B6FE12F082FABDE8084021F011BA44
S31508000DB0384B0020C9910208948F02080D4B10B5D4
S31508000DC01B8804469B0713D500210220FFF7A0FEC7
S31508000DD0094B5A7BFF2A06D040F2E54207490848E4
S31508000DE00DF0DAFCFEE75C73BDE8104021F0F1B9BE
S31508000DF010BD00BF384B002070550020C99102086D
S31508000E00948F02087047704707B5ADF8061001467B
S31508000E1030B94FF4B572104910480DF0BDFCFEE725
S31508000E20BDF8063033B940F26B120B490B480DF08A
S31508000E30B3FCFEE70A4B0DF10602986823F041FC65
S31508000E4030B140F26D12044904480DF0A5FCFEE7E6
S31508000E5003B05DF804FB00BFC9910208948F02082D
S31508000E607055002010B50E4CA37833B14FF4EA72D2
S31508000E700C490D480DF090FCFEE7606019B1A17BA6
S31508000E80003918BF01212020FFF742FE074B08480A
S31508000E909B7B23760223A370BDE8104010F098BA16
S31508000EA0384B0020C9910208948F0208705500201B
S31508000EB0544B002008B50BF09DFF80F00100C0B22E
S31508000EC008BD0A4B9A780AB1062A0CD11B8803F486
S31508000ED08B7343B9064B5A7BFF2A04D1187BFF381C
S31508000EE018BF012070470120704700BF384B00200B
S31508000EF07055002008B50BF06DFF0028FBD108BD22
S31508000F000C4B42889A8142789A730278DA738288FF
S31508000F101A82C2885A82C2685A61017A064A91734D
S31508000F20028A998C914204D001214FF400709A8468
S31508000F30EEE57047384B002070550020094B9A891A
S31508000F4042809A7B4270DA7B02701A8A82805A8AB9
S31508000F50C2805A699B8CC260034A0382927B0272E2
S31508000F60704700BF384B0020705500204B1E012BE0
S31508000F7070B50C4606D940F2B7221A491A480DF040
S31508000F800BFCFEE7194D0A460146A86823F0C3FB89
S31508000F9030B140F2B922134913480DF0FDFBFEE7C4
S31508000FA0AE6810F089F922460146304623F0ADFBBB
S31508000FB030B140F2BD220B490B480DF0EDFBFEE7C0
S31508000FC0AD6810F085F922460146284623F0A9FBAC
S31508000FD030B140F2C122034903480DF0DDFBFEE7BC
S31508000FE070BD00BFC9910208948F02087055002091
S31508000FF0054BDB7B1B0913F00E0003D0052B8CBFBA
S3150800100000200120704700BF70550020044BDB7B91
S315080010101B0913F00E0F0CBF01200020704700BFFC
S31508001020705500202DE9F04F15469A0580461F4653
S315080010308FB003D501218020FFF76AFDEB014FF041
S31508001040000955D5984C23889E0751D5974E737B32
S31508001050FF2B06D040F2AF42954996480DF09CFB0F
S31508001060FEE7636833B94FF49662914991480DF0EB
S3150800107093FBFEE749460220FFF74AFDA37886F868
S315080010800D90042B03D101210820FFF741FD002311
S31508001090B06808A98DF82C3023F05EFA30B140F21A
S315080010A0BA42834983480DF077FBFEE7FFF7A0FFB6
S315080010B0B0B922F08AFC8146606822F091FC08A942
S315080010C08144B068ADF8249023F049FA30B140F273
S315080010D0C242774977480DF05FFBFEE7089BA3629B
S315080010E0A378032B02D1B06812F012FF21F071F831
S315080010F0B80702D50120FFF761FE15F0A84F02D008
S315080011000220FFF75BFEA90220D50021402003AC90
S31508001110FFF7FEFC2146404623F01BFBB0B99DF8BD
S31508001120143008AA022B22D18DF82830BDF80C30CD
S31508001130ADF82030104611F045FF38B1404623F08F
S3150800114006FB18B901214020FFF7E2FC2A0753D510
S31508001150564E0321B06803AA23F0B5FA814688B92A
S3150800116040F2FE42524953480DF016FBFEE7032BA8
S3150800117005BF8DF82830D4E900018DF82800C2E9AA
S315080011800001D7E79DF80C30B068072B40F01F81A7
S31508001190494608AA23F099FA30B140F20152444967
S315080011A044480DF0F9FAFEE7FFF722FFBDF80E20D6
S315080011B0A0B9FFF72BFF78B1043292B2B06808A93C
S315080011C0ADF8242023F083FA40B140F21252384990
S315080011D038480DF0E1FAFEE70232EEE7BDF80E00F8
S315080011E00121073080B225F03DFC8246002842D115
S315080011F001210C2012F020FEA90705D52A4B1B88D1
S315080012001A0701D5FFF732FDAB010BD500210420E3
S31508001210FFF77EFC244B9B78012B03D1234B986860
S3150800122012F076FE15F0284F03D000210420FFF7B0
S315080012306FFC7E060CD51C4C23881D0701D5FFF7CD
S3150800124015FD2388580703D500210420FFF760FC05
S31508001250F90540F1D88003A9404608AA22F0DAFF2A
S315080012600146002800F0BA8040F2D25210491148CF
S315080012700DF092FAFEE74FF0000B25F077FBCDF85C
S3150800128000B00246BDF80E3004464946B06823F061
S3150800129022FABDF80E3083420ED040F2225204499B
S315080012A004480DF079FAFEE7384B00207055002007
S315080012B0C9910208948F020822F087FB204410F097
S315080012C0BBF900F007000228DFF8589124D199F8F5
S315080012D00230042B90D122F078FB504B20448278C0
S315080012E01B789A4288D159460820FFF711FC22F04C
S315080012F06CFB204410F0A0F99DF82E30C0F30010C6
S31508001300307389F80830FFF78BFC00287FF474AF38
S31508001310B06812F0FDFD6FE722F057FB204410F08D
S315080013208BF983064AD522F050FB204410F084F945
S3150800133000F0070003280BD10921204622F061FCA2
S3150800134014F800B0ABF1040CDCF1000B4BEB0C0B02
S3150800135001210420FFF7DCFBB06823F0CFF9C9F8B8
S315080013602C00BBF1000F30D0B9F8003058062CD548
S3150800137000214020FFF7CCFB0126BDF80E309DF872
S315080013802E200120E254BDF80E309DF82F2023446C
S315080013909A71BDF80E10089A0131214410F05AF9D5
S315080013A0BDF80E3050461C44667125F0B3FB1C4B45
S315080013B0187810F013F920F00CFF1DE799F80230A1
S315080013C0012B02D1B06812F0A3FD0026D5E723F061
S315080013D05EF94946B06823F07CF90DE79DF80C30B4
S315080013E003F0BF02032A01D0022B0FD10D4C23882C
S315080013F05A0702D50420FFF78BFB23889B0702D5E3
S315080014000120FFF7DBFC0FB0BDE8F08F4FF4BF6299
S31508001410054906480DF0C0F9FEE700BFA54B0020B8
S31508001420C84A0020384B0020C9910208948F020848
S3150800143008B50246FFF7DCFD30B1072A06D80020BA
S31508001440034B83F8302008BD7020FCE70220FAE73A
S31508001450384B002008B50246FFF7CAFD28B1002020
S31508001460034B93F83030137008BD7020FCE700BFBB
S31508001470384B002008B5074B01460022986823F030
S315080014804AF930B140F2EB22034904480DF084F9D9
S31508001490FEE708BD70550020C9910208948F02081E
S315080014A008B5074B01460022986823F02EF930B19B
S315080014B040F2F122034904480DF06EF9FEE708BD33
S315080014C070550020C9910208948F020808B5074B89
S315080014D00146986823F02BF930B140F2F722044907
S315080014E004480DF059F9FEE708BD00BF7055002005
S315080014F0C9910208948F020808B5074B9B7833B147
S3150800150040F20132054906480DF046F9FEE7BDE806
S315080015100840FFF7EBBB00BF384B0020C991020813
S31508001520948F020808B5054B0146986822F0E5FF36
S31508001530002814BF8B20002008BD00BF705500206E
S31508001540014B986812F02ABF70550020014BD888C5
S31508001550704700BF705500207FB50123ADF80E30E7
S315080015604FF6FE7309480093806800230DF10E02BA
S3150800157004A922F04FFF212800D020B9BDF8100099
S3150800158007B05DF804FB4FF6FF70F9E770550020C9
S3150800159008B5044B0146986822F0F0FEB0FA80F0D0
S315080015A0400908BD7055002038B50B4D0446AB7888
S315080015B0012B0DD8FFF7ECFF60B1084BDC80AB7848
S315080015C01BB9FFF793FB002038BDFFF7F9FAFAE7D6
S315080015D03E20F9E78A20F7E7384B002070550020AF
S315080015E0024B9B780BB9FFF781BB7047384B00203D
S315080015F0014BD873704700BF384B002008B5064B1F
S315080016004FF0FF31986822F032FE0028B8BF033049
S3150800161040F3870008BD00BF7055002008B5044B8D
S31508001620986822F0A7FE034BB3FBF0F080B208BD22
S315080016307055002040420F0030B58DB02C2204466C
S31508001640002101A823F090FD01234FF002328DF806
S3150800165008306423CDE9032306930B238DF82C3039
S31508001660214B9B8CADF80A30FFF7C2FCA8B140F2BB
S31508001670F23307934FF47A7305930CB9FFF722FBFD
S315080016801A4D01A9A86812F05DFFC0B140F2AC621C
S31508001690174918480DF080F8FEE7FFF7BFFF0C233F
S315080016A04343902B0793A3F10A02D8BF91230592CF
S315080016B0D8BF0793059B8B2BDFD88C23DCE7FFF776
S315080016C0A5FC60B10122A868114623F03EF830B1A6
S315080016D040F2AF62064907480DF05EF8FEE70CB91E
S315080016E0FFF704FB0DB030BD384B002070550020C5
S315080016F0C9910208948F0208F8B525F089FA554C65
S3150800170006462388D90503D5A37843BBFFF7EEFA27
S31508001710514D6B7BFF2B13D06B7B03F0FF0723BB6D
S31508001720FF236B73A378032B0AD100233046A370DB
S3150800173025F069FA3846FFF713FB25F069FA0646DD
S31508001740A378042B08D12B7BFF2B05D02B7B022BF0
S3150800175014D142480FF03CFEFF232B7327E00021EB
S315080017604FF48070FFF7D4F9D2E76B7B012B4FF06B
S31508001770FF0314BF89278D276B73D6E72B7B13B11D
S315080017802B7B012B1ED1FFF74BFA0022FF212B7B67
S315080017900746DBB222772973002847D0012B0AD1E6
S315080017A064212E48A3700FF01EFEFFF709FA304693
S315080017B025F029FA06E03046A27025F024FA3120F1
S315080017C0FFF7CEFA23881A0608D500218020FFF7EE
S315080017D09FF9A86822F0FCFE11F049FD23889B05B5
S315080017E007D54FF400700021FFF792F90020FFF7A4
S315080017F023FF0BF0EFFA608620B325F0B7F8012136
S315080018000546002012F018FBA678012E14D10026F2
S315080018102677A670FFF76AFA284611F023F9A37807
S3150800182066867BB9BDE8F84011F0C2BBA0703046A9
S3150800183025F0E9F93846C3E72EB1284611F012F922
S3150800184000236386F8BDFFF751FA284611F00AF916
S315080018506686F7E7384B002070550020544B002069
S315080018608B4BF0B51B888B4C8B4D63848B4B85B0AB
S315080018701B68E3628A4B1B8823848A4B1B68A36216
S315080018802B88DB0700F1FC8001210846FFF740F9A9
S315080018900523854A04F1100104F10800AB7012F023
S315080018A0F9FA28B1F522814981480CF075FFFEE75F
S315080018B0A3682BB9F7227D497D480CF06DFFFEE73A
S315080018C07C4822F0EFFC70A3D3E90023CDE900237E
S315080018D04FF0FF324FF0FF33A06822F092FD4FF42D
S315080018E08811A06812F0D2FD014630B140F20F12FD
S315080018F06E496F480CF050FFFEE76F4B1B78012BC3
S315080019000ED16E4AA06812F093FBA06812F048FE4A
S31508001910E0B140F21B12654965480CF03DFFFEE751
S31508001920674E316831B94FF48F72604960480CF0E0
S3150800193033FFFEE7614AA06812F07AFB33689B68BA
S3150800194023B1DB6913B15B7803B1E373FFF704FED8
S315080019500146E080A06812F0E7FC064630B140F286
S315080019602D12524952480CF017FFFEE7554B01203D
S315080019701B78C3EB431203EB8203DB00AB84FFF750
S315080019805BFEA7680FF0A4FC32460146384622F0F3
S31508001990C8FE064630B140F23312444944480CF0BA
S315080019A0FBFEFEE740F203530427AB81464BAF73B9
S315080019B01B78EB73FFF732FE00EB80039B002B824C
S315080019C0FFF72CFEC00068823946A0686E6122F0D7
S315080019D0C0FC30B14FF4A172344935480CF0DCFE36
S315080019E0FEE73A46A06803A922F046FD042806D079
S315080019F04FF4A3722D492E480CF0CEFEFEE703A93C
S31508001A0001200FF035FE0AF06BFF08224FF0FF3178
S31508001A10A06822F007FD30B140F24F12234924484E
S31508001A200CF0BAFEFEE712F03BFF30B140F2551259
S31508001A301E491F480CF0B0FEFEE7FFF7D9FA68B159
S31508001A401EF0A4F90146A06822F071FD30B140F2FB
S31508001A505912164916480CF09FFEFEE7A468FFF7D0
S31508001A607BFD1A4B014603F10C02204622F0FDFBD2
S31508001A7030B14FF4B0720D490D480CF08DFEFEE7FB
S31508001A8005B0F0BDAFF300800A0020FF4203000056
S31508001A90C094020870550020384B0020C4940208F0
S31508001AA0C2940208C8940208390B0008C9910208B2
S31508001AB0948F0208690345EC894B00204D0B0008FA
S31508001AC05C5400201657002015570020F491020890
S31508001AD008B5044B986822F04FFC034BB3FBF0F0B3
S31508001AE080B208BD7055002040420F002DE9F04332
S31508001AF08C4D87B02B889B0706D440F24C728A49D6
S31508001B008A480CF049FEFEE7AB78033B012B06D961
S31508001B1040F24E72844985480CF03EFEFEE76A683C
S31508001B2032B940F25172804980480CF035FEFEE722
S31508001B307F4E2C88F77B14F0200418BF4FF47A7474
S31508001B404FEA1718FFF754FA00287DD0B8F1020FAC
S31508001B500AD0A8F10303022B74D940F265727249C0
S31508001B6072480CF019FEFEE7032795F8303008EBAB
S31508001B70C80898446F4B104603EB4803B3F81C801B
S31508001B8021F02EFF4FF4FA534343B3FBF8F37822C0
S31508001B907733B3FBF2F31F44C7EB0717AB78FF00A5
S31508001BA0BFB204F5347417FA84F4042BA4B203D133
S31508001BB007F6E8072744BCB2D5F8048021F005FFEC
S31508001BC00746686821F00CFF074421F024FFBFB2DE
S31508001BD03F1A21F0FAFE40440FF02EFD7378C0F349
S31508001BE040198DF80C30544BBFB2CDE904340024AB
S31508001BF021F01DFF009402463B464146B06822F09C
S31508001C0048FD287EB278737812FB00F29342C4BF6F
S31508001C109B1ADCB22B88F18813F0200FB068B180CC
S31508001C208DF80C4003AB76D000934A46434B22F01E
S31508001C3011FB002873D040F224723B493B480CF054
S31508001C40ABFDFEE7062790E7FFF7E0F9002846D048
S31508001C50384B07F00F0708EBC801394403EB41037B
S31508001C601046B3F81C9021F0BBFEB8F1000F2CD03B
S31508001C70B8F1010F2CD14FF00408400080B2F319D7
S31508001C8093F834304BB14FF4FA52023303444344C9
S31508001C909BB25343B3FBF9F39CB2AB78042B8BD1BD
S31508001CA0FFF7BCFC374497F834308146053398442F
S31508001CB0FFF70EFF0C2308FB00F003FB09F909EBFD
S31508001CC0C009A1441FFA89F476E74FF00208D6E75F
S31508001CD040F28672144915480CF05EFDFEE7FFF7E0
S31508001CE0F7FE0746686821F07BFE09307843AB7833
S31508001CF004EBC000042B84B27FF45EAFFFF78EFCC2
S31508001D000746FFF7E5FE602358430C2303FB07004D
S31508001D10204484B250E74A4622F09AFA89E707B087
S31508001D20BDE8F083384B0020C9910208948F020859
S31508001D3070550020F491020820A10700444B0020AA
S31508001D40F8B5494C258815F0020506D040F27512FB
S31508001D50464947480CF020FDFEE7257724F058FF52
S31508001D60238806465A070CD5424B986822F0C6FCCB
S31508001D70E36AC01AA38C984203D929460420FEF7C1
S31508001D80C7FE304624F03FFFA778022F37D124F04C
S31508001D903FFF2388064613F0040507D036480FF0A0
S31508001DA017FB3046BDE8F84024F02DBF24F02BFF82
S31508001DB0606811F037F920B1A570BDE8F840FEF764
S31508001DC0CFBF24F025FF6668054621F0FEFD3044A6
S31508001DD00FF032FC10F0200F0CBF0323042301215F
S31508001DE03846A370FEF794FEFFF780FE284624F0D7
S31508001DF00AFF01210846BDE8F84012F01DB8042F75
S31508001E0027D11C4B1B7BFF2B2DD1237EF3B124F04E
S31508001E10FFFE238805465B0704D517480FF0D8FA56
S31508001E202846BFE724F0EFFE237E013B237624F005
S31508001E30EFFE044601210220FEF76AFEFFF756FE72
S31508001E40204624F0E0FE01210820D4E74020A370B4
S31508001E50B3E7012F07D10023A370064B986812F049
S31508001E6057F83120A9E7F8BD384B0020C991020878
S31508001E70948F020870550020544B002038B5012174
S31508001E8004461020FEF744FE064B9D68FFF7C6FB86
S31508001E90012200FB04F1044B284622F0C4F9002075
S31508001EA038BD00BF70550020850D000808B50A4BDF
S31508001EB01B88DB0606D44FF46172084908480CF003
S31508001EC06BFCFEE710200021FEF722FE054B986802
S31508001ED0BDE8084022F0B5B9384B0020C991020880
S31508001EE0948F02087055002038B50E4D688E30B9AB
S31508001EF040F291320C490D480CF04EFCFEE724F0F6
S31508001F0035FD0446688E24F04FFD811F21440120CB
S31508001F100FF0AEFB064B0446986822F0EFFB001B59
S31508001F2038BD00BF384B0020C9910208948F0208BB
S31508001F307055002010B5084C636833B94FF46872C1
S31508001F40064907480CF028FCFEE7064B986822F07D
S31508001F50D5FBA36AC01A10BD384B0020C9910208E8
S31508001F60948F02087055002038B50A4D688E30B92E
S31508001F7040F2AA32084909480CF00EFCFEE724F0A4
S31508001F80F5FC0446688E24F00FFD044414F8020C90
S31508001F9038BD00BF384B0020C9910208948F02084B
S31508001FA038B50A4D688E30B940F2B9320849094841
S31508001FB00CF0F2FBFEE724F0D9FC0446688E24F008
S31508001FC0F3FC044414F9070C38BD00BF384B002055
S31508001FD0C9910208948F020838B50A4D688E30B93F
S31508001FE04FF47272084909480CF0D6FBFEE724F054
S31508001FF0BDFC0446688E24F0D7FC044414F9010C91
S3150800200038BD00BF384B0020C9910208948F0208DA
S31508002010024B1888C0F3C010704700BF384B002029
S3150800202030B585B005466C460D4B0FCB84E80F00DE
S315080020300DB12B6800930B4B21460022986812F0CD
S31508002040C3F9044630B140F2E632074907480CF0B6
S31508002050A3FBFEE7FEF7B4FD204605B030BD00BF82
S315080020607C92020870550020C9910208948F0208D4
S3150800207030B5154D87B004460DF10701A86822F062
S31508002080C2F930B140F2F732104911480CF084FB1E
S31508002090FEE79DF80720531EDBB2FD2B0FD90294ED
S315080020A0FF2A00D10394A86802A922F094FA40B145
S315080020B040F20442054906480CF06EFBFEE7012A89
S315080020C0EFE707B030BD00BF70550020C991020880
S315080020D0948F020808B5064B986822F08BFA30B13F
S315080020E04FF48262034904480CF056FBFEE708BD2C
S315080020F070550020C9910208948F02080122024BEC
S315080021001146986822F08AB8705500207047F8B5CD
S31508002110064604200D4621F03AFC030622D5124F46
S31508002120BC78FCB926B1012E17D002242046F8BD8A
S3150800213001262846FFF72CFA0028F6D00B4800237C
S3150800214032462946806822F087F840B14FF48A6201
S31508002150074908480CF020FBFEE72646E9E7062370
S31508002160BB70E3E77024E1E7384B00207055002088
S31508002170C9910208948F0208042010B521F007FCC3
S31508002180030611D5094CA378062B0DD1084B986880
S3150800219022F064F830B140F26A42064906480CF06B
S315080021A0FBFAFEE7A07010BD7020FCE7384B002054
S315080021B070550020C9910208948F02081FB504467D
S315080021C001A812F0C9F89DF80D3053B14CB1064B71
S315080021D02078617818700020A27859709A7004B037
S315080021E010BD0220FBE700BF705500201FB504464E
S315080021F001A812F0B1F89DF80D3053B14CB100208A
S31508002200054B1A7822705A789B786270A37004B0CE
S3150800221010BD0220FBE700BF70550020FFF7CEBFB8
S31508002220FFF7E4BF0348044B834202D0034B03B1D4
S31508002230184770472C5700202C5700200000000034
S31508002240064B0749C91A891048BF0131491003D0FE
S31508002250044B0BB101481847704700BF2C570020A4
S315080022602C5700200000000010B5064C237843B90F
S31508002270FFF7D8FF044B13B10448AFF300800123DE
S31508002280237010BDC85100200000000068CE020867
S3150800229008B5054B1BB105490548AFF30080BDE8F5
S315080022A00840FFF7CDBF00BF00000000A0220020B5
S315080022B068CE0208A3F5803A704700BF174B002B7B
S315080022C008BF134B9D46FFF7F5FF00218B460F46C7
S315080022D01348144A121A22F047FF0E4B002B00D05F
S315080022E098470D4B002B00D098470020002104008A
S315080022F00D000D48002802D00C48AFF300801AF0F4
S31508002300FDFC200029001BF061F91AF08DF900BFC9
S315080023100000080000000000000000000020002067
S3150800232000200020405200200000000000000000AD
S3150800233008B5224B1B78012B1BD0022B2BD003B1DF
S3150800234008BD1F4B1B781F4A1278B3EB420F06DAFB
S3150800235001331B4A13701C481BF0D3F9F0E7184BDE
S3150800236000221A7018481BF0D4F9184823F0B4FF55
S31508002370E6E7134B1B78134A1278B3EB420F03DADE
S3150800238001330F4A1370DBE70D4B00221A700F4812
S3150800239023F0A2FFD4E70A4B1B780A4A1278B3EB5C
S315080023A0420F03DA0133064A1370C9E7044B0022C9
S315080023B01A70064823F090FFC2E700BFC9510020F3
S315080023C0CB510020CA510020A4860208B82200205A
S315080023D070B582B014460B4B18700B4B197000255C
S315080023E00A4B1D700A4E304623F076FF01230193EF
S315080023F000952B46074A2146304624F051FE02B086
S3150800240070BD00BFC9510020CA510020CB51002021
S31508002410B82200203123000800B583B0074B0122FB
S31508002420DA60064B5B6913F0400FFAD10349684638
S315080024301DF064FB009803B05DF804FB00400059EA
S3150800244010B582B004461BF04EF808B902B010BDAC
S3150800245000230093ADF80430074B1B88ADF8023013
S31508002460ADF8044044F22423ADF800306946042050
S315080024701FF046FFEAE700BF0451002008B51346DF
S315080024800A4601460448006803F01EFC00B908BD68
S3150800249002480CF081F9FAE728550020287302084B
S315080024A00A2800D9704730B583B004460D466B46F6
S315080024B001AA01461048006803F06CFB08B9019BA5
S315080024C023B10E480CF068F903B030BD009B2A46CC
S315080024D021460948006803F09DFA40B92146084894
S315080024E00CF05AF9294607480CF056F9ECE721464C
S315080024F005480CF051F9E7E7285500203073020823
S315080025005473020870730208787302080A2800D9FF
S31508002510704710B504460146064B186803F0A2FC3E
S3150800252020B9214604480CF037F910BD03480CF0D1
S3150800253033F9FAE7285500209C730208B873020895
S3150800254038B504461FF0E8FEA04201D8012038BD80
S315080025500546032001F0C6FB0028F8D01BF0F9F861
S315080025601BF0F8F82B4622460349044800681EF07B
S3150800257005FD0020EBE700BFD073020858270020AE
S3150800258030B583B004468368C26853F822301D8884
S315080025902846FFF7D5FF08B903B030BD00230093DE
S315080025A0ADF80430164B1B88ADF80230ADF8045070
S315080025B06368E2689B1A012B1DDDA368013253F894
S315080025C022301B88ADF800301FF096FE69460320BE
S315080025D01FF096FE0446032001F084FB0028DBD09A
S315080025E01BF0B7F81BF0B6F822460649064B1868E2
S315080025F01EF0C4FCD0E740F2FF13ADF80030E3E765
S3150800260006510020087402085827002030B583B008
S3150800261004468368C26853F822301D882846FFF7A7
S315080026208FFF08B903B030BD00230093ADF804301E
S31508002630154B1B88ADF80230ADF804506368E268A4
S315080026409B1A012B1BDDA368013253F822301B8825
S31508002650ADF80030694604201FF052FE04460320F8
S3150800266001F040FB0028DDD01BF073F81BF072F870
S3150800267022460649064B18681EF080FCD2E740F24F
S31508002680FF13ADF80030E5E706510020287402086C
S315080026905827002030B583B004468368C26853F8CB
S315080026A022301D882846FFF74BFF08B903B030BD16
S315080026B000230093ADF80430154B1B88ADF80230A3
S315080026C0ADF804506368E2689B1A012B1BDDA3680A
S315080026D0013253F822301B88ADF8003069460220D3
S315080026E01FF00EFE0446032001F0FCFA0028DDD098
S315080026F01BF02FF81BF02EF822460649064B1868E1
S315080027001EF03CFCD2E740F2FF13ADF80030E5E7D7
S31508002710065100203C7402085827002030B583B0C3
S315080027208368C26853F822301C78002301934368F3
S315080027309B1A012B19DD01AA01211DF0ECFE0146A9
S315080027409DF804001FF0D4FD054680B1022001F073
S31508002750C9FA60B11AF0FDFF1AF0FCFF2A460649CD
S31508002760064B18681EF00AFC01E01FF0C5FD20465E
S315080027701FF0CAFD03B030BD587402085827002060
S3150800278010B503468168C26851F82200B0F9000006
S315080027901A4C20805B689B1A012B0FDD013251F819
S315080027A0223093F90010003918BF01211FF051FD9E
S315080027B0A0B9032001F096FA10B910BD0021F5E77B
S315080027C01AF0C7FF1AF0C6FF0D4B1C681FF045FD2F
S315080027D002460C4920461EF0D1FBEEE7012001F027
S315080027E081FA0028E9D01AF0B4FF1AF0B3FF0649B7
S315080027F0034B18681EF0C2FBDFE700BF0651002036
S3150800280058270020BC740208D074020808B51FF0C7
S3150800281014FD032001F066FA00B908BD1AF099FF05
S315080028201AF098FF0249034B18681EF0A7FBF4E755
S31508002830E87402085827002008B58368C26853F868
S3150800284022301A88094B1A80032001F04BFA00B986
S3150800285008BD1AF07EFF1AF07DFF044B1A8804495A
S31508002860044B18681EF08AFBF2E700BF905600205A
S31508002870087502085827002008B5024B18680EF09C
S31508002880A7FD08BD082300202DE9F04186B01FF0FA
S31508002890F0FC0446894B1B7813F0020F2CD0884EA7
S315080028A013F0010F2AD0864F13F0040F28D0DFF853
S315080028B01082032001F016FA28BB032001F012FA51
S315080028C058BB032001F00EFA002835D1032001F089
S315080028D009FA00283ED1032001F004FA002847D15E
S315080028E0032001F0FFF900285ED1032001F0FAF970
S315080028F0002867D1002471E0724ED1E7714FD3E703
S31508002900DFF8C081D5E71AF024FF1AF023FF6E49D5
S315080029106E4B18681EF032FBCFE71AF01AFF1AF052
S3150800292019FF6A4B1D6805F0FFFA02460B4668490F
S3150800293028461EF023FBC4E71AF00BFF1AF00AFF1D
S31508002940624B1D681FF06DFC0246624928461EF060
S3150800295015FBBBE71AF0FDFE1AF0FCFE5B4B1D6883
S315080029601FF093FC02465C4928461EF007FBB2E7B7
S315080029701AF0EFFE1AF0EEFEE279A3796179207972
S31508002980E57894F802C094F801E024780594CDF827
S3150800299010E0CDF80CC00295019000914F494B48C4
S315080029A000681EF0EBFA9BE71AF0D3FE1AF0D2FE87
S315080029B0464B1C681FF061FC0246494920461EF03A
S315080029C0DDFA92E71AF0C5FE1AF0C4FE45493F4BF8
S315080029D018681EF0D3FA8DE70134E4B2072C12D832
S315080029E0032001F07FF90028F6D01AF0B2FE1AF09B
S315080029F0B1FE364B1D681FF03CFC025D3A4928467D
S31508002A001EF0BCFAE8E7032001F06CF998B9032038
S31508002A1001F068F9C8B9032001F064F918BB03206E
S31508002A2001F060F968BB032001F05CF9002836D193
S31508002A3006B0BDE8F0811AF08CFE1AF08BFE2B4921
S31508002A40224B18681EF09AFAE1E71AF082FE1AF08D
S31508002A5081FE1E4B1C681FF014FC024624492046C2
S31508002A601EF08CFAD7E71AF074FE1AF073FE174BAD
S31508002A701C681FF0EAFB02461E4920461EF07EFA35
S31508002A80CDE71AF066FE1AF065FE104B1C681FF0BB
S31508002A90E4FB0246184920461EF070FAC3E71AF00E
S31508002AA058FE1AF057FECDF800803B4632461349C9
S31508002AB0064800681EF062FABAE700BF075700200A
S31508002AC070740208787402082475020858270020D2
S31508002AD02C75020848750208647502088075020894
S31508002AE0A4750208C0750208D47502086C7302083A
S31508002AF0DC750208F87502081076020828760208BE
S31508002B0030B583B08368C26853F822301C7801A9AF
S31508002B1020461FF096FB88B9032001F0E3F808B9B0
S31508002B2003B030BD1AF015FE1AF014FE019B2246BA
S31508002B300B490C4800681EF021FAF1E7054601200A
S31508002B4001F0D0F80028EBD01AF003FE1AF002FEC6
S31508002B502A460549034B18681EF010FAE0E700BF3D
S31508002B6060760208582700207C76020870B58268CD
S31508002B70C36852F823100C88013352F823301D78A5
S31508002B80294620461FF0B0FB80B9032001F0AAF8B9
S31508002B9000B970BD1AF0DDFD1AF0DCFD2B462246A1
S31508002BA00B490C4800681EF0E9F9F2E706460120D1
S31508002BB001F098F80028ECD01AF0CBFD1AF0CAFDFF
S31508002BC032460549034B18681EF0D8F9E1E700BFFD
S31508002BD0A076020858270020D076020870B582B081
S31508002BE08368C26853F822301B78134A137013F0AF
S31508002BF0020F0ED0114C13F0010F0CD00F4D13F02D
S31508002C00040F0AD00D4E032001F06CF838B902B053
S31508002C1070BD0B4CEFE70A4DF1E7094EF3E71AF0E2
S31508002C2098FD1AF097FD00962B4622460549064858
S31508002C3000681EF0A3F9EAE7075700207074020837
S31508002C4078740208847402085827002030B58FB0BB
S31508002C5004460D4668461AF05CFC0DF1200EEC465B
S31508002C60BCE80F00AEE80F009CE803008EE80300FE
S31508002C7008A9464B186820F045F910F1880F46D187
S31508002C8068461AF046FC0DF1200EEC46BCE80F002B
S31508002C90AEE80F009CE803008EE803004FF41053DB
S31508002CA0ADF820308023ADF822304FF440730793F7
S31508002CB007A81AF03EFC079B0A93354B0B93334B38
S31508002CC01A68099B0D9213F0FF0F04D123F0FF0336
S31508002CD043F001030993012309932C4B2A46214605
S31508002CE008A820F02CF9044610BB032000F0FAFFD0
S31508002CF090B9264B18681FF09CFA0546002831D172
S31508002D00032000F0EFFF044610BB01242FE01F4B01
S31508002D10186820F0CEF8B3E71AF01BFD1AF01AFD72
S31508002D201A4B1A681B491C4B18681EF027F9E0E76E
S31508002D30032000F0D7FF0028DBD01AF00AFD1AF0AE
S31508002D4009FD22461549144B18681EF017F9D0E7F5
S31508002D501AF0FFFC1AF0FEFC11490F4B18681EF01A
S31508002D600DF904E0032000F0BDFF044610B9204623
S31508002D700FB030BD1AF0EDFC1AF0ECFC2A460949F2
S31508002D80054B18681EF0FAF80024F0E7D822002050
S31508002D90000144050077020858270020307702080A
S31508002DA0547702087477020800B583B000210191B0
S31508002DB001AA1DF0B0FB019910290ED0032000F0DE
S31508002DC091FF60B11AF0C5FC1AF0C4FC102205493F
S31508002DD0054B18681EF0D2F801E0FFF737FF03B07D
S31508002DE05DF804FB947702085827002010B588B0D0
S31508002DF020F0A4F9032000F075FFF8B901244A4B26
S31508002E001C6002A81AF0ACFB02A9204620F07AF84A
S31508002E1010F1880F1CD0032000F064FF00286ED143
S31508002E20414B18681FF005FA1FF05AFA04460320AA
S31508002E3000F058FF00286CD108B010BD1AF089FCC4
S31508002E401AF088FC39493A4B18681EF097F8D5E706
S31508002E50032000F047FF002837D1334B1A68039B3D
S31508002E60079213F0FF0F04D123F0FF0343F0010389
S31508002E700393304B05934FF44073019301A81AF05E
S31508002E807FFB019B04934FF41053ADF80830802361
S31508002E90ADF80A3001230393234B1022264902A8D2
S31508002EA020F04DF80446D0B9032000F01BFF002897
S31508002EB0B6D01AF04EFC1AF04DFC1B4B1A681F4987
S31508002EC01B4B18681EF05AF8AAE71AF042FC1AF0CB
S31508002ED041FC1B49164B18681EF050F8BDE7032045
S31508002EE000F000FF00289BD01AF033FC1AF032FCE1
S31508002EF0224614490E4B18681EF040F890E71AF05F
S31508002F0028FC1AF027FC1049094B18681EF036F8F9
S31508002F1086E71AF01EFC1AF01DFC22460B49044BE4
S31508002F2018681EF02BF887E7D8220020BC7702081D
S31508002F3058270020000144054C5400200077020859
S31508002F40C877020830770208F07702081C7802086A
S31508002F5038B5012009F05CFC1A4C21460120FFF720
S31508002F609FFA194D29460020FFF79AFA17490220B9
S31508002F70FFF796FA611C0320FFF792FA611E0420F8
S31508002F80FFF78EFA211D0520FFF78AFA00F014FDD7
S31508002F9028781AF0B8FA00F07FFC0D4B01221A7057
S31508002FA00C4B5B6C13F0200F01D00B4B1A700B4BBC
S31508002FB01B6800221A704FF4FA61094B18680EF064
S31508002FC012FA38BDE82200200657002008510020D2
S31508002FD0D051002000C00350CE510020002300200D
S31508002FE00423002010B5274B1B781F2B08D02F2B46
S31508002FF03CD01E2B2BD0244B1B6800221A7010BD08
S31508003000204C6378214601F80D3F01220320FFF783
S3150800301035FA637B012B0ED0032B12D02BB1C822B5
S3150800302002210020FFF7D4F9E5E7C8220121002094
S31508003030FFF7CEF9DFE7C82202210020FFF7C8F91B
S31508003040D9E7C82201210020FFF7C2F9D3E70D4CC2
S31508003050637804F80D3FC82201210020FFF7B8F96C
S31508003060012221460320FFF709FAC4E705498A78B1
S315080030704B7843EA022321F8103F02220520FFF786
S31508003080FDF9B8E7DC220020FC22002010B50B4928
S315080030900B4809F0C3FA0B490B4809F0BFFA0B4C69
S315080030A00B49204609F0BAFA0A490B4809F0B6FA5C
S315080030B0322120680EF097F910BD00BF4133000891
S315080030C008230020B932000804230020002300202A
S315080030D0512F0008E52F0008FC22002070B50020BB
S315080030E0FFF714FA0120FFF711FA0520FFF70EFA89
S315080030F00D4C002525820D4E962030701AF003FAE5
S31508003100214601F80C5F01221046FFF7B7F90122A4
S3150800311031462846FFF7B2F9022204F110010520CC
S31508003120FFF7ACF970BD00BFDC220020065700206F
S3150800313008B5032813D0032801D1052948D0294BFF
S3150800314010229A720130987332220A210020FFF762
S315080031503FF90121244B18680EF045F908BD0229EC
S3150800316024D8224B00221A701E4B1B7B73B9204BA6
S3150800317001221A701F481AF0F3FD1AF0BEF941F23F
S3150800318070711D4B18680EF02EF9E7E7154B1022E3
S315080031909A720130987332220A210020FFF718F933
S315080031A00121114B18680EF01EF9E8E70529C2D06F
S315080031B00023124A13700D4A13701AF09EF9FFF78E
S315080031C08DFF4FF4FA610C4B18680EF00CF9C5E741
S315080031D0064B01221A704FF4FA61074B18680EF075
S315080031E002F9BBE7DC22002008230020CE5100208C
S315080031F0CC510020A486020804230020CD510020CB
S3150800320000B583B003788DF80030002308E0C118B4
S31508003210497803F109026A4402F8081C0133DBB253
S31508003220417A4A1E9342F2DB0A4B1B8A01F10802D5
S315080032306A4402F8083C01F109026A441B0A02F8CA
S31508003240083C02316A46C9B2002000F06DFB03B0A3
S315080032505DF804FBDC22002008B51AF03BF982B2BF
S3150800326022B1124B1B883BB9104B1A8002220F4918
S315080032701046FFF703F908BD82B207EE902AF8EE6A
S31508003280E77A9FED0B7A67EE877A07EE103AB8EE83
S31508003290C77ADFED086A27EE267A77EE877AFCEE9C
S315080032A0E77A024B17EE902A1A80DFE708510020CA
S315080032B0CDCCCC3D6666663F08B51B4B5B6CC3F34D
S315080032C040131A4A12780AB3184A0021117083B1BA
S315080032D0174B1B7833B1174A13780133DBB21370D7
S315080032E0022B0FD84FF4FA61134B18680EF07BF8CF
S315080032F008BDFFF7B1FF08F0D5FA0F4B1B6800228F
S315080033001A70F5E70D481AF000FAEBE7074B0122A9
S315080033101A70FFF7A1FF09481AF0FBF90A21064BB4
S3150800332018680EF060F8E3E700C00350D15100209A
S31508003330CE510020CD51002004230020A486020887
S3150800334000B583B01F4B1B7B9BB1022B26D01E48B2
S31508003350FFF756FFFFF780FF1C4B1B6800221A7009
S315080033604FF4FA611A4B18680EF03DF803B05DF891
S3150800337004FB9DF804306FF304038DF804309DF8C0
S3150800338004306FF346138DF804300F4B0F221A7072
S3150800339002225A729DF804205A70D8E7094B9B7A84
S315080033A0102BD4D1084B10221A7005225A720549DF
S315080033B08A7B5A70074A12889A70120ADA70CA7A91
S315080033C01A71C4E7DC220020F0220020082300201E
S315080033D00423002008510020014B1878704700BFCD
S315080033E0D251002038B50446817980681AF095F9DB
S315080033F063791E4D5B42294601F80B3F01220420E2
S31508003400FFF73CF82B7B4BB1013BDBB2012B0DD907
S31508003410012217490420FFF731F838BDA179A068C1
S315080034201AF07BF963795B42EB72F1E7A068E188F1
S31508003430431813F8012C13F8023C43EA02230B4AFB
S31508003440128A52B19A42E3D10239C9B21AF065F921
S3150800345063795B42054AD372DAE70239C9B21AF0D0
S315080034605CF963795B42014AD372D1E7DC2200201A
S31508003470E722002010B50C468B681B780F2B09D065
S31508003480237B5B420B4901F80B3F01220420FEF720
S31508003490F5FF10BD074B1B7B002BF1D10028EFD1A0
S315080034A00449022301F80C3F01221046FEF7E6FF05
S315080034B0E6E700BFDC22002008B5903806285AD86F
S315080034C0DFE800F0041F355959434E000123334AFB
S315080034D01370334A1370334B1B7863B9324B1B7B1B
S315080034E043BB304B1B782BB3304B1988304B1868CD
S315080034F00DF079FF1EE0C82202210020FEF768FFC2
S31508003500ECE7264B00221A70264B1B7893B1294B01
S315080035101B7833B11046FEF793FF264B00221A702C
S3150800352008E0642205210020FEF752FF02E01D4B49
S315080035301B781BB91B4B1B7843BB08BD4FF47A722B
S3150800354002210020FEF744FFF4E7164B1B78002BF8
S31508003550F0D04FF47A7202210020FEF739FFE9E72E
S31508003560104B1B78002BE5D04FF47A72022100200D
S31508003570FEF72EFFDEE70B4B1B78002BDAD04FF455
S315080035807A7202210020FEF723FFD3E741F2707119
S31508003590094B18680DF027FFCFE700BFCF51002071
S315080035A0D2510020D0510020DC2200209056002065
S315080035B008230020CC5100200423002008B5024B24
S315080035C01B6803B1984708BD3C23002008B5024B89
S315080035D05B6803B1984708BD3C23002008B5024B39
S315080035E09B6803B1984708BD3C23002008B5024BE9
S315080035F0DB6803B1984708BD3C23002008B5024B99
S315080036001B6903B1984708BD3C23002008B5024B47
S315080036105B6903B1984708BD3C23002000B585B017
S31508003620094B1868094B1860094B0A4A13600A4A7D
S3150800363001920A4A12680292039301A91CF08DFFAF
S3150800364005B05DF804FB00BF785400209C310020CB
S315080036506C540020983100200486020810260020A9
S3150800366008B5024B18681CF08CFF08BD785400207A
S3150800367038B507F08BFA0446064D2B68D3F8B00226
S3150800368007F078FA28681CF096FF204607F072FAC9
S3150800369038BD00BF7854002008B5034823F07AFBEC
S315080036A0024801F01FF908BD288A02087C54002048
S315080036B00023062073B1704754B224B9013353B1BD
S315080036C05DF8044B70470228F8D008680A49086074
S315080036D01046F3E710B4094A52F823100A7A022A68
S315080036E0EAD9032AEAD1441EE4B2012CE6D90868CD
S315080036F0014908601046E1E7102600209054002092
S3150800370010B5A2B00DF1680C284C0FCCACE80F0030
S3150800371094E80F008CE80F00002115911691179177
S31508003720189119914FF480131593214B1993109101
S3150800373011911291139114911E4B10931E4B1493D1
S315080037403C2201A821F010FD01AC0DF1540CBCE897
S315080037500F000FC4DCF80030236006AC0DF1400CF6
S31508003760BCE80F000FC4DCF800302360134B0B9342
S3150800377020230C9301238DF834308DF83530104B07
S315080037800F93104B1AAA01A90F4807F0ABFA044683
S315080037909DF837303BB100214FF4E1301AF058F963
S315080037A0204622B010BD0321F6E700BF2486020892
S315080037B03C00015B010010004400015B1426002058
S315080037C0A454002034260020F026002008B531B97C
S315080037D0084B1868036823B107F09AFE01E001292F
S315080037E000D908BD034B18680368002BF9D01DF0F3
S315080037F0A7FEF6E7B854002008B50349034807F0C2
S31508003800FBFFFFF77DFF08BDBC54002018270020EA
S3150800381008B502481DF0F8FB08BD00BFF0260020D9
S3150800382008B502481DF0F0FB08BD00BFF0260020D1
S3150800383008B5024B5A6A1868904708BDF02600205A
S3150800384008B506481AF088F905481AF085F90548B2
S315080038501AF082F904481AF07FF908BD8C86020826
S31508003860748602085C8602084486020808B502487F
S315080038701AF071FA08BD00BFA486020808B5044A02
S3150800388019F08DFE034B18680DF0A2FD08BD00BFA8
S31508003890DC220020FC22002070B590B001212A20ED
S315080038A003F03CF800250D950E950F951B4E2A46FC
S315080038B01B49304603F0DAFF8DF839000DF10C0C80
S315080038C0184C0FCCACE80F000FCCACE80F0094E80E
S315080038D003008CE803004FF496630693019502955E
S315080038E003238DF806308DF8065001238DF8003035
S315080038F08DF801508DF802508DF8035010238DF87D
S31508003900013003AA0DA9304603F0F0FF6A4601A963
S3150800391030461CF0B4F810B070BD00BF0040005926
S3150800392040420F00BC86020800B583B00B46054925
S31508003930097801910092002201211EF0BEFC03B015
S315080039405DF804FB0757002070B50579194B03EBA2
S31508003950C5031B79052B0BD004460668FA2022F00E
S315080039609FFD864205D2134B03EBC50300221A714D
S3150800397070BD26684FF47A7022F092FD864205D211
S315080039800C4B03EBC50301221A71F1E7246841F2D7
S31508003990883022F085FD844205D2064B03EBC50329
S315080039A002221A71E4E7034B03EBC50303221A71DB
S315080039B0DEE700BF3827002038B5114B186819F024
S315080039C08FFF054690B1284638BD0134E4B2032C72
S315080039D00ED80C4B53F824001AF0C5F80128F4D178
S315080039E023F052FB084B43F83400EEE70024EEE7D9
S315080039F0064B00221A70024B186819F081FFE2E79D
S31508003A0034270020C45400203827002008570020F7
S31508003A1000B9704730B583B00446104D1049286880
S31508003A201DF0ACFA19F095FE19F094FE0D4B0093B3
S31508003A304FF48D730C4A0D4928681DF09FFA2346EA
S31508003A400B4A0C4928681DF099FA204600F092F9AD
S31508003A50094928681DF092FA00BEFDE7582700209C
S31508003A606C73020894870208E486020854870208E1
S31508003A7060870208688702088087020800B589B04F
S31508003A80002307E00022264941F823202549CA5485
S31508003A900133DBB2032BF5D9002309E0224A02EBF6
S31508003AA0C30104200871002142F833100133DBB248
S31508003AB0032BF3D9002301930293039304930593ED
S31508003AC0069307939DF8043043F001038DF80430FC
S31508003AD0DBB243F008038DF80430DBB243F0200371
S31508003AE08DF80430114B0293114B039302238DF882
S31508003AF010304FF4806305930523ADF8183004237E
S31508003B00ADF81A30082307930A4901A800F050F9BE
S31508003B1010B909B05DF804FBFFF77AFFF9E700BFB3
S31508003B20242700202027002038270020393B0008BA
S31508003B3023D701083427002010B584B001AA02A9AA
S31508003B40124B186819F01EFFE8B902A8FFF7FCFE29
S31508003B50002401E00134E4B2032C0ED80C4B03EB2D
S31508003B60C40319790429F5D02046FFF7E1FA084B72
S31508003B7003EBC40304221A71ECE7044B186819F026
S31508003B80BFFE04B010BDFFF743FFFAE73427002055
S31508003B9038270020204B1B78002B3CD170B582B00B
S31508003BA00024032C20D825461C4B53F82430834286
S31508003BB002D00134E4B2F4E719F0D5FF012815D094
S31508003BC023F062FA164B53F83560861B00968DF87B
S31508003BD00440282022F064FC864211D8104B03EBDF
S31508003BE0C5031B79052B0BD002B070BD23F04CFA28
S31508003BF00B4B43F8340003EBC40305221A71DFE7C5
S31508003C0008226946074B186819F08AFE0028EBD087
S31508003C10FFF7FEFEE8E7704708570020C454002067
S31508003C20382700203427002010B58368C26853F867
S31508003C3022301C78032C00D90324084B1B5D03B1E2
S31508003C4010BD23F021FA064B43F82400034B01224A
S31508003C501A5505212046FFF76BFAF1E720270020C1
S31508003C602427002038B58368C26853F822301C78A8
S31508003C70032C00D90324194B1B5D012B00D038BD3A
S31508003C8023F002FA164B53F82450451B134B002217
S31508003C901A55FA2022F004FCA84204D9002120462D
S31508003CA0FFF746FAEBE74FF47A7022F0F9FBA842E1
S31508003CB004D901212046FFF73BFAE0E741F28830B4
S31508003CC022F0EEFBA84204D902212046FFF730FA7B
S31508003CD0D5E703212046FFF72BFAD0E72027002057
S31508003CE02427002003460B4A107828B10A4A12787E
S31508003CF09A4202D2002000E00120084A12783AB11E
S31508003D00074A127842FA03F313F0010F00D1002094
S31508003D10704700BF0B5700200A570020D4510020D7
S31508003D200957002008B5084B01221A70074B0022D4
S31508003D301A70074B04221A70064B1F221A7006F0D7
S31508003D4025FF054B186008BD0B570020D4510020ED
S31508003D500A570020095700205827002008B50349AC
S31508003D60034B18681DF00AF908BD00BFAC870208A6
S31508003D705827002070B506460A4C0B4920681DF0E6
S31508003D80FDF806F003FF0546206806F0F3FE304608
S31508003D90FFF7E4FF284606F0EDFE044920681DF00B
S31508003DA0EDF870BD58270020B0870208B4870208CE
S31508003DB0F8B500284FD00D46044600294DD00378A3
S31508003DC013F0030F36D04268002A48D013F0080FC4
S31508003DD002D0A28A002A44D013F0200F05D0E38A25
S31508003DE0002B40D0A369002B3FD02C201DF002FDEC
S31508003DF0064600283BD02C22002121F0B5F921687F
S31508003E006268A368E0687160B260F3603061216936
S31508003E106269A3697161B261F361237813F0040FD3
S31508003E200ED000272E60636843B13146114819F059
S31508003E3033FE03E04268002AC8D021273846F8BD79
S31508003E400121304619F018FD07460028EAD0304609
S31508003E501DF0AFFDF2E72227F0E72227EEE721273C
S31508003E60ECE72127EAE72127E8E72127E6E71927EC
S31508003E70E4E700BF5C27002008B5034819F005FEF3
S31508003E8019F0B0FB08BD00BF5C27002010B50B4B2E
S31508003E901C6802E022F0A4FE246864B122F0A5FEA4
S31508003EA094F82030002BF5D0A36A002BF2D022F02C
S31508003EB097FE002000E0012010BD00BF5C2700200F
S31508003EC010B50B4B1C6802E022F08AFE246864B128
S31508003ED022F08BFE94F82030002BF5D0A36A002B35
S31508003EE0F2D022F07DFE042000E0012010BD00BFC4
S31508003EF05C27002010B50C4B1C6802E022F070FE0F
S31508003F0024687CB122F071FE94F82030002BF5D09D
S31508003F10A36A002BF2D0013BA36222F061FEA368DC
S31508003F209847EDE710BD00BF5C27002008B5054897
S31508003F3022F030FF19F07AFB012019F058FD00F045
S31508003F4085F808BD288A020808B5024822F022FF2B
S31508003F5008BD00BF288A02082DE9F04180460F46B1
S31508003F6001F109050026344604E05B21082000F02B
S31508003F7081FA0134AC4233D2052C1BD801A353F87D
S31508003F8024F000BF6B3F00089D3F0008D13F0008A2
S31508003F90A53F0008A93F0008AD3F0008FBB204335F
S31508003FA0D9B2E3E78021E1E70021DFE7731C314658
S31508003FB0DEB2DBE7BB1DA3420CD0FB1DA3420BD030
S31508003FC007F10803A34209D0A31F18F80310CDE789
S31508003FD0D121CBE75A21C9E75A21C7E75D21C5E7B1
S31508003FE00020BDE8F08100BF00B583B00022009232
S31508003FF0019202218DF80010054819F013FD019071
S3150800400008216846FFF7A8FF03B05DF804FB00BF68
S31508004010006A180000B583B0044B1B88ADF804305D
S3150800402001A800F003FB03B05DF804FBB88702089B
S3150800403000B583B0044B1B88ADF8043001A800F026
S31508004040C5FA03B05DF804FBB8870208F0B58DB071
S31508004050444C0DF1140C04F1040EBEE80F00ACE854
S315080040600F009EE807008CE80700238CADF8103097
S31508004070A38CADF80C30238DADF808302388ADF845
S315080040800430394822F086FE384F384622F082FE40
S3150800409001258DF82250364B0793364E05A9304632
S315080040A01BF0B1FD2A46042104A800F053FA0022A9
S315080040B0294603A800F04EFA2A46042102A800F071
S315080040C049FA2A4604210DEB010000F043FA2A4C6E
S315080040D02A4BC4F8AC374FF00213C4F8A837A3F537
S315080040E08033C4F8B0371C23C4F898374FF44870A7
S315080040F008F032FAFFF78EFF142008F02DFAFFF7C2
S3150800410097FF232008F028FAFFF784FFB9213046E5
S315080041101BF0C7FDFFF78CFF0022114604A800F02C
S3150800412019FA0022114603A800F014FA2A460021BB
S3150800413002A800F00FFA2A46002101A800F00AFAA0
S31508004140304603F011FF0023C4F89837C4F8AC379B
S31508004150C4F8A837C4F8B037384622F020FE0DB0A8
S31508004160F0BD00BFB8870208288A0208108A02082C
S3150800417000127A0000C0055000C003500200030078
S3150800418008B50448044A121A9210044919F073FC37
S3150800419008BD00BF800100088003000840520020C7
S315080041A008B5154B83F30A8800F030F8FFF7E8FFE7
S315080041B0124A0AE01068516850F8230041F82300B3
S315080041C0013391688B42F5D30C320D4B9A4201D2DA
S315080041D00023F6E70B4A08E01168002041F823009F
S315080041E0013351688B42F7D30832074B9A4201D202
S315080041F00023F6E7FEF762F80000002070CE0208FA
S315080042007CCE02087CCE02087CCE020870B5134B21
S31508004210134A9A60D3F8882042F47002C3F88820BB
S31508004220104A4FF4804191660F4D05F500544FF042
S31508004230FF3222660D4A62660222C3F8D020BFF317
S315080042404F8FBFF36F8F002006F06AFC4FF440369D
S31508004250E66000201CF03DFE2E6170BD00ED00E01A
S315080042600000000800900050008000447FFF7F0196
S31508004270014B1860704700BFFC54002008B5064B78
S315080042801860064B1B6F03F00703032B00D008BD0D
S3150800429021F0F0F9FBE700BF04550020008000502C
S315080042A0BFF34F8F0549CA6802F4E062044B134313
S315080042B0CB60BFF34F8F00BFFDE700BF00ED00E006
S315080042C00400FA05F0B18446F1B110B409E004F12E
S315080042D020000FE02033C01A18D1BCB10CF1010C34
S315080042E001319CF800400B4B1B5D03F00303012BC7
S315080042F0EDD020460B78074AD25C02F00302012A69
S31508004300E9D1E7E701207047012070475DF8044BC3
S31508004310704700BF35CD020830B587B0054604683A
S3150800432023798DF80C3063798DF80D301A4822F010
S3150800433031FD0022012103A800F00CF90DF10B0153
S3150800434003A819F0D1FC9DF80B302370A379022B32
S3150800435002D0002007B030BD4FF0FF330593049319
S3150800436000950E4B012205A903A800F02FFA059B1C
S31508004370B3F1FF3F07D00095084B022204A903A812
S3150800438000F084F9E5E70095044B042204A903A884
S3150800439000F07CF9DDE700BF288A020875DB010812
S315080043A010B582B0002401942A4822F0F3FC8DF857
S315080043B0004003238DF8013001220421684600F0ED
S315080043C0C9F8254B0122C3F8442401A9052022F087
S315080043D0DAFC00283BD1214BD3F8F02042F0010249
S315080043E0C3F8F020D3F8FC2042F08072C3F8FC2012
S315080043F0A3F55D431A4A1A60019B03F5D52303F218
S31508004400FC43DB08174AA2FB03239B0A013B164A17
S3150800441013610223C2F8F0304FF48073C2F80433F4
S315080044204FF06043114AC3F8B02F114AC3F8802EE3
S31508004430D3F8002E42F48072C3F8002EFF2283F8C8
S315080044402020D3F8002E22F48072C3F8002E02B082
S3150800445010BD00BF288A020800D0035000ED00E016
S31508004460FF03004017916502000004E055CEACC575
S31508004470090001004FF06043D3F8803E13F0010FA6
S3150800448001D1112070470E4AD2F8FC3043F08073F0
S31508004490C2F8FC304FF06043D3F8002E4FF0010C01
S315080044A00CFA00FC42EA0C02C3F8002E53F820303E
S315080044B0002BE8D04FF0604303F820100020704727
S315080044C000ED00E010B504460FE00123834024EA1E
S315080044D003040F2814D800EB40020E4B03EB8203AB
S315080044E05A6812B19968C0B2904794B12346002021
S315080044F01F28EAD813F0010FE7D101305B08F7E768
S31508004500103800EB40039B00B033024A13440433CF
S31508004510E6E710BD6027002008B50D4822F03AFCF2
S315080045201A2006F0EDFA28B91B2006F0E9FA40B978
S31508004530002008BD1A2006F0F3FA1A201CF0C9FC60
S31508004540F2E71B2006F0ECFA1B201CF0C2FCEFE792
S31508004550288A02082DE9F04170B30C46174605462D
S315080045600F292BD803784BB1022B20D0032B21D04F
S31508004570012B01D0002303E07F2301E040F2FF7303
S315080045806A78D34013F0010F1AD00F4BD3F8106393
S31508004590C6B922F03DFB80463A462146284603F036
S315080045A009FD404622F02FFB3046BDE8F08140F277
S315080045B0FF33E5E73F23E3E72226F5E72126F3E77E
S315080045C02126F1E70226EFE700C0035040B310B5F5
S315080045D0044603784BB1022B1DD0032B1ED0012BAA
S315080045E001D0002303E07F2301E040F2FF736278E5
S315080045F0D34013F0010F15D022F00AFB2378627816
S315080046000121914003EB43031B01074AD15022F0D5
S31508004610FAFA002010BD40F2FF33E8E73F23E6E749
S31508004620222070472120F5E740D0035040B310B54B
S31508004630044603784BB1022B1DD0032B1ED0012B49
S3150800464001D0002303E07F2301E040F2FF73627884
S31508004650D34013F0010F15D022F0DAFA23786278E6
S315080046600121914003EB43031B01074AD15022F075
S31508004670CAFA002010BD40F2FF33E8E73F23E6E719
S31508004680222070472120F5E740E00350002866D035
S315080046902DE9F0410C4615461F460646002960D00E
S315080046A002784AB1022A3ED0032A3FD0012A01D015
S315080046B0002303E07F2301E040F2FF737178CB40CB
S315080046C013F0010F01D1FF2A4DD1022D01D9042D76
S315080046D04BD122F09DFA80463378FF2B28D12368E8
S315080046E0B3F1FF3F2BD02268B2F1FF3F32D0204B07
S315080046F002EB420203EB82025760226802EB420297
S3150800470003EB8203069A9A603378FF2B05D022685A
S3150800471001239340174AC2F82434404622F073FA1C
S315080047200020BDE8F08140F2FF33C7E73F23C5E725
S315080047302A462168304603F0A7FC2060CFE7337885
S31508004740FF2BD0D10C4BD3F8241470781BF0C3FA86
S315080047502060C8E7404622F056FA2D20E1E72220DD
S3150800476070472220DDE72120DBE72120D9E700BFBB
S315080047706027002000D0035000C00350B0F1FF3F6F
S315080047801AD038B504460F2818DC002818DB22F0A2
S315080047903FFA0123A3400B4AC2F82034C2F8243456
S315080047A0094B04EB440203EB820200255560956031
S315080047B022F029FA284638BD212070472120FAE739
S315080047C02120F8E700E0035060270020002856D093
S315080047D02DE9F0410C4617461E460546002950D0DD
S315080047E0017849B1022939D003293AD0012901D0E3
S315080047F0002303E07F2301E040F2FF736A78D34089
S3150800480013F0010F01D1FF293DD122F001FA8046AC
S315080048102B78FF2B27D12268B2F1FF3F2AD01B4BFA
S3150800482002EB420203EB8202C2F8B860226802EB8E
S31508004830420203EB8203069AC3F8BC202B78FF2BAF
S3150800484006D02268103201239340114AC2F8243454
S31508004850404622F0D8F90020BDE8F08140F2FF3347
S31508004860CCE73F23CAE73A462168284603F0ACFC62
S315080048702060D0E7404622F0C6F92D20ECE722203A
S3150800488070472220E8E72120E6E700BF60270020DE
S3150800489000D0035008B5084BD3F82404D3F82024D5
S315080048A0104000F0553020F0502003F50053C3F8AF
S315080048B02004FFF707FE08BD00C0035008B5084BE3
S315080048C0D3F82404D3F82024104000F0AA3020F0AE
S315080048D0A02003F50053C3F82004FFF7F3FD08BD35
S315080048E000C0035070B586B005460368B3F1B64FED
S315080048F027D0304A934222D04FF0FF36B3F1B64F55
S3150800490021D02C4A934252D12B4822F043FA2B79D4
S315080049108DF804306B798DF80530AB798DF8003059
S31508004920EB798DF8013001220A2101A8FFF712FE62
S3150800493001220A216846FFF70DFE002412E001262F
S31508004940DCE70026DAE71D48DFE701A8FFF76EFE79
S31508004950642007F001FE01A8FFF738FE642007F07F
S31508004960FBFD0134092CF0DD154A02EB0611032381
S31508004970C1F8383568792B7943EA0043C1F83C35E4
S31508004980E979AB7943EA0143543636019351012359
S315080049908DF808308DF80930EB680493AB680393FB
S315080049A02B7C8DF8143002A9286802F003FF06B0A4
S315080049B070BD00BF00800650208A0208248A0208BB
S315080049C000C0035010B582B004460A4822F0E2F946
S315080049D023788DF8043063788DF80530A278B2FA1A
S315080049E082F2520904210DEB0100FFF7B3FD002006
S315080049F002B010BD288A0208F0B585B00C46944668
S31508004A009DF83410664A1278002A00F0BD800546E3
S31508004A10BCF1070F00F2BA800A9A002A00F0B880A3
S31508004A200B9A002A00F0B6800E9AB2F5006F00F3D2
S31508004A30B38001285BD05B4A02EB0C12127B002A7A
S31508004A4000F0AC8000220092019202920392564A2C
S31508004A5002EB4C1E002C4FD14FEA4C160020905109
S31508004A60CEF80400CEF80800CEF80C009EF8020036
S31508004A7040F010008EF802009EF8030040F0300067
S31508004A808EF8030021B9C1B241F003018EF8031074
S31508004A9000930E9B013B444A4FEA4C1002EB4C1123
S31508004AA0165A63F30E1616520A9B8B600B9B4B60C5
S31508004AB0CB789DF83C2062F38303CB70012D36D06A
S31508004AC0109B002B56D0374A4FEA0C1102EB0C13F9
S31508004AD010985050119A5A6000249C605D73724673
S31508004AE06946604603F028F9204605B0F0BD0C9AE1
S31508004AF0002AA0D12D48F8E72B4F4FEA4C1607EBB2
S31508004B004C120020B85150609060D060907840F008
S31508004B1010009070D07840F00300D0700029B7D10B
S31508004B2007EB4C12C1B241F03001D170B0E70E4626
S31508004B300A7B42F001020A73D2B242F002020A73F9
S31508004B40CA68042161F39F02F26006F1100796E82D
S31508004B500F0087E80F00F2696FF0030161F39F0207
S31508004B60F2610C9B7361012CAAD10B9AB2610C9A63
S31508004B707260A5E7002DA6D10B4B03EB4C139A7870
S31508004B806FF304129A709EE70948AEE70748ACE748
S31508004B900648AAE70548A8E70448A6E70548A4E79B
S31508004BA0D5510020C8290020C8280020018000F01F
S31508004BB0028000F0078000F0134B1B78FBB110B59C
S31508004BC00446F0B122F024F80023072B13D80F4A25
S31508004BD002EB0312127B0AB10133F6E723600B4A94
S31508004BE0190102EB031301241C730024545022F00C
S31508004BF00AF8204602E022F006F8054810BD0548E6
S31508004C0070470548FAE700BFD5510020C82900209B
S31508004C10048000F0028000F0018000F038B521F031
S31508004C20F7FF04460023072B06DC0C4A02EB0312A7
S31508004C30127B12B90133F6E7002222B1204621F091
S31508004C40E2FF074838BD03F023F80025054B1D7021
S31508004C50204621F0D8FF2846F4E700BFC8290020DF
S31508004C60058000F0D55100200F4B1B78BBB110B55D
S31508004C700446072815D821F0CBFF0C4B03EB041389
S31508004C801B7B1BB921F0BFFF09480BE0074B03EB61
S31508004C90041300241C7321F0B6FF204602E00548E1
S31508004CA07047054810BD00BFD5510020C82900200F
S31508004CB0068000F0028000F0018000F000B583B0A5
S31508004CC0134B1B68019300238DF8043021F0A0FFD5
S31508004CD0104B1B7833B90F4B01221A7021F093FF42
S31508004CE0002309E021F08FFF0B480EE00B4A02EB88
S31508004CF00312002111730133072BF7DD08238DF802
S31508004D00073001A802F0E8FF002003B05DF804FBB5
S31508004D10E4870208D5510020038000F0C829002046
S31508004D2010B5104C2478BCB1072817DC0E4C04EBE0
S31508004D300014247BA4B10C4C4FEA001E04EB001CA3
S31508004D4044F80E30029BCCF804300024CCF8084016
S31508004D5002F0F2FF204610BD0448FCE70448FAE7D3
S31508004D600448F8E7D5510020C8290020028000F041
S31508004D70018000F0078000F008B50A4B1B785BB18C
S31508004D8007280BD8084B03EB00131B7B43B1002104
S31508004D9002F094FF002008BD0448FCE70448FAE73F
S31508004DA00448F8E7D5510020C8290020028000F001
S31508004DB0018000F0078000F008B50A4B1B785BB14C
S31508004DC007280BD8084B03EB00131B7B43B10121C3
S31508004DD002F074FF002008BD0448FCE70448FAE71F
S31508004DE00448F8E7D5510020C8290020028000F0C1
S31508004DF0018000F0078000F0F8B5194B1F6D5B6D58
S31508004E001F4002D40125002402E0FEE701346D00AC
S31508004E10072C24D83D42F9D0124B1D652301124AAE
S31508004E20D358002BF2D002EB0416B1680131B160F9
S31508004E3072682046984780F00100C0B2737B012B48
S31508004E40E4D10028E2D0094B03EB44131A7B6FF335
S31508004E5041021A731A7F6FF341021A77D6E7F8BD33
S31508004E600000045000200450C8290020C82800204B
S31508004E702DE9F04F89B005460E4614469846C36B91
S31508004E805B69012207A960689847EB6B5B69012299
S31508004E9006A93046984707A81AF0B7F948B1002777
S31508004EA0A77567754FF0FF33A360384609B0BDE8AC
S31508004EB0F08F074606A81AF0B8F90123A375237ED2
S31508004EC0033304EBC3035E6000221A816368B342AE
S31508004ED02AD02368834201D00023A37506A81AF0B6
S31508004EE0C9F9237D984201D00023A37506A81AF0B4
S31508004EF0A0F9814607A81AF09CF9814501D000233C
S31508004F00A37506A81AF09DF9814607A81AF099F91B
S31508004F10814501D00023A375237D043BDBB2022B18
S31508004F200BD80023A375C0E7206006A81AF0A2F9DB
S31508004F3020754FF0FF33A360EEE706A81AF079F95B
S31508004F4080B1EB6B5B69022204A93046984704A836
S31508004F501AF082F90346207D032868D8DFE800F0B6
S31508004F60615B070D06A81AF077F90346F3E7237E77
S31508004F70033304EBC303CC221A811AF08BF9129B74
S31508004F80187094F8189006A81AF046F909F103095A
S31508004F9004EBC90989F80A00237E033304EBC3032B
S31508004FA0B3F808A093F80AB006A81AF042F98146A1
S31508004FB006A81AF046F90390B9F1000F3DD0EB6B3D
S31508004FC05B69022204A93046984704A81AF000F93A
S31508004FD06075637D03B9A375A37DA3B1BAF1000F0C
S31508004FE011D0039BF1186B6C5B4286EA01021A42E8
S31508004FF001D00023A3756B6C5A1E0A409B1A9A456A
S3150800500001D90023A375A37D002B40D0BBF1000F67
S3150800501018D1E77D3CE0227E033204EBC2021381FD
S31508005020ABE7227E033204EBC2021381A5E7227E98
S31508005030033204EBC20213819FE706A81AF0B1F8FF
S315080050406075C6E70122E275627EBAB9BBF1010F47
S3150800505008D095F83470DFB9EA6AB2F1FF3F05D097
S315080050601F4615E001216176174611E0BBF1030FD3
S3150800507001D01F460CE00122A27609E0BBF1010F20
S3150800508037D0BBF1030F03D10122A27600E01F46F9
S3150800509053B117B1BBF1010F06D95346039A3146EE
S315080050A0284619F0F5F9A060A37D13B12369534486
S315080050B02361237E114A127893421CD20133237648
S315080050C0B8F1000F13D0A37D8BB1E37D7BB177B91F
S315080050D0BBF1030F0BD0A168B1F1FF3F07D0129BBC
S315080050E00093012322462846FFF7C2FEA075A77D36
S315080050F0DBE61746CCE70023A375E1E70888020834
S315080051002DE9F04F89B005460F4692469B46002387
S315080051108DF80B304FF0FF31104600F0EFFFB7F572
S31508005120801F1DD30023009317F1020F07D0009BA1
S31508005130002B40F09E802B7C002B00F08C80EB6AC5
S31508005140B3F1FF3F2CD02A689B1A6A6CB3FBF2F9BD
S3150800515017F1020818BF4FF00108002301935DE01C
S315080051600DF10A02394605F1080000F017FF01465D
S31508005170B0F1FF3F11D0504600F0C0FF0DF10B0310
S3150800518001225146284619F002FA00900028CBD091
S315080051909DF80B308BF80030C6E700230093C3E771
S315080051A0696A284619F095F88146D1E701230193E3
S315080051B037E09DF80B308BF80030324B1A683249CD
S315080051C050461FF0F8FF00942F4B9968B1F1FF3F46
S315080051D01BD06B6C5B4281EA06021A4215D12A4C37
S315080051E0204600F08BFF0DF10B0342462146284668
S315080051F019F0CDF904460028E6D017F1020FD8D0E9
S31508005200214B1B68BB42DFD1D3E74946284619F034
S3150800521060F88146019BCBB9009BBBB96B6A4B45CD
S31508005220C4D02C686B6C03FB0944EB6B5B690522E5
S3150800523003A92046984703A81AF0C3F81AF0E8F815
S3150800524020461AF0F1F806460146BFE7009BA3B1CF
S31508005250B7F5801F03D3009B8BB100200AE09BF8AB
S315080052600030DAF80420394605F1080000F0B4FEEB
S31508005270F1E7002009B0BDE8F08F2D20FAE72D20D0
S31508005280F8E700BF04880208BC30002070B582B079
S3150800529004464FF0FF33C3620DF107031A4A6FF055
S315080052A00101FFF72DFF20BB174B9B68E362E56AF8
S315080052B02946204618F0FEFD2063E8B12946204617
S315080052C019F0D6F80546A36AAB421BD029462046F4
S315080052D018F0F0FD0646236B03442363294620464F
S315080052E019F0C6F80546002EEDD100232363E062C7
S315080052F0E9E7A36AE362DAE7E16A204619F0B8F853
S31508005300E062DBE702B070BDE830002030B583B05C
S315080053101C46032A14BF002201221B7E9A4202D091
S31508005320012003B030BD0D46096823689942F7D3BA
S3150800533063689942F4D80DF10703114AFFF7E0FEB6
S315080053400028EDD10E4B5A686B689A42E8D19DF851
S315080053500730032B14BF00230123227E9342DFD19B
S315080053606369013363612369E2689342D8D2A2680C
S31508005370296842F82310236901332361D0E700BF67
S31508005380E83000202DE9F04182B004460E469046EA
S315080053901F46816A06E01A4B9968B1F1FF3F1FD094
S315080053A0012E23D0E06A884217D0B1F1FF3F14D00E
S315080053B0134D284600F0A2FE0DF1070301222946E7
S315080053C0204619F0E4F80028E5D03B469DF807206A
S315080053D029462046C0470028DDD102B0BDE8F08145
S315080053E05968204619F044F80146D9E7044B5A682B
S315080053F0636C5B424A401A42D4D04FF0FF31D1E782
S315080054009030002010B50446083000F08DFD0023CA
S31508005410024A19462046FFF7B5FF10BD7DE501088B
S3150800542038B50446037C0BBB02461349083000F026
S315080054301DFE616A204618F06EFF421C616A20460E
S3150800544018F0BFFE054620B9236B626C1344143B63
S315080054502363A16A204619F00BF8A0622368C01AD4
S31508005460636CB0FBF3F06062284638BD0023034A3C
S315080054700121FFF787FFDCE715E90108E3E80108E2
S31508005480F0B589B080B30F4616461D46044690F817
S3150800549034301BB90025284609B0F0BD012118F0A3
S315080054A065FE01950E9B02930397049600230593C8
S315080054B006939DF83C308DF81C30237C5BB901AA15
S315080054C00A4904F1080000F0D1FD5EB9069D2046A0
S315080054D019F0EEF8DFE701AB054A00212046FFF791
S315080054E051FFF2E7059DF2E70025D4E731E101080F
S315080054F00D530008F0B58BB004460D46406AE36BC1
S315080055005B69052205A92668676C07FB0060984752
